{
	"contracts/_Tw.sol": {
		"Twitter": {
			"abi": [
				{
					"inputs": [],
					"stateMutability": "nonpayable",
					"type": "constructor"
				},
				{
					"anonymous": false,
					"inputs": [
						{
							"indexed": false,
							"internalType": "uint256",
							"name": "id",
							"type": "uint256"
						},
						{
							"indexed": false,
							"internalType": "address",
							"name": "author",
							"type": "address"
						},
						{
							"indexed": false,
							"internalType": "string",
							"name": "content",
							"type": "string"
						},
						{
							"indexed": false,
							"internalType": "uint256",
							"name": "timestamp",
							"type": "uint256"
						}
					],
					"name": "TweetCreated",
					"type": "event"
				},
				{
					"anonymous": false,
					"inputs": [
						{
							"indexed": false,
							"internalType": "address",
							"name": "liker",
							"type": "address"
						},
						{
							"indexed": false,
							"internalType": "address",
							"name": "tweetAuthor",
							"type": "address"
						},
						{
							"indexed": false,
							"internalType": "uint256",
							"name": "tweetId",
							"type": "uint256"
						},
						{
							"indexed": false,
							"internalType": "uint256",
							"name": "newLikeCount",
							"type": "uint256"
						}
					],
					"name": "TweetLiked",
					"type": "event"
				},
				{
					"anonymous": false,
					"inputs": [
						{
							"indexed": false,
							"internalType": "address",
							"name": "unliked",
							"type": "address"
						},
						{
							"indexed": false,
							"internalType": "address",
							"name": "tweetAuthor",
							"type": "address"
						},
						{
							"indexed": false,
							"internalType": "uint256",
							"name": "tweetId",
							"type": "uint256"
						},
						{
							"indexed": false,
							"internalType": "uint256",
							"name": "newLikeCount",
							"type": "uint256"
						}
					],
					"name": "TweetUnliked",
					"type": "event"
				},
				{
					"inputs": [
						{
							"internalType": "uint16",
							"name": "newTweetLength",
							"type": "uint16"
						}
					],
					"name": "changeTweetLength",
					"outputs": [],
					"stateMutability": "nonpayable",
					"type": "function"
				},
				{
					"inputs": [
						{
							"internalType": "string",
							"name": "_tweet",
							"type": "string"
						}
					],
					"name": "createTweet",
					"outputs": [],
					"stateMutability": "nonpayable",
					"type": "function"
				},
				{
					"inputs": [
						{
							"internalType": "address",
							"name": "_owner",
							"type": "address"
						}
					],
					"name": "getAllTweets",
					"outputs": [
						{
							"components": [
								{
									"internalType": "uint256",
									"name": "id",
									"type": "uint256"
								},
								{
									"internalType": "address",
									"name": "author",
									"type": "address"
								},
								{
									"internalType": "string",
									"name": "content",
									"type": "string"
								},
								{
									"internalType": "uint256",
									"name": "timestamp",
									"type": "uint256"
								},
								{
									"internalType": "uint256",
									"name": "likes",
									"type": "uint256"
								}
							],
							"internalType": "struct Twitter.Tweet[]",
							"name": "",
							"type": "tuple[]"
						}
					],
					"stateMutability": "view",
					"type": "function"
				},
				{
					"inputs": [
						{
							"internalType": "address",
							"name": "_author",
							"type": "address"
						}
					],
					"name": "getTotalLikes",
					"outputs": [
						{
							"internalType": "uint256",
							"name": "",
							"type": "uint256"
						}
					],
					"stateMutability": "view",
					"type": "function"
				},
				{
					"inputs": [
						{
							"internalType": "uint256",
							"name": "_i",
							"type": "uint256"
						}
					],
					"name": "getTweet",
					"outputs": [
						{
							"components": [
								{
									"internalType": "uint256",
									"name": "id",
									"type": "uint256"
								},
								{
									"internalType": "address",
									"name": "author",
									"type": "address"
								},
								{
									"internalType": "string",
									"name": "content",
									"type": "string"
								},
								{
									"internalType": "uint256",
									"name": "timestamp",
									"type": "uint256"
								},
								{
									"internalType": "uint256",
									"name": "likes",
									"type": "uint256"
								}
							],
							"internalType": "struct Twitter.Tweet",
							"name": "",
							"type": "tuple"
						}
					],
					"stateMutability": "view",
					"type": "function"
				},
				{
					"inputs": [
						{
							"internalType": "address",
							"name": "author",
							"type": "address"
						},
						{
							"internalType": "uint256",
							"name": "id",
							"type": "uint256"
						}
					],
					"name": "likeTweet",
					"outputs": [],
					"stateMutability": "nonpayable",
					"type": "function"
				},
				{
					"inputs": [],
					"name": "owner",
					"outputs": [
						{
							"internalType": "address",
							"name": "",
							"type": "address"
						}
					],
					"stateMutability": "view",
					"type": "function"
				},
				{
					"inputs": [
						{
							"internalType": "address",
							"name": "",
							"type": "address"
						},
						{
							"internalType": "uint256",
							"name": "",
							"type": "uint256"
						}
					],
					"name": "tweets",
					"outputs": [
						{
							"internalType": "uint256",
							"name": "id",
							"type": "uint256"
						},
						{
							"internalType": "address",
							"name": "author",
							"type": "address"
						},
						{
							"internalType": "string",
							"name": "content",
							"type": "string"
						},
						{
							"internalType": "uint256",
							"name": "timestamp",
							"type": "uint256"
						},
						{
							"internalType": "uint256",
							"name": "likes",
							"type": "uint256"
						}
					],
					"stateMutability": "view",
					"type": "function"
				},
				{
					"inputs": [
						{
							"internalType": "address",
							"name": "author",
							"type": "address"
						},
						{
							"internalType": "uint256",
							"name": "id",
							"type": "uint256"
						}
					],
					"name": "unlikeTweet",
					"outputs": [],
					"stateMutability": "nonpayable",
					"type": "function"
				}
			],
			"devdoc": {
				"kind": "dev",
				"methods": {},
				"version": 1
			},
			"evm": {
				"assembly": "    /* \"contracts/_Tw.sol\":57:2526  contract Twitter {... */\n  mstore(0x40, 0x80)\n    /* \"contracts/_Tw.sol\":106:109  280 */\n  0x0118\n    /* \"contracts/_Tw.sol\":80:109  uint16 MAX_TWEET_LENGTH = 280 */\n  0x00\n  exp(0x0100, 0x00)\n  dup2\n  sload\n  dup2\n  0xffff\n  mul\n  not\n  and\n  swap1\n  dup4\n  0xffff\n  and\n  mul\n  or\n  swap1\n  sstore\n  pop\n    /* \"contracts/_Tw.sol\":626:675  constructor() {... */\n  callvalue\n  dup1\n  iszero\n  tag_1\n  jumpi\n  revert(0x00, 0x00)\ntag_1:\n  pop\n    /* \"contracts/_Tw.sol\":658:668  msg.sender */\n  caller\n    /* \"contracts/_Tw.sol\":650:655  owner */\n  0x02\n  0x00\n    /* \"contracts/_Tw.sol\":650:668  owner = msg.sender */\n  0x0100\n  exp\n  dup2\n  sload\n  dup2\n  0xffffffffffffffffffffffffffffffffffffffff\n  mul\n  not\n  and\n  swap1\n  dup4\n  0xffffffffffffffffffffffffffffffffffffffff\n  and\n  mul\n  or\n  swap1\n  sstore\n  pop\n    /* \"contracts/_Tw.sol\":57:2526  contract Twitter {... */\n  dataSize(sub_0)\n  dup1\n  dataOffset(sub_0)\n  0x00\n  codecopy\n  0x00\n  return\nstop\n\nsub_0: assembly {\n        /* \"contracts/_Tw.sol\":57:2526  contract Twitter {... */\n      mstore(0x40, 0x80)\n      callvalue\n      dup1\n      iszero\n      tag_1\n      jumpi\n      revert(0x00, 0x00)\n    tag_1:\n      pop\n      jumpi(tag_2, lt(calldatasize, 0x04))\n      shr(0xe0, calldataload(0x00))\n      dup1\n      0x63378216\n      gt\n      tag_12\n      jumpi\n      dup1\n      0x63378216\n      eq\n      tag_7\n      jumpi\n      dup1\n      0x7c9cd2bc\n      eq\n      tag_8\n      jumpi\n      dup1\n      0x820785cc\n      eq\n      tag_9\n      jumpi\n      dup1\n      0x8da5cb5b\n      eq\n      tag_10\n      jumpi\n      dup1\n      0xc3ad5ecb\n      eq\n      tag_11\n      jumpi\n      jump(tag_2)\n    tag_12:\n      dup1\n      0x05a1b4a9\n      eq\n      tag_3\n      jumpi\n      dup1\n      0x12e7ee1c\n      eq\n      tag_4\n      jumpi\n      dup1\n      0x3d9b569f\n      eq\n      tag_5\n      jumpi\n      dup1\n      0x58bfa4ab\n      eq\n      tag_6\n      jumpi\n    tag_2:\n      revert(0x00, 0x00)\n        /* \"contracts/_Tw.sol\":260:302  mapping(address =>  Tweet[]) public tweets */\n    tag_3:\n      tag_13\n      0x04\n      dup1\n      calldatasize\n      sub\n      dup2\n      add\n      swap1\n      tag_14\n      swap2\n      swap1\n      tag_15\n      jump\t// in\n    tag_14:\n      tag_16\n      jump\t// in\n    tag_13:\n      mload(0x40)\n      tag_17\n      swap6\n      swap5\n      swap4\n      swap3\n      swap2\n      swap1\n      tag_18\n      jump\t// in\n    tag_17:\n      mload(0x40)\n      dup1\n      swap2\n      sub\n      swap1\n      return\n        /* \"contracts/_Tw.sol\":2412:2524  function getAllTweets(address _owner) public view returns(Tweet[] memory) {... */\n    tag_4:\n      tag_19\n      0x04\n      dup1\n      calldatasize\n      sub\n      dup2\n      add\n      swap1\n      tag_20\n      swap2\n      swap1\n      tag_21\n      jump\t// in\n    tag_20:\n      tag_22\n      jump\t// in\n    tag_19:\n      mload(0x40)\n      tag_23\n      swap2\n      swap1\n      tag_24\n      jump\t// in\n    tag_23:\n      mload(0x40)\n      dup1\n      swap2\n      sub\n      swap1\n      return\n        /* \"contracts/_Tw.sol\":1691:2009  function unlikeTweet(address author, uint256 id) external {... */\n    tag_5:\n      tag_25\n      0x04\n      dup1\n      calldatasize\n      sub\n      dup2\n      add\n      swap1\n      tag_26\n      swap2\n      swap1\n      tag_15\n      jump\t// in\n    tag_26:\n      tag_27\n      jump\t// in\n    tag_25:\n      stop\n        /* \"contracts/_Tw.sol\":798:914  function changeTweetLength(uint16 newTweetLength) public onlyOwner{... */\n    tag_6:\n      tag_28\n      0x04\n      dup1\n      calldatasize\n      sub\n      dup2\n      add\n      swap1\n      tag_29\n      swap2\n      swap1\n      tag_30\n      jump\t// in\n    tag_29:\n      tag_31\n      jump\t// in\n    tag_28:\n      stop\n        /* \"contracts/_Tw.sol\":1440:1685  function likeTweet(address author, uint256 id) external {... */\n    tag_7:\n      tag_32\n      0x04\n      dup1\n      calldatasize\n      sub\n      dup2\n      add\n      swap1\n      tag_33\n      swap2\n      swap1\n      tag_15\n      jump\t// in\n    tag_33:\n      tag_34\n      jump\t// in\n    tag_32:\n      stop\n        /* \"contracts/_Tw.sol\":920:1434  function createTweet(string memory _tweet) public {... */\n    tag_8:\n      tag_35\n      0x04\n      dup1\n      calldatasize\n      sub\n      dup2\n      add\n      swap1\n      tag_36\n      swap2\n      swap1\n      tag_37\n      jump\t// in\n    tag_36:\n      tag_38\n      jump\t// in\n    tag_35:\n      stop\n        /* \"contracts/_Tw.sol\":2019:2291  function getTotalLikes(address _author) external view returns(uint) {... */\n    tag_9:\n      tag_39\n      0x04\n      dup1\n      calldatasize\n      sub\n      dup2\n      add\n      swap1\n      tag_40\n      swap2\n      swap1\n      tag_21\n      jump\t// in\n    tag_40:\n      tag_41\n      jump\t// in\n    tag_39:\n      mload(0x40)\n      tag_42\n      swap2\n      swap1\n      tag_43\n      jump\t// in\n    tag_42:\n      mload(0x40)\n      dup1\n      swap2\n      sub\n      swap1\n      return\n        /* \"contracts/_Tw.sol\":313:333  address public owner */\n    tag_10:\n      tag_44\n      tag_45\n      jump\t// in\n    tag_44:\n      mload(0x40)\n      tag_46\n      swap2\n      swap1\n      tag_47\n      jump\t// in\n    tag_46:\n      mload(0x40)\n      dup1\n      swap2\n      sub\n      swap1\n      return\n        /* \"contracts/_Tw.sol\":2297:2405  function getTweet(uint _i) public view returns (Tweet memory) {... */\n    tag_11:\n      tag_48\n      0x04\n      dup1\n      calldatasize\n      sub\n      dup2\n      add\n      swap1\n      tag_49\n      swap2\n      swap1\n      tag_50\n      jump\t// in\n    tag_49:\n      tag_51\n      jump\t// in\n    tag_48:\n      mload(0x40)\n      tag_52\n      swap2\n      swap1\n      tag_53\n      jump\t// in\n    tag_52:\n      mload(0x40)\n      dup1\n      swap2\n      sub\n      swap1\n      return\n        /* \"contracts/_Tw.sol\":260:302  mapping(address =>  Tweet[]) public tweets */\n    tag_16:\n      mstore(0x20, 0x01)\n      dup2\n      0x00\n      mstore\n      keccak256(0x00, 0x40)\n      dup2\n      dup2\n      sload\n      dup2\n      lt\n      tag_54\n      jumpi\n      0x00\n      dup1\n      revert\n    tag_54:\n      swap1\n      0x00\n      mstore\n      keccak256(0x00, 0x20)\n      swap1\n      0x05\n      mul\n      add\n      0x00\n      swap2\n      pop\n      swap2\n      pop\n      pop\n      dup1\n      0x00\n      add\n      sload\n      swap1\n      dup1\n      0x01\n      add\n      0x00\n      swap1\n      sload\n      swap1\n      0x0100\n      exp\n      swap1\n      div\n      0xffffffffffffffffffffffffffffffffffffffff\n      and\n      swap1\n      dup1\n      0x02\n      add\n      dup1\n      sload\n      tag_56\n      swap1\n      tag_57\n      jump\t// in\n    tag_56:\n      dup1\n      0x1f\n      add\n      0x20\n      dup1\n      swap2\n      div\n      mul\n      0x20\n      add\n      mload(0x40)\n      swap1\n      dup2\n      add\n      0x40\n      mstore\n      dup1\n      swap3\n      swap2\n      swap1\n      dup2\n      dup2\n      mstore\n      0x20\n      add\n      dup3\n      dup1\n      sload\n      tag_58\n      swap1\n      tag_57\n      jump\t// in\n    tag_58:\n      dup1\n      iszero\n      tag_59\n      jumpi\n      dup1\n      0x1f\n      lt\n      tag_60\n      jumpi\n      0x0100\n      dup1\n      dup4\n      sload\n      div\n      mul\n      dup4\n      mstore\n      swap2\n      0x20\n      add\n      swap2\n      jump(tag_59)\n    tag_60:\n      dup3\n      add\n      swap2\n      swap1\n      0x00\n      mstore\n      keccak256(0x00, 0x20)\n      swap1\n    tag_61:\n      dup2\n      sload\n      dup2\n      mstore\n      swap1\n      0x01\n      add\n      swap1\n      0x20\n      add\n      dup1\n      dup4\n      gt\n      tag_61\n      jumpi\n      dup3\n      swap1\n      sub\n      0x1f\n      and\n      dup3\n      add\n      swap2\n    tag_59:\n      pop\n      pop\n      pop\n      pop\n      pop\n      swap1\n      dup1\n      0x03\n      add\n      sload\n      swap1\n      dup1\n      0x04\n      add\n      sload\n      swap1\n      pop\n      dup6\n      jump\t// out\n        /* \"contracts/_Tw.sol\":2412:2524  function getAllTweets(address _owner) public view returns(Tweet[] memory) {... */\n    tag_22:\n        /* \"contracts/_Tw.sol\":2470:2484  Tweet[] memory */\n      0x60\n        /* \"contracts/_Tw.sol\":2503:2509  tweets */\n      0x01\n        /* \"contracts/_Tw.sol\":2503:2517  tweets[_owner] */\n      0x00\n        /* \"contracts/_Tw.sol\":2510:2516  _owner */\n      dup4\n        /* \"contracts/_Tw.sol\":2503:2517  tweets[_owner] */\n      0xffffffffffffffffffffffffffffffffffffffff\n      and\n      0xffffffffffffffffffffffffffffffffffffffff\n      and\n      dup2\n      mstore\n      0x20\n      add\n      swap1\n      dup2\n      mstore\n      0x20\n      add\n      0x00\n      keccak256\n        /* \"contracts/_Tw.sol\":2496:2517  return tweets[_owner] */\n      dup1\n      sload\n      dup1\n      0x20\n      mul\n      0x20\n      add\n      mload(0x40)\n      swap1\n      dup2\n      add\n      0x40\n      mstore\n      dup1\n      swap3\n      swap2\n      swap1\n      dup2\n      dup2\n      mstore\n      0x20\n      add\n      0x00\n      swap1\n    tag_63:\n      dup3\n      dup3\n      lt\n      iszero\n      tag_64\n      jumpi\n      dup4\n      dup3\n      swap1\n      0x00\n      mstore\n      keccak256(0x00, 0x20)\n      swap1\n      0x05\n      mul\n      add\n      mload(0x40)\n      dup1\n      0xa0\n      add\n      0x40\n      mstore\n      swap1\n      dup2\n      0x00\n      dup3\n      add\n      sload\n      dup2\n      mstore\n      0x20\n      add\n      0x01\n      dup3\n      add\n      0x00\n      swap1\n      sload\n      swap1\n      0x0100\n      exp\n      swap1\n      div\n      0xffffffffffffffffffffffffffffffffffffffff\n      and\n      0xffffffffffffffffffffffffffffffffffffffff\n      and\n      0xffffffffffffffffffffffffffffffffffffffff\n      and\n      dup2\n      mstore\n      0x20\n      add\n      0x02\n      dup3\n      add\n      dup1\n      sload\n      tag_66\n      swap1\n      tag_57\n      jump\t// in\n    tag_66:\n      dup1\n      0x1f\n      add\n      0x20\n      dup1\n      swap2\n      div\n      mul\n      0x20\n      add\n      mload(0x40)\n      swap1\n      dup2\n      add\n      0x40\n      mstore\n      dup1\n      swap3\n      swap2\n      swap1\n      dup2\n      dup2\n      mstore\n      0x20\n      add\n      dup3\n      dup1\n      sload\n      tag_67\n      swap1\n      tag_57\n      jump\t// in\n    tag_67:\n      dup1\n      iszero\n      tag_68\n      jumpi\n      dup1\n      0x1f\n      lt\n      tag_69\n      jumpi\n      0x0100\n      dup1\n      dup4\n      sload\n      div\n      mul\n      dup4\n      mstore\n      swap2\n      0x20\n      add\n      swap2\n      jump(tag_68)\n    tag_69:\n      dup3\n      add\n      swap2\n      swap1\n      0x00\n      mstore\n      keccak256(0x00, 0x20)\n      swap1\n    tag_70:\n      dup2\n      sload\n      dup2\n      mstore\n      swap1\n      0x01\n      add\n      swap1\n      0x20\n      add\n      dup1\n      dup4\n      gt\n      tag_70\n      jumpi\n      dup3\n      swap1\n      sub\n      0x1f\n      and\n      dup3\n      add\n      swap2\n    tag_68:\n      pop\n      pop\n      pop\n      pop\n      pop\n      dup2\n      mstore\n      0x20\n      add\n      0x03\n      dup3\n      add\n      sload\n      dup2\n      mstore\n      0x20\n      add\n      0x04\n      dup3\n      add\n      sload\n      dup2\n      mstore\n      pop\n      pop\n      dup2\n      mstore\n      0x20\n      add\n      swap1\n      0x01\n      add\n      swap1\n      jump(tag_63)\n    tag_64:\n      pop\n      pop\n      pop\n      pop\n      swap1\n      pop\n        /* \"contracts/_Tw.sol\":2412:2524  function getAllTweets(address _owner) public view returns(Tweet[] memory) {... */\n      swap2\n      swap1\n      pop\n      jump\t// out\n        /* \"contracts/_Tw.sol\":1691:2009  function unlikeTweet(address author, uint256 id) external {... */\n    tag_27:\n        /* \"contracts/_Tw.sol\":1792:1794  id */\n      dup1\n        /* \"contracts/_Tw.sol\":1767:1773  tweets */\n      0x01\n        /* \"contracts/_Tw.sol\":1767:1781  tweets[author] */\n      0x00\n        /* \"contracts/_Tw.sol\":1774:1780  author */\n      dup5\n        /* \"contracts/_Tw.sol\":1767:1781  tweets[author] */\n      0xffffffffffffffffffffffffffffffffffffffff\n      and\n      0xffffffffffffffffffffffffffffffffffffffff\n      and\n      dup2\n      mstore\n      0x20\n      add\n      swap1\n      dup2\n      mstore\n      0x20\n      add\n      0x00\n      keccak256\n        /* \"contracts/_Tw.sol\":1782:1784  id */\n      dup3\n        /* \"contracts/_Tw.sol\":1767:1785  tweets[author][id] */\n      dup2\n      sload\n      dup2\n      lt\n      tag_72\n      jumpi\n      tag_73\n      tag_74\n      jump\t// in\n    tag_73:\n    tag_72:\n      swap1\n      0x00\n      mstore\n      keccak256(0x00, 0x20)\n      swap1\n      0x05\n      mul\n      add\n        /* \"contracts/_Tw.sol\":1767:1788  tweets[author][id].id */\n      0x00\n      add\n      sload\n        /* \"contracts/_Tw.sol\":1767:1794  tweets[author][id].id == id */\n      eq\n        /* \"contracts/_Tw.sol\":1759:1819  require(tweets[author][id].id == id, \"Tweet does not exist\") */\n      tag_76\n      jumpi\n      mload(0x40)\n      0x08c379a000000000000000000000000000000000000000000000000000000000\n      dup2\n      mstore\n      0x04\n      add\n      tag_77\n      swap1\n      tag_78\n      jump\t// in\n    tag_77:\n      mload(0x40)\n      dup1\n      swap2\n      sub\n      swap1\n      revert\n    tag_76:\n        /* \"contracts/_Tw.sol\":1864:1865  0 */\n      0x00\n        /* \"contracts/_Tw.sol\":1837:1843  tweets */\n      0x01\n        /* \"contracts/_Tw.sol\":1837:1851  tweets[author] */\n      0x00\n        /* \"contracts/_Tw.sol\":1844:1850  author */\n      dup5\n        /* \"contracts/_Tw.sol\":1837:1851  tweets[author] */\n      0xffffffffffffffffffffffffffffffffffffffff\n      and\n      0xffffffffffffffffffffffffffffffffffffffff\n      and\n      dup2\n      mstore\n      0x20\n      add\n      swap1\n      dup2\n      mstore\n      0x20\n      add\n      0x00\n      keccak256\n        /* \"contracts/_Tw.sol\":1852:1854  id */\n      dup3\n        /* \"contracts/_Tw.sol\":1837:1855  tweets[author][id] */\n      dup2\n      sload\n      dup2\n      lt\n      tag_79\n      jumpi\n      tag_80\n      tag_74\n      jump\t// in\n    tag_80:\n    tag_79:\n      swap1\n      0x00\n      mstore\n      keccak256(0x00, 0x20)\n      swap1\n      0x05\n      mul\n      add\n        /* \"contracts/_Tw.sol\":1837:1861  tweets[author][id].likes */\n      0x04\n      add\n      sload\n        /* \"contracts/_Tw.sol\":1837:1865  tweets[author][id].likes > 0 */\n      gt\n        /* \"contracts/_Tw.sol\":1829:1888  require(tweets[author][id].likes > 0, \"Tweet has no likes\") */\n      tag_82\n      jumpi\n      mload(0x40)\n      0x08c379a000000000000000000000000000000000000000000000000000000000\n      dup2\n      mstore\n      0x04\n      add\n      tag_83\n      swap1\n      tag_84\n      jump\t// in\n    tag_83:\n      mload(0x40)\n      dup1\n      swap2\n      sub\n      swap1\n      revert\n    tag_82:\n        /* \"contracts/_Tw.sol\":1898:1904  tweets */\n      0x01\n        /* \"contracts/_Tw.sol\":1898:1912  tweets[author] */\n      0x00\n        /* \"contracts/_Tw.sol\":1905:1911  author */\n      dup4\n        /* \"contracts/_Tw.sol\":1898:1912  tweets[author] */\n      0xffffffffffffffffffffffffffffffffffffffff\n      and\n      0xffffffffffffffffffffffffffffffffffffffff\n      and\n      dup2\n      mstore\n      0x20\n      add\n      swap1\n      dup2\n      mstore\n      0x20\n      add\n      0x00\n      keccak256\n        /* \"contracts/_Tw.sol\":1913:1915  id */\n      dup2\n        /* \"contracts/_Tw.sol\":1898:1916  tweets[author][id] */\n      dup2\n      sload\n      dup2\n      lt\n      tag_85\n      jumpi\n      tag_86\n      tag_74\n      jump\t// in\n    tag_86:\n    tag_85:\n      swap1\n      0x00\n      mstore\n      keccak256(0x00, 0x20)\n      swap1\n      0x05\n      mul\n      add\n        /* \"contracts/_Tw.sol\":1898:1922  tweets[author][id].likes */\n      0x04\n      add\n      0x00\n        /* \"contracts/_Tw.sol\":1898:1924  tweets[author][id].likes-- */\n      dup2\n      sload\n      dup1\n      swap3\n      swap2\n      swap1\n      tag_88\n      swap1\n      tag_89\n      jump\t// in\n    tag_88:\n      swap2\n      swap1\n      pop\n      sstore\n      pop\n        /* \"contracts/_Tw.sol\":1940:2002  TweetUnliked(msg.sender, author, id, tweets[author][id].likes) */\n      0x762c2616349603ac16eba0de8e6141b79129a07ab63bd99e0a80b3a471716943\n        /* \"contracts/_Tw.sol\":1953:1963  msg.sender */\n      caller\n        /* \"contracts/_Tw.sol\":1965:1971  author */\n      dup4\n        /* \"contracts/_Tw.sol\":1973:1975  id */\n      dup4\n        /* \"contracts/_Tw.sol\":1977:1983  tweets */\n      0x01\n        /* \"contracts/_Tw.sol\":1977:1991  tweets[author] */\n      0x00\n        /* \"contracts/_Tw.sol\":1984:1990  author */\n      dup8\n        /* \"contracts/_Tw.sol\":1977:1991  tweets[author] */\n      0xffffffffffffffffffffffffffffffffffffffff\n      and\n      0xffffffffffffffffffffffffffffffffffffffff\n      and\n      dup2\n      mstore\n      0x20\n      add\n      swap1\n      dup2\n      mstore\n      0x20\n      add\n      0x00\n      keccak256\n        /* \"contracts/_Tw.sol\":1992:1994  id */\n      dup6\n        /* \"contracts/_Tw.sol\":1977:1995  tweets[author][id] */\n      dup2\n      sload\n      dup2\n      lt\n      tag_90\n      jumpi\n      tag_91\n      tag_74\n      jump\t// in\n    tag_91:\n    tag_90:\n      swap1\n      0x00\n      mstore\n      keccak256(0x00, 0x20)\n      swap1\n      0x05\n      mul\n      add\n        /* \"contracts/_Tw.sol\":1977:2001  tweets[author][id].likes */\n      0x04\n      add\n      sload\n        /* \"contracts/_Tw.sol\":1940:2002  TweetUnliked(msg.sender, author, id, tweets[author][id].likes) */\n      mload(0x40)\n      tag_93\n      swap5\n      swap4\n      swap3\n      swap2\n      swap1\n      tag_94\n      jump\t// in\n    tag_93:\n      mload(0x40)\n      dup1\n      swap2\n      sub\n      swap1\n      log1\n        /* \"contracts/_Tw.sol\":1691:2009  function unlikeTweet(address author, uint256 id) external {... */\n      pop\n      pop\n      jump\t// out\n        /* \"contracts/_Tw.sol\":798:914  function changeTweetLength(uint16 newTweetLength) public onlyOwner{... */\n    tag_31:\n        /* \"contracts/_Tw.sol\":734:739  owner */\n      0x02\n      0x00\n      swap1\n      sload\n      swap1\n      0x0100\n      exp\n      swap1\n      div\n      0xffffffffffffffffffffffffffffffffffffffff\n      and\n        /* \"contracts/_Tw.sol\":720:739  msg.sender == owner */\n      0xffffffffffffffffffffffffffffffffffffffff\n      and\n        /* \"contracts/_Tw.sol\":720:730  msg.sender */\n      caller\n        /* \"contracts/_Tw.sol\":720:739  msg.sender == owner */\n      0xffffffffffffffffffffffffffffffffffffffff\n      and\n      eq\n        /* \"contracts/_Tw.sol\":712:774  require(msg.sender == owner, \"You are not the contract owner\") */\n      tag_96\n      jumpi\n      mload(0x40)\n      0x08c379a000000000000000000000000000000000000000000000000000000000\n      dup2\n      mstore\n      0x04\n      add\n      tag_97\n      swap1\n      tag_98\n      jump\t// in\n    tag_97:\n      mload(0x40)\n      dup1\n      swap2\n      sub\n      swap1\n      revert\n    tag_96:\n        /* \"contracts/_Tw.sol\":893:907  newTweetLength */\n      dup1\n        /* \"contracts/_Tw.sol\":874:890  MAX_TWEET_LENGTH */\n      0x00\n      0x00\n        /* \"contracts/_Tw.sol\":874:907  MAX_TWEET_LENGTH = newTweetLength */\n      0x0100\n      exp\n      dup2\n      sload\n      dup2\n      0xffff\n      mul\n      not\n      and\n      swap1\n      dup4\n      0xffff\n      and\n      mul\n      or\n      swap1\n      sstore\n      pop\n        /* \"contracts/_Tw.sol\":798:914  function changeTweetLength(uint16 newTweetLength) public onlyOwner{... */\n      pop\n      jump\t// out\n        /* \"contracts/_Tw.sol\":1440:1685  function likeTweet(address author, uint256 id) external {... */\n    tag_34:\n        /* \"contracts/_Tw.sol\":1539:1541  id */\n      dup1\n        /* \"contracts/_Tw.sol\":1514:1520  tweets */\n      0x01\n        /* \"contracts/_Tw.sol\":1514:1528  tweets[author] */\n      0x00\n        /* \"contracts/_Tw.sol\":1521:1527  author */\n      dup5\n        /* \"contracts/_Tw.sol\":1514:1528  tweets[author] */\n      0xffffffffffffffffffffffffffffffffffffffff\n      and\n      0xffffffffffffffffffffffffffffffffffffffff\n      and\n      dup2\n      mstore\n      0x20\n      add\n      swap1\n      dup2\n      mstore\n      0x20\n      add\n      0x00\n      keccak256\n        /* \"contracts/_Tw.sol\":1529:1531  id */\n      dup3\n        /* \"contracts/_Tw.sol\":1514:1532  tweets[author][id] */\n      dup2\n      sload\n      dup2\n      lt\n      tag_101\n      jumpi\n      tag_102\n      tag_74\n      jump\t// in\n    tag_102:\n    tag_101:\n      swap1\n      0x00\n      mstore\n      keccak256(0x00, 0x20)\n      swap1\n      0x05\n      mul\n      add\n        /* \"contracts/_Tw.sol\":1514:1535  tweets[author][id].id */\n      0x00\n      add\n      sload\n        /* \"contracts/_Tw.sol\":1514:1541  tweets[author][id].id == id */\n      eq\n        /* \"contracts/_Tw.sol\":1506:1566  require(tweets[author][id].id == id, \"Tweet does not exist\") */\n      tag_104\n      jumpi\n      mload(0x40)\n      0x08c379a000000000000000000000000000000000000000000000000000000000\n      dup2\n      mstore\n      0x04\n      add\n      tag_105\n      swap1\n      tag_78\n      jump\t// in\n    tag_105:\n      mload(0x40)\n      dup1\n      swap2\n      sub\n      swap1\n      revert\n    tag_104:\n        /* \"contracts/_Tw.sol\":1576:1582  tweets */\n      0x01\n        /* \"contracts/_Tw.sol\":1576:1590  tweets[author] */\n      0x00\n        /* \"contracts/_Tw.sol\":1583:1589  author */\n      dup4\n        /* \"contracts/_Tw.sol\":1576:1590  tweets[author] */\n      0xffffffffffffffffffffffffffffffffffffffff\n      and\n      0xffffffffffffffffffffffffffffffffffffffff\n      and\n      dup2\n      mstore\n      0x20\n      add\n      swap1\n      dup2\n      mstore\n      0x20\n      add\n      0x00\n      keccak256\n        /* \"contracts/_Tw.sol\":1591:1593  id */\n      dup2\n        /* \"contracts/_Tw.sol\":1576:1594  tweets[author][id] */\n      dup2\n      sload\n      dup2\n      lt\n      tag_106\n      jumpi\n      tag_107\n      tag_74\n      jump\t// in\n    tag_107:\n    tag_106:\n      swap1\n      0x00\n      mstore\n      keccak256(0x00, 0x20)\n      swap1\n      0x05\n      mul\n      add\n        /* \"contracts/_Tw.sol\":1576:1600  tweets[author][id].likes */\n      0x04\n      add\n      0x00\n        /* \"contracts/_Tw.sol\":1576:1602  tweets[author][id].likes++ */\n      dup2\n      sload\n      dup1\n      swap3\n      swap2\n      swap1\n      tag_109\n      swap1\n      tag_110\n      jump\t// in\n    tag_109:\n      swap2\n      swap1\n      pop\n      sstore\n      pop\n        /* \"contracts/_Tw.sol\":1618:1678  TweetLiked(msg.sender, author, id, tweets[author][id].likes) */\n      0xe8a76fc0f16d11a00d1e93b689b63d76cf60af914dd3d915375dc41d01a0c3c8\n        /* \"contracts/_Tw.sol\":1629:1639  msg.sender */\n      caller\n        /* \"contracts/_Tw.sol\":1641:1647  author */\n      dup4\n        /* \"contracts/_Tw.sol\":1649:1651  id */\n      dup4\n        /* \"contracts/_Tw.sol\":1653:1659  tweets */\n      0x01\n        /* \"contracts/_Tw.sol\":1653:1667  tweets[author] */\n      0x00\n        /* \"contracts/_Tw.sol\":1660:1666  author */\n      dup8\n        /* \"contracts/_Tw.sol\":1653:1667  tweets[author] */\n      0xffffffffffffffffffffffffffffffffffffffff\n      and\n      0xffffffffffffffffffffffffffffffffffffffff\n      and\n      dup2\n      mstore\n      0x20\n      add\n      swap1\n      dup2\n      mstore\n      0x20\n      add\n      0x00\n      keccak256\n        /* \"contracts/_Tw.sol\":1668:1670  id */\n      dup6\n        /* \"contracts/_Tw.sol\":1653:1671  tweets[author][id] */\n      dup2\n      sload\n      dup2\n      lt\n      tag_111\n      jumpi\n      tag_112\n      tag_74\n      jump\t// in\n    tag_112:\n    tag_111:\n      swap1\n      0x00\n      mstore\n      keccak256(0x00, 0x20)\n      swap1\n      0x05\n      mul\n      add\n        /* \"contracts/_Tw.sol\":1653:1677  tweets[author][id].likes */\n      0x04\n      add\n      sload\n        /* \"contracts/_Tw.sol\":1618:1678  TweetLiked(msg.sender, author, id, tweets[author][id].likes) */\n      mload(0x40)\n      tag_114\n      swap5\n      swap4\n      swap3\n      swap2\n      swap1\n      tag_94\n      jump\t// in\n    tag_114:\n      mload(0x40)\n      dup1\n      swap2\n      sub\n      swap1\n      log1\n        /* \"contracts/_Tw.sol\":1440:1685  function likeTweet(address author, uint256 id) external {... */\n      pop\n      pop\n      jump\t// out\n        /* \"contracts/_Tw.sol\":920:1434  function createTweet(string memory _tweet) public {... */\n    tag_38:\n        /* \"contracts/_Tw.sol\":1012:1028  MAX_TWEET_LENGTH */\n      0x00\n      0x00\n      swap1\n      sload\n      swap1\n      0x0100\n      exp\n      swap1\n      div\n      0xffff\n      and\n        /* \"contracts/_Tw.sol\":988:1028  bytes(_tweet).length <= MAX_TWEET_LENGTH */\n      0xffff\n      and\n        /* \"contracts/_Tw.sol\":994:1000  _tweet */\n      dup2\n        /* \"contracts/_Tw.sol\":988:1008  bytes(_tweet).length */\n      mload\n        /* \"contracts/_Tw.sol\":988:1028  bytes(_tweet).length <= MAX_TWEET_LENGTH */\n      gt\n      iszero\n        /* \"contracts/_Tw.sol\":980:1069  require(bytes(_tweet).length <= MAX_TWEET_LENGTH, \"Tweet should be under 280 characters\") */\n      tag_116\n      jumpi\n      mload(0x40)\n      0x08c379a000000000000000000000000000000000000000000000000000000000\n      dup2\n      mstore\n      0x04\n      add\n      tag_117\n      swap1\n      tag_118\n      jump\t// in\n    tag_117:\n      mload(0x40)\n      dup1\n      swap2\n      sub\n      swap1\n      revert\n    tag_116:\n        /* \"contracts/_Tw.sol\":1080:1101  Tweet memory newTweet */\n      0x00\n        /* \"contracts/_Tw.sol\":1104:1287  Tweet({... */\n      mload(0x40)\n      dup1\n      0xa0\n      add\n      0x40\n      mstore\n      dup1\n        /* \"contracts/_Tw.sol\":1128:1134  tweets */\n      0x01\n        /* \"contracts/_Tw.sol\":1128:1146  tweets[msg.sender] */\n      0x00\n        /* \"contracts/_Tw.sol\":1135:1145  msg.sender */\n      caller\n        /* \"contracts/_Tw.sol\":1128:1146  tweets[msg.sender] */\n      0xffffffffffffffffffffffffffffffffffffffff\n      and\n      0xffffffffffffffffffffffffffffffffffffffff\n      and\n      dup2\n      mstore\n      0x20\n      add\n      swap1\n      dup2\n      mstore\n      0x20\n      add\n      0x00\n      keccak256\n        /* \"contracts/_Tw.sol\":1128:1153  tweets[msg.sender].length */\n      dup1\n      sload\n      swap1\n      pop\n        /* \"contracts/_Tw.sol\":1104:1287  Tweet({... */\n      dup2\n      mstore\n      0x20\n      add\n        /* \"contracts/_Tw.sol\":1175:1185  msg.sender */\n      caller\n        /* \"contracts/_Tw.sol\":1104:1287  Tweet({... */\n      0xffffffffffffffffffffffffffffffffffffffff\n      and\n      dup2\n      mstore\n      0x20\n      add\n        /* \"contracts/_Tw.sol\":1208:1214  _tweet */\n      dup4\n        /* \"contracts/_Tw.sol\":1104:1287  Tweet({... */\n      dup2\n      mstore\n      0x20\n      add\n        /* \"contracts/_Tw.sol\":1239:1254  block.timestamp */\n      timestamp\n        /* \"contracts/_Tw.sol\":1104:1287  Tweet({... */\n      dup2\n      mstore\n      0x20\n      add\n        /* \"contracts/_Tw.sol\":1275:1276  0 */\n      0x00\n        /* \"contracts/_Tw.sol\":1104:1287  Tweet({... */\n      dup2\n      mstore\n      pop\n        /* \"contracts/_Tw.sol\":1080:1287  Tweet memory newTweet = Tweet({... */\n      swap1\n      pop\n        /* \"contracts/_Tw.sol\":1298:1304  tweets */\n      0x01\n        /* \"contracts/_Tw.sol\":1298:1316  tweets[msg.sender] */\n      0x00\n        /* \"contracts/_Tw.sol\":1305:1315  msg.sender */\n      caller\n        /* \"contracts/_Tw.sol\":1298:1316  tweets[msg.sender] */\n      0xffffffffffffffffffffffffffffffffffffffff\n      and\n      0xffffffffffffffffffffffffffffffffffffffff\n      and\n      dup2\n      mstore\n      0x20\n      add\n      swap1\n      dup2\n      mstore\n      0x20\n      add\n      0x00\n      keccak256\n        /* \"contracts/_Tw.sol\":1322:1330  newTweet */\n      dup2\n        /* \"contracts/_Tw.sol\":1298:1331  tweets[msg.sender].push(newTweet) */\n      swap1\n      dup1\n      0x01\n      dup2\n      sload\n      add\n      dup1\n      dup3\n      sstore\n      dup1\n      swap2\n      pop\n      pop\n      0x01\n      swap1\n      sub\n      swap1\n      0x00\n      mstore\n      keccak256(0x00, 0x20)\n      swap1\n      0x05\n      mul\n      add\n      0x00\n      swap1\n      swap2\n      swap1\n      swap2\n      swap1\n      swap2\n      pop\n      0x00\n      dup3\n      add\n      mload\n      dup2\n      0x00\n      add\n      sstore\n      0x20\n      dup3\n      add\n      mload\n      dup2\n      0x01\n      add\n      exp(0x0100, 0x00)\n      dup2\n      sload\n      dup2\n      0xffffffffffffffffffffffffffffffffffffffff\n      mul\n      not\n      and\n      swap1\n      dup4\n      0xffffffffffffffffffffffffffffffffffffffff\n      and\n      mul\n      or\n      swap1\n      sstore\n      pop\n      0x40\n      dup3\n      add\n      mload\n      dup2\n      0x02\n      add\n      swap1\n      dup2\n      tag_120\n      swap2\n      swap1\n      tag_121\n      jump\t// in\n    tag_120:\n      pop\n      0x60\n      dup3\n      add\n      mload\n      dup2\n      0x03\n      add\n      sstore\n      0x80\n      dup3\n      add\n      mload\n      dup2\n      0x04\n      add\n      sstore\n      pop\n      pop\n        /* \"contracts/_Tw.sol\":1347:1427  TweetCreated(newTweet.id, newTweet.author, newTweet.content, newTweet.timestamp) */\n      0x16fd3c13e9d46923e0a8bce11c7b473ec508a72e6c96cd2404b29ce972afc29e\n        /* \"contracts/_Tw.sol\":1360:1368  newTweet */\n      dup2\n        /* \"contracts/_Tw.sol\":1360:1371  newTweet.id */\n      0x00\n      add\n      mload\n        /* \"contracts/_Tw.sol\":1373:1381  newTweet */\n      dup3\n        /* \"contracts/_Tw.sol\":1373:1388  newTweet.author */\n      0x20\n      add\n      mload\n        /* \"contracts/_Tw.sol\":1390:1398  newTweet */\n      dup4\n        /* \"contracts/_Tw.sol\":1390:1406  newTweet.content */\n      0x40\n      add\n      mload\n        /* \"contracts/_Tw.sol\":1408:1416  newTweet */\n      dup5\n        /* \"contracts/_Tw.sol\":1408:1426  newTweet.timestamp */\n      0x60\n      add\n      mload\n        /* \"contracts/_Tw.sol\":1347:1427  TweetCreated(newTweet.id, newTweet.author, newTweet.content, newTweet.timestamp) */\n      mload(0x40)\n      tag_122\n      swap5\n      swap4\n      swap3\n      swap2\n      swap1\n      tag_123\n      jump\t// in\n    tag_122:\n      mload(0x40)\n      dup1\n      swap2\n      sub\n      swap1\n      log1\n        /* \"contracts/_Tw.sol\":970:1434  {... */\n      pop\n        /* \"contracts/_Tw.sol\":920:1434  function createTweet(string memory _tweet) public {... */\n      pop\n      jump\t// out\n        /* \"contracts/_Tw.sol\":2019:2291  function getTotalLikes(address _author) external view returns(uint) {... */\n    tag_41:\n        /* \"contracts/_Tw.sol\":2081:2085  uint */\n      0x00\n        /* \"contracts/_Tw.sol\":2101:2116  uint totalLikes */\n      0x00\n        /* \"contracts/_Tw.sol\":2134:2140  uint i */\n      0x00\n        /* \"contracts/_Tw.sol\":2143:2144  0 */\n      0x00\n        /* \"contracts/_Tw.sol\":2134:2144  uint i = 0 */\n      swap1\n      pop\n        /* \"contracts/_Tw.sol\":2130:2250  for(uint i = 0; i < tweets[_author].length; i++) {... */\n    tag_125:\n        /* \"contracts/_Tw.sol\":2150:2156  tweets */\n      0x01\n        /* \"contracts/_Tw.sol\":2150:2165  tweets[_author] */\n      0x00\n        /* \"contracts/_Tw.sol\":2157:2164  _author */\n      dup6\n        /* \"contracts/_Tw.sol\":2150:2165  tweets[_author] */\n      0xffffffffffffffffffffffffffffffffffffffff\n      and\n      0xffffffffffffffffffffffffffffffffffffffff\n      and\n      dup2\n      mstore\n      0x20\n      add\n      swap1\n      dup2\n      mstore\n      0x20\n      add\n      0x00\n      keccak256\n        /* \"contracts/_Tw.sol\":2150:2172  tweets[_author].length */\n      dup1\n      sload\n      swap1\n      pop\n        /* \"contracts/_Tw.sol\":2146:2147  i */\n      dup2\n        /* \"contracts/_Tw.sol\":2146:2172  i < tweets[_author].length */\n      lt\n        /* \"contracts/_Tw.sol\":2130:2250  for(uint i = 0; i < tweets[_author].length; i++) {... */\n      iszero\n      tag_126\n      jumpi\n        /* \"contracts/_Tw.sol\":2211:2217  tweets */\n      0x01\n        /* \"contracts/_Tw.sol\":2211:2226  tweets[_author] */\n      0x00\n        /* \"contracts/_Tw.sol\":2218:2225  _author */\n      dup6\n        /* \"contracts/_Tw.sol\":2211:2226  tweets[_author] */\n      0xffffffffffffffffffffffffffffffffffffffff\n      and\n      0xffffffffffffffffffffffffffffffffffffffff\n      and\n      dup2\n      mstore\n      0x20\n      add\n      swap1\n      dup2\n      mstore\n      0x20\n      add\n      0x00\n      keccak256\n        /* \"contracts/_Tw.sol\":2227:2228  i */\n      dup2\n        /* \"contracts/_Tw.sol\":2211:2229  tweets[_author][i] */\n      dup2\n      sload\n      dup2\n      lt\n      tag_128\n      jumpi\n      tag_129\n      tag_74\n      jump\t// in\n    tag_129:\n    tag_128:\n      swap1\n      0x00\n      mstore\n      keccak256(0x00, 0x20)\n      swap1\n      0x05\n      mul\n      add\n        /* \"contracts/_Tw.sol\":2211:2235  tweets[_author][i].likes */\n      0x04\n      add\n      sload\n        /* \"contracts/_Tw.sol\":2197:2235  totalLikes += tweets[_author][i].likes */\n      dup3\n      tag_131\n      swap2\n      swap1\n      tag_132\n      jump\t// in\n    tag_131:\n      swap2\n      pop\n        /* \"contracts/_Tw.sol\":2174:2177  i++ */\n      dup1\n      dup1\n      0x01\n      add\n      swap2\n      pop\n      pop\n        /* \"contracts/_Tw.sol\":2130:2250  for(uint i = 0; i < tweets[_author].length; i++) {... */\n      jump(tag_125)\n    tag_126:\n      pop\n        /* \"contracts/_Tw.sol\":2270:2280  totalLikes */\n      dup1\n        /* \"contracts/_Tw.sol\":2263:2280  return totalLikes */\n      swap2\n      pop\n      pop\n        /* \"contracts/_Tw.sol\":2019:2291  function getTotalLikes(address _author) external view returns(uint) {... */\n      swap2\n      swap1\n      pop\n      jump\t// out\n        /* \"contracts/_Tw.sol\":313:333  address public owner */\n    tag_45:\n      0x02\n      0x00\n      swap1\n      sload\n      swap1\n      0x0100\n      exp\n      swap1\n      div\n      0xffffffffffffffffffffffffffffffffffffffff\n      and\n      dup2\n      jump\t// out\n        /* \"contracts/_Tw.sol\":2297:2405  function getTweet(uint _i) public view returns (Tweet memory) {... */\n    tag_51:\n        /* \"contracts/_Tw.sol\":2345:2357  Tweet memory */\n      tag_133\n      tag_134\n      jump\t// in\n    tag_133:\n        /* \"contracts/_Tw.sol\":2376:2382  tweets */\n      0x01\n        /* \"contracts/_Tw.sol\":2376:2394  tweets[msg.sender] */\n      0x00\n        /* \"contracts/_Tw.sol\":2383:2393  msg.sender */\n      caller\n        /* \"contracts/_Tw.sol\":2376:2394  tweets[msg.sender] */\n      0xffffffffffffffffffffffffffffffffffffffff\n      and\n      0xffffffffffffffffffffffffffffffffffffffff\n      and\n      dup2\n      mstore\n      0x20\n      add\n      swap1\n      dup2\n      mstore\n      0x20\n      add\n      0x00\n      keccak256\n        /* \"contracts/_Tw.sol\":2395:2397  _i */\n      dup3\n        /* \"contracts/_Tw.sol\":2376:2398  tweets[msg.sender][_i] */\n      dup2\n      sload\n      dup2\n      lt\n      tag_136\n      jumpi\n      tag_137\n      tag_74\n      jump\t// in\n    tag_137:\n    tag_136:\n      swap1\n      0x00\n      mstore\n      keccak256(0x00, 0x20)\n      swap1\n      0x05\n      mul\n      add\n        /* \"contracts/_Tw.sol\":2369:2398  return tweets[msg.sender][_i] */\n      mload(0x40)\n      dup1\n      0xa0\n      add\n      0x40\n      mstore\n      swap1\n      dup2\n      0x00\n      dup3\n      add\n      sload\n      dup2\n      mstore\n      0x20\n      add\n      0x01\n      dup3\n      add\n      0x00\n      swap1\n      sload\n      swap1\n      0x0100\n      exp\n      swap1\n      div\n      0xffffffffffffffffffffffffffffffffffffffff\n      and\n      0xffffffffffffffffffffffffffffffffffffffff\n      and\n      0xffffffffffffffffffffffffffffffffffffffff\n      and\n      dup2\n      mstore\n      0x20\n      add\n      0x02\n      dup3\n      add\n      dup1\n      sload\n      tag_139\n      swap1\n      tag_57\n      jump\t// in\n    tag_139:\n      dup1\n      0x1f\n      add\n      0x20\n      dup1\n      swap2\n      div\n      mul\n      0x20\n      add\n      mload(0x40)\n      swap1\n      dup2\n      add\n      0x40\n      mstore\n      dup1\n      swap3\n      swap2\n      swap1\n      dup2\n      dup2\n      mstore\n      0x20\n      add\n      dup3\n      dup1\n      sload\n      tag_140\n      swap1\n      tag_57\n      jump\t// in\n    tag_140:\n      dup1\n      iszero\n      tag_141\n      jumpi\n      dup1\n      0x1f\n      lt\n      tag_142\n      jumpi\n      0x0100\n      dup1\n      dup4\n      sload\n      div\n      mul\n      dup4\n      mstore\n      swap2\n      0x20\n      add\n      swap2\n      jump(tag_141)\n    tag_142:\n      dup3\n      add\n      swap2\n      swap1\n      0x00\n      mstore\n      keccak256(0x00, 0x20)\n      swap1\n    tag_143:\n      dup2\n      sload\n      dup2\n      mstore\n      swap1\n      0x01\n      add\n      swap1\n      0x20\n      add\n      dup1\n      dup4\n      gt\n      tag_143\n      jumpi\n      dup3\n      swap1\n      sub\n      0x1f\n      and\n      dup3\n      add\n      swap2\n    tag_141:\n      pop\n      pop\n      pop\n      pop\n      pop\n      dup2\n      mstore\n      0x20\n      add\n      0x03\n      dup3\n      add\n      sload\n      dup2\n      mstore\n      0x20\n      add\n      0x04\n      dup3\n      add\n      sload\n      dup2\n      mstore\n      pop\n      pop\n      swap1\n      pop\n        /* \"contracts/_Tw.sol\":2297:2405  function getTweet(uint _i) public view returns (Tweet memory) {... */\n      swap2\n      swap1\n      pop\n      jump\t// out\n    tag_134:\n      mload(0x40)\n      dup1\n      0xa0\n      add\n      0x40\n      mstore\n      dup1\n      0x00\n      dup2\n      mstore\n      0x20\n      add\n      and(0xffffffffffffffffffffffffffffffffffffffff, 0x00)\n      dup2\n      mstore\n      0x20\n      add\n      0x60\n      dup2\n      mstore\n      0x20\n      add\n      0x00\n      dup2\n      mstore\n      0x20\n      add\n      0x00\n      dup2\n      mstore\n      pop\n      swap1\n      jump\t// out\n        /* \"#utility.yul\":7:82   */\n    tag_144:\n        /* \"#utility.yul\":40:46   */\n      0x00\n        /* \"#utility.yul\":73:75   */\n      0x40\n        /* \"#utility.yul\":67:76   */\n      mload\n        /* \"#utility.yul\":57:76   */\n      swap1\n      pop\n        /* \"#utility.yul\":7:82   */\n      swap1\n      jump\t// out\n        /* \"#utility.yul\":88:205   */\n    tag_145:\n        /* \"#utility.yul\":197:198   */\n      0x00\n        /* \"#utility.yul\":194:195   */\n      0x00\n        /* \"#utility.yul\":187:199   */\n      revert\n        /* \"#utility.yul\":211:328   */\n    tag_146:\n        /* \"#utility.yul\":320:321   */\n      0x00\n        /* \"#utility.yul\":317:318   */\n      0x00\n        /* \"#utility.yul\":310:322   */\n      revert\n        /* \"#utility.yul\":334:460   */\n    tag_147:\n        /* \"#utility.yul\":371:378   */\n      0x00\n        /* \"#utility.yul\":411:453   */\n      0xffffffffffffffffffffffffffffffffffffffff\n        /* \"#utility.yul\":404:409   */\n      dup3\n        /* \"#utility.yul\":400:454   */\n      and\n        /* \"#utility.yul\":389:454   */\n      swap1\n      pop\n        /* \"#utility.yul\":334:460   */\n      swap2\n      swap1\n      pop\n      jump\t// out\n        /* \"#utility.yul\":466:562   */\n    tag_148:\n        /* \"#utility.yul\":503:510   */\n      0x00\n        /* \"#utility.yul\":532:556   */\n      tag_216\n        /* \"#utility.yul\":550:555   */\n      dup3\n        /* \"#utility.yul\":532:556   */\n      tag_147\n      jump\t// in\n    tag_216:\n        /* \"#utility.yul\":521:556   */\n      swap1\n      pop\n        /* \"#utility.yul\":466:562   */\n      swap2\n      swap1\n      pop\n      jump\t// out\n        /* \"#utility.yul\":568:690   */\n    tag_149:\n        /* \"#utility.yul\":641:665   */\n      tag_218\n        /* \"#utility.yul\":659:664   */\n      dup2\n        /* \"#utility.yul\":641:665   */\n      tag_148\n      jump\t// in\n    tag_218:\n        /* \"#utility.yul\":634:639   */\n      dup2\n        /* \"#utility.yul\":631:666   */\n      eq\n        /* \"#utility.yul\":621:684   */\n      tag_219\n      jumpi\n        /* \"#utility.yul\":680:681   */\n      0x00\n        /* \"#utility.yul\":677:678   */\n      0x00\n        /* \"#utility.yul\":670:682   */\n      revert\n        /* \"#utility.yul\":621:684   */\n    tag_219:\n        /* \"#utility.yul\":568:690   */\n      pop\n      jump\t// out\n        /* \"#utility.yul\":696:835   */\n    tag_150:\n        /* \"#utility.yul\":742:747   */\n      0x00\n        /* \"#utility.yul\":780:786   */\n      dup2\n        /* \"#utility.yul\":767:787   */\n      calldataload\n        /* \"#utility.yul\":758:787   */\n      swap1\n      pop\n        /* \"#utility.yul\":796:829   */\n      tag_221\n        /* \"#utility.yul\":823:828   */\n      dup2\n        /* \"#utility.yul\":796:829   */\n      tag_149\n      jump\t// in\n    tag_221:\n        /* \"#utility.yul\":696:835   */\n      swap3\n      swap2\n      pop\n      pop\n      jump\t// out\n        /* \"#utility.yul\":841:918   */\n    tag_151:\n        /* \"#utility.yul\":878:885   */\n      0x00\n        /* \"#utility.yul\":907:912   */\n      dup2\n        /* \"#utility.yul\":896:912   */\n      swap1\n      pop\n        /* \"#utility.yul\":841:918   */\n      swap2\n      swap1\n      pop\n      jump\t// out\n        /* \"#utility.yul\":924:1046   */\n    tag_152:\n        /* \"#utility.yul\":997:1021   */\n      tag_224\n        /* \"#utility.yul\":1015:1020   */\n      dup2\n        /* \"#utility.yul\":997:1021   */\n      tag_151\n      jump\t// in\n    tag_224:\n        /* \"#utility.yul\":990:995   */\n      dup2\n        /* \"#utility.yul\":987:1022   */\n      eq\n        /* \"#utility.yul\":977:1040   */\n      tag_225\n      jumpi\n        /* \"#utility.yul\":1036:1037   */\n      0x00\n        /* \"#utility.yul\":1033:1034   */\n      0x00\n        /* \"#utility.yul\":1026:1038   */\n      revert\n        /* \"#utility.yul\":977:1040   */\n    tag_225:\n        /* \"#utility.yul\":924:1046   */\n      pop\n      jump\t// out\n        /* \"#utility.yul\":1052:1191   */\n    tag_153:\n        /* \"#utility.yul\":1098:1103   */\n      0x00\n        /* \"#utility.yul\":1136:1142   */\n      dup2\n        /* \"#utility.yul\":1123:1143   */\n      calldataload\n        /* \"#utility.yul\":1114:1143   */\n      swap1\n      pop\n        /* \"#utility.yul\":1152:1185   */\n      tag_227\n        /* \"#utility.yul\":1179:1184   */\n      dup2\n        /* \"#utility.yul\":1152:1185   */\n      tag_152\n      jump\t// in\n    tag_227:\n        /* \"#utility.yul\":1052:1191   */\n      swap3\n      swap2\n      pop\n      pop\n      jump\t// out\n        /* \"#utility.yul\":1197:1671   */\n    tag_15:\n        /* \"#utility.yul\":1265:1271   */\n      0x00\n        /* \"#utility.yul\":1273:1279   */\n      0x00\n        /* \"#utility.yul\":1322:1324   */\n      0x40\n        /* \"#utility.yul\":1310:1319   */\n      dup4\n        /* \"#utility.yul\":1301:1308   */\n      dup6\n        /* \"#utility.yul\":1297:1320   */\n      sub\n        /* \"#utility.yul\":1293:1325   */\n      slt\n        /* \"#utility.yul\":1290:1409   */\n      iszero\n      tag_229\n      jumpi\n        /* \"#utility.yul\":1328:1407   */\n      tag_230\n      tag_145\n      jump\t// in\n    tag_230:\n        /* \"#utility.yul\":1290:1409   */\n    tag_229:\n        /* \"#utility.yul\":1448:1449   */\n      0x00\n        /* \"#utility.yul\":1473:1526   */\n      tag_231\n        /* \"#utility.yul\":1518:1525   */\n      dup6\n        /* \"#utility.yul\":1509:1515   */\n      dup3\n        /* \"#utility.yul\":1498:1507   */\n      dup7\n        /* \"#utility.yul\":1494:1516   */\n      add\n        /* \"#utility.yul\":1473:1526   */\n      tag_150\n      jump\t// in\n    tag_231:\n        /* \"#utility.yul\":1463:1526   */\n      swap3\n      pop\n        /* \"#utility.yul\":1419:1536   */\n      pop\n        /* \"#utility.yul\":1575:1577   */\n      0x20\n        /* \"#utility.yul\":1601:1654   */\n      tag_232\n        /* \"#utility.yul\":1646:1653   */\n      dup6\n        /* \"#utility.yul\":1637:1643   */\n      dup3\n        /* \"#utility.yul\":1626:1635   */\n      dup7\n        /* \"#utility.yul\":1622:1644   */\n      add\n        /* \"#utility.yul\":1601:1654   */\n      tag_153\n      jump\t// in\n    tag_232:\n        /* \"#utility.yul\":1591:1654   */\n      swap2\n      pop\n        /* \"#utility.yul\":1546:1664   */\n      pop\n        /* \"#utility.yul\":1197:1671   */\n      swap3\n      pop\n      swap3\n      swap1\n      pop\n      jump\t// out\n        /* \"#utility.yul\":1677:1795   */\n    tag_154:\n        /* \"#utility.yul\":1764:1788   */\n      tag_234\n        /* \"#utility.yul\":1782:1787   */\n      dup2\n        /* \"#utility.yul\":1764:1788   */\n      tag_151\n      jump\t// in\n    tag_234:\n        /* \"#utility.yul\":1759:1762   */\n      dup3\n        /* \"#utility.yul\":1752:1789   */\n      mstore\n        /* \"#utility.yul\":1677:1795   */\n      pop\n      pop\n      jump\t// out\n        /* \"#utility.yul\":1801:1919   */\n    tag_155:\n        /* \"#utility.yul\":1888:1912   */\n      tag_236\n        /* \"#utility.yul\":1906:1911   */\n      dup2\n        /* \"#utility.yul\":1888:1912   */\n      tag_148\n      jump\t// in\n    tag_236:\n        /* \"#utility.yul\":1883:1886   */\n      dup3\n        /* \"#utility.yul\":1876:1913   */\n      mstore\n        /* \"#utility.yul\":1801:1919   */\n      pop\n      pop\n      jump\t// out\n        /* \"#utility.yul\":1925:2024   */\n    tag_156:\n        /* \"#utility.yul\":1977:1983   */\n      0x00\n        /* \"#utility.yul\":2011:2016   */\n      dup2\n        /* \"#utility.yul\":2005:2017   */\n      mload\n        /* \"#utility.yul\":1995:2017   */\n      swap1\n      pop\n        /* \"#utility.yul\":1925:2024   */\n      swap2\n      swap1\n      pop\n      jump\t// out\n        /* \"#utility.yul\":2030:2199   */\n    tag_157:\n        /* \"#utility.yul\":2114:2125   */\n      0x00\n        /* \"#utility.yul\":2148:2154   */\n      dup3\n        /* \"#utility.yul\":2143:2146   */\n      dup3\n        /* \"#utility.yul\":2136:2155   */\n      mstore\n        /* \"#utility.yul\":2188:2192   */\n      0x20\n        /* \"#utility.yul\":2183:2186   */\n      dup3\n        /* \"#utility.yul\":2179:2193   */\n      add\n        /* \"#utility.yul\":2164:2193   */\n      swap1\n      pop\n        /* \"#utility.yul\":2030:2199   */\n      swap3\n      swap2\n      pop\n      pop\n      jump\t// out\n        /* \"#utility.yul\":2205:2344   */\n    tag_158:\n        /* \"#utility.yul\":2294:2300   */\n      dup3\n        /* \"#utility.yul\":2289:2292   */\n      dup2\n        /* \"#utility.yul\":2284:2287   */\n      dup4\n        /* \"#utility.yul\":2278:2301   */\n      mcopy\n        /* \"#utility.yul\":2335:2336   */\n      0x00\n        /* \"#utility.yul\":2326:2332   */\n      dup4\n        /* \"#utility.yul\":2321:2324   */\n      dup4\n        /* \"#utility.yul\":2317:2333   */\n      add\n        /* \"#utility.yul\":2310:2337   */\n      mstore\n        /* \"#utility.yul\":2205:2344   */\n      pop\n      pop\n      pop\n      jump\t// out\n        /* \"#utility.yul\":2350:2452   */\n    tag_159:\n        /* \"#utility.yul\":2391:2397   */\n      0x00\n        /* \"#utility.yul\":2442:2444   */\n      0x1f\n        /* \"#utility.yul\":2438:2445   */\n      not\n        /* \"#utility.yul\":2433:2435   */\n      0x1f\n        /* \"#utility.yul\":2426:2431   */\n      dup4\n        /* \"#utility.yul\":2422:2436   */\n      add\n        /* \"#utility.yul\":2418:2446   */\n      and\n        /* \"#utility.yul\":2408:2446   */\n      swap1\n      pop\n        /* \"#utility.yul\":2350:2452   */\n      swap2\n      swap1\n      pop\n      jump\t// out\n        /* \"#utility.yul\":2458:2835   */\n    tag_160:\n        /* \"#utility.yul\":2546:2549   */\n      0x00\n        /* \"#utility.yul\":2574:2613   */\n      tag_242\n        /* \"#utility.yul\":2607:2612   */\n      dup3\n        /* \"#utility.yul\":2574:2613   */\n      tag_156\n      jump\t// in\n    tag_242:\n        /* \"#utility.yul\":2629:2700   */\n      tag_243\n        /* \"#utility.yul\":2693:2699   */\n      dup2\n        /* \"#utility.yul\":2688:2691   */\n      dup6\n        /* \"#utility.yul\":2629:2700   */\n      tag_157\n      jump\t// in\n    tag_243:\n        /* \"#utility.yul\":2622:2700   */\n      swap4\n      pop\n        /* \"#utility.yul\":2709:2774   */\n      tag_244\n        /* \"#utility.yul\":2767:2773   */\n      dup2\n        /* \"#utility.yul\":2762:2765   */\n      dup6\n        /* \"#utility.yul\":2755:2759   */\n      0x20\n        /* \"#utility.yul\":2748:2753   */\n      dup7\n        /* \"#utility.yul\":2744:2760   */\n      add\n        /* \"#utility.yul\":2709:2774   */\n      tag_158\n      jump\t// in\n    tag_244:\n        /* \"#utility.yul\":2799:2828   */\n      tag_245\n        /* \"#utility.yul\":2821:2827   */\n      dup2\n        /* \"#utility.yul\":2799:2828   */\n      tag_159\n      jump\t// in\n    tag_245:\n        /* \"#utility.yul\":2794:2797   */\n      dup5\n        /* \"#utility.yul\":2790:2829   */\n      add\n        /* \"#utility.yul\":2783:2829   */\n      swap2\n      pop\n        /* \"#utility.yul\":2550:2835   */\n      pop\n        /* \"#utility.yul\":2458:2835   */\n      swap3\n      swap2\n      pop\n      pop\n      jump\t// out\n        /* \"#utility.yul\":2841:3596   */\n    tag_18:\n        /* \"#utility.yul\":3066:3070   */\n      0x00\n        /* \"#utility.yul\":3104:3107   */\n      0xa0\n        /* \"#utility.yul\":3093:3102   */\n      dup3\n        /* \"#utility.yul\":3089:3108   */\n      add\n        /* \"#utility.yul\":3081:3108   */\n      swap1\n      pop\n        /* \"#utility.yul\":3118:3189   */\n      tag_247\n        /* \"#utility.yul\":3186:3187   */\n      0x00\n        /* \"#utility.yul\":3175:3184   */\n      dup4\n        /* \"#utility.yul\":3171:3188   */\n      add\n        /* \"#utility.yul\":3162:3168   */\n      dup9\n        /* \"#utility.yul\":3118:3189   */\n      tag_154\n      jump\t// in\n    tag_247:\n        /* \"#utility.yul\":3199:3271   */\n      tag_248\n        /* \"#utility.yul\":3267:3269   */\n      0x20\n        /* \"#utility.yul\":3256:3265   */\n      dup4\n        /* \"#utility.yul\":3252:3270   */\n      add\n        /* \"#utility.yul\":3243:3249   */\n      dup8\n        /* \"#utility.yul\":3199:3271   */\n      tag_155\n      jump\t// in\n    tag_248:\n        /* \"#utility.yul\":3318:3327   */\n      dup2\n        /* \"#utility.yul\":3312:3316   */\n      dup2\n        /* \"#utility.yul\":3308:3328   */\n      sub\n        /* \"#utility.yul\":3303:3305   */\n      0x40\n        /* \"#utility.yul\":3292:3301   */\n      dup4\n        /* \"#utility.yul\":3288:3306   */\n      add\n        /* \"#utility.yul\":3281:3329   */\n      mstore\n        /* \"#utility.yul\":3346:3424   */\n      tag_249\n        /* \"#utility.yul\":3419:3423   */\n      dup2\n        /* \"#utility.yul\":3410:3416   */\n      dup7\n        /* \"#utility.yul\":3346:3424   */\n      tag_160\n      jump\t// in\n    tag_249:\n        /* \"#utility.yul\":3338:3424   */\n      swap1\n      pop\n        /* \"#utility.yul\":3434:3506   */\n      tag_250\n        /* \"#utility.yul\":3502:3504   */\n      0x60\n        /* \"#utility.yul\":3491:3500   */\n      dup4\n        /* \"#utility.yul\":3487:3505   */\n      add\n        /* \"#utility.yul\":3478:3484   */\n      dup6\n        /* \"#utility.yul\":3434:3506   */\n      tag_154\n      jump\t// in\n    tag_250:\n        /* \"#utility.yul\":3516:3589   */\n      tag_251\n        /* \"#utility.yul\":3584:3587   */\n      0x80\n        /* \"#utility.yul\":3573:3582   */\n      dup4\n        /* \"#utility.yul\":3569:3588   */\n      add\n        /* \"#utility.yul\":3560:3566   */\n      dup5\n        /* \"#utility.yul\":3516:3589   */\n      tag_154\n      jump\t// in\n    tag_251:\n        /* \"#utility.yul\":2841:3596   */\n      swap7\n      swap6\n      pop\n      pop\n      pop\n      pop\n      pop\n      pop\n      jump\t// out\n        /* \"#utility.yul\":3602:3931   */\n    tag_21:\n        /* \"#utility.yul\":3661:3667   */\n      0x00\n        /* \"#utility.yul\":3710:3712   */\n      0x20\n        /* \"#utility.yul\":3698:3707   */\n      dup3\n        /* \"#utility.yul\":3689:3696   */\n      dup5\n        /* \"#utility.yul\":3685:3708   */\n      sub\n        /* \"#utility.yul\":3681:3713   */\n      slt\n        /* \"#utility.yul\":3678:3797   */\n      iszero\n      tag_253\n      jumpi\n        /* \"#utility.yul\":3716:3795   */\n      tag_254\n      tag_145\n      jump\t// in\n    tag_254:\n        /* \"#utility.yul\":3678:3797   */\n    tag_253:\n        /* \"#utility.yul\":3836:3837   */\n      0x00\n        /* \"#utility.yul\":3861:3914   */\n      tag_255\n        /* \"#utility.yul\":3906:3913   */\n      dup5\n        /* \"#utility.yul\":3897:3903   */\n      dup3\n        /* \"#utility.yul\":3886:3895   */\n      dup6\n        /* \"#utility.yul\":3882:3904   */\n      add\n        /* \"#utility.yul\":3861:3914   */\n      tag_150\n      jump\t// in\n    tag_255:\n        /* \"#utility.yul\":3851:3914   */\n      swap2\n      pop\n        /* \"#utility.yul\":3807:3924   */\n      pop\n        /* \"#utility.yul\":3602:3931   */\n      swap3\n      swap2\n      pop\n      pop\n      jump\t// out\n        /* \"#utility.yul\":3937:4072   */\n    tag_161:\n        /* \"#utility.yul\":4025:4031   */\n      0x00\n        /* \"#utility.yul\":4059:4064   */\n      dup2\n        /* \"#utility.yul\":4053:4065   */\n      mload\n        /* \"#utility.yul\":4043:4065   */\n      swap1\n      pop\n        /* \"#utility.yul\":3937:4072   */\n      swap2\n      swap1\n      pop\n      jump\t// out\n        /* \"#utility.yul\":4078:4283   */\n    tag_162:\n        /* \"#utility.yul\":4198:4209   */\n      0x00\n        /* \"#utility.yul\":4232:4238   */\n      dup3\n        /* \"#utility.yul\":4227:4230   */\n      dup3\n        /* \"#utility.yul\":4220:4239   */\n      mstore\n        /* \"#utility.yul\":4272:4276   */\n      0x20\n        /* \"#utility.yul\":4267:4270   */\n      dup3\n        /* \"#utility.yul\":4263:4277   */\n      add\n        /* \"#utility.yul\":4248:4277   */\n      swap1\n      pop\n        /* \"#utility.yul\":4078:4283   */\n      swap3\n      swap2\n      pop\n      pop\n      jump\t// out\n        /* \"#utility.yul\":4289:4442   */\n    tag_163:\n        /* \"#utility.yul\":4377:4381   */\n      0x00\n        /* \"#utility.yul\":4400:4403   */\n      dup2\n        /* \"#utility.yul\":4392:4403   */\n      swap1\n      pop\n        /* \"#utility.yul\":4430:4434   */\n      0x20\n        /* \"#utility.yul\":4425:4428   */\n      dup3\n        /* \"#utility.yul\":4421:4435   */\n      add\n        /* \"#utility.yul\":4413:4435   */\n      swap1\n      pop\n        /* \"#utility.yul\":4289:4442   */\n      swap2\n      swap1\n      pop\n      jump\t// out\n        /* \"#utility.yul\":4448:4556   */\n    tag_164:\n        /* \"#utility.yul\":4525:4549   */\n      tag_260\n        /* \"#utility.yul\":4543:4548   */\n      dup2\n        /* \"#utility.yul\":4525:4549   */\n      tag_151\n      jump\t// in\n    tag_260:\n        /* \"#utility.yul\":4520:4523   */\n      dup3\n        /* \"#utility.yul\":4513:4550   */\n      mstore\n        /* \"#utility.yul\":4448:4556   */\n      pop\n      pop\n      jump\t// out\n        /* \"#utility.yul\":4562:4670   */\n    tag_165:\n        /* \"#utility.yul\":4639:4663   */\n      tag_262\n        /* \"#utility.yul\":4657:4662   */\n      dup2\n        /* \"#utility.yul\":4639:4663   */\n      tag_148\n      jump\t// in\n    tag_262:\n        /* \"#utility.yul\":4634:4637   */\n      dup3\n        /* \"#utility.yul\":4627:4664   */\n      mstore\n        /* \"#utility.yul\":4562:4670   */\n      pop\n      pop\n      jump\t// out\n        /* \"#utility.yul\":4676:4835   */\n    tag_166:\n        /* \"#utility.yul\":4750:4761   */\n      0x00\n        /* \"#utility.yul\":4784:4790   */\n      dup3\n        /* \"#utility.yul\":4779:4782   */\n      dup3\n        /* \"#utility.yul\":4772:4791   */\n      mstore\n        /* \"#utility.yul\":4824:4828   */\n      0x20\n        /* \"#utility.yul\":4819:4822   */\n      dup3\n        /* \"#utility.yul\":4815:4829   */\n      add\n        /* \"#utility.yul\":4800:4829   */\n      swap1\n      pop\n        /* \"#utility.yul\":4676:4835   */\n      swap3\n      swap2\n      pop\n      pop\n      jump\t// out\n        /* \"#utility.yul\":4841:5198   */\n    tag_167:\n        /* \"#utility.yul\":4919:4922   */\n      0x00\n        /* \"#utility.yul\":4947:4986   */\n      tag_265\n        /* \"#utility.yul\":4980:4985   */\n      dup3\n        /* \"#utility.yul\":4947:4986   */\n      tag_156\n      jump\t// in\n    tag_265:\n        /* \"#utility.yul\":5002:5063   */\n      tag_266\n        /* \"#utility.yul\":5056:5062   */\n      dup2\n        /* \"#utility.yul\":5051:5054   */\n      dup6\n        /* \"#utility.yul\":5002:5063   */\n      tag_166\n      jump\t// in\n    tag_266:\n        /* \"#utility.yul\":4995:5063   */\n      swap4\n      pop\n        /* \"#utility.yul\":5072:5137   */\n      tag_267\n        /* \"#utility.yul\":5130:5136   */\n      dup2\n        /* \"#utility.yul\":5125:5128   */\n      dup6\n        /* \"#utility.yul\":5118:5122   */\n      0x20\n        /* \"#utility.yul\":5111:5116   */\n      dup7\n        /* \"#utility.yul\":5107:5123   */\n      add\n        /* \"#utility.yul\":5072:5137   */\n      tag_158\n      jump\t// in\n    tag_267:\n        /* \"#utility.yul\":5162:5191   */\n      tag_268\n        /* \"#utility.yul\":5184:5190   */\n      dup2\n        /* \"#utility.yul\":5162:5191   */\n      tag_159\n      jump\t// in\n    tag_268:\n        /* \"#utility.yul\":5157:5160   */\n      dup5\n        /* \"#utility.yul\":5153:5192   */\n      add\n        /* \"#utility.yul\":5146:5192   */\n      swap2\n      pop\n        /* \"#utility.yul\":4923:5198   */\n      pop\n        /* \"#utility.yul\":4841:5198   */\n      swap3\n      swap2\n      pop\n      pop\n      jump\t// out\n        /* \"#utility.yul\":5256:6375   */\n    tag_168:\n        /* \"#utility.yul\":5357:5360   */\n      0x00\n        /* \"#utility.yul\":5393:5397   */\n      0xa0\n        /* \"#utility.yul\":5388:5391   */\n      dup4\n        /* \"#utility.yul\":5384:5398   */\n      add\n        /* \"#utility.yul\":5478:5482   */\n      0x00\n        /* \"#utility.yul\":5471:5476   */\n      dup4\n        /* \"#utility.yul\":5467:5483   */\n      add\n        /* \"#utility.yul\":5461:5484   */\n      mload\n        /* \"#utility.yul\":5497:5560   */\n      tag_270\n        /* \"#utility.yul\":5554:5558   */\n      0x00\n        /* \"#utility.yul\":5549:5552   */\n      dup7\n        /* \"#utility.yul\":5545:5559   */\n      add\n        /* \"#utility.yul\":5531:5543   */\n      dup3\n        /* \"#utility.yul\":5497:5560   */\n      tag_164\n      jump\t// in\n    tag_270:\n        /* \"#utility.yul\":5408:5570   */\n      pop\n        /* \"#utility.yul\":5654:5658   */\n      0x20\n        /* \"#utility.yul\":5647:5652   */\n      dup4\n        /* \"#utility.yul\":5643:5659   */\n      add\n        /* \"#utility.yul\":5637:5660   */\n      mload\n        /* \"#utility.yul\":5673:5736   */\n      tag_271\n        /* \"#utility.yul\":5730:5734   */\n      0x20\n        /* \"#utility.yul\":5725:5728   */\n      dup7\n        /* \"#utility.yul\":5721:5735   */\n      add\n        /* \"#utility.yul\":5707:5719   */\n      dup3\n        /* \"#utility.yul\":5673:5736   */\n      tag_165\n      jump\t// in\n    tag_271:\n        /* \"#utility.yul\":5580:5746   */\n      pop\n        /* \"#utility.yul\":5831:5835   */\n      0x40\n        /* \"#utility.yul\":5824:5829   */\n      dup4\n        /* \"#utility.yul\":5820:5836   */\n      add\n        /* \"#utility.yul\":5814:5837   */\n      mload\n        /* \"#utility.yul\":5884:5887   */\n      dup5\n        /* \"#utility.yul\":5878:5882   */\n      dup3\n        /* \"#utility.yul\":5874:5888   */\n      sub\n        /* \"#utility.yul\":5867:5871   */\n      0x40\n        /* \"#utility.yul\":5862:5865   */\n      dup7\n        /* \"#utility.yul\":5858:5872   */\n      add\n        /* \"#utility.yul\":5851:5889   */\n      mstore\n        /* \"#utility.yul\":5910:5983   */\n      tag_272\n        /* \"#utility.yul\":5978:5982   */\n      dup3\n        /* \"#utility.yul\":5964:5976   */\n      dup3\n        /* \"#utility.yul\":5910:5983   */\n      tag_167\n      jump\t// in\n    tag_272:\n        /* \"#utility.yul\":5902:5983   */\n      swap2\n      pop\n        /* \"#utility.yul\":5756:5994   */\n      pop\n        /* \"#utility.yul\":6081:6085   */\n      0x60\n        /* \"#utility.yul\":6074:6079   */\n      dup4\n        /* \"#utility.yul\":6070:6086   */\n      add\n        /* \"#utility.yul\":6064:6087   */\n      mload\n        /* \"#utility.yul\":6100:6163   */\n      tag_273\n        /* \"#utility.yul\":6157:6161   */\n      0x60\n        /* \"#utility.yul\":6152:6155   */\n      dup7\n        /* \"#utility.yul\":6148:6162   */\n      add\n        /* \"#utility.yul\":6134:6146   */\n      dup3\n        /* \"#utility.yul\":6100:6163   */\n      tag_164\n      jump\t// in\n    tag_273:\n        /* \"#utility.yul\":6004:6173   */\n      pop\n        /* \"#utility.yul\":6256:6260   */\n      0x80\n        /* \"#utility.yul\":6249:6254   */\n      dup4\n        /* \"#utility.yul\":6245:6261   */\n      add\n        /* \"#utility.yul\":6239:6262   */\n      mload\n        /* \"#utility.yul\":6275:6338   */\n      tag_274\n        /* \"#utility.yul\":6332:6336   */\n      0x80\n        /* \"#utility.yul\":6327:6330   */\n      dup7\n        /* \"#utility.yul\":6323:6337   */\n      add\n        /* \"#utility.yul\":6309:6321   */\n      dup3\n        /* \"#utility.yul\":6275:6338   */\n      tag_164\n      jump\t// in\n    tag_274:\n        /* \"#utility.yul\":6183:6348   */\n      pop\n        /* \"#utility.yul\":6365:6369   */\n      dup1\n        /* \"#utility.yul\":6358:6369   */\n      swap2\n      pop\n        /* \"#utility.yul\":5362:6375   */\n      pop\n        /* \"#utility.yul\":5256:6375   */\n      swap3\n      swap2\n      pop\n      pop\n      jump\t// out\n        /* \"#utility.yul\":6381:6621   */\n    tag_169:\n        /* \"#utility.yul\":6492:6502   */\n      0x00\n        /* \"#utility.yul\":6527:6615   */\n      tag_276\n        /* \"#utility.yul\":6611:6614   */\n      dup4\n        /* \"#utility.yul\":6603:6609   */\n      dup4\n        /* \"#utility.yul\":6527:6615   */\n      tag_168\n      jump\t// in\n    tag_276:\n        /* \"#utility.yul\":6513:6615   */\n      swap1\n      pop\n        /* \"#utility.yul\":6381:6621   */\n      swap3\n      swap2\n      pop\n      pop\n      jump\t// out\n        /* \"#utility.yul\":6627:6761   */\n    tag_170:\n        /* \"#utility.yul\":6718:6722   */\n      0x00\n        /* \"#utility.yul\":6750:6754   */\n      0x20\n        /* \"#utility.yul\":6745:6748   */\n      dup3\n        /* \"#utility.yul\":6741:6755   */\n      add\n        /* \"#utility.yul\":6733:6755   */\n      swap1\n      pop\n        /* \"#utility.yul\":6627:6761   */\n      swap2\n      swap1\n      pop\n      jump\t// out\n        /* \"#utility.yul\":6823:7902   */\n    tag_171:\n        /* \"#utility.yul\":6984:6987   */\n      0x00\n        /* \"#utility.yul\":7013:7088   */\n      tag_279\n        /* \"#utility.yul\":7082:7087   */\n      dup3\n        /* \"#utility.yul\":7013:7088   */\n      tag_161\n      jump\t// in\n    tag_279:\n        /* \"#utility.yul\":7104:7211   */\n      tag_280\n        /* \"#utility.yul\":7204:7210   */\n      dup2\n        /* \"#utility.yul\":7199:7202   */\n      dup6\n        /* \"#utility.yul\":7104:7211   */\n      tag_162\n      jump\t// in\n    tag_280:\n        /* \"#utility.yul\":7097:7211   */\n      swap4\n      pop\n        /* \"#utility.yul\":7237:7240   */\n      dup4\n        /* \"#utility.yul\":7282:7286   */\n      0x20\n        /* \"#utility.yul\":7274:7280   */\n      dup3\n        /* \"#utility.yul\":7270:7287   */\n      mul\n        /* \"#utility.yul\":7265:7268   */\n      dup6\n        /* \"#utility.yul\":7261:7288   */\n      add\n        /* \"#utility.yul\":7312:7389   */\n      tag_281\n        /* \"#utility.yul\":7383:7388   */\n      dup6\n        /* \"#utility.yul\":7312:7389   */\n      tag_163\n      jump\t// in\n    tag_281:\n        /* \"#utility.yul\":7412:7419   */\n      dup1\n        /* \"#utility.yul\":7443:7444   */\n      0x00\n        /* \"#utility.yul\":7428:7857   */\n    tag_282:\n        /* \"#utility.yul\":7453:7459   */\n      dup6\n        /* \"#utility.yul\":7450:7451   */\n      dup2\n        /* \"#utility.yul\":7447:7460   */\n      lt\n        /* \"#utility.yul\":7428:7857   */\n      iszero\n      tag_284\n      jumpi\n        /* \"#utility.yul\":7524:7533   */\n      dup5\n        /* \"#utility.yul\":7518:7522   */\n      dup5\n        /* \"#utility.yul\":7514:7534   */\n      sub\n        /* \"#utility.yul\":7509:7512   */\n      dup10\n        /* \"#utility.yul\":7502:7535   */\n      mstore\n        /* \"#utility.yul\":7575:7581   */\n      dup2\n        /* \"#utility.yul\":7569:7582   */\n      mload\n        /* \"#utility.yul\":7603:7709   */\n      tag_285\n        /* \"#utility.yul\":7704:7708   */\n      dup6\n        /* \"#utility.yul\":7689:7702   */\n      dup3\n        /* \"#utility.yul\":7603:7709   */\n      tag_169\n      jump\t// in\n    tag_285:\n        /* \"#utility.yul\":7595:7709   */\n      swap5\n      pop\n        /* \"#utility.yul\":7732:7813   */\n      tag_286\n        /* \"#utility.yul\":7806:7812   */\n      dup4\n        /* \"#utility.yul\":7732:7813   */\n      tag_170\n      jump\t// in\n    tag_286:\n        /* \"#utility.yul\":7722:7813   */\n      swap3\n      pop\n        /* \"#utility.yul\":7842:7846   */\n      0x20\n        /* \"#utility.yul\":7837:7840   */\n      dup11\n        /* \"#utility.yul\":7833:7847   */\n      add\n        /* \"#utility.yul\":7826:7847   */\n      swap10\n      pop\n        /* \"#utility.yul\":7488:7857   */\n      pop\n        /* \"#utility.yul\":7475:7476   */\n      0x01\n        /* \"#utility.yul\":7472:7473   */\n      dup2\n        /* \"#utility.yul\":7468:7477   */\n      add\n        /* \"#utility.yul\":7463:7477   */\n      swap1\n      pop\n        /* \"#utility.yul\":7428:7857   */\n      jump(tag_282)\n    tag_284:\n        /* \"#utility.yul\":7432:7446   */\n      pop\n        /* \"#utility.yul\":7873:7877   */\n      dup3\n        /* \"#utility.yul\":7866:7877   */\n      swap8\n      pop\n        /* \"#utility.yul\":7893:7896   */\n      dup8\n        /* \"#utility.yul\":7886:7896   */\n      swap6\n      pop\n        /* \"#utility.yul\":6989:7902   */\n      pop\n      pop\n      pop\n      pop\n      pop\n        /* \"#utility.yul\":6823:7902   */\n      swap3\n      swap2\n      pop\n      pop\n      jump\t// out\n        /* \"#utility.yul\":7908:8365   */\n    tag_24:\n        /* \"#utility.yul\":8093:8097   */\n      0x00\n        /* \"#utility.yul\":8131:8133   */\n      0x20\n        /* \"#utility.yul\":8120:8129   */\n      dup3\n        /* \"#utility.yul\":8116:8134   */\n      add\n        /* \"#utility.yul\":8108:8134   */\n      swap1\n      pop\n        /* \"#utility.yul\":8180:8189   */\n      dup2\n        /* \"#utility.yul\":8174:8178   */\n      dup2\n        /* \"#utility.yul\":8170:8190   */\n      sub\n        /* \"#utility.yul\":8166:8167   */\n      0x00\n        /* \"#utility.yul\":8155:8164   */\n      dup4\n        /* \"#utility.yul\":8151:8168   */\n      add\n        /* \"#utility.yul\":8144:8191   */\n      mstore\n        /* \"#utility.yul\":8208:8358   */\n      tag_288\n        /* \"#utility.yul\":8353:8357   */\n      dup2\n        /* \"#utility.yul\":8344:8350   */\n      dup5\n        /* \"#utility.yul\":8208:8358   */\n      tag_171\n      jump\t// in\n    tag_288:\n        /* \"#utility.yul\":8200:8358   */\n      swap1\n      pop\n        /* \"#utility.yul\":7908:8365   */\n      swap3\n      swap2\n      pop\n      pop\n      jump\t// out\n        /* \"#utility.yul\":8371:8460   */\n    tag_172:\n        /* \"#utility.yul\":8407:8414   */\n      0x00\n        /* \"#utility.yul\":8447:8453   */\n      0xffff\n        /* \"#utility.yul\":8440:8445   */\n      dup3\n        /* \"#utility.yul\":8436:8454   */\n      and\n        /* \"#utility.yul\":8425:8454   */\n      swap1\n      pop\n        /* \"#utility.yul\":8371:8460   */\n      swap2\n      swap1\n      pop\n      jump\t// out\n        /* \"#utility.yul\":8466:8586   */\n    tag_173:\n        /* \"#utility.yul\":8538:8561   */\n      tag_291\n        /* \"#utility.yul\":8555:8560   */\n      dup2\n        /* \"#utility.yul\":8538:8561   */\n      tag_172\n      jump\t// in\n    tag_291:\n        /* \"#utility.yul\":8531:8536   */\n      dup2\n        /* \"#utility.yul\":8528:8562   */\n      eq\n        /* \"#utility.yul\":8518:8580   */\n      tag_292\n      jumpi\n        /* \"#utility.yul\":8576:8577   */\n      0x00\n        /* \"#utility.yul\":8573:8574   */\n      0x00\n        /* \"#utility.yul\":8566:8578   */\n      revert\n        /* \"#utility.yul\":8518:8580   */\n    tag_292:\n        /* \"#utility.yul\":8466:8586   */\n      pop\n      jump\t// out\n        /* \"#utility.yul\":8592:8729   */\n    tag_174:\n        /* \"#utility.yul\":8637:8642   */\n      0x00\n        /* \"#utility.yul\":8675:8681   */\n      dup2\n        /* \"#utility.yul\":8662:8682   */\n      calldataload\n        /* \"#utility.yul\":8653:8682   */\n      swap1\n      pop\n        /* \"#utility.yul\":8691:8723   */\n      tag_294\n        /* \"#utility.yul\":8717:8722   */\n      dup2\n        /* \"#utility.yul\":8691:8723   */\n      tag_173\n      jump\t// in\n    tag_294:\n        /* \"#utility.yul\":8592:8729   */\n      swap3\n      swap2\n      pop\n      pop\n      jump\t// out\n        /* \"#utility.yul\":8735:9062   */\n    tag_30:\n        /* \"#utility.yul\":8793:8799   */\n      0x00\n        /* \"#utility.yul\":8842:8844   */\n      0x20\n        /* \"#utility.yul\":8830:8839   */\n      dup3\n        /* \"#utility.yul\":8821:8828   */\n      dup5\n        /* \"#utility.yul\":8817:8840   */\n      sub\n        /* \"#utility.yul\":8813:8845   */\n      slt\n        /* \"#utility.yul\":8810:8929   */\n      iszero\n      tag_296\n      jumpi\n        /* \"#utility.yul\":8848:8927   */\n      tag_297\n      tag_145\n      jump\t// in\n    tag_297:\n        /* \"#utility.yul\":8810:8929   */\n    tag_296:\n        /* \"#utility.yul\":8968:8969   */\n      0x00\n        /* \"#utility.yul\":8993:9045   */\n      tag_298\n        /* \"#utility.yul\":9037:9044   */\n      dup5\n        /* \"#utility.yul\":9028:9034   */\n      dup3\n        /* \"#utility.yul\":9017:9026   */\n      dup6\n        /* \"#utility.yul\":9013:9035   */\n      add\n        /* \"#utility.yul\":8993:9045   */\n      tag_174\n      jump\t// in\n    tag_298:\n        /* \"#utility.yul\":8983:9045   */\n      swap2\n      pop\n        /* \"#utility.yul\":8939:9055   */\n      pop\n        /* \"#utility.yul\":8735:9062   */\n      swap3\n      swap2\n      pop\n      pop\n      jump\t// out\n        /* \"#utility.yul\":9068:9185   */\n    tag_175:\n        /* \"#utility.yul\":9177:9178   */\n      0x00\n        /* \"#utility.yul\":9174:9175   */\n      0x00\n        /* \"#utility.yul\":9167:9179   */\n      revert\n        /* \"#utility.yul\":9191:9308   */\n    tag_176:\n        /* \"#utility.yul\":9300:9301   */\n      0x00\n        /* \"#utility.yul\":9297:9298   */\n      0x00\n        /* \"#utility.yul\":9290:9302   */\n      revert\n        /* \"#utility.yul\":9314:9494   */\n    tag_177:\n        /* \"#utility.yul\":9362:9439   */\n      0x4e487b7100000000000000000000000000000000000000000000000000000000\n        /* \"#utility.yul\":9359:9360   */\n      0x00\n        /* \"#utility.yul\":9352:9440   */\n      mstore\n        /* \"#utility.yul\":9459:9463   */\n      0x41\n        /* \"#utility.yul\":9456:9457   */\n      0x04\n        /* \"#utility.yul\":9449:9464   */\n      mstore\n        /* \"#utility.yul\":9483:9487   */\n      0x24\n        /* \"#utility.yul\":9480:9481   */\n      0x00\n        /* \"#utility.yul\":9473:9488   */\n      revert\n        /* \"#utility.yul\":9500:9781   */\n    tag_178:\n        /* \"#utility.yul\":9583:9610   */\n      tag_303\n        /* \"#utility.yul\":9605:9609   */\n      dup3\n        /* \"#utility.yul\":9583:9610   */\n      tag_159\n      jump\t// in\n    tag_303:\n        /* \"#utility.yul\":9575:9581   */\n      dup2\n        /* \"#utility.yul\":9571:9611   */\n      add\n        /* \"#utility.yul\":9713:9719   */\n      dup2\n        /* \"#utility.yul\":9701:9711   */\n      dup2\n        /* \"#utility.yul\":9698:9720   */\n      lt\n        /* \"#utility.yul\":9677:9695   */\n      0xffffffffffffffff\n        /* \"#utility.yul\":9665:9675   */\n      dup3\n        /* \"#utility.yul\":9662:9696   */\n      gt\n        /* \"#utility.yul\":9659:9721   */\n      or\n        /* \"#utility.yul\":9656:9744   */\n      iszero\n      tag_304\n      jumpi\n        /* \"#utility.yul\":9724:9742   */\n      tag_305\n      tag_177\n      jump\t// in\n    tag_305:\n        /* \"#utility.yul\":9656:9744   */\n    tag_304:\n        /* \"#utility.yul\":9764:9774   */\n      dup1\n        /* \"#utility.yul\":9760:9762   */\n      0x40\n        /* \"#utility.yul\":9753:9775   */\n      mstore\n        /* \"#utility.yul\":9543:9781   */\n      pop\n        /* \"#utility.yul\":9500:9781   */\n      pop\n      pop\n      jump\t// out\n        /* \"#utility.yul\":9787:9916   */\n    tag_179:\n        /* \"#utility.yul\":9821:9827   */\n      0x00\n        /* \"#utility.yul\":9848:9868   */\n      tag_307\n      tag_144\n      jump\t// in\n    tag_307:\n        /* \"#utility.yul\":9838:9868   */\n      swap1\n      pop\n        /* \"#utility.yul\":9877:9910   */\n      tag_308\n        /* \"#utility.yul\":9905:9909   */\n      dup3\n        /* \"#utility.yul\":9897:9903   */\n      dup3\n        /* \"#utility.yul\":9877:9910   */\n      tag_178\n      jump\t// in\n    tag_308:\n        /* \"#utility.yul\":9787:9916   */\n      swap2\n      swap1\n      pop\n      jump\t// out\n        /* \"#utility.yul\":9922:10230   */\n    tag_180:\n        /* \"#utility.yul\":9984:9988   */\n      0x00\n        /* \"#utility.yul\":10074:10092   */\n      0xffffffffffffffff\n        /* \"#utility.yul\":10066:10072   */\n      dup3\n        /* \"#utility.yul\":10063:10093   */\n      gt\n        /* \"#utility.yul\":10060:10116   */\n      iszero\n      tag_310\n      jumpi\n        /* \"#utility.yul\":10096:10114   */\n      tag_311\n      tag_177\n      jump\t// in\n    tag_311:\n        /* \"#utility.yul\":10060:10116   */\n    tag_310:\n        /* \"#utility.yul\":10134:10163   */\n      tag_312\n        /* \"#utility.yul\":10156:10162   */\n      dup3\n        /* \"#utility.yul\":10134:10163   */\n      tag_159\n      jump\t// in\n    tag_312:\n        /* \"#utility.yul\":10126:10163   */\n      swap1\n      pop\n        /* \"#utility.yul\":10218:10222   */\n      0x20\n        /* \"#utility.yul\":10212:10216   */\n      dup2\n        /* \"#utility.yul\":10208:10223   */\n      add\n        /* \"#utility.yul\":10200:10223   */\n      swap1\n      pop\n        /* \"#utility.yul\":9922:10230   */\n      swap2\n      swap1\n      pop\n      jump\t// out\n        /* \"#utility.yul\":10236:10384   */\n    tag_181:\n        /* \"#utility.yul\":10334:10340   */\n      dup3\n        /* \"#utility.yul\":10329:10332   */\n      dup2\n        /* \"#utility.yul\":10324:10327   */\n      dup4\n        /* \"#utility.yul\":10311:10341   */\n      calldatacopy\n        /* \"#utility.yul\":10375:10376   */\n      0x00\n        /* \"#utility.yul\":10366:10372   */\n      dup4\n        /* \"#utility.yul\":10361:10364   */\n      dup4\n        /* \"#utility.yul\":10357:10373   */\n      add\n        /* \"#utility.yul\":10350:10377   */\n      mstore\n        /* \"#utility.yul\":10236:10384   */\n      pop\n      pop\n      pop\n      jump\t// out\n        /* \"#utility.yul\":10390:10815   */\n    tag_182:\n        /* \"#utility.yul\":10468:10473   */\n      0x00\n        /* \"#utility.yul\":10493:10559   */\n      tag_315\n        /* \"#utility.yul\":10509:10558   */\n      tag_316\n        /* \"#utility.yul\":10551:10557   */\n      dup5\n        /* \"#utility.yul\":10509:10558   */\n      tag_180\n      jump\t// in\n    tag_316:\n        /* \"#utility.yul\":10493:10559   */\n      tag_179\n      jump\t// in\n    tag_315:\n        /* \"#utility.yul\":10484:10559   */\n      swap1\n      pop\n        /* \"#utility.yul\":10582:10588   */\n      dup3\n        /* \"#utility.yul\":10575:10580   */\n      dup2\n        /* \"#utility.yul\":10568:10589   */\n      mstore\n        /* \"#utility.yul\":10620:10624   */\n      0x20\n        /* \"#utility.yul\":10613:10618   */\n      dup2\n        /* \"#utility.yul\":10609:10625   */\n      add\n        /* \"#utility.yul\":10658:10661   */\n      dup5\n        /* \"#utility.yul\":10649:10655   */\n      dup5\n        /* \"#utility.yul\":10644:10647   */\n      dup5\n        /* \"#utility.yul\":10640:10656   */\n      add\n        /* \"#utility.yul\":10637:10662   */\n      gt\n        /* \"#utility.yul\":10634:10746   */\n      iszero\n      tag_317\n      jumpi\n        /* \"#utility.yul\":10665:10744   */\n      tag_318\n      tag_176\n      jump\t// in\n    tag_318:\n        /* \"#utility.yul\":10634:10746   */\n    tag_317:\n        /* \"#utility.yul\":10755:10809   */\n      tag_319\n        /* \"#utility.yul\":10802:10808   */\n      dup5\n        /* \"#utility.yul\":10797:10800   */\n      dup3\n        /* \"#utility.yul\":10792:10795   */\n      dup6\n        /* \"#utility.yul\":10755:10809   */\n      tag_181\n      jump\t// in\n    tag_319:\n        /* \"#utility.yul\":10474:10815   */\n      pop\n        /* \"#utility.yul\":10390:10815   */\n      swap4\n      swap3\n      pop\n      pop\n      pop\n      jump\t// out\n        /* \"#utility.yul\":10835:11175   */\n    tag_183:\n        /* \"#utility.yul\":10891:10896   */\n      0x00\n        /* \"#utility.yul\":10940:10943   */\n      dup3\n        /* \"#utility.yul\":10933:10937   */\n      0x1f\n        /* \"#utility.yul\":10925:10931   */\n      dup4\n        /* \"#utility.yul\":10921:10938   */\n      add\n        /* \"#utility.yul\":10917:10944   */\n      slt\n        /* \"#utility.yul\":10907:11029   */\n      tag_321\n      jumpi\n        /* \"#utility.yul\":10948:11027   */\n      tag_322\n      tag_175\n      jump\t// in\n    tag_322:\n        /* \"#utility.yul\":10907:11029   */\n    tag_321:\n        /* \"#utility.yul\":11065:11071   */\n      dup2\n        /* \"#utility.yul\":11052:11072   */\n      calldataload\n        /* \"#utility.yul\":11090:11169   */\n      tag_323\n        /* \"#utility.yul\":11165:11168   */\n      dup5\n        /* \"#utility.yul\":11157:11163   */\n      dup3\n        /* \"#utility.yul\":11150:11154   */\n      0x20\n        /* \"#utility.yul\":11142:11148   */\n      dup7\n        /* \"#utility.yul\":11138:11155   */\n      add\n        /* \"#utility.yul\":11090:11169   */\n      tag_182\n      jump\t// in\n    tag_323:\n        /* \"#utility.yul\":11081:11169   */\n      swap2\n      pop\n        /* \"#utility.yul\":10897:11175   */\n      pop\n        /* \"#utility.yul\":10835:11175   */\n      swap3\n      swap2\n      pop\n      pop\n      jump\t// out\n        /* \"#utility.yul\":11181:11690   */\n    tag_37:\n        /* \"#utility.yul\":11250:11256   */\n      0x00\n        /* \"#utility.yul\":11299:11301   */\n      0x20\n        /* \"#utility.yul\":11287:11296   */\n      dup3\n        /* \"#utility.yul\":11278:11285   */\n      dup5\n        /* \"#utility.yul\":11274:11297   */\n      sub\n        /* \"#utility.yul\":11270:11302   */\n      slt\n        /* \"#utility.yul\":11267:11386   */\n      iszero\n      tag_325\n      jumpi\n        /* \"#utility.yul\":11305:11384   */\n      tag_326\n      tag_145\n      jump\t// in\n    tag_326:\n        /* \"#utility.yul\":11267:11386   */\n    tag_325:\n        /* \"#utility.yul\":11453:11454   */\n      0x00\n        /* \"#utility.yul\":11442:11451   */\n      dup3\n        /* \"#utility.yul\":11438:11455   */\n      add\n        /* \"#utility.yul\":11425:11456   */\n      calldataload\n        /* \"#utility.yul\":11483:11501   */\n      0xffffffffffffffff\n        /* \"#utility.yul\":11475:11481   */\n      dup2\n        /* \"#utility.yul\":11472:11502   */\n      gt\n        /* \"#utility.yul\":11469:11586   */\n      iszero\n      tag_327\n      jumpi\n        /* \"#utility.yul\":11505:11584   */\n      tag_328\n      tag_146\n      jump\t// in\n    tag_328:\n        /* \"#utility.yul\":11469:11586   */\n    tag_327:\n        /* \"#utility.yul\":11610:11673   */\n      tag_329\n        /* \"#utility.yul\":11665:11672   */\n      dup5\n        /* \"#utility.yul\":11656:11662   */\n      dup3\n        /* \"#utility.yul\":11645:11654   */\n      dup6\n        /* \"#utility.yul\":11641:11663   */\n      add\n        /* \"#utility.yul\":11610:11673   */\n      tag_183\n      jump\t// in\n    tag_329:\n        /* \"#utility.yul\":11600:11673   */\n      swap2\n      pop\n        /* \"#utility.yul\":11396:11683   */\n      pop\n        /* \"#utility.yul\":11181:11690   */\n      swap3\n      swap2\n      pop\n      pop\n      jump\t// out\n        /* \"#utility.yul\":11696:11918   */\n    tag_43:\n        /* \"#utility.yul\":11789:11793   */\n      0x00\n        /* \"#utility.yul\":11827:11829   */\n      0x20\n        /* \"#utility.yul\":11816:11825   */\n      dup3\n        /* \"#utility.yul\":11812:11830   */\n      add\n        /* \"#utility.yul\":11804:11830   */\n      swap1\n      pop\n        /* \"#utility.yul\":11840:11911   */\n      tag_331\n        /* \"#utility.yul\":11908:11909   */\n      0x00\n        /* \"#utility.yul\":11897:11906   */\n      dup4\n        /* \"#utility.yul\":11893:11910   */\n      add\n        /* \"#utility.yul\":11884:11890   */\n      dup5\n        /* \"#utility.yul\":11840:11911   */\n      tag_154\n      jump\t// in\n    tag_331:\n        /* \"#utility.yul\":11696:11918   */\n      swap3\n      swap2\n      pop\n      pop\n      jump\t// out\n        /* \"#utility.yul\":11924:12146   */\n    tag_47:\n        /* \"#utility.yul\":12017:12021   */\n      0x00\n        /* \"#utility.yul\":12055:12057   */\n      0x20\n        /* \"#utility.yul\":12044:12053   */\n      dup3\n        /* \"#utility.yul\":12040:12058   */\n      add\n        /* \"#utility.yul\":12032:12058   */\n      swap1\n      pop\n        /* \"#utility.yul\":12068:12139   */\n      tag_333\n        /* \"#utility.yul\":12136:12137   */\n      0x00\n        /* \"#utility.yul\":12125:12134   */\n      dup4\n        /* \"#utility.yul\":12121:12138   */\n      add\n        /* \"#utility.yul\":12112:12118   */\n      dup5\n        /* \"#utility.yul\":12068:12139   */\n      tag_155\n      jump\t// in\n    tag_333:\n        /* \"#utility.yul\":11924:12146   */\n      swap3\n      swap2\n      pop\n      pop\n      jump\t// out\n        /* \"#utility.yul\":12152:12481   */\n    tag_50:\n        /* \"#utility.yul\":12211:12217   */\n      0x00\n        /* \"#utility.yul\":12260:12262   */\n      0x20\n        /* \"#utility.yul\":12248:12257   */\n      dup3\n        /* \"#utility.yul\":12239:12246   */\n      dup5\n        /* \"#utility.yul\":12235:12258   */\n      sub\n        /* \"#utility.yul\":12231:12263   */\n      slt\n        /* \"#utility.yul\":12228:12347   */\n      iszero\n      tag_335\n      jumpi\n        /* \"#utility.yul\":12266:12345   */\n      tag_336\n      tag_145\n      jump\t// in\n    tag_336:\n        /* \"#utility.yul\":12228:12347   */\n    tag_335:\n        /* \"#utility.yul\":12386:12387   */\n      0x00\n        /* \"#utility.yul\":12411:12464   */\n      tag_337\n        /* \"#utility.yul\":12456:12463   */\n      dup5\n        /* \"#utility.yul\":12447:12453   */\n      dup3\n        /* \"#utility.yul\":12436:12445   */\n      dup6\n        /* \"#utility.yul\":12432:12454   */\n      add\n        /* \"#utility.yul\":12411:12464   */\n      tag_153\n      jump\t// in\n    tag_337:\n        /* \"#utility.yul\":12401:12464   */\n      swap2\n      pop\n        /* \"#utility.yul\":12357:12474   */\n      pop\n        /* \"#utility.yul\":12152:12481   */\n      swap3\n      swap2\n      pop\n      pop\n      jump\t// out\n        /* \"#utility.yul\":12539:13668   */\n    tag_184:\n        /* \"#utility.yul\":12650:12653   */\n      0x00\n        /* \"#utility.yul\":12686:12690   */\n      0xa0\n        /* \"#utility.yul\":12681:12684   */\n      dup4\n        /* \"#utility.yul\":12677:12691   */\n      add\n        /* \"#utility.yul\":12771:12775   */\n      0x00\n        /* \"#utility.yul\":12764:12769   */\n      dup4\n        /* \"#utility.yul\":12760:12776   */\n      add\n        /* \"#utility.yul\":12754:12777   */\n      mload\n        /* \"#utility.yul\":12790:12853   */\n      tag_339\n        /* \"#utility.yul\":12847:12851   */\n      0x00\n        /* \"#utility.yul\":12842:12845   */\n      dup7\n        /* \"#utility.yul\":12838:12852   */\n      add\n        /* \"#utility.yul\":12824:12836   */\n      dup3\n        /* \"#utility.yul\":12790:12853   */\n      tag_164\n      jump\t// in\n    tag_339:\n        /* \"#utility.yul\":12701:12863   */\n      pop\n        /* \"#utility.yul\":12947:12951   */\n      0x20\n        /* \"#utility.yul\":12940:12945   */\n      dup4\n        /* \"#utility.yul\":12936:12952   */\n      add\n        /* \"#utility.yul\":12930:12953   */\n      mload\n        /* \"#utility.yul\":12966:13029   */\n      tag_340\n        /* \"#utility.yul\":13023:13027   */\n      0x20\n        /* \"#utility.yul\":13018:13021   */\n      dup7\n        /* \"#utility.yul\":13014:13028   */\n      add\n        /* \"#utility.yul\":13000:13012   */\n      dup3\n        /* \"#utility.yul\":12966:13029   */\n      tag_165\n      jump\t// in\n    tag_340:\n        /* \"#utility.yul\":12873:13039   */\n      pop\n        /* \"#utility.yul\":13124:13128   */\n      0x40\n        /* \"#utility.yul\":13117:13122   */\n      dup4\n        /* \"#utility.yul\":13113:13129   */\n      add\n        /* \"#utility.yul\":13107:13130   */\n      mload\n        /* \"#utility.yul\":13177:13180   */\n      dup5\n        /* \"#utility.yul\":13171:13175   */\n      dup3\n        /* \"#utility.yul\":13167:13181   */\n      sub\n        /* \"#utility.yul\":13160:13164   */\n      0x40\n        /* \"#utility.yul\":13155:13158   */\n      dup7\n        /* \"#utility.yul\":13151:13165   */\n      add\n        /* \"#utility.yul\":13144:13182   */\n      mstore\n        /* \"#utility.yul\":13203:13276   */\n      tag_341\n        /* \"#utility.yul\":13271:13275   */\n      dup3\n        /* \"#utility.yul\":13257:13269   */\n      dup3\n        /* \"#utility.yul\":13203:13276   */\n      tag_167\n      jump\t// in\n    tag_341:\n        /* \"#utility.yul\":13195:13276   */\n      swap2\n      pop\n        /* \"#utility.yul\":13049:13287   */\n      pop\n        /* \"#utility.yul\":13374:13378   */\n      0x60\n        /* \"#utility.yul\":13367:13372   */\n      dup4\n        /* \"#utility.yul\":13363:13379   */\n      add\n        /* \"#utility.yul\":13357:13380   */\n      mload\n        /* \"#utility.yul\":13393:13456   */\n      tag_342\n        /* \"#utility.yul\":13450:13454   */\n      0x60\n        /* \"#utility.yul\":13445:13448   */\n      dup7\n        /* \"#utility.yul\":13441:13455   */\n      add\n        /* \"#utility.yul\":13427:13439   */\n      dup3\n        /* \"#utility.yul\":13393:13456   */\n      tag_164\n      jump\t// in\n    tag_342:\n        /* \"#utility.yul\":13297:13466   */\n      pop\n        /* \"#utility.yul\":13549:13553   */\n      0x80\n        /* \"#utility.yul\":13542:13547   */\n      dup4\n        /* \"#utility.yul\":13538:13554   */\n      add\n        /* \"#utility.yul\":13532:13555   */\n      mload\n        /* \"#utility.yul\":13568:13631   */\n      tag_343\n        /* \"#utility.yul\":13625:13629   */\n      0x80\n        /* \"#utility.yul\":13620:13623   */\n      dup7\n        /* \"#utility.yul\":13616:13630   */\n      add\n        /* \"#utility.yul\":13602:13614   */\n      dup3\n        /* \"#utility.yul\":13568:13631   */\n      tag_164\n      jump\t// in\n    tag_343:\n        /* \"#utility.yul\":13476:13641   */\n      pop\n        /* \"#utility.yul\":13658:13662   */\n      dup1\n        /* \"#utility.yul\":13651:13662   */\n      swap2\n      pop\n        /* \"#utility.yul\":12655:13668   */\n      pop\n        /* \"#utility.yul\":12539:13668   */\n      swap3\n      swap2\n      pop\n      pop\n      jump\t// out\n        /* \"#utility.yul\":13674:14031   */\n    tag_53:\n        /* \"#utility.yul\":13809:13813   */\n      0x00\n        /* \"#utility.yul\":13847:13849   */\n      0x20\n        /* \"#utility.yul\":13836:13845   */\n      dup3\n        /* \"#utility.yul\":13832:13850   */\n      add\n        /* \"#utility.yul\":13824:13850   */\n      swap1\n      pop\n        /* \"#utility.yul\":13896:13905   */\n      dup2\n        /* \"#utility.yul\":13890:13894   */\n      dup2\n        /* \"#utility.yul\":13886:13906   */\n      sub\n        /* \"#utility.yul\":13882:13883   */\n      0x00\n        /* \"#utility.yul\":13871:13880   */\n      dup4\n        /* \"#utility.yul\":13867:13884   */\n      add\n        /* \"#utility.yul\":13860:13907   */\n      mstore\n        /* \"#utility.yul\":13924:14024   */\n      tag_345\n        /* \"#utility.yul\":14019:14023   */\n      dup2\n        /* \"#utility.yul\":14010:14016   */\n      dup5\n        /* \"#utility.yul\":13924:14024   */\n      tag_184\n      jump\t// in\n    tag_345:\n        /* \"#utility.yul\":13916:14024   */\n      swap1\n      pop\n        /* \"#utility.yul\":13674:14031   */\n      swap3\n      swap2\n      pop\n      pop\n      jump\t// out\n        /* \"#utility.yul\":14037:14217   */\n    tag_185:\n        /* \"#utility.yul\":14085:14162   */\n      0x4e487b7100000000000000000000000000000000000000000000000000000000\n        /* \"#utility.yul\":14082:14083   */\n      0x00\n        /* \"#utility.yul\":14075:14163   */\n      mstore\n        /* \"#utility.yul\":14182:14186   */\n      0x22\n        /* \"#utility.yul\":14179:14180   */\n      0x04\n        /* \"#utility.yul\":14172:14187   */\n      mstore\n        /* \"#utility.yul\":14206:14210   */\n      0x24\n        /* \"#utility.yul\":14203:14204   */\n      0x00\n        /* \"#utility.yul\":14196:14211   */\n      revert\n        /* \"#utility.yul\":14223:14543   */\n    tag_57:\n        /* \"#utility.yul\":14267:14273   */\n      0x00\n        /* \"#utility.yul\":14304:14305   */\n      0x02\n        /* \"#utility.yul\":14298:14302   */\n      dup3\n        /* \"#utility.yul\":14294:14306   */\n      div\n        /* \"#utility.yul\":14284:14306   */\n      swap1\n      pop\n        /* \"#utility.yul\":14351:14352   */\n      0x01\n        /* \"#utility.yul\":14345:14349   */\n      dup3\n        /* \"#utility.yul\":14341:14353   */\n      and\n        /* \"#utility.yul\":14372:14390   */\n      dup1\n        /* \"#utility.yul\":14362:14443   */\n      tag_348\n      jumpi\n        /* \"#utility.yul\":14428:14432   */\n      0x7f\n        /* \"#utility.yul\":14420:14426   */\n      dup3\n        /* \"#utility.yul\":14416:14433   */\n      and\n        /* \"#utility.yul\":14406:14433   */\n      swap2\n      pop\n        /* \"#utility.yul\":14362:14443   */\n    tag_348:\n        /* \"#utility.yul\":14490:14492   */\n      0x20\n        /* \"#utility.yul\":14482:14488   */\n      dup3\n        /* \"#utility.yul\":14479:14493   */\n      lt\n        /* \"#utility.yul\":14459:14477   */\n      dup2\n        /* \"#utility.yul\":14456:14494   */\n      sub\n        /* \"#utility.yul\":14453:14537   */\n      tag_349\n      jumpi\n        /* \"#utility.yul\":14509:14527   */\n      tag_350\n      tag_185\n      jump\t// in\n    tag_350:\n        /* \"#utility.yul\":14453:14537   */\n    tag_349:\n        /* \"#utility.yul\":14274:14543   */\n      pop\n        /* \"#utility.yul\":14223:14543   */\n      swap2\n      swap1\n      pop\n      jump\t// out\n        /* \"#utility.yul\":14549:14729   */\n    tag_74:\n        /* \"#utility.yul\":14597:14674   */\n      0x4e487b7100000000000000000000000000000000000000000000000000000000\n        /* \"#utility.yul\":14594:14595   */\n      0x00\n        /* \"#utility.yul\":14587:14675   */\n      mstore\n        /* \"#utility.yul\":14694:14698   */\n      0x32\n        /* \"#utility.yul\":14691:14692   */\n      0x04\n        /* \"#utility.yul\":14684:14699   */\n      mstore\n        /* \"#utility.yul\":14718:14722   */\n      0x24\n        /* \"#utility.yul\":14715:14716   */\n      0x00\n        /* \"#utility.yul\":14708:14723   */\n      revert\n        /* \"#utility.yul\":14735:14905   */\n    tag_186:\n        /* \"#utility.yul\":14875:14897   */\n      0x547765657420646f6573206e6f74206578697374000000000000000000000000\n        /* \"#utility.yul\":14871:14872   */\n      0x00\n        /* \"#utility.yul\":14863:14869   */\n      dup3\n        /* \"#utility.yul\":14859:14873   */\n      add\n        /* \"#utility.yul\":14852:14898   */\n      mstore\n        /* \"#utility.yul\":14735:14905   */\n      pop\n      jump\t// out\n        /* \"#utility.yul\":14911:15277   */\n    tag_187:\n        /* \"#utility.yul\":15053:15056   */\n      0x00\n        /* \"#utility.yul\":15074:15141   */\n      tag_354\n        /* \"#utility.yul\":15138:15140   */\n      0x14\n        /* \"#utility.yul\":15133:15136   */\n      dup4\n        /* \"#utility.yul\":15074:15141   */\n      tag_157\n      jump\t// in\n    tag_354:\n        /* \"#utility.yul\":15067:15141   */\n      swap2\n      pop\n        /* \"#utility.yul\":15150:15243   */\n      tag_355\n        /* \"#utility.yul\":15239:15242   */\n      dup3\n        /* \"#utility.yul\":15150:15243   */\n      tag_186\n      jump\t// in\n    tag_355:\n        /* \"#utility.yul\":15268:15270   */\n      0x20\n        /* \"#utility.yul\":15263:15266   */\n      dup3\n        /* \"#utility.yul\":15259:15271   */\n      add\n        /* \"#utility.yul\":15252:15271   */\n      swap1\n      pop\n        /* \"#utility.yul\":14911:15277   */\n      swap2\n      swap1\n      pop\n      jump\t// out\n        /* \"#utility.yul\":15283:15702   */\n    tag_78:\n        /* \"#utility.yul\":15449:15453   */\n      0x00\n        /* \"#utility.yul\":15487:15489   */\n      0x20\n        /* \"#utility.yul\":15476:15485   */\n      dup3\n        /* \"#utility.yul\":15472:15490   */\n      add\n        /* \"#utility.yul\":15464:15490   */\n      swap1\n      pop\n        /* \"#utility.yul\":15536:15545   */\n      dup2\n        /* \"#utility.yul\":15530:15534   */\n      dup2\n        /* \"#utility.yul\":15526:15546   */\n      sub\n        /* \"#utility.yul\":15522:15523   */\n      0x00\n        /* \"#utility.yul\":15511:15520   */\n      dup4\n        /* \"#utility.yul\":15507:15524   */\n      add\n        /* \"#utility.yul\":15500:15547   */\n      mstore\n        /* \"#utility.yul\":15564:15695   */\n      tag_357\n        /* \"#utility.yul\":15690:15694   */\n      dup2\n        /* \"#utility.yul\":15564:15695   */\n      tag_187\n      jump\t// in\n    tag_357:\n        /* \"#utility.yul\":15556:15695   */\n      swap1\n      pop\n        /* \"#utility.yul\":15283:15702   */\n      swap2\n      swap1\n      pop\n      jump\t// out\n        /* \"#utility.yul\":15708:15876   */\n    tag_188:\n        /* \"#utility.yul\":15848:15868   */\n      0x547765657420686173206e6f206c696b65730000000000000000000000000000\n        /* \"#utility.yul\":15844:15845   */\n      0x00\n        /* \"#utility.yul\":15836:15842   */\n      dup3\n        /* \"#utility.yul\":15832:15846   */\n      add\n        /* \"#utility.yul\":15825:15869   */\n      mstore\n        /* \"#utility.yul\":15708:15876   */\n      pop\n      jump\t// out\n        /* \"#utility.yul\":15882:16248   */\n    tag_189:\n        /* \"#utility.yul\":16024:16027   */\n      0x00\n        /* \"#utility.yul\":16045:16112   */\n      tag_360\n        /* \"#utility.yul\":16109:16111   */\n      0x12\n        /* \"#utility.yul\":16104:16107   */\n      dup4\n        /* \"#utility.yul\":16045:16112   */\n      tag_157\n      jump\t// in\n    tag_360:\n        /* \"#utility.yul\":16038:16112   */\n      swap2\n      pop\n        /* \"#utility.yul\":16121:16214   */\n      tag_361\n        /* \"#utility.yul\":16210:16213   */\n      dup3\n        /* \"#utility.yul\":16121:16214   */\n      tag_188\n      jump\t// in\n    tag_361:\n        /* \"#utility.yul\":16239:16241   */\n      0x20\n        /* \"#utility.yul\":16234:16237   */\n      dup3\n        /* \"#utility.yul\":16230:16242   */\n      add\n        /* \"#utility.yul\":16223:16242   */\n      swap1\n      pop\n        /* \"#utility.yul\":15882:16248   */\n      swap2\n      swap1\n      pop\n      jump\t// out\n        /* \"#utility.yul\":16254:16673   */\n    tag_84:\n        /* \"#utility.yul\":16420:16424   */\n      0x00\n        /* \"#utility.yul\":16458:16460   */\n      0x20\n        /* \"#utility.yul\":16447:16456   */\n      dup3\n        /* \"#utility.yul\":16443:16461   */\n      add\n        /* \"#utility.yul\":16435:16461   */\n      swap1\n      pop\n        /* \"#utility.yul\":16507:16516   */\n      dup2\n        /* \"#utility.yul\":16501:16505   */\n      dup2\n        /* \"#utility.yul\":16497:16517   */\n      sub\n        /* \"#utility.yul\":16493:16494   */\n      0x00\n        /* \"#utility.yul\":16482:16491   */\n      dup4\n        /* \"#utility.yul\":16478:16495   */\n      add\n        /* \"#utility.yul\":16471:16518   */\n      mstore\n        /* \"#utility.yul\":16535:16666   */\n      tag_363\n        /* \"#utility.yul\":16661:16665   */\n      dup2\n        /* \"#utility.yul\":16535:16666   */\n      tag_189\n      jump\t// in\n    tag_363:\n        /* \"#utility.yul\":16527:16666   */\n      swap1\n      pop\n        /* \"#utility.yul\":16254:16673   */\n      swap2\n      swap1\n      pop\n      jump\t// out\n        /* \"#utility.yul\":16679:16859   */\n    tag_190:\n        /* \"#utility.yul\":16727:16804   */\n      0x4e487b7100000000000000000000000000000000000000000000000000000000\n        /* \"#utility.yul\":16724:16725   */\n      0x00\n        /* \"#utility.yul\":16717:16805   */\n      mstore\n        /* \"#utility.yul\":16824:16828   */\n      0x11\n        /* \"#utility.yul\":16821:16822   */\n      0x04\n        /* \"#utility.yul\":16814:16829   */\n      mstore\n        /* \"#utility.yul\":16848:16852   */\n      0x24\n        /* \"#utility.yul\":16845:16846   */\n      0x00\n        /* \"#utility.yul\":16838:16853   */\n      revert\n        /* \"#utility.yul\":16865:17036   */\n    tag_89:\n        /* \"#utility.yul\":16904:16907   */\n      0x00\n        /* \"#utility.yul\":16927:16951   */\n      tag_366\n        /* \"#utility.yul\":16945:16950   */\n      dup3\n        /* \"#utility.yul\":16927:16951   */\n      tag_151\n      jump\t// in\n    tag_366:\n        /* \"#utility.yul\":16918:16951   */\n      swap2\n      pop\n        /* \"#utility.yul\":16973:16977   */\n      0x00\n        /* \"#utility.yul\":16966:16971   */\n      dup3\n        /* \"#utility.yul\":16963:16978   */\n      sub\n        /* \"#utility.yul\":16960:17001   */\n      tag_367\n      jumpi\n        /* \"#utility.yul\":16981:16999   */\n      tag_368\n      tag_190\n      jump\t// in\n    tag_368:\n        /* \"#utility.yul\":16960:17001   */\n    tag_367:\n        /* \"#utility.yul\":17028:17029   */\n      0x01\n        /* \"#utility.yul\":17021:17026   */\n      dup3\n        /* \"#utility.yul\":17017:17030   */\n      sub\n        /* \"#utility.yul\":17010:17030   */\n      swap1\n      pop\n        /* \"#utility.yul\":16865:17036   */\n      swap2\n      swap1\n      pop\n      jump\t// out\n        /* \"#utility.yul\":17042:17595   */\n    tag_94:\n        /* \"#utility.yul\":17219:17223   */\n      0x00\n        /* \"#utility.yul\":17257:17260   */\n      0x80\n        /* \"#utility.yul\":17246:17255   */\n      dup3\n        /* \"#utility.yul\":17242:17261   */\n      add\n        /* \"#utility.yul\":17234:17261   */\n      swap1\n      pop\n        /* \"#utility.yul\":17271:17342   */\n      tag_370\n        /* \"#utility.yul\":17339:17340   */\n      0x00\n        /* \"#utility.yul\":17328:17337   */\n      dup4\n        /* \"#utility.yul\":17324:17341   */\n      add\n        /* \"#utility.yul\":17315:17321   */\n      dup8\n        /* \"#utility.yul\":17271:17342   */\n      tag_155\n      jump\t// in\n    tag_370:\n        /* \"#utility.yul\":17352:17424   */\n      tag_371\n        /* \"#utility.yul\":17420:17422   */\n      0x20\n        /* \"#utility.yul\":17409:17418   */\n      dup4\n        /* \"#utility.yul\":17405:17423   */\n      add\n        /* \"#utility.yul\":17396:17402   */\n      dup7\n        /* \"#utility.yul\":17352:17424   */\n      tag_155\n      jump\t// in\n    tag_371:\n        /* \"#utility.yul\":17434:17506   */\n      tag_372\n        /* \"#utility.yul\":17502:17504   */\n      0x40\n        /* \"#utility.yul\":17491:17500   */\n      dup4\n        /* \"#utility.yul\":17487:17505   */\n      add\n        /* \"#utility.yul\":17478:17484   */\n      dup6\n        /* \"#utility.yul\":17434:17506   */\n      tag_154\n      jump\t// in\n    tag_372:\n        /* \"#utility.yul\":17516:17588   */\n      tag_373\n        /* \"#utility.yul\":17584:17586   */\n      0x60\n        /* \"#utility.yul\":17573:17582   */\n      dup4\n        /* \"#utility.yul\":17569:17587   */\n      add\n        /* \"#utility.yul\":17560:17566   */\n      dup5\n        /* \"#utility.yul\":17516:17588   */\n      tag_154\n      jump\t// in\n    tag_373:\n        /* \"#utility.yul\":17042:17595   */\n      swap6\n      swap5\n      pop\n      pop\n      pop\n      pop\n      pop\n      jump\t// out\n        /* \"#utility.yul\":17601:17781   */\n    tag_191:\n        /* \"#utility.yul\":17741:17773   */\n      0x596f7520617265206e6f742074686520636f6e7472616374206f776e65720000\n        /* \"#utility.yul\":17737:17738   */\n      0x00\n        /* \"#utility.yul\":17729:17735   */\n      dup3\n        /* \"#utility.yul\":17725:17739   */\n      add\n        /* \"#utility.yul\":17718:17774   */\n      mstore\n        /* \"#utility.yul\":17601:17781   */\n      pop\n      jump\t// out\n        /* \"#utility.yul\":17787:18153   */\n    tag_192:\n        /* \"#utility.yul\":17929:17932   */\n      0x00\n        /* \"#utility.yul\":17950:18017   */\n      tag_376\n        /* \"#utility.yul\":18014:18016   */\n      0x1e\n        /* \"#utility.yul\":18009:18012   */\n      dup4\n        /* \"#utility.yul\":17950:18017   */\n      tag_157\n      jump\t// in\n    tag_376:\n        /* \"#utility.yul\":17943:18017   */\n      swap2\n      pop\n        /* \"#utility.yul\":18026:18119   */\n      tag_377\n        /* \"#utility.yul\":18115:18118   */\n      dup3\n        /* \"#utility.yul\":18026:18119   */\n      tag_191\n      jump\t// in\n    tag_377:\n        /* \"#utility.yul\":18144:18146   */\n      0x20\n        /* \"#utility.yul\":18139:18142   */\n      dup3\n        /* \"#utility.yul\":18135:18147   */\n      add\n        /* \"#utility.yul\":18128:18147   */\n      swap1\n      pop\n        /* \"#utility.yul\":17787:18153   */\n      swap2\n      swap1\n      pop\n      jump\t// out\n        /* \"#utility.yul\":18159:18578   */\n    tag_98:\n        /* \"#utility.yul\":18325:18329   */\n      0x00\n        /* \"#utility.yul\":18363:18365   */\n      0x20\n        /* \"#utility.yul\":18352:18361   */\n      dup3\n        /* \"#utility.yul\":18348:18366   */\n      add\n        /* \"#utility.yul\":18340:18366   */\n      swap1\n      pop\n        /* \"#utility.yul\":18412:18421   */\n      dup2\n        /* \"#utility.yul\":18406:18410   */\n      dup2\n        /* \"#utility.yul\":18402:18422   */\n      sub\n        /* \"#utility.yul\":18398:18399   */\n      0x00\n        /* \"#utility.yul\":18387:18396   */\n      dup4\n        /* \"#utility.yul\":18383:18400   */\n      add\n        /* \"#utility.yul\":18376:18423   */\n      mstore\n        /* \"#utility.yul\":18440:18571   */\n      tag_379\n        /* \"#utility.yul\":18566:18570   */\n      dup2\n        /* \"#utility.yul\":18440:18571   */\n      tag_192\n      jump\t// in\n    tag_379:\n        /* \"#utility.yul\":18432:18571   */\n      swap1\n      pop\n        /* \"#utility.yul\":18159:18578   */\n      swap2\n      swap1\n      pop\n      jump\t// out\n        /* \"#utility.yul\":18584:18817   */\n    tag_110:\n        /* \"#utility.yul\":18623:18626   */\n      0x00\n        /* \"#utility.yul\":18646:18670   */\n      tag_381\n        /* \"#utility.yul\":18664:18669   */\n      dup3\n        /* \"#utility.yul\":18646:18670   */\n      tag_151\n      jump\t// in\n    tag_381:\n        /* \"#utility.yul\":18637:18670   */\n      swap2\n      pop\n        /* \"#utility.yul\":18692:18758   */\n      0xffffffffffffffffffffffffffffffffffffffffffffffffffffffffffffffff\n        /* \"#utility.yul\":18685:18690   */\n      dup3\n        /* \"#utility.yul\":18682:18759   */\n      sub\n        /* \"#utility.yul\":18679:18782   */\n      tag_382\n      jumpi\n        /* \"#utility.yul\":18762:18780   */\n      tag_383\n      tag_190\n      jump\t// in\n    tag_383:\n        /* \"#utility.yul\":18679:18782   */\n    tag_382:\n        /* \"#utility.yul\":18809:18810   */\n      0x01\n        /* \"#utility.yul\":18802:18807   */\n      dup3\n        /* \"#utility.yul\":18798:18811   */\n      add\n        /* \"#utility.yul\":18791:18811   */\n      swap1\n      pop\n        /* \"#utility.yul\":18584:18817   */\n      swap2\n      swap1\n      pop\n      jump\t// out\n        /* \"#utility.yul\":18823:19046   */\n    tag_193:\n        /* \"#utility.yul\":18963:18997   */\n      0x54776565742073686f756c6420626520756e6465722032383020636861726163\n        /* \"#utility.yul\":18959:18960   */\n      0x00\n        /* \"#utility.yul\":18951:18957   */\n      dup3\n        /* \"#utility.yul\":18947:18961   */\n      add\n        /* \"#utility.yul\":18940:18998   */\n      mstore\n        /* \"#utility.yul\":19032:19038   */\n      0x7465727300000000000000000000000000000000000000000000000000000000\n        /* \"#utility.yul\":19027:19029   */\n      0x20\n        /* \"#utility.yul\":19019:19025   */\n      dup3\n        /* \"#utility.yul\":19015:19030   */\n      add\n        /* \"#utility.yul\":19008:19039   */\n      mstore\n        /* \"#utility.yul\":18823:19046   */\n      pop\n      jump\t// out\n        /* \"#utility.yul\":19052:19418   */\n    tag_194:\n        /* \"#utility.yul\":19194:19197   */\n      0x00\n        /* \"#utility.yul\":19215:19282   */\n      tag_386\n        /* \"#utility.yul\":19279:19281   */\n      0x24\n        /* \"#utility.yul\":19274:19277   */\n      dup4\n        /* \"#utility.yul\":19215:19282   */\n      tag_157\n      jump\t// in\n    tag_386:\n        /* \"#utility.yul\":19208:19282   */\n      swap2\n      pop\n        /* \"#utility.yul\":19291:19384   */\n      tag_387\n        /* \"#utility.yul\":19380:19383   */\n      dup3\n        /* \"#utility.yul\":19291:19384   */\n      tag_193\n      jump\t// in\n    tag_387:\n        /* \"#utility.yul\":19409:19411   */\n      0x40\n        /* \"#utility.yul\":19404:19407   */\n      dup3\n        /* \"#utility.yul\":19400:19412   */\n      add\n        /* \"#utility.yul\":19393:19412   */\n      swap1\n      pop\n        /* \"#utility.yul\":19052:19418   */\n      swap2\n      swap1\n      pop\n      jump\t// out\n        /* \"#utility.yul\":19424:19843   */\n    tag_118:\n        /* \"#utility.yul\":19590:19594   */\n      0x00\n        /* \"#utility.yul\":19628:19630   */\n      0x20\n        /* \"#utility.yul\":19617:19626   */\n      dup3\n        /* \"#utility.yul\":19613:19631   */\n      add\n        /* \"#utility.yul\":19605:19631   */\n      swap1\n      pop\n        /* \"#utility.yul\":19677:19686   */\n      dup2\n        /* \"#utility.yul\":19671:19675   */\n      dup2\n        /* \"#utility.yul\":19667:19687   */\n      sub\n        /* \"#utility.yul\":19663:19664   */\n      0x00\n        /* \"#utility.yul\":19652:19661   */\n      dup4\n        /* \"#utility.yul\":19648:19665   */\n      add\n        /* \"#utility.yul\":19641:19688   */\n      mstore\n        /* \"#utility.yul\":19705:19836   */\n      tag_389\n        /* \"#utility.yul\":19831:19835   */\n      dup2\n        /* \"#utility.yul\":19705:19836   */\n      tag_194\n      jump\t// in\n    tag_389:\n        /* \"#utility.yul\":19697:19836   */\n      swap1\n      pop\n        /* \"#utility.yul\":19424:19843   */\n      swap2\n      swap1\n      pop\n      jump\t// out\n        /* \"#utility.yul\":19849:19990   */\n    tag_195:\n        /* \"#utility.yul\":19898:19902   */\n      0x00\n        /* \"#utility.yul\":19921:19924   */\n      dup2\n        /* \"#utility.yul\":19913:19924   */\n      swap1\n      pop\n        /* \"#utility.yul\":19944:19947   */\n      dup2\n        /* \"#utility.yul\":19941:19942   */\n      0x00\n        /* \"#utility.yul\":19934:19948   */\n      mstore\n        /* \"#utility.yul\":19978:19982   */\n      0x20\n        /* \"#utility.yul\":19975:19976   */\n      0x00\n        /* \"#utility.yul\":19965:19983   */\n      keccak256\n        /* \"#utility.yul\":19957:19983   */\n      swap1\n      pop\n        /* \"#utility.yul\":19849:19990   */\n      swap2\n      swap1\n      pop\n      jump\t// out\n        /* \"#utility.yul\":19996:20089   */\n    tag_196:\n        /* \"#utility.yul\":20033:20039   */\n      0x00\n        /* \"#utility.yul\":20080:20082   */\n      0x20\n        /* \"#utility.yul\":20075:20077   */\n      0x1f\n        /* \"#utility.yul\":20068:20073   */\n      dup4\n        /* \"#utility.yul\":20064:20078   */\n      add\n        /* \"#utility.yul\":20060:20083   */\n      div\n        /* \"#utility.yul\":20050:20083   */\n      swap1\n      pop\n        /* \"#utility.yul\":19996:20089   */\n      swap2\n      swap1\n      pop\n      jump\t// out\n        /* \"#utility.yul\":20095:20202   */\n    tag_197:\n        /* \"#utility.yul\":20139:20147   */\n      0x00\n        /* \"#utility.yul\":20189:20194   */\n      dup3\n        /* \"#utility.yul\":20183:20187   */\n      dup3\n        /* \"#utility.yul\":20179:20195   */\n      shl\n        /* \"#utility.yul\":20158:20195   */\n      swap1\n      pop\n        /* \"#utility.yul\":20095:20202   */\n      swap3\n      swap2\n      pop\n      pop\n      jump\t// out\n        /* \"#utility.yul\":20208:20601   */\n    tag_198:\n        /* \"#utility.yul\":20277:20283   */\n      0x00\n        /* \"#utility.yul\":20327:20328   */\n      0x08\n        /* \"#utility.yul\":20315:20325   */\n      dup4\n        /* \"#utility.yul\":20311:20329   */\n      mul\n        /* \"#utility.yul\":20350:20447   */\n      tag_394\n        /* \"#utility.yul\":20380:20446   */\n      0xffffffffffffffffffffffffffffffffffffffffffffffffffffffffffffffff\n        /* \"#utility.yul\":20369:20378   */\n      dup3\n        /* \"#utility.yul\":20350:20447   */\n      tag_197\n      jump\t// in\n    tag_394:\n        /* \"#utility.yul\":20468:20507   */\n      tag_395\n        /* \"#utility.yul\":20498:20506   */\n      dup7\n        /* \"#utility.yul\":20487:20496   */\n      dup4\n        /* \"#utility.yul\":20468:20507   */\n      tag_197\n      jump\t// in\n    tag_395:\n        /* \"#utility.yul\":20456:20507   */\n      swap6\n      pop\n        /* \"#utility.yul\":20540:20544   */\n      dup1\n        /* \"#utility.yul\":20536:20545   */\n      not\n        /* \"#utility.yul\":20529:20534   */\n      dup5\n        /* \"#utility.yul\":20525:20546   */\n      and\n        /* \"#utility.yul\":20516:20546   */\n      swap4\n      pop\n        /* \"#utility.yul\":20589:20593   */\n      dup1\n        /* \"#utility.yul\":20579:20587   */\n      dup7\n        /* \"#utility.yul\":20575:20594   */\n      and\n        /* \"#utility.yul\":20568:20573   */\n      dup5\n        /* \"#utility.yul\":20565:20595   */\n      or\n        /* \"#utility.yul\":20555:20595   */\n      swap3\n      pop\n        /* \"#utility.yul\":20284:20601   */\n      pop\n      pop\n        /* \"#utility.yul\":20208:20601   */\n      swap4\n      swap3\n      pop\n      pop\n      pop\n      jump\t// out\n        /* \"#utility.yul\":20607:20667   */\n    tag_199:\n        /* \"#utility.yul\":20635:20638   */\n      0x00\n        /* \"#utility.yul\":20656:20661   */\n      dup2\n        /* \"#utility.yul\":20649:20661   */\n      swap1\n      pop\n        /* \"#utility.yul\":20607:20667   */\n      swap2\n      swap1\n      pop\n      jump\t// out\n        /* \"#utility.yul\":20673:20815   */\n    tag_200:\n        /* \"#utility.yul\":20723:20732   */\n      0x00\n        /* \"#utility.yul\":20756:20809   */\n      tag_398\n        /* \"#utility.yul\":20774:20808   */\n      tag_399\n        /* \"#utility.yul\":20783:20807   */\n      tag_400\n        /* \"#utility.yul\":20801:20806   */\n      dup5\n        /* \"#utility.yul\":20783:20807   */\n      tag_151\n      jump\t// in\n    tag_400:\n        /* \"#utility.yul\":20774:20808   */\n      tag_199\n      jump\t// in\n    tag_399:\n        /* \"#utility.yul\":20756:20809   */\n      tag_151\n      jump\t// in\n    tag_398:\n        /* \"#utility.yul\":20743:20809   */\n      swap1\n      pop\n        /* \"#utility.yul\":20673:20815   */\n      swap2\n      swap1\n      pop\n      jump\t// out\n        /* \"#utility.yul\":20821:20896   */\n    tag_201:\n        /* \"#utility.yul\":20864:20867   */\n      0x00\n        /* \"#utility.yul\":20885:20890   */\n      dup2\n        /* \"#utility.yul\":20878:20890   */\n      swap1\n      pop\n        /* \"#utility.yul\":20821:20896   */\n      swap2\n      swap1\n      pop\n      jump\t// out\n        /* \"#utility.yul\":20902:21171   */\n    tag_202:\n        /* \"#utility.yul\":21012:21051   */\n      tag_403\n        /* \"#utility.yul\":21043:21050   */\n      dup4\n        /* \"#utility.yul\":21012:21051   */\n      tag_200\n      jump\t// in\n    tag_403:\n        /* \"#utility.yul\":21073:21164   */\n      tag_404\n        /* \"#utility.yul\":21122:21163   */\n      tag_405\n        /* \"#utility.yul\":21146:21162   */\n      dup3\n        /* \"#utility.yul\":21122:21163   */\n      tag_201\n      jump\t// in\n    tag_405:\n        /* \"#utility.yul\":21114:21120   */\n      dup5\n        /* \"#utility.yul\":21107:21111   */\n      dup5\n        /* \"#utility.yul\":21101:21112   */\n      sload\n        /* \"#utility.yul\":21073:21164   */\n      tag_198\n      jump\t// in\n    tag_404:\n        /* \"#utility.yul\":21067:21071   */\n      dup3\n        /* \"#utility.yul\":21060:21165   */\n      sstore\n        /* \"#utility.yul\":20978:21171   */\n      pop\n        /* \"#utility.yul\":20902:21171   */\n      pop\n      pop\n      pop\n      jump\t// out\n        /* \"#utility.yul\":21177:21250   */\n    tag_203:\n        /* \"#utility.yul\":21222:21225   */\n      0x00\n        /* \"#utility.yul\":21243:21244   */\n      0x00\n        /* \"#utility.yul\":21236:21244   */\n      swap1\n      pop\n        /* \"#utility.yul\":21177:21250   */\n      swap1\n      jump\t// out\n        /* \"#utility.yul\":21256:21445   */\n    tag_204:\n        /* \"#utility.yul\":21333:21365   */\n      tag_408\n      tag_203\n      jump\t// in\n    tag_408:\n        /* \"#utility.yul\":21374:21439   */\n      tag_409\n        /* \"#utility.yul\":21432:21438   */\n      dup2\n        /* \"#utility.yul\":21424:21430   */\n      dup5\n        /* \"#utility.yul\":21418:21422   */\n      dup5\n        /* \"#utility.yul\":21374:21439   */\n      tag_202\n      jump\t// in\n    tag_409:\n        /* \"#utility.yul\":21309:21445   */\n      pop\n        /* \"#utility.yul\":21256:21445   */\n      pop\n      pop\n      jump\t// out\n        /* \"#utility.yul\":21451:21637   */\n    tag_205:\n        /* \"#utility.yul\":21511:21631   */\n    tag_411:\n        /* \"#utility.yul\":21528:21531   */\n      dup2\n        /* \"#utility.yul\":21521:21526   */\n      dup2\n        /* \"#utility.yul\":21518:21532   */\n      lt\n        /* \"#utility.yul\":21511:21631   */\n      iszero\n      tag_413\n      jumpi\n        /* \"#utility.yul\":21582:21621   */\n      tag_414\n        /* \"#utility.yul\":21619:21620   */\n      0x00\n        /* \"#utility.yul\":21612:21617   */\n      dup3\n        /* \"#utility.yul\":21582:21621   */\n      tag_204\n      jump\t// in\n    tag_414:\n        /* \"#utility.yul\":21555:21556   */\n      0x01\n        /* \"#utility.yul\":21548:21553   */\n      dup2\n        /* \"#utility.yul\":21544:21557   */\n      add\n        /* \"#utility.yul\":21535:21557   */\n      swap1\n      pop\n        /* \"#utility.yul\":21511:21631   */\n      jump(tag_411)\n    tag_413:\n        /* \"#utility.yul\":21451:21637   */\n      pop\n      pop\n      jump\t// out\n        /* \"#utility.yul\":21643:22186   */\n    tag_206:\n        /* \"#utility.yul\":21744:21746   */\n      0x1f\n        /* \"#utility.yul\":21739:21742   */\n      dup3\n        /* \"#utility.yul\":21736:21747   */\n      gt\n        /* \"#utility.yul\":21733:22179   */\n      iszero\n      tag_416\n      jumpi\n        /* \"#utility.yul\":21778:21816   */\n      tag_417\n        /* \"#utility.yul\":21810:21815   */\n      dup2\n        /* \"#utility.yul\":21778:21816   */\n      tag_195\n      jump\t// in\n    tag_417:\n        /* \"#utility.yul\":21862:21891   */\n      tag_418\n        /* \"#utility.yul\":21880:21890   */\n      dup5\n        /* \"#utility.yul\":21862:21891   */\n      tag_196\n      jump\t// in\n    tag_418:\n        /* \"#utility.yul\":21852:21860   */\n      dup2\n        /* \"#utility.yul\":21848:21892   */\n      add\n        /* \"#utility.yul\":22045:22047   */\n      0x20\n        /* \"#utility.yul\":22033:22043   */\n      dup6\n        /* \"#utility.yul\":22030:22048   */\n      lt\n        /* \"#utility.yul\":22027:22076   */\n      iszero\n      tag_419\n      jumpi\n        /* \"#utility.yul\":22066:22074   */\n      dup2\n        /* \"#utility.yul\":22051:22074   */\n      swap1\n      pop\n        /* \"#utility.yul\":22027:22076   */\n    tag_419:\n        /* \"#utility.yul\":22089:22169   */\n      tag_420\n        /* \"#utility.yul\":22145:22167   */\n      tag_421\n        /* \"#utility.yul\":22163:22166   */\n      dup6\n        /* \"#utility.yul\":22145:22167   */\n      tag_196\n      jump\t// in\n    tag_421:\n        /* \"#utility.yul\":22135:22143   */\n      dup4\n        /* \"#utility.yul\":22131:22168   */\n      add\n        /* \"#utility.yul\":22118:22129   */\n      dup3\n        /* \"#utility.yul\":22089:22169   */\n      tag_205\n      jump\t// in\n    tag_420:\n        /* \"#utility.yul\":21748:22179   */\n      pop\n      pop\n        /* \"#utility.yul\":21733:22179   */\n    tag_416:\n        /* \"#utility.yul\":21643:22186   */\n      pop\n      pop\n      pop\n      jump\t// out\n        /* \"#utility.yul\":22192:22309   */\n    tag_207:\n        /* \"#utility.yul\":22246:22254   */\n      0x00\n        /* \"#utility.yul\":22296:22301   */\n      dup3\n        /* \"#utility.yul\":22290:22294   */\n      dup3\n        /* \"#utility.yul\":22286:22302   */\n      shr\n        /* \"#utility.yul\":22265:22302   */\n      swap1\n      pop\n        /* \"#utility.yul\":22192:22309   */\n      swap3\n      swap2\n      pop\n      pop\n      jump\t// out\n        /* \"#utility.yul\":22315:22484   */\n    tag_208:\n        /* \"#utility.yul\":22359:22365   */\n      0x00\n        /* \"#utility.yul\":22392:22443   */\n      tag_424\n        /* \"#utility.yul\":22440:22441   */\n      0x00\n        /* \"#utility.yul\":22436:22442   */\n      not\n        /* \"#utility.yul\":22428:22433   */\n      dup5\n        /* \"#utility.yul\":22425:22426   */\n      0x08\n        /* \"#utility.yul\":22421:22434   */\n      mul\n        /* \"#utility.yul\":22392:22443   */\n      tag_207\n      jump\t// in\n    tag_424:\n        /* \"#utility.yul\":22388:22444   */\n      not\n        /* \"#utility.yul\":22473:22477   */\n      dup1\n        /* \"#utility.yul\":22467:22471   */\n      dup4\n        /* \"#utility.yul\":22463:22478   */\n      and\n        /* \"#utility.yul\":22453:22478   */\n      swap2\n      pop\n        /* \"#utility.yul\":22366:22484   */\n      pop\n        /* \"#utility.yul\":22315:22484   */\n      swap3\n      swap2\n      pop\n      pop\n      jump\t// out\n        /* \"#utility.yul\":22489:22784   */\n    tag_209:\n        /* \"#utility.yul\":22565:22569   */\n      0x00\n        /* \"#utility.yul\":22711:22740   */\n      tag_426\n        /* \"#utility.yul\":22736:22739   */\n      dup4\n        /* \"#utility.yul\":22730:22734   */\n      dup4\n        /* \"#utility.yul\":22711:22740   */\n      tag_208\n      jump\t// in\n    tag_426:\n        /* \"#utility.yul\":22703:22740   */\n      swap2\n      pop\n        /* \"#utility.yul\":22773:22776   */\n      dup3\n        /* \"#utility.yul\":22770:22771   */\n      0x02\n        /* \"#utility.yul\":22766:22777   */\n      mul\n        /* \"#utility.yul\":22760:22764   */\n      dup3\n        /* \"#utility.yul\":22757:22778   */\n      or\n        /* \"#utility.yul\":22749:22778   */\n      swap1\n      pop\n        /* \"#utility.yul\":22489:22784   */\n      swap3\n      swap2\n      pop\n      pop\n      jump\t// out\n        /* \"#utility.yul\":22789:24184   */\n    tag_121:\n        /* \"#utility.yul\":22906:22943   */\n      tag_428\n        /* \"#utility.yul\":22939:22942   */\n      dup3\n        /* \"#utility.yul\":22906:22943   */\n      tag_156\n      jump\t// in\n    tag_428:\n        /* \"#utility.yul\":23008:23026   */\n      0xffffffffffffffff\n        /* \"#utility.yul\":23000:23006   */\n      dup2\n        /* \"#utility.yul\":22997:23027   */\n      gt\n        /* \"#utility.yul\":22994:23050   */\n      iszero\n      tag_429\n      jumpi\n        /* \"#utility.yul\":23030:23048   */\n      tag_430\n      tag_177\n      jump\t// in\n    tag_430:\n        /* \"#utility.yul\":22994:23050   */\n    tag_429:\n        /* \"#utility.yul\":23074:23112   */\n      tag_431\n        /* \"#utility.yul\":23106:23110   */\n      dup3\n        /* \"#utility.yul\":23100:23111   */\n      sload\n        /* \"#utility.yul\":23074:23112   */\n      tag_57\n      jump\t// in\n    tag_431:\n        /* \"#utility.yul\":23159:23226   */\n      tag_432\n        /* \"#utility.yul\":23219:23225   */\n      dup3\n        /* \"#utility.yul\":23211:23217   */\n      dup3\n        /* \"#utility.yul\":23205:23209   */\n      dup6\n        /* \"#utility.yul\":23159:23226   */\n      tag_206\n      jump\t// in\n    tag_432:\n        /* \"#utility.yul\":23253:23254   */\n      0x00\n        /* \"#utility.yul\":23277:23281   */\n      0x20\n        /* \"#utility.yul\":23264:23281   */\n      swap1\n      pop\n        /* \"#utility.yul\":23309:23311   */\n      0x1f\n        /* \"#utility.yul\":23301:23307   */\n      dup4\n        /* \"#utility.yul\":23298:23312   */\n      gt\n        /* \"#utility.yul\":23326:23327   */\n      0x01\n        /* \"#utility.yul\":23321:23939   */\n      dup2\n      eq\n      tag_434\n      jumpi\n        /* \"#utility.yul\":23983:23984   */\n      0x00\n        /* \"#utility.yul\":24000:24006   */\n      dup5\n        /* \"#utility.yul\":23997:24074   */\n      iszero\n      tag_435\n      jumpi\n        /* \"#utility.yul\":24049:24058   */\n      dup3\n        /* \"#utility.yul\":24044:24047   */\n      dup8\n        /* \"#utility.yul\":24040:24059   */\n      add\n        /* \"#utility.yul\":24034:24060   */\n      mload\n        /* \"#utility.yul\":24025:24060   */\n      swap1\n      pop\n        /* \"#utility.yul\":23997:24074   */\n    tag_435:\n        /* \"#utility.yul\":24100:24167   */\n      tag_436\n        /* \"#utility.yul\":24160:24166   */\n      dup6\n        /* \"#utility.yul\":24153:24158   */\n      dup3\n        /* \"#utility.yul\":24100:24167   */\n      tag_209\n      jump\t// in\n    tag_436:\n        /* \"#utility.yul\":24094:24098   */\n      dup7\n        /* \"#utility.yul\":24087:24168   */\n      sstore\n        /* \"#utility.yul\":23956:24178   */\n      pop\n        /* \"#utility.yul\":23291:24178   */\n      jump(tag_433)\n        /* \"#utility.yul\":23321:23939   */\n    tag_434:\n        /* \"#utility.yul\":23373:23377   */\n      0x1f\n        /* \"#utility.yul\":23369:23378   */\n      not\n        /* \"#utility.yul\":23361:23367   */\n      dup5\n        /* \"#utility.yul\":23357:23379   */\n      and\n        /* \"#utility.yul\":23407:23444   */\n      tag_437\n        /* \"#utility.yul\":23439:23443   */\n      dup7\n        /* \"#utility.yul\":23407:23444   */\n      tag_195\n      jump\t// in\n    tag_437:\n        /* \"#utility.yul\":23466:23467   */\n      0x00\n        /* \"#utility.yul\":23480:23688   */\n    tag_438:\n        /* \"#utility.yul\":23494:23501   */\n      dup3\n        /* \"#utility.yul\":23491:23492   */\n      dup2\n        /* \"#utility.yul\":23488:23502   */\n      lt\n        /* \"#utility.yul\":23480:23688   */\n      iszero\n      tag_440\n      jumpi\n        /* \"#utility.yul\":23573:23582   */\n      dup5\n        /* \"#utility.yul\":23568:23571   */\n      dup10\n        /* \"#utility.yul\":23564:23583   */\n      add\n        /* \"#utility.yul\":23558:23584   */\n      mload\n        /* \"#utility.yul\":23550:23556   */\n      dup3\n        /* \"#utility.yul\":23543:23585   */\n      sstore\n        /* \"#utility.yul\":23624:23625   */\n      0x01\n        /* \"#utility.yul\":23616:23622   */\n      dup3\n        /* \"#utility.yul\":23612:23626   */\n      add\n        /* \"#utility.yul\":23602:23626   */\n      swap2\n      pop\n        /* \"#utility.yul\":23671:23673   */\n      0x20\n        /* \"#utility.yul\":23660:23669   */\n      dup6\n        /* \"#utility.yul\":23656:23674   */\n      add\n        /* \"#utility.yul\":23643:23674   */\n      swap5\n      pop\n        /* \"#utility.yul\":23517:23521   */\n      0x20\n        /* \"#utility.yul\":23514:23515   */\n      dup2\n        /* \"#utility.yul\":23510:23522   */\n      add\n        /* \"#utility.yul\":23505:23522   */\n      swap1\n      pop\n        /* \"#utility.yul\":23480:23688   */\n      jump(tag_438)\n    tag_440:\n        /* \"#utility.yul\":23716:23722   */\n      dup7\n        /* \"#utility.yul\":23707:23714   */\n      dup4\n        /* \"#utility.yul\":23704:23723   */\n      lt\n        /* \"#utility.yul\":23701:23880   */\n      iszero\n      tag_441\n      jumpi\n        /* \"#utility.yul\":23774:23783   */\n      dup5\n        /* \"#utility.yul\":23769:23772   */\n      dup10\n        /* \"#utility.yul\":23765:23784   */\n      add\n        /* \"#utility.yul\":23759:23785   */\n      mload\n        /* \"#utility.yul\":23817:23865   */\n      tag_442\n        /* \"#utility.yul\":23859:23863   */\n      0x1f\n        /* \"#utility.yul\":23851:23857   */\n      dup10\n        /* \"#utility.yul\":23847:23864   */\n      and\n        /* \"#utility.yul\":23836:23845   */\n      dup3\n        /* \"#utility.yul\":23817:23865   */\n      tag_208\n      jump\t// in\n    tag_442:\n        /* \"#utility.yul\":23809:23815   */\n      dup4\n        /* \"#utility.yul\":23802:23866   */\n      sstore\n        /* \"#utility.yul\":23724:23880   */\n      pop\n        /* \"#utility.yul\":23701:23880   */\n    tag_441:\n        /* \"#utility.yul\":23926:23927   */\n      0x01\n        /* \"#utility.yul\":23922:23923   */\n      0x02\n        /* \"#utility.yul\":23914:23920   */\n      dup9\n        /* \"#utility.yul\":23910:23924   */\n      mul\n        /* \"#utility.yul\":23906:23928   */\n      add\n        /* \"#utility.yul\":23900:23904   */\n      dup9\n        /* \"#utility.yul\":23893:23929   */\n      sstore\n        /* \"#utility.yul\":23328:23939   */\n      pop\n      pop\n      pop\n        /* \"#utility.yul\":23291:24178   */\n    tag_433:\n      pop\n        /* \"#utility.yul\":22881:24184   */\n      pop\n      pop\n      pop\n        /* \"#utility.yul\":22789:24184   */\n      pop\n      pop\n      jump\t// out\n        /* \"#utility.yul\":24190:24834   */\n    tag_123:\n        /* \"#utility.yul\":24387:24391   */\n      0x00\n        /* \"#utility.yul\":24425:24428   */\n      0x80\n        /* \"#utility.yul\":24414:24423   */\n      dup3\n        /* \"#utility.yul\":24410:24429   */\n      add\n        /* \"#utility.yul\":24402:24429   */\n      swap1\n      pop\n        /* \"#utility.yul\":24439:24510   */\n      tag_444\n        /* \"#utility.yul\":24507:24508   */\n      0x00\n        /* \"#utility.yul\":24496:24505   */\n      dup4\n        /* \"#utility.yul\":24492:24509   */\n      add\n        /* \"#utility.yul\":24483:24489   */\n      dup8\n        /* \"#utility.yul\":24439:24510   */\n      tag_154\n      jump\t// in\n    tag_444:\n        /* \"#utility.yul\":24520:24592   */\n      tag_445\n        /* \"#utility.yul\":24588:24590   */\n      0x20\n        /* \"#utility.yul\":24577:24586   */\n      dup4\n        /* \"#utility.yul\":24573:24591   */\n      add\n        /* \"#utility.yul\":24564:24570   */\n      dup7\n        /* \"#utility.yul\":24520:24592   */\n      tag_155\n      jump\t// in\n    tag_445:\n        /* \"#utility.yul\":24639:24648   */\n      dup2\n        /* \"#utility.yul\":24633:24637   */\n      dup2\n        /* \"#utility.yul\":24629:24649   */\n      sub\n        /* \"#utility.yul\":24624:24626   */\n      0x40\n        /* \"#utility.yul\":24613:24622   */\n      dup4\n        /* \"#utility.yul\":24609:24627   */\n      add\n        /* \"#utility.yul\":24602:24650   */\n      mstore\n        /* \"#utility.yul\":24667:24745   */\n      tag_446\n        /* \"#utility.yul\":24740:24744   */\n      dup2\n        /* \"#utility.yul\":24731:24737   */\n      dup6\n        /* \"#utility.yul\":24667:24745   */\n      tag_160\n      jump\t// in\n    tag_446:\n        /* \"#utility.yul\":24659:24745   */\n      swap1\n      pop\n        /* \"#utility.yul\":24755:24827   */\n      tag_447\n        /* \"#utility.yul\":24823:24825   */\n      0x60\n        /* \"#utility.yul\":24812:24821   */\n      dup4\n        /* \"#utility.yul\":24808:24826   */\n      add\n        /* \"#utility.yul\":24799:24805   */\n      dup5\n        /* \"#utility.yul\":24755:24827   */\n      tag_154\n      jump\t// in\n    tag_447:\n        /* \"#utility.yul\":24190:24834   */\n      swap6\n      swap5\n      pop\n      pop\n      pop\n      pop\n      pop\n      jump\t// out\n        /* \"#utility.yul\":24840:25031   */\n    tag_132:\n        /* \"#utility.yul\":24880:24883   */\n      0x00\n        /* \"#utility.yul\":24899:24919   */\n      tag_449\n        /* \"#utility.yul\":24917:24918   */\n      dup3\n        /* \"#utility.yul\":24899:24919   */\n      tag_151\n      jump\t// in\n    tag_449:\n        /* \"#utility.yul\":24894:24919   */\n      swap2\n      pop\n        /* \"#utility.yul\":24933:24953   */\n      tag_450\n        /* \"#utility.yul\":24951:24952   */\n      dup4\n        /* \"#utility.yul\":24933:24953   */\n      tag_151\n      jump\t// in\n    tag_450:\n        /* \"#utility.yul\":24928:24953   */\n      swap3\n      pop\n        /* \"#utility.yul\":24976:24977   */\n      dup3\n        /* \"#utility.yul\":24973:24974   */\n      dup3\n        /* \"#utility.yul\":24969:24978   */\n      add\n        /* \"#utility.yul\":24962:24978   */\n      swap1\n      pop\n        /* \"#utility.yul\":24997:25000   */\n      dup1\n        /* \"#utility.yul\":24994:24995   */\n      dup3\n        /* \"#utility.yul\":24991:25001   */\n      gt\n        /* \"#utility.yul\":24988:25024   */\n      iszero\n      tag_451\n      jumpi\n        /* \"#utility.yul\":25004:25022   */\n      tag_452\n      tag_190\n      jump\t// in\n    tag_452:\n        /* \"#utility.yul\":24988:25024   */\n    tag_451:\n        /* \"#utility.yul\":24840:25031   */\n      swap3\n      swap2\n      pop\n      pop\n      jump\t// out\n\n    auxdata: 0xa26469706673582212203518794efb47c12943f4e7edc38f339eeb92e3036f7091c5da3a6fb92ff0c18964736f6c634300081e0033\n}\n",
				"bytecode": {
					"linkReferences": {},
					"object": "60806040526101185f5f6101000a81548161ffff021916908361ffff160217905550348015602b575f5ffd5b503360025f6101000a81548173ffffffffffffffffffffffffffffffffffffffff021916908373ffffffffffffffffffffffffffffffffffffffff160217905550611a8b806100795f395ff3fe608060405234801561000f575f5ffd5b5060043610610091575f3560e01c8063633782161161006457806363378216146101315780637c9cd2bc1461014d578063820785cc146101695780638da5cb5b14610199578063c3ad5ecb146101b757610091565b806305a1b4a91461009557806312e7ee1c146100c95780633d9b569f146100f957806358bfa4ab14610115575b5f5ffd5b6100af60048036038101906100aa9190610e73565b6101e7565b6040516100c0959493929190610f3f565b60405180910390f35b6100e360048036038101906100de9190610f97565b6102d8565b6040516100f09190611156565b60405180910390f35b610113600480360381019061010e9190610e73565b610473565b005b61012f600480360381019061012a91906111ad565b6106c4565b005b61014b60048036038101906101469190610e73565b610771565b005b61016760048036038101906101629190611304565b610922565b005b610183600480360381019061017e9190610f97565b610b26565b604051610190919061134b565b60405180910390f35b6101a1610bf8565b6040516101ae9190611364565b60405180910390f35b6101d160048036038101906101cc919061137d565b610c1d565b6040516101de919061141b565b60405180910390f35b6001602052815f5260405f208181548110610200575f80fd5b905f5260205f2090600502015f9150915050805f015490806001015f9054906101000a900473ffffffffffffffffffffffffffffffffffffffff169080600201805461024b90611468565b80601f016020809104026020016040519081016040528092919081815260200182805461027790611468565b80156102c25780601f10610299576101008083540402835291602001916102c2565b820191905f5260205f20905b8154815290600101906020018083116102a557829003601f168201915b5050505050908060030154908060040154905085565b606060015f8373ffffffffffffffffffffffffffffffffffffffff1673ffffffffffffffffffffffffffffffffffffffff1681526020019081526020015f20805480602002602001604051908101604052809291908181526020015f905b82821015610468578382905f5260205f2090600502016040518060a00160405290815f8201548152602001600182015f9054906101000a900473ffffffffffffffffffffffffffffffffffffffff1673ffffffffffffffffffffffffffffffffffffffff1673ffffffffffffffffffffffffffffffffffffffff1681526020016002820180546103c590611468565b80601f01602080910402602001604051908101604052809291908181526020018280546103f190611468565b801561043c5780601f106104135761010080835404028352916020019161043c565b820191905f5260205f20905b81548152906001019060200180831161041f57829003601f168201915b505050505081526020016003820154815260200160048201548152505081526020019060010190610336565b505050509050919050565b8060015f8473ffffffffffffffffffffffffffffffffffffffff1673ffffffffffffffffffffffffffffffffffffffff1681526020019081526020015f2082815481106104c3576104c2611498565b5b905f5260205f2090600502015f015414610512576040517f08c379a00000000000000000000000000000000000000000000000000000000081526004016105099061150f565b60405180910390fd5b5f60015f8473ffffffffffffffffffffffffffffffffffffffff1673ffffffffffffffffffffffffffffffffffffffff1681526020019081526020015f20828154811061056257610561611498565b5b905f5260205f20906005020160040154116105b2576040517f08c379a00000000000000000000000000000000000000000000000000000000081526004016105a990611577565b60405180910390fd5b60015f8373ffffffffffffffffffffffffffffffffffffffff1673ffffffffffffffffffffffffffffffffffffffff1681526020019081526020015f20818154811061060157610600611498565b5b905f5260205f2090600502016004015f815480929190610620906115c2565b91905055507f762c2616349603ac16eba0de8e6141b79129a07ab63bd99e0a80b3a47171694333838360015f8773ffffffffffffffffffffffffffffffffffffffff1673ffffffffffffffffffffffffffffffffffffffff1681526020019081526020015f20858154811061069857610697611498565b5b905f5260205f209060050201600401546040516106b894939291906115e9565b60405180910390a15050565b60025f9054906101000a900473ffffffffffffffffffffffffffffffffffffffff1673ffffffffffffffffffffffffffffffffffffffff163373ffffffffffffffffffffffffffffffffffffffff1614610753576040517f08c379a000000000000000000000000000000000000000000000000000000000815260040161074a90611676565b60405180910390fd5b805f5f6101000a81548161ffff021916908361ffff16021790555050565b8060015f8473ffffffffffffffffffffffffffffffffffffffff1673ffffffffffffffffffffffffffffffffffffffff1681526020019081526020015f2082815481106107c1576107c0611498565b5b905f5260205f2090600502015f015414610810576040517f08c379a00000000000000000000000000000000000000000000000000000000081526004016108079061150f565b60405180910390fd5b60015f8373ffffffffffffffffffffffffffffffffffffffff1673ffffffffffffffffffffffffffffffffffffffff1681526020019081526020015f20818154811061085f5761085e611498565b5b905f5260205f2090600502016004015f81548092919061087e90611694565b91905055507fe8a76fc0f16d11a00d1e93b689b63d76cf60af914dd3d915375dc41d01a0c3c833838360015f8773ffffffffffffffffffffffffffffffffffffffff1673ffffffffffffffffffffffffffffffffffffffff1681526020019081526020015f2085815481106108f6576108f5611498565b5b905f5260205f2090600502016004015460405161091694939291906115e9565b60405180910390a15050565b5f5f9054906101000a900461ffff1661ffff1681511115610978576040517f08c379a000000000000000000000000000000000000000000000000000000000815260040161096f9061174b565b60405180910390fd5b5f6040518060a0016040528060015f3373ffffffffffffffffffffffffffffffffffffffff1673ffffffffffffffffffffffffffffffffffffffff1681526020019081526020015f208054905081526020013373ffffffffffffffffffffffffffffffffffffffff1681526020018381526020014281526020015f815250905060015f3373ffffffffffffffffffffffffffffffffffffffff1673ffffffffffffffffffffffffffffffffffffffff1681526020019081526020015f2081908060018154018082558091505060019003905f5260205f2090600502015f909190919091505f820151815f01556020820151816001015f6101000a81548173ffffffffffffffffffffffffffffffffffffffff021916908373ffffffffffffffffffffffffffffffffffffffff1602179055506040820151816002019081610abf9190611909565b50606082015181600301556080820151816004015550507f16fd3c13e9d46923e0a8bce11c7b473ec508a72e6c96cd2404b29ce972afc29e815f0151826020015183604001518460600151604051610b1a94939291906119d8565b60405180910390a15050565b5f5f5f5f90505b60015f8573ffffffffffffffffffffffffffffffffffffffff1673ffffffffffffffffffffffffffffffffffffffff1681526020019081526020015f2080549050811015610bee5760015f8573ffffffffffffffffffffffffffffffffffffffff1673ffffffffffffffffffffffffffffffffffffffff1681526020019081526020015f208181548110610bc457610bc3611498565b5b905f5260205f2090600502016004015482610bdf9190611a22565b91508080600101915050610b2d565b5080915050919050565b60025f9054906101000a900473ffffffffffffffffffffffffffffffffffffffff1681565b610c25610d94565b60015f3373ffffffffffffffffffffffffffffffffffffffff1673ffffffffffffffffffffffffffffffffffffffff1681526020019081526020015f208281548110610c7457610c73611498565b5b905f5260205f2090600502016040518060a00160405290815f8201548152602001600182015f9054906101000a900473ffffffffffffffffffffffffffffffffffffffff1673ffffffffffffffffffffffffffffffffffffffff1673ffffffffffffffffffffffffffffffffffffffff168152602001600282018054610cf990611468565b80601f0160208091040260200160405190810160405280929190818152602001828054610d2590611468565b8015610d705780601f10610d4757610100808354040283529160200191610d70565b820191905f5260205f20905b815481529060010190602001808311610d5357829003601f168201915b50505050508152602001600382015481526020016004820154815250509050919050565b6040518060a001604052805f81526020015f73ffffffffffffffffffffffffffffffffffffffff168152602001606081526020015f81526020015f81525090565b5f604051905090565b5f5ffd5b5f5ffd5b5f73ffffffffffffffffffffffffffffffffffffffff82169050919050565b5f610e0f82610de6565b9050919050565b610e1f81610e05565b8114610e29575f5ffd5b50565b5f81359050610e3a81610e16565b92915050565b5f819050919050565b610e5281610e40565b8114610e5c575f5ffd5b50565b5f81359050610e6d81610e49565b92915050565b5f5f60408385031215610e8957610e88610dde565b5b5f610e9685828601610e2c565b9250506020610ea785828601610e5f565b9150509250929050565b610eba81610e40565b82525050565b610ec981610e05565b82525050565b5f81519050919050565b5f82825260208201905092915050565b8281835e5f83830152505050565b5f601f19601f8301169050919050565b5f610f1182610ecf565b610f1b8185610ed9565b9350610f2b818560208601610ee9565b610f3481610ef7565b840191505092915050565b5f60a082019050610f525f830188610eb1565b610f5f6020830187610ec0565b8181036040830152610f718186610f07565b9050610f806060830185610eb1565b610f8d6080830184610eb1565b9695505050505050565b5f60208284031215610fac57610fab610dde565b5b5f610fb984828501610e2c565b91505092915050565b5f81519050919050565b5f82825260208201905092915050565b5f819050602082019050919050565b610ff481610e40565b82525050565b61100381610e05565b82525050565b5f82825260208201905092915050565b5f61102382610ecf565b61102d8185611009565b935061103d818560208601610ee9565b61104681610ef7565b840191505092915050565b5f60a083015f8301516110665f860182610feb565b5060208301516110796020860182610ffa565b50604083015184820360408601526110918282611019565b91505060608301516110a66060860182610feb565b5060808301516110b96080860182610feb565b508091505092915050565b5f6110cf8383611051565b905092915050565b5f602082019050919050565b5f6110ed82610fc2565b6110f78185610fcc565b93508360208202850161110985610fdc565b805f5b85811015611144578484038952815161112585826110c4565b9450611130836110d7565b925060208a0199505060018101905061110c565b50829750879550505050505092915050565b5f6020820190508181035f83015261116e81846110e3565b905092915050565b5f61ffff82169050919050565b61118c81611176565b8114611196575f5ffd5b50565b5f813590506111a781611183565b92915050565b5f602082840312156111c2576111c1610dde565b5b5f6111cf84828501611199565b91505092915050565b5f5ffd5b5f5ffd5b7f4e487b71000000000000000000000000000000000000000000000000000000005f52604160045260245ffd5b61121682610ef7565b810181811067ffffffffffffffff82111715611235576112346111e0565b5b80604052505050565b5f611247610dd5565b9050611253828261120d565b919050565b5f67ffffffffffffffff821115611272576112716111e0565b5b61127b82610ef7565b9050602081019050919050565b828183375f83830152505050565b5f6112a86112a384611258565b61123e565b9050828152602081018484840111156112c4576112c36111dc565b5b6112cf848285611288565b509392505050565b5f82601f8301126112eb576112ea6111d8565b5b81356112fb848260208601611296565b91505092915050565b5f6020828403121561131957611318610dde565b5b5f82013567ffffffffffffffff81111561133657611335610de2565b5b611342848285016112d7565b91505092915050565b5f60208201905061135e5f830184610eb1565b92915050565b5f6020820190506113775f830184610ec0565b92915050565b5f6020828403121561139257611391610dde565b5b5f61139f84828501610e5f565b91505092915050565b5f60a083015f8301516113bd5f860182610feb565b5060208301516113d06020860182610ffa565b50604083015184820360408601526113e88282611019565b91505060608301516113fd6060860182610feb565b5060808301516114106080860182610feb565b508091505092915050565b5f6020820190508181035f83015261143381846113a8565b905092915050565b7f4e487b71000000000000000000000000000000000000000000000000000000005f52602260045260245ffd5b5f600282049050600182168061147f57607f821691505b6020821081036114925761149161143b565b5b50919050565b7f4e487b71000000000000000000000000000000000000000000000000000000005f52603260045260245ffd5b7f547765657420646f6573206e6f742065786973740000000000000000000000005f82015250565b5f6114f9601483610ed9565b9150611504826114c5565b602082019050919050565b5f6020820190508181035f830152611526816114ed565b9050919050565b7f547765657420686173206e6f206c696b657300000000000000000000000000005f82015250565b5f611561601283610ed9565b915061156c8261152d565b602082019050919050565b5f6020820190508181035f83015261158e81611555565b9050919050565b7f4e487b71000000000000000000000000000000000000000000000000000000005f52601160045260245ffd5b5f6115cc82610e40565b91505f82036115de576115dd611595565b5b600182039050919050565b5f6080820190506115fc5f830187610ec0565b6116096020830186610ec0565b6116166040830185610eb1565b6116236060830184610eb1565b95945050505050565b7f596f7520617265206e6f742074686520636f6e7472616374206f776e657200005f82015250565b5f611660601e83610ed9565b915061166b8261162c565b602082019050919050565b5f6020820190508181035f83015261168d81611654565b9050919050565b5f61169e82610e40565b91507fffffffffffffffffffffffffffffffffffffffffffffffffffffffffffffffff82036116d0576116cf611595565b5b600182019050919050565b7f54776565742073686f756c6420626520756e64657220323830206368617261635f8201527f7465727300000000000000000000000000000000000000000000000000000000602082015250565b5f611735602483610ed9565b9150611740826116db565b604082019050919050565b5f6020820190508181035f83015261176281611729565b9050919050565b5f819050815f5260205f209050919050565b5f6020601f8301049050919050565b5f82821b905092915050565b5f600883026117c57fffffffffffffffffffffffffffffffffffffffffffffffffffffffffffffffff8261178a565b6117cf868361178a565b95508019841693508086168417925050509392505050565b5f819050919050565b5f61180a61180561180084610e40565b6117e7565b610e40565b9050919050565b5f819050919050565b611823836117f0565b61183761182f82611811565b848454611796565b825550505050565b5f5f905090565b61184e61183f565b61185981848461181a565b505050565b5b8181101561187c576118715f82611846565b60018101905061185f565b5050565b601f8211156118c15761189281611769565b61189b8461177b565b810160208510156118aa578190505b6118be6118b68561177b565b83018261185e565b50505b505050565b5f82821c905092915050565b5f6118e15f19846008026118c6565b1980831691505092915050565b5f6118f983836118d2565b9150826002028217905092915050565b61191282610ecf565b67ffffffffffffffff81111561192b5761192a6111e0565b5b6119358254611468565b611940828285611880565b5f60209050601f831160018114611971575f841561195f578287015190505b61196985826118ee565b8655506119d0565b601f19841661197f86611769565b5f5b828110156119a657848901518255600182019150602085019450602081019050611981565b868310156119c357848901516119bf601f8916826118d2565b8355505b6001600288020188555050505b505050505050565b5f6080820190506119eb5f830187610eb1565b6119f86020830186610ec0565b8181036040830152611a0a8185610f07565b9050611a196060830184610eb1565b95945050505050565b5f611a2c82610e40565b9150611a3783610e40565b9250828201905080821115611a4f57611a4e611595565b5b9291505056fea26469706673582212203518794efb47c12943f4e7edc38f339eeb92e3036f7091c5da3a6fb92ff0c18964736f6c634300081e0033",
					"opcodes": "PUSH1 0x80 PUSH1 0x40 MSTORE PUSH2 0x118 PUSH0 PUSH0 PUSH2 0x100 EXP DUP2 SLOAD DUP2 PUSH2 0xFFFF MUL NOT AND SWAP1 DUP4 PUSH2 0xFFFF AND MUL OR SWAP1 SSTORE POP CALLVALUE DUP1 ISZERO PUSH1 0x2B JUMPI PUSH0 PUSH0 REVERT JUMPDEST POP CALLER PUSH1 0x2 PUSH0 PUSH2 0x100 EXP DUP2 SLOAD DUP2 PUSH20 0xFFFFFFFFFFFFFFFFFFFFFFFFFFFFFFFFFFFFFFFF MUL NOT AND SWAP1 DUP4 PUSH20 0xFFFFFFFFFFFFFFFFFFFFFFFFFFFFFFFFFFFFFFFF AND MUL OR SWAP1 SSTORE POP PUSH2 0x1A8B DUP1 PUSH2 0x79 PUSH0 CODECOPY PUSH0 RETURN INVALID PUSH1 0x80 PUSH1 0x40 MSTORE CALLVALUE DUP1 ISZERO PUSH2 0xF JUMPI PUSH0 PUSH0 REVERT JUMPDEST POP PUSH1 0x4 CALLDATASIZE LT PUSH2 0x91 JUMPI PUSH0 CALLDATALOAD PUSH1 0xE0 SHR DUP1 PUSH4 0x63378216 GT PUSH2 0x64 JUMPI DUP1 PUSH4 0x63378216 EQ PUSH2 0x131 JUMPI DUP1 PUSH4 0x7C9CD2BC EQ PUSH2 0x14D JUMPI DUP1 PUSH4 0x820785CC EQ PUSH2 0x169 JUMPI DUP1 PUSH4 0x8DA5CB5B EQ PUSH2 0x199 JUMPI DUP1 PUSH4 0xC3AD5ECB EQ PUSH2 0x1B7 JUMPI PUSH2 0x91 JUMP JUMPDEST DUP1 PUSH4 0x5A1B4A9 EQ PUSH2 0x95 JUMPI DUP1 PUSH4 0x12E7EE1C EQ PUSH2 0xC9 JUMPI DUP1 PUSH4 0x3D9B569F EQ PUSH2 0xF9 JUMPI DUP1 PUSH4 0x58BFA4AB EQ PUSH2 0x115 JUMPI JUMPDEST PUSH0 PUSH0 REVERT JUMPDEST PUSH2 0xAF PUSH1 0x4 DUP1 CALLDATASIZE SUB DUP2 ADD SWAP1 PUSH2 0xAA SWAP2 SWAP1 PUSH2 0xE73 JUMP JUMPDEST PUSH2 0x1E7 JUMP JUMPDEST PUSH1 0x40 MLOAD PUSH2 0xC0 SWAP6 SWAP5 SWAP4 SWAP3 SWAP2 SWAP1 PUSH2 0xF3F JUMP JUMPDEST PUSH1 0x40 MLOAD DUP1 SWAP2 SUB SWAP1 RETURN JUMPDEST PUSH2 0xE3 PUSH1 0x4 DUP1 CALLDATASIZE SUB DUP2 ADD SWAP1 PUSH2 0xDE SWAP2 SWAP1 PUSH2 0xF97 JUMP JUMPDEST PUSH2 0x2D8 JUMP JUMPDEST PUSH1 0x40 MLOAD PUSH2 0xF0 SWAP2 SWAP1 PUSH2 0x1156 JUMP JUMPDEST PUSH1 0x40 MLOAD DUP1 SWAP2 SUB SWAP1 RETURN JUMPDEST PUSH2 0x113 PUSH1 0x4 DUP1 CALLDATASIZE SUB DUP2 ADD SWAP1 PUSH2 0x10E SWAP2 SWAP1 PUSH2 0xE73 JUMP JUMPDEST PUSH2 0x473 JUMP JUMPDEST STOP JUMPDEST PUSH2 0x12F PUSH1 0x4 DUP1 CALLDATASIZE SUB DUP2 ADD SWAP1 PUSH2 0x12A SWAP2 SWAP1 PUSH2 0x11AD JUMP JUMPDEST PUSH2 0x6C4 JUMP JUMPDEST STOP JUMPDEST PUSH2 0x14B PUSH1 0x4 DUP1 CALLDATASIZE SUB DUP2 ADD SWAP1 PUSH2 0x146 SWAP2 SWAP1 PUSH2 0xE73 JUMP JUMPDEST PUSH2 0x771 JUMP JUMPDEST STOP JUMPDEST PUSH2 0x167 PUSH1 0x4 DUP1 CALLDATASIZE SUB DUP2 ADD SWAP1 PUSH2 0x162 SWAP2 SWAP1 PUSH2 0x1304 JUMP JUMPDEST PUSH2 0x922 JUMP JUMPDEST STOP JUMPDEST PUSH2 0x183 PUSH1 0x4 DUP1 CALLDATASIZE SUB DUP2 ADD SWAP1 PUSH2 0x17E SWAP2 SWAP1 PUSH2 0xF97 JUMP JUMPDEST PUSH2 0xB26 JUMP JUMPDEST PUSH1 0x40 MLOAD PUSH2 0x190 SWAP2 SWAP1 PUSH2 0x134B JUMP JUMPDEST PUSH1 0x40 MLOAD DUP1 SWAP2 SUB SWAP1 RETURN JUMPDEST PUSH2 0x1A1 PUSH2 0xBF8 JUMP JUMPDEST PUSH1 0x40 MLOAD PUSH2 0x1AE SWAP2 SWAP1 PUSH2 0x1364 JUMP JUMPDEST PUSH1 0x40 MLOAD DUP1 SWAP2 SUB SWAP1 RETURN JUMPDEST PUSH2 0x1D1 PUSH1 0x4 DUP1 CALLDATASIZE SUB DUP2 ADD SWAP1 PUSH2 0x1CC SWAP2 SWAP1 PUSH2 0x137D JUMP JUMPDEST PUSH2 0xC1D JUMP JUMPDEST PUSH1 0x40 MLOAD PUSH2 0x1DE SWAP2 SWAP1 PUSH2 0x141B JUMP JUMPDEST PUSH1 0x40 MLOAD DUP1 SWAP2 SUB SWAP1 RETURN JUMPDEST PUSH1 0x1 PUSH1 0x20 MSTORE DUP2 PUSH0 MSTORE PUSH1 0x40 PUSH0 KECCAK256 DUP2 DUP2 SLOAD DUP2 LT PUSH2 0x200 JUMPI PUSH0 DUP1 REVERT JUMPDEST SWAP1 PUSH0 MSTORE PUSH1 0x20 PUSH0 KECCAK256 SWAP1 PUSH1 0x5 MUL ADD PUSH0 SWAP2 POP SWAP2 POP POP DUP1 PUSH0 ADD SLOAD SWAP1 DUP1 PUSH1 0x1 ADD PUSH0 SWAP1 SLOAD SWAP1 PUSH2 0x100 EXP SWAP1 DIV PUSH20 0xFFFFFFFFFFFFFFFFFFFFFFFFFFFFFFFFFFFFFFFF AND SWAP1 DUP1 PUSH1 0x2 ADD DUP1 SLOAD PUSH2 0x24B SWAP1 PUSH2 0x1468 JUMP JUMPDEST DUP1 PUSH1 0x1F ADD PUSH1 0x20 DUP1 SWAP2 DIV MUL PUSH1 0x20 ADD PUSH1 0x40 MLOAD SWAP1 DUP2 ADD PUSH1 0x40 MSTORE DUP1 SWAP3 SWAP2 SWAP1 DUP2 DUP2 MSTORE PUSH1 0x20 ADD DUP3 DUP1 SLOAD PUSH2 0x277 SWAP1 PUSH2 0x1468 JUMP JUMPDEST DUP1 ISZERO PUSH2 0x2C2 JUMPI DUP1 PUSH1 0x1F LT PUSH2 0x299 JUMPI PUSH2 0x100 DUP1 DUP4 SLOAD DIV MUL DUP4 MSTORE SWAP2 PUSH1 0x20 ADD SWAP2 PUSH2 0x2C2 JUMP JUMPDEST DUP3 ADD SWAP2 SWAP1 PUSH0 MSTORE PUSH1 0x20 PUSH0 KECCAK256 SWAP1 JUMPDEST DUP2 SLOAD DUP2 MSTORE SWAP1 PUSH1 0x1 ADD SWAP1 PUSH1 0x20 ADD DUP1 DUP4 GT PUSH2 0x2A5 JUMPI DUP3 SWAP1 SUB PUSH1 0x1F AND DUP3 ADD SWAP2 JUMPDEST POP POP POP POP POP SWAP1 DUP1 PUSH1 0x3 ADD SLOAD SWAP1 DUP1 PUSH1 0x4 ADD SLOAD SWAP1 POP DUP6 JUMP JUMPDEST PUSH1 0x60 PUSH1 0x1 PUSH0 DUP4 PUSH20 0xFFFFFFFFFFFFFFFFFFFFFFFFFFFFFFFFFFFFFFFF AND PUSH20 0xFFFFFFFFFFFFFFFFFFFFFFFFFFFFFFFFFFFFFFFF AND DUP2 MSTORE PUSH1 0x20 ADD SWAP1 DUP2 MSTORE PUSH1 0x20 ADD PUSH0 KECCAK256 DUP1 SLOAD DUP1 PUSH1 0x20 MUL PUSH1 0x20 ADD PUSH1 0x40 MLOAD SWAP1 DUP2 ADD PUSH1 0x40 MSTORE DUP1 SWAP3 SWAP2 SWAP1 DUP2 DUP2 MSTORE PUSH1 0x20 ADD PUSH0 SWAP1 JUMPDEST DUP3 DUP3 LT ISZERO PUSH2 0x468 JUMPI DUP4 DUP3 SWAP1 PUSH0 MSTORE PUSH1 0x20 PUSH0 KECCAK256 SWAP1 PUSH1 0x5 MUL ADD PUSH1 0x40 MLOAD DUP1 PUSH1 0xA0 ADD PUSH1 0x40 MSTORE SWAP1 DUP2 PUSH0 DUP3 ADD SLOAD DUP2 MSTORE PUSH1 0x20 ADD PUSH1 0x1 DUP3 ADD PUSH0 SWAP1 SLOAD SWAP1 PUSH2 0x100 EXP SWAP1 DIV PUSH20 0xFFFFFFFFFFFFFFFFFFFFFFFFFFFFFFFFFFFFFFFF AND PUSH20 0xFFFFFFFFFFFFFFFFFFFFFFFFFFFFFFFFFFFFFFFF AND PUSH20 0xFFFFFFFFFFFFFFFFFFFFFFFFFFFFFFFFFFFFFFFF AND DUP2 MSTORE PUSH1 0x20 ADD PUSH1 0x2 DUP3 ADD DUP1 SLOAD PUSH2 0x3C5 SWAP1 PUSH2 0x1468 JUMP JUMPDEST DUP1 PUSH1 0x1F ADD PUSH1 0x20 DUP1 SWAP2 DIV MUL PUSH1 0x20 ADD PUSH1 0x40 MLOAD SWAP1 DUP2 ADD PUSH1 0x40 MSTORE DUP1 SWAP3 SWAP2 SWAP1 DUP2 DUP2 MSTORE PUSH1 0x20 ADD DUP3 DUP1 SLOAD PUSH2 0x3F1 SWAP1 PUSH2 0x1468 JUMP JUMPDEST DUP1 ISZERO PUSH2 0x43C JUMPI DUP1 PUSH1 0x1F LT PUSH2 0x413 JUMPI PUSH2 0x100 DUP1 DUP4 SLOAD DIV MUL DUP4 MSTORE SWAP2 PUSH1 0x20 ADD SWAP2 PUSH2 0x43C JUMP JUMPDEST DUP3 ADD SWAP2 SWAP1 PUSH0 MSTORE PUSH1 0x20 PUSH0 KECCAK256 SWAP1 JUMPDEST DUP2 SLOAD DUP2 MSTORE SWAP1 PUSH1 0x1 ADD SWAP1 PUSH1 0x20 ADD DUP1 DUP4 GT PUSH2 0x41F JUMPI DUP3 SWAP1 SUB PUSH1 0x1F AND DUP3 ADD SWAP2 JUMPDEST POP POP POP POP POP DUP2 MSTORE PUSH1 0x20 ADD PUSH1 0x3 DUP3 ADD SLOAD DUP2 MSTORE PUSH1 0x20 ADD PUSH1 0x4 DUP3 ADD SLOAD DUP2 MSTORE POP POP DUP2 MSTORE PUSH1 0x20 ADD SWAP1 PUSH1 0x1 ADD SWAP1 PUSH2 0x336 JUMP JUMPDEST POP POP POP POP SWAP1 POP SWAP2 SWAP1 POP JUMP JUMPDEST DUP1 PUSH1 0x1 PUSH0 DUP5 PUSH20 0xFFFFFFFFFFFFFFFFFFFFFFFFFFFFFFFFFFFFFFFF AND PUSH20 0xFFFFFFFFFFFFFFFFFFFFFFFFFFFFFFFFFFFFFFFF AND DUP2 MSTORE PUSH1 0x20 ADD SWAP1 DUP2 MSTORE PUSH1 0x20 ADD PUSH0 KECCAK256 DUP3 DUP2 SLOAD DUP2 LT PUSH2 0x4C3 JUMPI PUSH2 0x4C2 PUSH2 0x1498 JUMP JUMPDEST JUMPDEST SWAP1 PUSH0 MSTORE PUSH1 0x20 PUSH0 KECCAK256 SWAP1 PUSH1 0x5 MUL ADD PUSH0 ADD SLOAD EQ PUSH2 0x512 JUMPI PUSH1 0x40 MLOAD PUSH32 0x8C379A000000000000000000000000000000000000000000000000000000000 DUP2 MSTORE PUSH1 0x4 ADD PUSH2 0x509 SWAP1 PUSH2 0x150F JUMP JUMPDEST PUSH1 0x40 MLOAD DUP1 SWAP2 SUB SWAP1 REVERT JUMPDEST PUSH0 PUSH1 0x1 PUSH0 DUP5 PUSH20 0xFFFFFFFFFFFFFFFFFFFFFFFFFFFFFFFFFFFFFFFF AND PUSH20 0xFFFFFFFFFFFFFFFFFFFFFFFFFFFFFFFFFFFFFFFF AND DUP2 MSTORE PUSH1 0x20 ADD SWAP1 DUP2 MSTORE PUSH1 0x20 ADD PUSH0 KECCAK256 DUP3 DUP2 SLOAD DUP2 LT PUSH2 0x562 JUMPI PUSH2 0x561 PUSH2 0x1498 JUMP JUMPDEST JUMPDEST SWAP1 PUSH0 MSTORE PUSH1 0x20 PUSH0 KECCAK256 SWAP1 PUSH1 0x5 MUL ADD PUSH1 0x4 ADD SLOAD GT PUSH2 0x5B2 JUMPI PUSH1 0x40 MLOAD PUSH32 0x8C379A000000000000000000000000000000000000000000000000000000000 DUP2 MSTORE PUSH1 0x4 ADD PUSH2 0x5A9 SWAP1 PUSH2 0x1577 JUMP JUMPDEST PUSH1 0x40 MLOAD DUP1 SWAP2 SUB SWAP1 REVERT JUMPDEST PUSH1 0x1 PUSH0 DUP4 PUSH20 0xFFFFFFFFFFFFFFFFFFFFFFFFFFFFFFFFFFFFFFFF AND PUSH20 0xFFFFFFFFFFFFFFFFFFFFFFFFFFFFFFFFFFFFFFFF AND DUP2 MSTORE PUSH1 0x20 ADD SWAP1 DUP2 MSTORE PUSH1 0x20 ADD PUSH0 KECCAK256 DUP2 DUP2 SLOAD DUP2 LT PUSH2 0x601 JUMPI PUSH2 0x600 PUSH2 0x1498 JUMP JUMPDEST JUMPDEST SWAP1 PUSH0 MSTORE PUSH1 0x20 PUSH0 KECCAK256 SWAP1 PUSH1 0x5 MUL ADD PUSH1 0x4 ADD PUSH0 DUP2 SLOAD DUP1 SWAP3 SWAP2 SWAP1 PUSH2 0x620 SWAP1 PUSH2 0x15C2 JUMP JUMPDEST SWAP2 SWAP1 POP SSTORE POP PUSH32 0x762C2616349603AC16EBA0DE8E6141B79129A07AB63BD99E0A80B3A471716943 CALLER DUP4 DUP4 PUSH1 0x1 PUSH0 DUP8 PUSH20 0xFFFFFFFFFFFFFFFFFFFFFFFFFFFFFFFFFFFFFFFF AND PUSH20 0xFFFFFFFFFFFFFFFFFFFFFFFFFFFFFFFFFFFFFFFF AND DUP2 MSTORE PUSH1 0x20 ADD SWAP1 DUP2 MSTORE PUSH1 0x20 ADD PUSH0 KECCAK256 DUP6 DUP2 SLOAD DUP2 LT PUSH2 0x698 JUMPI PUSH2 0x697 PUSH2 0x1498 JUMP JUMPDEST JUMPDEST SWAP1 PUSH0 MSTORE PUSH1 0x20 PUSH0 KECCAK256 SWAP1 PUSH1 0x5 MUL ADD PUSH1 0x4 ADD SLOAD PUSH1 0x40 MLOAD PUSH2 0x6B8 SWAP5 SWAP4 SWAP3 SWAP2 SWAP1 PUSH2 0x15E9 JUMP JUMPDEST PUSH1 0x40 MLOAD DUP1 SWAP2 SUB SWAP1 LOG1 POP POP JUMP JUMPDEST PUSH1 0x2 PUSH0 SWAP1 SLOAD SWAP1 PUSH2 0x100 EXP SWAP1 DIV PUSH20 0xFFFFFFFFFFFFFFFFFFFFFFFFFFFFFFFFFFFFFFFF AND PUSH20 0xFFFFFFFFFFFFFFFFFFFFFFFFFFFFFFFFFFFFFFFF AND CALLER PUSH20 0xFFFFFFFFFFFFFFFFFFFFFFFFFFFFFFFFFFFFFFFF AND EQ PUSH2 0x753 JUMPI PUSH1 0x40 MLOAD PUSH32 0x8C379A000000000000000000000000000000000000000000000000000000000 DUP2 MSTORE PUSH1 0x4 ADD PUSH2 0x74A SWAP1 PUSH2 0x1676 JUMP JUMPDEST PUSH1 0x40 MLOAD DUP1 SWAP2 SUB SWAP1 REVERT JUMPDEST DUP1 PUSH0 PUSH0 PUSH2 0x100 EXP DUP2 SLOAD DUP2 PUSH2 0xFFFF MUL NOT AND SWAP1 DUP4 PUSH2 0xFFFF AND MUL OR SWAP1 SSTORE POP POP JUMP JUMPDEST DUP1 PUSH1 0x1 PUSH0 DUP5 PUSH20 0xFFFFFFFFFFFFFFFFFFFFFFFFFFFFFFFFFFFFFFFF AND PUSH20 0xFFFFFFFFFFFFFFFFFFFFFFFFFFFFFFFFFFFFFFFF AND DUP2 MSTORE PUSH1 0x20 ADD SWAP1 DUP2 MSTORE PUSH1 0x20 ADD PUSH0 KECCAK256 DUP3 DUP2 SLOAD DUP2 LT PUSH2 0x7C1 JUMPI PUSH2 0x7C0 PUSH2 0x1498 JUMP JUMPDEST JUMPDEST SWAP1 PUSH0 MSTORE PUSH1 0x20 PUSH0 KECCAK256 SWAP1 PUSH1 0x5 MUL ADD PUSH0 ADD SLOAD EQ PUSH2 0x810 JUMPI PUSH1 0x40 MLOAD PUSH32 0x8C379A000000000000000000000000000000000000000000000000000000000 DUP2 MSTORE PUSH1 0x4 ADD PUSH2 0x807 SWAP1 PUSH2 0x150F JUMP JUMPDEST PUSH1 0x40 MLOAD DUP1 SWAP2 SUB SWAP1 REVERT JUMPDEST PUSH1 0x1 PUSH0 DUP4 PUSH20 0xFFFFFFFFFFFFFFFFFFFFFFFFFFFFFFFFFFFFFFFF AND PUSH20 0xFFFFFFFFFFFFFFFFFFFFFFFFFFFFFFFFFFFFFFFF AND DUP2 MSTORE PUSH1 0x20 ADD SWAP1 DUP2 MSTORE PUSH1 0x20 ADD PUSH0 KECCAK256 DUP2 DUP2 SLOAD DUP2 LT PUSH2 0x85F JUMPI PUSH2 0x85E PUSH2 0x1498 JUMP JUMPDEST JUMPDEST SWAP1 PUSH0 MSTORE PUSH1 0x20 PUSH0 KECCAK256 SWAP1 PUSH1 0x5 MUL ADD PUSH1 0x4 ADD PUSH0 DUP2 SLOAD DUP1 SWAP3 SWAP2 SWAP1 PUSH2 0x87E SWAP1 PUSH2 0x1694 JUMP JUMPDEST SWAP2 SWAP1 POP SSTORE POP PUSH32 0xE8A76FC0F16D11A00D1E93B689B63D76CF60AF914DD3D915375DC41D01A0C3C8 CALLER DUP4 DUP4 PUSH1 0x1 PUSH0 DUP8 PUSH20 0xFFFFFFFFFFFFFFFFFFFFFFFFFFFFFFFFFFFFFFFF AND PUSH20 0xFFFFFFFFFFFFFFFFFFFFFFFFFFFFFFFFFFFFFFFF AND DUP2 MSTORE PUSH1 0x20 ADD SWAP1 DUP2 MSTORE PUSH1 0x20 ADD PUSH0 KECCAK256 DUP6 DUP2 SLOAD DUP2 LT PUSH2 0x8F6 JUMPI PUSH2 0x8F5 PUSH2 0x1498 JUMP JUMPDEST JUMPDEST SWAP1 PUSH0 MSTORE PUSH1 0x20 PUSH0 KECCAK256 SWAP1 PUSH1 0x5 MUL ADD PUSH1 0x4 ADD SLOAD PUSH1 0x40 MLOAD PUSH2 0x916 SWAP5 SWAP4 SWAP3 SWAP2 SWAP1 PUSH2 0x15E9 JUMP JUMPDEST PUSH1 0x40 MLOAD DUP1 SWAP2 SUB SWAP1 LOG1 POP POP JUMP JUMPDEST PUSH0 PUSH0 SWAP1 SLOAD SWAP1 PUSH2 0x100 EXP SWAP1 DIV PUSH2 0xFFFF AND PUSH2 0xFFFF AND DUP2 MLOAD GT ISZERO PUSH2 0x978 JUMPI PUSH1 0x40 MLOAD PUSH32 0x8C379A000000000000000000000000000000000000000000000000000000000 DUP2 MSTORE PUSH1 0x4 ADD PUSH2 0x96F SWAP1 PUSH2 0x174B JUMP JUMPDEST PUSH1 0x40 MLOAD DUP1 SWAP2 SUB SWAP1 REVERT JUMPDEST PUSH0 PUSH1 0x40 MLOAD DUP1 PUSH1 0xA0 ADD PUSH1 0x40 MSTORE DUP1 PUSH1 0x1 PUSH0 CALLER PUSH20 0xFFFFFFFFFFFFFFFFFFFFFFFFFFFFFFFFFFFFFFFF AND PUSH20 0xFFFFFFFFFFFFFFFFFFFFFFFFFFFFFFFFFFFFFFFF AND DUP2 MSTORE PUSH1 0x20 ADD SWAP1 DUP2 MSTORE PUSH1 0x20 ADD PUSH0 KECCAK256 DUP1 SLOAD SWAP1 POP DUP2 MSTORE PUSH1 0x20 ADD CALLER PUSH20 0xFFFFFFFFFFFFFFFFFFFFFFFFFFFFFFFFFFFFFFFF AND DUP2 MSTORE PUSH1 0x20 ADD DUP4 DUP2 MSTORE PUSH1 0x20 ADD TIMESTAMP DUP2 MSTORE PUSH1 0x20 ADD PUSH0 DUP2 MSTORE POP SWAP1 POP PUSH1 0x1 PUSH0 CALLER PUSH20 0xFFFFFFFFFFFFFFFFFFFFFFFFFFFFFFFFFFFFFFFF AND PUSH20 0xFFFFFFFFFFFFFFFFFFFFFFFFFFFFFFFFFFFFFFFF AND DUP2 MSTORE PUSH1 0x20 ADD SWAP1 DUP2 MSTORE PUSH1 0x20 ADD PUSH0 KECCAK256 DUP2 SWAP1 DUP1 PUSH1 0x1 DUP2 SLOAD ADD DUP1 DUP3 SSTORE DUP1 SWAP2 POP POP PUSH1 0x1 SWAP1 SUB SWAP1 PUSH0 MSTORE PUSH1 0x20 PUSH0 KECCAK256 SWAP1 PUSH1 0x5 MUL ADD PUSH0 SWAP1 SWAP2 SWAP1 SWAP2 SWAP1 SWAP2 POP PUSH0 DUP3 ADD MLOAD DUP2 PUSH0 ADD SSTORE PUSH1 0x20 DUP3 ADD MLOAD DUP2 PUSH1 0x1 ADD PUSH0 PUSH2 0x100 EXP DUP2 SLOAD DUP2 PUSH20 0xFFFFFFFFFFFFFFFFFFFFFFFFFFFFFFFFFFFFFFFF MUL NOT AND SWAP1 DUP4 PUSH20 0xFFFFFFFFFFFFFFFFFFFFFFFFFFFFFFFFFFFFFFFF AND MUL OR SWAP1 SSTORE POP PUSH1 0x40 DUP3 ADD MLOAD DUP2 PUSH1 0x2 ADD SWAP1 DUP2 PUSH2 0xABF SWAP2 SWAP1 PUSH2 0x1909 JUMP JUMPDEST POP PUSH1 0x60 DUP3 ADD MLOAD DUP2 PUSH1 0x3 ADD SSTORE PUSH1 0x80 DUP3 ADD MLOAD DUP2 PUSH1 0x4 ADD SSTORE POP POP PUSH32 0x16FD3C13E9D46923E0A8BCE11C7B473EC508A72E6C96CD2404B29CE972AFC29E DUP2 PUSH0 ADD MLOAD DUP3 PUSH1 0x20 ADD MLOAD DUP4 PUSH1 0x40 ADD MLOAD DUP5 PUSH1 0x60 ADD MLOAD PUSH1 0x40 MLOAD PUSH2 0xB1A SWAP5 SWAP4 SWAP3 SWAP2 SWAP1 PUSH2 0x19D8 JUMP JUMPDEST PUSH1 0x40 MLOAD DUP1 SWAP2 SUB SWAP1 LOG1 POP POP JUMP JUMPDEST PUSH0 PUSH0 PUSH0 PUSH0 SWAP1 POP JUMPDEST PUSH1 0x1 PUSH0 DUP6 PUSH20 0xFFFFFFFFFFFFFFFFFFFFFFFFFFFFFFFFFFFFFFFF AND PUSH20 0xFFFFFFFFFFFFFFFFFFFFFFFFFFFFFFFFFFFFFFFF AND DUP2 MSTORE PUSH1 0x20 ADD SWAP1 DUP2 MSTORE PUSH1 0x20 ADD PUSH0 KECCAK256 DUP1 SLOAD SWAP1 POP DUP2 LT ISZERO PUSH2 0xBEE JUMPI PUSH1 0x1 PUSH0 DUP6 PUSH20 0xFFFFFFFFFFFFFFFFFFFFFFFFFFFFFFFFFFFFFFFF AND PUSH20 0xFFFFFFFFFFFFFFFFFFFFFFFFFFFFFFFFFFFFFFFF AND DUP2 MSTORE PUSH1 0x20 ADD SWAP1 DUP2 MSTORE PUSH1 0x20 ADD PUSH0 KECCAK256 DUP2 DUP2 SLOAD DUP2 LT PUSH2 0xBC4 JUMPI PUSH2 0xBC3 PUSH2 0x1498 JUMP JUMPDEST JUMPDEST SWAP1 PUSH0 MSTORE PUSH1 0x20 PUSH0 KECCAK256 SWAP1 PUSH1 0x5 MUL ADD PUSH1 0x4 ADD SLOAD DUP3 PUSH2 0xBDF SWAP2 SWAP1 PUSH2 0x1A22 JUMP JUMPDEST SWAP2 POP DUP1 DUP1 PUSH1 0x1 ADD SWAP2 POP POP PUSH2 0xB2D JUMP JUMPDEST POP DUP1 SWAP2 POP POP SWAP2 SWAP1 POP JUMP JUMPDEST PUSH1 0x2 PUSH0 SWAP1 SLOAD SWAP1 PUSH2 0x100 EXP SWAP1 DIV PUSH20 0xFFFFFFFFFFFFFFFFFFFFFFFFFFFFFFFFFFFFFFFF AND DUP2 JUMP JUMPDEST PUSH2 0xC25 PUSH2 0xD94 JUMP JUMPDEST PUSH1 0x1 PUSH0 CALLER PUSH20 0xFFFFFFFFFFFFFFFFFFFFFFFFFFFFFFFFFFFFFFFF AND PUSH20 0xFFFFFFFFFFFFFFFFFFFFFFFFFFFFFFFFFFFFFFFF AND DUP2 MSTORE PUSH1 0x20 ADD SWAP1 DUP2 MSTORE PUSH1 0x20 ADD PUSH0 KECCAK256 DUP3 DUP2 SLOAD DUP2 LT PUSH2 0xC74 JUMPI PUSH2 0xC73 PUSH2 0x1498 JUMP JUMPDEST JUMPDEST SWAP1 PUSH0 MSTORE PUSH1 0x20 PUSH0 KECCAK256 SWAP1 PUSH1 0x5 MUL ADD PUSH1 0x40 MLOAD DUP1 PUSH1 0xA0 ADD PUSH1 0x40 MSTORE SWAP1 DUP2 PUSH0 DUP3 ADD SLOAD DUP2 MSTORE PUSH1 0x20 ADD PUSH1 0x1 DUP3 ADD PUSH0 SWAP1 SLOAD SWAP1 PUSH2 0x100 EXP SWAP1 DIV PUSH20 0xFFFFFFFFFFFFFFFFFFFFFFFFFFFFFFFFFFFFFFFF AND PUSH20 0xFFFFFFFFFFFFFFFFFFFFFFFFFFFFFFFFFFFFFFFF AND PUSH20 0xFFFFFFFFFFFFFFFFFFFFFFFFFFFFFFFFFFFFFFFF AND DUP2 MSTORE PUSH1 0x20 ADD PUSH1 0x2 DUP3 ADD DUP1 SLOAD PUSH2 0xCF9 SWAP1 PUSH2 0x1468 JUMP JUMPDEST DUP1 PUSH1 0x1F ADD PUSH1 0x20 DUP1 SWAP2 DIV MUL PUSH1 0x20 ADD PUSH1 0x40 MLOAD SWAP1 DUP2 ADD PUSH1 0x40 MSTORE DUP1 SWAP3 SWAP2 SWAP1 DUP2 DUP2 MSTORE PUSH1 0x20 ADD DUP3 DUP1 SLOAD PUSH2 0xD25 SWAP1 PUSH2 0x1468 JUMP JUMPDEST DUP1 ISZERO PUSH2 0xD70 JUMPI DUP1 PUSH1 0x1F LT PUSH2 0xD47 JUMPI PUSH2 0x100 DUP1 DUP4 SLOAD DIV MUL DUP4 MSTORE SWAP2 PUSH1 0x20 ADD SWAP2 PUSH2 0xD70 JUMP JUMPDEST DUP3 ADD SWAP2 SWAP1 PUSH0 MSTORE PUSH1 0x20 PUSH0 KECCAK256 SWAP1 JUMPDEST DUP2 SLOAD DUP2 MSTORE SWAP1 PUSH1 0x1 ADD SWAP1 PUSH1 0x20 ADD DUP1 DUP4 GT PUSH2 0xD53 JUMPI DUP3 SWAP1 SUB PUSH1 0x1F AND DUP3 ADD SWAP2 JUMPDEST POP POP POP POP POP DUP2 MSTORE PUSH1 0x20 ADD PUSH1 0x3 DUP3 ADD SLOAD DUP2 MSTORE PUSH1 0x20 ADD PUSH1 0x4 DUP3 ADD SLOAD DUP2 MSTORE POP POP SWAP1 POP SWAP2 SWAP1 POP JUMP JUMPDEST PUSH1 0x40 MLOAD DUP1 PUSH1 0xA0 ADD PUSH1 0x40 MSTORE DUP1 PUSH0 DUP2 MSTORE PUSH1 0x20 ADD PUSH0 PUSH20 0xFFFFFFFFFFFFFFFFFFFFFFFFFFFFFFFFFFFFFFFF AND DUP2 MSTORE PUSH1 0x20 ADD PUSH1 0x60 DUP2 MSTORE PUSH1 0x20 ADD PUSH0 DUP2 MSTORE PUSH1 0x20 ADD PUSH0 DUP2 MSTORE POP SWAP1 JUMP JUMPDEST PUSH0 PUSH1 0x40 MLOAD SWAP1 POP SWAP1 JUMP JUMPDEST PUSH0 PUSH0 REVERT JUMPDEST PUSH0 PUSH0 REVERT JUMPDEST PUSH0 PUSH20 0xFFFFFFFFFFFFFFFFFFFFFFFFFFFFFFFFFFFFFFFF DUP3 AND SWAP1 POP SWAP2 SWAP1 POP JUMP JUMPDEST PUSH0 PUSH2 0xE0F DUP3 PUSH2 0xDE6 JUMP JUMPDEST SWAP1 POP SWAP2 SWAP1 POP JUMP JUMPDEST PUSH2 0xE1F DUP2 PUSH2 0xE05 JUMP JUMPDEST DUP2 EQ PUSH2 0xE29 JUMPI PUSH0 PUSH0 REVERT JUMPDEST POP JUMP JUMPDEST PUSH0 DUP2 CALLDATALOAD SWAP1 POP PUSH2 0xE3A DUP2 PUSH2 0xE16 JUMP JUMPDEST SWAP3 SWAP2 POP POP JUMP JUMPDEST PUSH0 DUP2 SWAP1 POP SWAP2 SWAP1 POP JUMP JUMPDEST PUSH2 0xE52 DUP2 PUSH2 0xE40 JUMP JUMPDEST DUP2 EQ PUSH2 0xE5C JUMPI PUSH0 PUSH0 REVERT JUMPDEST POP JUMP JUMPDEST PUSH0 DUP2 CALLDATALOAD SWAP1 POP PUSH2 0xE6D DUP2 PUSH2 0xE49 JUMP JUMPDEST SWAP3 SWAP2 POP POP JUMP JUMPDEST PUSH0 PUSH0 PUSH1 0x40 DUP4 DUP6 SUB SLT ISZERO PUSH2 0xE89 JUMPI PUSH2 0xE88 PUSH2 0xDDE JUMP JUMPDEST JUMPDEST PUSH0 PUSH2 0xE96 DUP6 DUP3 DUP7 ADD PUSH2 0xE2C JUMP JUMPDEST SWAP3 POP POP PUSH1 0x20 PUSH2 0xEA7 DUP6 DUP3 DUP7 ADD PUSH2 0xE5F JUMP JUMPDEST SWAP2 POP POP SWAP3 POP SWAP3 SWAP1 POP JUMP JUMPDEST PUSH2 0xEBA DUP2 PUSH2 0xE40 JUMP JUMPDEST DUP3 MSTORE POP POP JUMP JUMPDEST PUSH2 0xEC9 DUP2 PUSH2 0xE05 JUMP JUMPDEST DUP3 MSTORE POP POP JUMP JUMPDEST PUSH0 DUP2 MLOAD SWAP1 POP SWAP2 SWAP1 POP JUMP JUMPDEST PUSH0 DUP3 DUP3 MSTORE PUSH1 0x20 DUP3 ADD SWAP1 POP SWAP3 SWAP2 POP POP JUMP JUMPDEST DUP3 DUP2 DUP4 MCOPY PUSH0 DUP4 DUP4 ADD MSTORE POP POP POP JUMP JUMPDEST PUSH0 PUSH1 0x1F NOT PUSH1 0x1F DUP4 ADD AND SWAP1 POP SWAP2 SWAP1 POP JUMP JUMPDEST PUSH0 PUSH2 0xF11 DUP3 PUSH2 0xECF JUMP JUMPDEST PUSH2 0xF1B DUP2 DUP6 PUSH2 0xED9 JUMP JUMPDEST SWAP4 POP PUSH2 0xF2B DUP2 DUP6 PUSH1 0x20 DUP7 ADD PUSH2 0xEE9 JUMP JUMPDEST PUSH2 0xF34 DUP2 PUSH2 0xEF7 JUMP JUMPDEST DUP5 ADD SWAP2 POP POP SWAP3 SWAP2 POP POP JUMP JUMPDEST PUSH0 PUSH1 0xA0 DUP3 ADD SWAP1 POP PUSH2 0xF52 PUSH0 DUP4 ADD DUP9 PUSH2 0xEB1 JUMP JUMPDEST PUSH2 0xF5F PUSH1 0x20 DUP4 ADD DUP8 PUSH2 0xEC0 JUMP JUMPDEST DUP2 DUP2 SUB PUSH1 0x40 DUP4 ADD MSTORE PUSH2 0xF71 DUP2 DUP7 PUSH2 0xF07 JUMP JUMPDEST SWAP1 POP PUSH2 0xF80 PUSH1 0x60 DUP4 ADD DUP6 PUSH2 0xEB1 JUMP JUMPDEST PUSH2 0xF8D PUSH1 0x80 DUP4 ADD DUP5 PUSH2 0xEB1 JUMP JUMPDEST SWAP7 SWAP6 POP POP POP POP POP POP JUMP JUMPDEST PUSH0 PUSH1 0x20 DUP3 DUP5 SUB SLT ISZERO PUSH2 0xFAC JUMPI PUSH2 0xFAB PUSH2 0xDDE JUMP JUMPDEST JUMPDEST PUSH0 PUSH2 0xFB9 DUP5 DUP3 DUP6 ADD PUSH2 0xE2C JUMP JUMPDEST SWAP2 POP POP SWAP3 SWAP2 POP POP JUMP JUMPDEST PUSH0 DUP2 MLOAD SWAP1 POP SWAP2 SWAP1 POP JUMP JUMPDEST PUSH0 DUP3 DUP3 MSTORE PUSH1 0x20 DUP3 ADD SWAP1 POP SWAP3 SWAP2 POP POP JUMP JUMPDEST PUSH0 DUP2 SWAP1 POP PUSH1 0x20 DUP3 ADD SWAP1 POP SWAP2 SWAP1 POP JUMP JUMPDEST PUSH2 0xFF4 DUP2 PUSH2 0xE40 JUMP JUMPDEST DUP3 MSTORE POP POP JUMP JUMPDEST PUSH2 0x1003 DUP2 PUSH2 0xE05 JUMP JUMPDEST DUP3 MSTORE POP POP JUMP JUMPDEST PUSH0 DUP3 DUP3 MSTORE PUSH1 0x20 DUP3 ADD SWAP1 POP SWAP3 SWAP2 POP POP JUMP JUMPDEST PUSH0 PUSH2 0x1023 DUP3 PUSH2 0xECF JUMP JUMPDEST PUSH2 0x102D DUP2 DUP6 PUSH2 0x1009 JUMP JUMPDEST SWAP4 POP PUSH2 0x103D DUP2 DUP6 PUSH1 0x20 DUP7 ADD PUSH2 0xEE9 JUMP JUMPDEST PUSH2 0x1046 DUP2 PUSH2 0xEF7 JUMP JUMPDEST DUP5 ADD SWAP2 POP POP SWAP3 SWAP2 POP POP JUMP JUMPDEST PUSH0 PUSH1 0xA0 DUP4 ADD PUSH0 DUP4 ADD MLOAD PUSH2 0x1066 PUSH0 DUP7 ADD DUP3 PUSH2 0xFEB JUMP JUMPDEST POP PUSH1 0x20 DUP4 ADD MLOAD PUSH2 0x1079 PUSH1 0x20 DUP7 ADD DUP3 PUSH2 0xFFA JUMP JUMPDEST POP PUSH1 0x40 DUP4 ADD MLOAD DUP5 DUP3 SUB PUSH1 0x40 DUP7 ADD MSTORE PUSH2 0x1091 DUP3 DUP3 PUSH2 0x1019 JUMP JUMPDEST SWAP2 POP POP PUSH1 0x60 DUP4 ADD MLOAD PUSH2 0x10A6 PUSH1 0x60 DUP7 ADD DUP3 PUSH2 0xFEB JUMP JUMPDEST POP PUSH1 0x80 DUP4 ADD MLOAD PUSH2 0x10B9 PUSH1 0x80 DUP7 ADD DUP3 PUSH2 0xFEB JUMP JUMPDEST POP DUP1 SWAP2 POP POP SWAP3 SWAP2 POP POP JUMP JUMPDEST PUSH0 PUSH2 0x10CF DUP4 DUP4 PUSH2 0x1051 JUMP JUMPDEST SWAP1 POP SWAP3 SWAP2 POP POP JUMP JUMPDEST PUSH0 PUSH1 0x20 DUP3 ADD SWAP1 POP SWAP2 SWAP1 POP JUMP JUMPDEST PUSH0 PUSH2 0x10ED DUP3 PUSH2 0xFC2 JUMP JUMPDEST PUSH2 0x10F7 DUP2 DUP6 PUSH2 0xFCC JUMP JUMPDEST SWAP4 POP DUP4 PUSH1 0x20 DUP3 MUL DUP6 ADD PUSH2 0x1109 DUP6 PUSH2 0xFDC JUMP JUMPDEST DUP1 PUSH0 JUMPDEST DUP6 DUP2 LT ISZERO PUSH2 0x1144 JUMPI DUP5 DUP5 SUB DUP10 MSTORE DUP2 MLOAD PUSH2 0x1125 DUP6 DUP3 PUSH2 0x10C4 JUMP JUMPDEST SWAP5 POP PUSH2 0x1130 DUP4 PUSH2 0x10D7 JUMP JUMPDEST SWAP3 POP PUSH1 0x20 DUP11 ADD SWAP10 POP POP PUSH1 0x1 DUP2 ADD SWAP1 POP PUSH2 0x110C JUMP JUMPDEST POP DUP3 SWAP8 POP DUP8 SWAP6 POP POP POP POP POP POP SWAP3 SWAP2 POP POP JUMP JUMPDEST PUSH0 PUSH1 0x20 DUP3 ADD SWAP1 POP DUP2 DUP2 SUB PUSH0 DUP4 ADD MSTORE PUSH2 0x116E DUP2 DUP5 PUSH2 0x10E3 JUMP JUMPDEST SWAP1 POP SWAP3 SWAP2 POP POP JUMP JUMPDEST PUSH0 PUSH2 0xFFFF DUP3 AND SWAP1 POP SWAP2 SWAP1 POP JUMP JUMPDEST PUSH2 0x118C DUP2 PUSH2 0x1176 JUMP JUMPDEST DUP2 EQ PUSH2 0x1196 JUMPI PUSH0 PUSH0 REVERT JUMPDEST POP JUMP JUMPDEST PUSH0 DUP2 CALLDATALOAD SWAP1 POP PUSH2 0x11A7 DUP2 PUSH2 0x1183 JUMP JUMPDEST SWAP3 SWAP2 POP POP JUMP JUMPDEST PUSH0 PUSH1 0x20 DUP3 DUP5 SUB SLT ISZERO PUSH2 0x11C2 JUMPI PUSH2 0x11C1 PUSH2 0xDDE JUMP JUMPDEST JUMPDEST PUSH0 PUSH2 0x11CF DUP5 DUP3 DUP6 ADD PUSH2 0x1199 JUMP JUMPDEST SWAP2 POP POP SWAP3 SWAP2 POP POP JUMP JUMPDEST PUSH0 PUSH0 REVERT JUMPDEST PUSH0 PUSH0 REVERT JUMPDEST PUSH32 0x4E487B7100000000000000000000000000000000000000000000000000000000 PUSH0 MSTORE PUSH1 0x41 PUSH1 0x4 MSTORE PUSH1 0x24 PUSH0 REVERT JUMPDEST PUSH2 0x1216 DUP3 PUSH2 0xEF7 JUMP JUMPDEST DUP2 ADD DUP2 DUP2 LT PUSH8 0xFFFFFFFFFFFFFFFF DUP3 GT OR ISZERO PUSH2 0x1235 JUMPI PUSH2 0x1234 PUSH2 0x11E0 JUMP JUMPDEST JUMPDEST DUP1 PUSH1 0x40 MSTORE POP POP POP JUMP JUMPDEST PUSH0 PUSH2 0x1247 PUSH2 0xDD5 JUMP JUMPDEST SWAP1 POP PUSH2 0x1253 DUP3 DUP3 PUSH2 0x120D JUMP JUMPDEST SWAP2 SWAP1 POP JUMP JUMPDEST PUSH0 PUSH8 0xFFFFFFFFFFFFFFFF DUP3 GT ISZERO PUSH2 0x1272 JUMPI PUSH2 0x1271 PUSH2 0x11E0 JUMP JUMPDEST JUMPDEST PUSH2 0x127B DUP3 PUSH2 0xEF7 JUMP JUMPDEST SWAP1 POP PUSH1 0x20 DUP2 ADD SWAP1 POP SWAP2 SWAP1 POP JUMP JUMPDEST DUP3 DUP2 DUP4 CALLDATACOPY PUSH0 DUP4 DUP4 ADD MSTORE POP POP POP JUMP JUMPDEST PUSH0 PUSH2 0x12A8 PUSH2 0x12A3 DUP5 PUSH2 0x1258 JUMP JUMPDEST PUSH2 0x123E JUMP JUMPDEST SWAP1 POP DUP3 DUP2 MSTORE PUSH1 0x20 DUP2 ADD DUP5 DUP5 DUP5 ADD GT ISZERO PUSH2 0x12C4 JUMPI PUSH2 0x12C3 PUSH2 0x11DC JUMP JUMPDEST JUMPDEST PUSH2 0x12CF DUP5 DUP3 DUP6 PUSH2 0x1288 JUMP JUMPDEST POP SWAP4 SWAP3 POP POP POP JUMP JUMPDEST PUSH0 DUP3 PUSH1 0x1F DUP4 ADD SLT PUSH2 0x12EB JUMPI PUSH2 0x12EA PUSH2 0x11D8 JUMP JUMPDEST JUMPDEST DUP2 CALLDATALOAD PUSH2 0x12FB DUP5 DUP3 PUSH1 0x20 DUP7 ADD PUSH2 0x1296 JUMP JUMPDEST SWAP2 POP POP SWAP3 SWAP2 POP POP JUMP JUMPDEST PUSH0 PUSH1 0x20 DUP3 DUP5 SUB SLT ISZERO PUSH2 0x1319 JUMPI PUSH2 0x1318 PUSH2 0xDDE JUMP JUMPDEST JUMPDEST PUSH0 DUP3 ADD CALLDATALOAD PUSH8 0xFFFFFFFFFFFFFFFF DUP2 GT ISZERO PUSH2 0x1336 JUMPI PUSH2 0x1335 PUSH2 0xDE2 JUMP JUMPDEST JUMPDEST PUSH2 0x1342 DUP5 DUP3 DUP6 ADD PUSH2 0x12D7 JUMP JUMPDEST SWAP2 POP POP SWAP3 SWAP2 POP POP JUMP JUMPDEST PUSH0 PUSH1 0x20 DUP3 ADD SWAP1 POP PUSH2 0x135E PUSH0 DUP4 ADD DUP5 PUSH2 0xEB1 JUMP JUMPDEST SWAP3 SWAP2 POP POP JUMP JUMPDEST PUSH0 PUSH1 0x20 DUP3 ADD SWAP1 POP PUSH2 0x1377 PUSH0 DUP4 ADD DUP5 PUSH2 0xEC0 JUMP JUMPDEST SWAP3 SWAP2 POP POP JUMP JUMPDEST PUSH0 PUSH1 0x20 DUP3 DUP5 SUB SLT ISZERO PUSH2 0x1392 JUMPI PUSH2 0x1391 PUSH2 0xDDE JUMP JUMPDEST JUMPDEST PUSH0 PUSH2 0x139F DUP5 DUP3 DUP6 ADD PUSH2 0xE5F JUMP JUMPDEST SWAP2 POP POP SWAP3 SWAP2 POP POP JUMP JUMPDEST PUSH0 PUSH1 0xA0 DUP4 ADD PUSH0 DUP4 ADD MLOAD PUSH2 0x13BD PUSH0 DUP7 ADD DUP3 PUSH2 0xFEB JUMP JUMPDEST POP PUSH1 0x20 DUP4 ADD MLOAD PUSH2 0x13D0 PUSH1 0x20 DUP7 ADD DUP3 PUSH2 0xFFA JUMP JUMPDEST POP PUSH1 0x40 DUP4 ADD MLOAD DUP5 DUP3 SUB PUSH1 0x40 DUP7 ADD MSTORE PUSH2 0x13E8 DUP3 DUP3 PUSH2 0x1019 JUMP JUMPDEST SWAP2 POP POP PUSH1 0x60 DUP4 ADD MLOAD PUSH2 0x13FD PUSH1 0x60 DUP7 ADD DUP3 PUSH2 0xFEB JUMP JUMPDEST POP PUSH1 0x80 DUP4 ADD MLOAD PUSH2 0x1410 PUSH1 0x80 DUP7 ADD DUP3 PUSH2 0xFEB JUMP JUMPDEST POP DUP1 SWAP2 POP POP SWAP3 SWAP2 POP POP JUMP JUMPDEST PUSH0 PUSH1 0x20 DUP3 ADD SWAP1 POP DUP2 DUP2 SUB PUSH0 DUP4 ADD MSTORE PUSH2 0x1433 DUP2 DUP5 PUSH2 0x13A8 JUMP JUMPDEST SWAP1 POP SWAP3 SWAP2 POP POP JUMP JUMPDEST PUSH32 0x4E487B7100000000000000000000000000000000000000000000000000000000 PUSH0 MSTORE PUSH1 0x22 PUSH1 0x4 MSTORE PUSH1 0x24 PUSH0 REVERT JUMPDEST PUSH0 PUSH1 0x2 DUP3 DIV SWAP1 POP PUSH1 0x1 DUP3 AND DUP1 PUSH2 0x147F JUMPI PUSH1 0x7F DUP3 AND SWAP2 POP JUMPDEST PUSH1 0x20 DUP3 LT DUP2 SUB PUSH2 0x1492 JUMPI PUSH2 0x1491 PUSH2 0x143B JUMP JUMPDEST JUMPDEST POP SWAP2 SWAP1 POP JUMP JUMPDEST PUSH32 0x4E487B7100000000000000000000000000000000000000000000000000000000 PUSH0 MSTORE PUSH1 0x32 PUSH1 0x4 MSTORE PUSH1 0x24 PUSH0 REVERT JUMPDEST PUSH32 0x547765657420646F6573206E6F74206578697374000000000000000000000000 PUSH0 DUP3 ADD MSTORE POP JUMP JUMPDEST PUSH0 PUSH2 0x14F9 PUSH1 0x14 DUP4 PUSH2 0xED9 JUMP JUMPDEST SWAP2 POP PUSH2 0x1504 DUP3 PUSH2 0x14C5 JUMP JUMPDEST PUSH1 0x20 DUP3 ADD SWAP1 POP SWAP2 SWAP1 POP JUMP JUMPDEST PUSH0 PUSH1 0x20 DUP3 ADD SWAP1 POP DUP2 DUP2 SUB PUSH0 DUP4 ADD MSTORE PUSH2 0x1526 DUP2 PUSH2 0x14ED JUMP JUMPDEST SWAP1 POP SWAP2 SWAP1 POP JUMP JUMPDEST PUSH32 0x547765657420686173206E6F206C696B65730000000000000000000000000000 PUSH0 DUP3 ADD MSTORE POP JUMP JUMPDEST PUSH0 PUSH2 0x1561 PUSH1 0x12 DUP4 PUSH2 0xED9 JUMP JUMPDEST SWAP2 POP PUSH2 0x156C DUP3 PUSH2 0x152D JUMP JUMPDEST PUSH1 0x20 DUP3 ADD SWAP1 POP SWAP2 SWAP1 POP JUMP JUMPDEST PUSH0 PUSH1 0x20 DUP3 ADD SWAP1 POP DUP2 DUP2 SUB PUSH0 DUP4 ADD MSTORE PUSH2 0x158E DUP2 PUSH2 0x1555 JUMP JUMPDEST SWAP1 POP SWAP2 SWAP1 POP JUMP JUMPDEST PUSH32 0x4E487B7100000000000000000000000000000000000000000000000000000000 PUSH0 MSTORE PUSH1 0x11 PUSH1 0x4 MSTORE PUSH1 0x24 PUSH0 REVERT JUMPDEST PUSH0 PUSH2 0x15CC DUP3 PUSH2 0xE40 JUMP JUMPDEST SWAP2 POP PUSH0 DUP3 SUB PUSH2 0x15DE JUMPI PUSH2 0x15DD PUSH2 0x1595 JUMP JUMPDEST JUMPDEST PUSH1 0x1 DUP3 SUB SWAP1 POP SWAP2 SWAP1 POP JUMP JUMPDEST PUSH0 PUSH1 0x80 DUP3 ADD SWAP1 POP PUSH2 0x15FC PUSH0 DUP4 ADD DUP8 PUSH2 0xEC0 JUMP JUMPDEST PUSH2 0x1609 PUSH1 0x20 DUP4 ADD DUP7 PUSH2 0xEC0 JUMP JUMPDEST PUSH2 0x1616 PUSH1 0x40 DUP4 ADD DUP6 PUSH2 0xEB1 JUMP JUMPDEST PUSH2 0x1623 PUSH1 0x60 DUP4 ADD DUP5 PUSH2 0xEB1 JUMP JUMPDEST SWAP6 SWAP5 POP POP POP POP POP JUMP JUMPDEST PUSH32 0x596F7520617265206E6F742074686520636F6E7472616374206F776E65720000 PUSH0 DUP3 ADD MSTORE POP JUMP JUMPDEST PUSH0 PUSH2 0x1660 PUSH1 0x1E DUP4 PUSH2 0xED9 JUMP JUMPDEST SWAP2 POP PUSH2 0x166B DUP3 PUSH2 0x162C JUMP JUMPDEST PUSH1 0x20 DUP3 ADD SWAP1 POP SWAP2 SWAP1 POP JUMP JUMPDEST PUSH0 PUSH1 0x20 DUP3 ADD SWAP1 POP DUP2 DUP2 SUB PUSH0 DUP4 ADD MSTORE PUSH2 0x168D DUP2 PUSH2 0x1654 JUMP JUMPDEST SWAP1 POP SWAP2 SWAP1 POP JUMP JUMPDEST PUSH0 PUSH2 0x169E DUP3 PUSH2 0xE40 JUMP JUMPDEST SWAP2 POP PUSH32 0xFFFFFFFFFFFFFFFFFFFFFFFFFFFFFFFFFFFFFFFFFFFFFFFFFFFFFFFFFFFFFFFF DUP3 SUB PUSH2 0x16D0 JUMPI PUSH2 0x16CF PUSH2 0x1595 JUMP JUMPDEST JUMPDEST PUSH1 0x1 DUP3 ADD SWAP1 POP SWAP2 SWAP1 POP JUMP JUMPDEST PUSH32 0x54776565742073686F756C6420626520756E6465722032383020636861726163 PUSH0 DUP3 ADD MSTORE PUSH32 0x7465727300000000000000000000000000000000000000000000000000000000 PUSH1 0x20 DUP3 ADD MSTORE POP JUMP JUMPDEST PUSH0 PUSH2 0x1735 PUSH1 0x24 DUP4 PUSH2 0xED9 JUMP JUMPDEST SWAP2 POP PUSH2 0x1740 DUP3 PUSH2 0x16DB JUMP JUMPDEST PUSH1 0x40 DUP3 ADD SWAP1 POP SWAP2 SWAP1 POP JUMP JUMPDEST PUSH0 PUSH1 0x20 DUP3 ADD SWAP1 POP DUP2 DUP2 SUB PUSH0 DUP4 ADD MSTORE PUSH2 0x1762 DUP2 PUSH2 0x1729 JUMP JUMPDEST SWAP1 POP SWAP2 SWAP1 POP JUMP JUMPDEST PUSH0 DUP2 SWAP1 POP DUP2 PUSH0 MSTORE PUSH1 0x20 PUSH0 KECCAK256 SWAP1 POP SWAP2 SWAP1 POP JUMP JUMPDEST PUSH0 PUSH1 0x20 PUSH1 0x1F DUP4 ADD DIV SWAP1 POP SWAP2 SWAP1 POP JUMP JUMPDEST PUSH0 DUP3 DUP3 SHL SWAP1 POP SWAP3 SWAP2 POP POP JUMP JUMPDEST PUSH0 PUSH1 0x8 DUP4 MUL PUSH2 0x17C5 PUSH32 0xFFFFFFFFFFFFFFFFFFFFFFFFFFFFFFFFFFFFFFFFFFFFFFFFFFFFFFFFFFFFFFFF DUP3 PUSH2 0x178A JUMP JUMPDEST PUSH2 0x17CF DUP7 DUP4 PUSH2 0x178A JUMP JUMPDEST SWAP6 POP DUP1 NOT DUP5 AND SWAP4 POP DUP1 DUP7 AND DUP5 OR SWAP3 POP POP POP SWAP4 SWAP3 POP POP POP JUMP JUMPDEST PUSH0 DUP2 SWAP1 POP SWAP2 SWAP1 POP JUMP JUMPDEST PUSH0 PUSH2 0x180A PUSH2 0x1805 PUSH2 0x1800 DUP5 PUSH2 0xE40 JUMP JUMPDEST PUSH2 0x17E7 JUMP JUMPDEST PUSH2 0xE40 JUMP JUMPDEST SWAP1 POP SWAP2 SWAP1 POP JUMP JUMPDEST PUSH0 DUP2 SWAP1 POP SWAP2 SWAP1 POP JUMP JUMPDEST PUSH2 0x1823 DUP4 PUSH2 0x17F0 JUMP JUMPDEST PUSH2 0x1837 PUSH2 0x182F DUP3 PUSH2 0x1811 JUMP JUMPDEST DUP5 DUP5 SLOAD PUSH2 0x1796 JUMP JUMPDEST DUP3 SSTORE POP POP POP POP JUMP JUMPDEST PUSH0 PUSH0 SWAP1 POP SWAP1 JUMP JUMPDEST PUSH2 0x184E PUSH2 0x183F JUMP JUMPDEST PUSH2 0x1859 DUP2 DUP5 DUP5 PUSH2 0x181A JUMP JUMPDEST POP POP POP JUMP JUMPDEST JUMPDEST DUP2 DUP2 LT ISZERO PUSH2 0x187C JUMPI PUSH2 0x1871 PUSH0 DUP3 PUSH2 0x1846 JUMP JUMPDEST PUSH1 0x1 DUP2 ADD SWAP1 POP PUSH2 0x185F JUMP JUMPDEST POP POP JUMP JUMPDEST PUSH1 0x1F DUP3 GT ISZERO PUSH2 0x18C1 JUMPI PUSH2 0x1892 DUP2 PUSH2 0x1769 JUMP JUMPDEST PUSH2 0x189B DUP5 PUSH2 0x177B JUMP JUMPDEST DUP2 ADD PUSH1 0x20 DUP6 LT ISZERO PUSH2 0x18AA JUMPI DUP2 SWAP1 POP JUMPDEST PUSH2 0x18BE PUSH2 0x18B6 DUP6 PUSH2 0x177B JUMP JUMPDEST DUP4 ADD DUP3 PUSH2 0x185E JUMP JUMPDEST POP POP JUMPDEST POP POP POP JUMP JUMPDEST PUSH0 DUP3 DUP3 SHR SWAP1 POP SWAP3 SWAP2 POP POP JUMP JUMPDEST PUSH0 PUSH2 0x18E1 PUSH0 NOT DUP5 PUSH1 0x8 MUL PUSH2 0x18C6 JUMP JUMPDEST NOT DUP1 DUP4 AND SWAP2 POP POP SWAP3 SWAP2 POP POP JUMP JUMPDEST PUSH0 PUSH2 0x18F9 DUP4 DUP4 PUSH2 0x18D2 JUMP JUMPDEST SWAP2 POP DUP3 PUSH1 0x2 MUL DUP3 OR SWAP1 POP SWAP3 SWAP2 POP POP JUMP JUMPDEST PUSH2 0x1912 DUP3 PUSH2 0xECF JUMP JUMPDEST PUSH8 0xFFFFFFFFFFFFFFFF DUP2 GT ISZERO PUSH2 0x192B JUMPI PUSH2 0x192A PUSH2 0x11E0 JUMP JUMPDEST JUMPDEST PUSH2 0x1935 DUP3 SLOAD PUSH2 0x1468 JUMP JUMPDEST PUSH2 0x1940 DUP3 DUP3 DUP6 PUSH2 0x1880 JUMP JUMPDEST PUSH0 PUSH1 0x20 SWAP1 POP PUSH1 0x1F DUP4 GT PUSH1 0x1 DUP2 EQ PUSH2 0x1971 JUMPI PUSH0 DUP5 ISZERO PUSH2 0x195F JUMPI DUP3 DUP8 ADD MLOAD SWAP1 POP JUMPDEST PUSH2 0x1969 DUP6 DUP3 PUSH2 0x18EE JUMP JUMPDEST DUP7 SSTORE POP PUSH2 0x19D0 JUMP JUMPDEST PUSH1 0x1F NOT DUP5 AND PUSH2 0x197F DUP7 PUSH2 0x1769 JUMP JUMPDEST PUSH0 JUMPDEST DUP3 DUP2 LT ISZERO PUSH2 0x19A6 JUMPI DUP5 DUP10 ADD MLOAD DUP3 SSTORE PUSH1 0x1 DUP3 ADD SWAP2 POP PUSH1 0x20 DUP6 ADD SWAP5 POP PUSH1 0x20 DUP2 ADD SWAP1 POP PUSH2 0x1981 JUMP JUMPDEST DUP7 DUP4 LT ISZERO PUSH2 0x19C3 JUMPI DUP5 DUP10 ADD MLOAD PUSH2 0x19BF PUSH1 0x1F DUP10 AND DUP3 PUSH2 0x18D2 JUMP JUMPDEST DUP4 SSTORE POP JUMPDEST PUSH1 0x1 PUSH1 0x2 DUP9 MUL ADD DUP9 SSTORE POP POP POP JUMPDEST POP POP POP POP POP POP JUMP JUMPDEST PUSH0 PUSH1 0x80 DUP3 ADD SWAP1 POP PUSH2 0x19EB PUSH0 DUP4 ADD DUP8 PUSH2 0xEB1 JUMP JUMPDEST PUSH2 0x19F8 PUSH1 0x20 DUP4 ADD DUP7 PUSH2 0xEC0 JUMP JUMPDEST DUP2 DUP2 SUB PUSH1 0x40 DUP4 ADD MSTORE PUSH2 0x1A0A DUP2 DUP6 PUSH2 0xF07 JUMP JUMPDEST SWAP1 POP PUSH2 0x1A19 PUSH1 0x60 DUP4 ADD DUP5 PUSH2 0xEB1 JUMP JUMPDEST SWAP6 SWAP5 POP POP POP POP POP JUMP JUMPDEST PUSH0 PUSH2 0x1A2C DUP3 PUSH2 0xE40 JUMP JUMPDEST SWAP2 POP PUSH2 0x1A37 DUP4 PUSH2 0xE40 JUMP JUMPDEST SWAP3 POP DUP3 DUP3 ADD SWAP1 POP DUP1 DUP3 GT ISZERO PUSH2 0x1A4F JUMPI PUSH2 0x1A4E PUSH2 0x1595 JUMP JUMPDEST JUMPDEST SWAP3 SWAP2 POP POP JUMP INVALID LOG2 PUSH5 0x6970667358 0x22 SLT KECCAK256 CALLDATALOAD XOR PUSH26 0x4EFB47C12943F4E7EDC38F339EEB92E3036F7091C5DA3A6FB92F CREATE 0xC1 DUP10 PUSH5 0x736F6C6343 STOP ADDMOD 0x1E STOP CALLER "
				},
				"gasEstimates": {
					"creation": {
						"codeDepositCost": "1359000",
						"executionCost": "49945",
						"totalCost": "1408945"
					},
					"external": {
						"changeTweetLength(uint16)": "26908",
						"createTweet(string)": "infinite",
						"getAllTweets(address)": "infinite",
						"getTotalLikes(address)": "infinite",
						"getTweet(uint256)": "infinite",
						"likeTweet(address,uint256)": "infinite",
						"owner()": "2574",
						"tweets(address,uint256)": "infinite",
						"unlikeTweet(address,uint256)": "infinite"
					}
				},
				"methodIdentifiers": {
					"changeTweetLength(uint16)": "58bfa4ab",
					"createTweet(string)": "7c9cd2bc",
					"getAllTweets(address)": "12e7ee1c",
					"getTotalLikes(address)": "820785cc",
					"getTweet(uint256)": "c3ad5ecb",
					"likeTweet(address,uint256)": "63378216",
					"owner()": "8da5cb5b",
					"tweets(address,uint256)": "05a1b4a9",
					"unlikeTweet(address,uint256)": "3d9b569f"
				}
			},
			"storageLayout": {
				"storage": [
					{
						"astId": 4,
						"contract": "contracts/_Tw.sol:Twitter",
						"label": "MAX_TWEET_LENGTH",
						"offset": 0,
						"slot": "0",
						"type": "t_uint16"
					},
					{
						"astId": 21,
						"contract": "contracts/_Tw.sol:Twitter",
						"label": "tweets",
						"offset": 0,
						"slot": "1",
						"type": "t_mapping(t_address,t_array(t_struct(Tweet)15_storage)dyn_storage)"
					},
					{
						"astId": 23,
						"contract": "contracts/_Tw.sol:Twitter",
						"label": "owner",
						"offset": 0,
						"slot": "2",
						"type": "t_address"
					}
				],
				"types": {
					"t_address": {
						"encoding": "inplace",
						"label": "address",
						"numberOfBytes": "20"
					},
					"t_array(t_struct(Tweet)15_storage)dyn_storage": {
						"base": "t_struct(Tweet)15_storage",
						"encoding": "dynamic_array",
						"label": "struct Twitter.Tweet[]",
						"numberOfBytes": "32"
					},
					"t_mapping(t_address,t_array(t_struct(Tweet)15_storage)dyn_storage)": {
						"encoding": "mapping",
						"key": "t_address",
						"label": "mapping(address => struct Twitter.Tweet[])",
						"numberOfBytes": "32",
						"value": "t_array(t_struct(Tweet)15_storage)dyn_storage"
					},
					"t_string_storage": {
						"encoding": "bytes",
						"label": "string",
						"numberOfBytes": "32"
					},
					"t_struct(Tweet)15_storage": {
						"encoding": "inplace",
						"label": "struct Twitter.Tweet",
						"members": [
							{
								"astId": 6,
								"contract": "contracts/_Tw.sol:Twitter",
								"label": "id",
								"offset": 0,
								"slot": "0",
								"type": "t_uint256"
							},
							{
								"astId": 8,
								"contract": "contracts/_Tw.sol:Twitter",
								"label": "author",
								"offset": 0,
								"slot": "1",
								"type": "t_address"
							},
							{
								"astId": 10,
								"contract": "contracts/_Tw.sol:Twitter",
								"label": "content",
								"offset": 0,
								"slot": "2",
								"type": "t_string_storage"
							},
							{
								"astId": 12,
								"contract": "contracts/_Tw.sol:Twitter",
								"label": "timestamp",
								"offset": 0,
								"slot": "3",
								"type": "t_uint256"
							},
							{
								"astId": 14,
								"contract": "contracts/_Tw.sol:Twitter",
								"label": "likes",
								"offset": 0,
								"slot": "4",
								"type": "t_uint256"
							}
						],
						"numberOfBytes": "160"
					},
					"t_uint16": {
						"encoding": "inplace",
						"label": "uint16",
						"numberOfBytes": "2"
					},
					"t_uint256": {
						"encoding": "inplace",
						"label": "uint256",
						"numberOfBytes": "32"
					}
				}
			},
			"userdoc": {
				"kind": "user",
				"methods": {},
				"version": 1
			}
		}
	}
}