{
	"contracts/_Tw.sol": {
		"Twitter": {
			"abi": [
				{
					"inputs": [],
					"stateMutability": "nonpayable",
					"type": "constructor"
				},
				{
					"anonymous": false,
					"inputs": [
						{
							"indexed": false,
							"internalType": "uint256",
							"name": "id",
							"type": "uint256"
						},
						{
							"indexed": false,
							"internalType": "address",
							"name": "author",
							"type": "address"
						},
						{
							"indexed": false,
							"internalType": "string",
							"name": "content",
							"type": "string"
						},
						{
							"indexed": false,
							"internalType": "uint256",
							"name": "timestamp",
							"type": "uint256"
						}
					],
					"name": "TweetCreated",
					"type": "event"
				},
				{
					"anonymous": false,
					"inputs": [
						{
							"indexed": false,
							"internalType": "address",
							"name": "liker",
							"type": "address"
						},
						{
							"indexed": false,
							"internalType": "address",
							"name": "tweetAuthor",
							"type": "address"
						},
						{
							"indexed": false,
							"internalType": "uint256",
							"name": "tweetId",
							"type": "uint256"
						},
						{
							"indexed": false,
							"internalType": "uint256",
							"name": "newLikeCount",
							"type": "uint256"
						}
					],
					"name": "TweetLiked",
					"type": "event"
				},
				{
					"anonymous": false,
					"inputs": [
						{
							"indexed": false,
							"internalType": "address",
							"name": "unliked",
							"type": "address"
						},
						{
							"indexed": false,
							"internalType": "address",
							"name": "tweetAuthor",
							"type": "address"
						},
						{
							"indexed": false,
							"internalType": "uint256",
							"name": "tweetId",
							"type": "uint256"
						},
						{
							"indexed": false,
							"internalType": "uint256",
							"name": "newLikeCount",
							"type": "uint256"
						}
					],
					"name": "TweetUnliked",
					"type": "event"
				},
				{
					"inputs": [
						{
							"internalType": "uint16",
							"name": "newTweetLength",
							"type": "uint16"
						}
					],
					"name": "changeTweetLength",
					"outputs": [],
					"stateMutability": "nonpayable",
					"type": "function"
				},
				{
					"inputs": [
						{
							"internalType": "string",
							"name": "_tweet",
							"type": "string"
						}
					],
					"name": "createTweet",
					"outputs": [],
					"stateMutability": "nonpayable",
					"type": "function"
				},
				{
					"inputs": [
						{
							"internalType": "address",
							"name": "_owner",
							"type": "address"
						}
					],
					"name": "getAllTweets",
					"outputs": [
						{
							"components": [
								{
									"internalType": "uint256",
									"name": "id",
									"type": "uint256"
								},
								{
									"internalType": "address",
									"name": "author",
									"type": "address"
								},
								{
									"internalType": "string",
									"name": "content",
									"type": "string"
								},
								{
									"internalType": "uint256",
									"name": "timestamp",
									"type": "uint256"
								},
								{
									"internalType": "uint256",
									"name": "likes",
									"type": "uint256"
								}
							],
							"internalType": "struct Twitter.Tweet[]",
							"name": "",
							"type": "tuple[]"
						}
					],
					"stateMutability": "view",
					"type": "function"
				},
				{
					"inputs": [
						{
							"internalType": "uint256",
							"name": "_i",
							"type": "uint256"
						}
					],
					"name": "getTweet",
					"outputs": [
						{
							"components": [
								{
									"internalType": "uint256",
									"name": "id",
									"type": "uint256"
								},
								{
									"internalType": "address",
									"name": "author",
									"type": "address"
								},
								{
									"internalType": "string",
									"name": "content",
									"type": "string"
								},
								{
									"internalType": "uint256",
									"name": "timestamp",
									"type": "uint256"
								},
								{
									"internalType": "uint256",
									"name": "likes",
									"type": "uint256"
								}
							],
							"internalType": "struct Twitter.Tweet",
							"name": "",
							"type": "tuple"
						}
					],
					"stateMutability": "view",
					"type": "function"
				},
				{
					"inputs": [
						{
							"internalType": "address",
							"name": "author",
							"type": "address"
						},
						{
							"internalType": "uint256",
							"name": "id",
							"type": "uint256"
						}
					],
					"name": "likeTweet",
					"outputs": [],
					"stateMutability": "nonpayable",
					"type": "function"
				},
				{
					"inputs": [],
					"name": "owner",
					"outputs": [
						{
							"internalType": "address",
							"name": "",
							"type": "address"
						}
					],
					"stateMutability": "view",
					"type": "function"
				},
				{
					"inputs": [
						{
							"internalType": "address",
							"name": "",
							"type": "address"
						},
						{
							"internalType": "uint256",
							"name": "",
							"type": "uint256"
						}
					],
					"name": "tweets",
					"outputs": [
						{
							"internalType": "uint256",
							"name": "id",
							"type": "uint256"
						},
						{
							"internalType": "address",
							"name": "author",
							"type": "address"
						},
						{
							"internalType": "string",
							"name": "content",
							"type": "string"
						},
						{
							"internalType": "uint256",
							"name": "timestamp",
							"type": "uint256"
						},
						{
							"internalType": "uint256",
							"name": "likes",
							"type": "uint256"
						}
					],
					"stateMutability": "view",
					"type": "function"
				},
				{
					"inputs": [
						{
							"internalType": "address",
							"name": "author",
							"type": "address"
						},
						{
							"internalType": "uint256",
							"name": "id",
							"type": "uint256"
						}
					],
					"name": "unlikeTweet",
					"outputs": [],
					"stateMutability": "nonpayable",
					"type": "function"
				}
			],
			"devdoc": {
				"kind": "dev",
				"methods": {},
				"version": 1
			},
			"evm": {
				"assembly": "    /* \"contracts/_Tw.sol\":57:2244  contract Twitter {... */\n  mstore(0x40, 0x80)\n    /* \"contracts/_Tw.sol\":106:109  280 */\n  0x0118\n    /* \"contracts/_Tw.sol\":80:109  uint16 MAX_TWEET_LENGTH = 280 */\n  0x00\n  exp(0x0100, 0x00)\n  dup2\n  sload\n  dup2\n  0xffff\n  mul\n  not\n  and\n  swap1\n  dup4\n  0xffff\n  and\n  mul\n  or\n  swap1\n  sstore\n  pop\n    /* \"contracts/_Tw.sol\":626:675  constructor() {... */\n  callvalue\n  dup1\n  iszero\n  tag_1\n  jumpi\n  revert(0x00, 0x00)\ntag_1:\n  pop\n    /* \"contracts/_Tw.sol\":658:668  msg.sender */\n  caller\n    /* \"contracts/_Tw.sol\":650:655  owner */\n  0x02\n  0x00\n    /* \"contracts/_Tw.sol\":650:668  owner = msg.sender */\n  0x0100\n  exp\n  dup2\n  sload\n  dup2\n  0xffffffffffffffffffffffffffffffffffffffff\n  mul\n  not\n  and\n  swap1\n  dup4\n  0xffffffffffffffffffffffffffffffffffffffff\n  and\n  mul\n  or\n  swap1\n  sstore\n  pop\n    /* \"contracts/_Tw.sol\":57:2244  contract Twitter {... */\n  dataSize(sub_0)\n  dup1\n  dataOffset(sub_0)\n  0x00\n  codecopy\n  0x00\n  return\nstop\n\nsub_0: assembly {\n        /* \"contracts/_Tw.sol\":57:2244  contract Twitter {... */\n      mstore(0x40, 0x80)\n      callvalue\n      dup1\n      iszero\n      tag_1\n      jumpi\n      revert(0x00, 0x00)\n    tag_1:\n      pop\n      jumpi(tag_2, lt(calldatasize, 0x04))\n      shr(0xe0, calldataload(0x00))\n      dup1\n      0x63378216\n      gt\n      tag_11\n      jumpi\n      dup1\n      0x63378216\n      eq\n      tag_7\n      jumpi\n      dup1\n      0x7c9cd2bc\n      eq\n      tag_8\n      jumpi\n      dup1\n      0x8da5cb5b\n      eq\n      tag_9\n      jumpi\n      dup1\n      0xc3ad5ecb\n      eq\n      tag_10\n      jumpi\n      jump(tag_2)\n    tag_11:\n      dup1\n      0x05a1b4a9\n      eq\n      tag_3\n      jumpi\n      dup1\n      0x12e7ee1c\n      eq\n      tag_4\n      jumpi\n      dup1\n      0x3d9b569f\n      eq\n      tag_5\n      jumpi\n      dup1\n      0x58bfa4ab\n      eq\n      tag_6\n      jumpi\n    tag_2:\n      revert(0x00, 0x00)\n        /* \"contracts/_Tw.sol\":260:302  mapping(address =>  Tweet[]) public tweets */\n    tag_3:\n      tag_12\n      0x04\n      dup1\n      calldatasize\n      sub\n      dup2\n      add\n      swap1\n      tag_13\n      swap2\n      swap1\n      tag_14\n      jump\t// in\n    tag_13:\n      tag_15\n      jump\t// in\n    tag_12:\n      mload(0x40)\n      tag_16\n      swap6\n      swap5\n      swap4\n      swap3\n      swap2\n      swap1\n      tag_17\n      jump\t// in\n    tag_16:\n      mload(0x40)\n      dup1\n      swap2\n      sub\n      swap1\n      return\n        /* \"contracts/_Tw.sol\":2130:2242  function getAllTweets(address _owner) public view returns(Tweet[] memory) {... */\n    tag_4:\n      tag_18\n      0x04\n      dup1\n      calldatasize\n      sub\n      dup2\n      add\n      swap1\n      tag_19\n      swap2\n      swap1\n      tag_20\n      jump\t// in\n    tag_19:\n      tag_21\n      jump\t// in\n    tag_18:\n      mload(0x40)\n      tag_22\n      swap2\n      swap1\n      tag_23\n      jump\t// in\n    tag_22:\n      mload(0x40)\n      dup1\n      swap2\n      sub\n      swap1\n      return\n        /* \"contracts/_Tw.sol\":1691:2009  function unlikeTweet(address author, uint256 id) external {... */\n    tag_5:\n      tag_24\n      0x04\n      dup1\n      calldatasize\n      sub\n      dup2\n      add\n      swap1\n      tag_25\n      swap2\n      swap1\n      tag_14\n      jump\t// in\n    tag_25:\n      tag_26\n      jump\t// in\n    tag_24:\n      stop\n        /* \"contracts/_Tw.sol\":798:914  function changeTweetLength(uint16 newTweetLength) public onlyOwner{... */\n    tag_6:\n      tag_27\n      0x04\n      dup1\n      calldatasize\n      sub\n      dup2\n      add\n      swap1\n      tag_28\n      swap2\n      swap1\n      tag_29\n      jump\t// in\n    tag_28:\n      tag_30\n      jump\t// in\n    tag_27:\n      stop\n        /* \"contracts/_Tw.sol\":1440:1685  function likeTweet(address author, uint256 id) external {... */\n    tag_7:\n      tag_31\n      0x04\n      dup1\n      calldatasize\n      sub\n      dup2\n      add\n      swap1\n      tag_32\n      swap2\n      swap1\n      tag_14\n      jump\t// in\n    tag_32:\n      tag_33\n      jump\t// in\n    tag_31:\n      stop\n        /* \"contracts/_Tw.sol\":920:1434  function createTweet(string memory _tweet) public {... */\n    tag_8:\n      tag_34\n      0x04\n      dup1\n      calldatasize\n      sub\n      dup2\n      add\n      swap1\n      tag_35\n      swap2\n      swap1\n      tag_36\n      jump\t// in\n    tag_35:\n      tag_37\n      jump\t// in\n    tag_34:\n      stop\n        /* \"contracts/_Tw.sol\":313:333  address public owner */\n    tag_9:\n      tag_38\n      tag_39\n      jump\t// in\n    tag_38:\n      mload(0x40)\n      tag_40\n      swap2\n      swap1\n      tag_41\n      jump\t// in\n    tag_40:\n      mload(0x40)\n      dup1\n      swap2\n      sub\n      swap1\n      return\n        /* \"contracts/_Tw.sol\":2015:2123  function getTweet(uint _i) public view returns (Tweet memory) {... */\n    tag_10:\n      tag_42\n      0x04\n      dup1\n      calldatasize\n      sub\n      dup2\n      add\n      swap1\n      tag_43\n      swap2\n      swap1\n      tag_44\n      jump\t// in\n    tag_43:\n      tag_45\n      jump\t// in\n    tag_42:\n      mload(0x40)\n      tag_46\n      swap2\n      swap1\n      tag_47\n      jump\t// in\n    tag_46:\n      mload(0x40)\n      dup1\n      swap2\n      sub\n      swap1\n      return\n        /* \"contracts/_Tw.sol\":260:302  mapping(address =>  Tweet[]) public tweets */\n    tag_15:\n      mstore(0x20, 0x01)\n      dup2\n      0x00\n      mstore\n      keccak256(0x00, 0x40)\n      dup2\n      dup2\n      sload\n      dup2\n      lt\n      tag_48\n      jumpi\n      0x00\n      dup1\n      revert\n    tag_48:\n      swap1\n      0x00\n      mstore\n      keccak256(0x00, 0x20)\n      swap1\n      0x05\n      mul\n      add\n      0x00\n      swap2\n      pop\n      swap2\n      pop\n      pop\n      dup1\n      0x00\n      add\n      sload\n      swap1\n      dup1\n      0x01\n      add\n      0x00\n      swap1\n      sload\n      swap1\n      0x0100\n      exp\n      swap1\n      div\n      0xffffffffffffffffffffffffffffffffffffffff\n      and\n      swap1\n      dup1\n      0x02\n      add\n      dup1\n      sload\n      tag_50\n      swap1\n      tag_51\n      jump\t// in\n    tag_50:\n      dup1\n      0x1f\n      add\n      0x20\n      dup1\n      swap2\n      div\n      mul\n      0x20\n      add\n      mload(0x40)\n      swap1\n      dup2\n      add\n      0x40\n      mstore\n      dup1\n      swap3\n      swap2\n      swap1\n      dup2\n      dup2\n      mstore\n      0x20\n      add\n      dup3\n      dup1\n      sload\n      tag_52\n      swap1\n      tag_51\n      jump\t// in\n    tag_52:\n      dup1\n      iszero\n      tag_53\n      jumpi\n      dup1\n      0x1f\n      lt\n      tag_54\n      jumpi\n      0x0100\n      dup1\n      dup4\n      sload\n      div\n      mul\n      dup4\n      mstore\n      swap2\n      0x20\n      add\n      swap2\n      jump(tag_53)\n    tag_54:\n      dup3\n      add\n      swap2\n      swap1\n      0x00\n      mstore\n      keccak256(0x00, 0x20)\n      swap1\n    tag_55:\n      dup2\n      sload\n      dup2\n      mstore\n      swap1\n      0x01\n      add\n      swap1\n      0x20\n      add\n      dup1\n      dup4\n      gt\n      tag_55\n      jumpi\n      dup3\n      swap1\n      sub\n      0x1f\n      and\n      dup3\n      add\n      swap2\n    tag_53:\n      pop\n      pop\n      pop\n      pop\n      pop\n      swap1\n      dup1\n      0x03\n      add\n      sload\n      swap1\n      dup1\n      0x04\n      add\n      sload\n      swap1\n      pop\n      dup6\n      jump\t// out\n        /* \"contracts/_Tw.sol\":2130:2242  function getAllTweets(address _owner) public view returns(Tweet[] memory) {... */\n    tag_21:\n        /* \"contracts/_Tw.sol\":2188:2202  Tweet[] memory */\n      0x60\n        /* \"contracts/_Tw.sol\":2221:2227  tweets */\n      0x01\n        /* \"contracts/_Tw.sol\":2221:2235  tweets[_owner] */\n      0x00\n        /* \"contracts/_Tw.sol\":2228:2234  _owner */\n      dup4\n        /* \"contracts/_Tw.sol\":2221:2235  tweets[_owner] */\n      0xffffffffffffffffffffffffffffffffffffffff\n      and\n      0xffffffffffffffffffffffffffffffffffffffff\n      and\n      dup2\n      mstore\n      0x20\n      add\n      swap1\n      dup2\n      mstore\n      0x20\n      add\n      0x00\n      keccak256\n        /* \"contracts/_Tw.sol\":2214:2235  return tweets[_owner] */\n      dup1\n      sload\n      dup1\n      0x20\n      mul\n      0x20\n      add\n      mload(0x40)\n      swap1\n      dup2\n      add\n      0x40\n      mstore\n      dup1\n      swap3\n      swap2\n      swap1\n      dup2\n      dup2\n      mstore\n      0x20\n      add\n      0x00\n      swap1\n    tag_57:\n      dup3\n      dup3\n      lt\n      iszero\n      tag_58\n      jumpi\n      dup4\n      dup3\n      swap1\n      0x00\n      mstore\n      keccak256(0x00, 0x20)\n      swap1\n      0x05\n      mul\n      add\n      mload(0x40)\n      dup1\n      0xa0\n      add\n      0x40\n      mstore\n      swap1\n      dup2\n      0x00\n      dup3\n      add\n      sload\n      dup2\n      mstore\n      0x20\n      add\n      0x01\n      dup3\n      add\n      0x00\n      swap1\n      sload\n      swap1\n      0x0100\n      exp\n      swap1\n      div\n      0xffffffffffffffffffffffffffffffffffffffff\n      and\n      0xffffffffffffffffffffffffffffffffffffffff\n      and\n      0xffffffffffffffffffffffffffffffffffffffff\n      and\n      dup2\n      mstore\n      0x20\n      add\n      0x02\n      dup3\n      add\n      dup1\n      sload\n      tag_60\n      swap1\n      tag_51\n      jump\t// in\n    tag_60:\n      dup1\n      0x1f\n      add\n      0x20\n      dup1\n      swap2\n      div\n      mul\n      0x20\n      add\n      mload(0x40)\n      swap1\n      dup2\n      add\n      0x40\n      mstore\n      dup1\n      swap3\n      swap2\n      swap1\n      dup2\n      dup2\n      mstore\n      0x20\n      add\n      dup3\n      dup1\n      sload\n      tag_61\n      swap1\n      tag_51\n      jump\t// in\n    tag_61:\n      dup1\n      iszero\n      tag_62\n      jumpi\n      dup1\n      0x1f\n      lt\n      tag_63\n      jumpi\n      0x0100\n      dup1\n      dup4\n      sload\n      div\n      mul\n      dup4\n      mstore\n      swap2\n      0x20\n      add\n      swap2\n      jump(tag_62)\n    tag_63:\n      dup3\n      add\n      swap2\n      swap1\n      0x00\n      mstore\n      keccak256(0x00, 0x20)\n      swap1\n    tag_64:\n      dup2\n      sload\n      dup2\n      mstore\n      swap1\n      0x01\n      add\n      swap1\n      0x20\n      add\n      dup1\n      dup4\n      gt\n      tag_64\n      jumpi\n      dup3\n      swap1\n      sub\n      0x1f\n      and\n      dup3\n      add\n      swap2\n    tag_62:\n      pop\n      pop\n      pop\n      pop\n      pop\n      dup2\n      mstore\n      0x20\n      add\n      0x03\n      dup3\n      add\n      sload\n      dup2\n      mstore\n      0x20\n      add\n      0x04\n      dup3\n      add\n      sload\n      dup2\n      mstore\n      pop\n      pop\n      dup2\n      mstore\n      0x20\n      add\n      swap1\n      0x01\n      add\n      swap1\n      jump(tag_57)\n    tag_58:\n      pop\n      pop\n      pop\n      pop\n      swap1\n      pop\n        /* \"contracts/_Tw.sol\":2130:2242  function getAllTweets(address _owner) public view returns(Tweet[] memory) {... */\n      swap2\n      swap1\n      pop\n      jump\t// out\n        /* \"contracts/_Tw.sol\":1691:2009  function unlikeTweet(address author, uint256 id) external {... */\n    tag_26:\n        /* \"contracts/_Tw.sol\":1792:1794  id */\n      dup1\n        /* \"contracts/_Tw.sol\":1767:1773  tweets */\n      0x01\n        /* \"contracts/_Tw.sol\":1767:1781  tweets[author] */\n      0x00\n        /* \"contracts/_Tw.sol\":1774:1780  author */\n      dup5\n        /* \"contracts/_Tw.sol\":1767:1781  tweets[author] */\n      0xffffffffffffffffffffffffffffffffffffffff\n      and\n      0xffffffffffffffffffffffffffffffffffffffff\n      and\n      dup2\n      mstore\n      0x20\n      add\n      swap1\n      dup2\n      mstore\n      0x20\n      add\n      0x00\n      keccak256\n        /* \"contracts/_Tw.sol\":1782:1784  id */\n      dup3\n        /* \"contracts/_Tw.sol\":1767:1785  tweets[author][id] */\n      dup2\n      sload\n      dup2\n      lt\n      tag_66\n      jumpi\n      tag_67\n      tag_68\n      jump\t// in\n    tag_67:\n    tag_66:\n      swap1\n      0x00\n      mstore\n      keccak256(0x00, 0x20)\n      swap1\n      0x05\n      mul\n      add\n        /* \"contracts/_Tw.sol\":1767:1788  tweets[author][id].id */\n      0x00\n      add\n      sload\n        /* \"contracts/_Tw.sol\":1767:1794  tweets[author][id].id == id */\n      eq\n        /* \"contracts/_Tw.sol\":1759:1819  require(tweets[author][id].id == id, \"Tweet does not exist\") */\n      tag_70\n      jumpi\n      mload(0x40)\n      0x08c379a000000000000000000000000000000000000000000000000000000000\n      dup2\n      mstore\n      0x04\n      add\n      tag_71\n      swap1\n      tag_72\n      jump\t// in\n    tag_71:\n      mload(0x40)\n      dup1\n      swap2\n      sub\n      swap1\n      revert\n    tag_70:\n        /* \"contracts/_Tw.sol\":1864:1865  0 */\n      0x00\n        /* \"contracts/_Tw.sol\":1837:1843  tweets */\n      0x01\n        /* \"contracts/_Tw.sol\":1837:1851  tweets[author] */\n      0x00\n        /* \"contracts/_Tw.sol\":1844:1850  author */\n      dup5\n        /* \"contracts/_Tw.sol\":1837:1851  tweets[author] */\n      0xffffffffffffffffffffffffffffffffffffffff\n      and\n      0xffffffffffffffffffffffffffffffffffffffff\n      and\n      dup2\n      mstore\n      0x20\n      add\n      swap1\n      dup2\n      mstore\n      0x20\n      add\n      0x00\n      keccak256\n        /* \"contracts/_Tw.sol\":1852:1854  id */\n      dup3\n        /* \"contracts/_Tw.sol\":1837:1855  tweets[author][id] */\n      dup2\n      sload\n      dup2\n      lt\n      tag_73\n      jumpi\n      tag_74\n      tag_68\n      jump\t// in\n    tag_74:\n    tag_73:\n      swap1\n      0x00\n      mstore\n      keccak256(0x00, 0x20)\n      swap1\n      0x05\n      mul\n      add\n        /* \"contracts/_Tw.sol\":1837:1861  tweets[author][id].likes */\n      0x04\n      add\n      sload\n        /* \"contracts/_Tw.sol\":1837:1865  tweets[author][id].likes > 0 */\n      gt\n        /* \"contracts/_Tw.sol\":1829:1888  require(tweets[author][id].likes > 0, \"Tweet has no likes\") */\n      tag_76\n      jumpi\n      mload(0x40)\n      0x08c379a000000000000000000000000000000000000000000000000000000000\n      dup2\n      mstore\n      0x04\n      add\n      tag_77\n      swap1\n      tag_78\n      jump\t// in\n    tag_77:\n      mload(0x40)\n      dup1\n      swap2\n      sub\n      swap1\n      revert\n    tag_76:\n        /* \"contracts/_Tw.sol\":1898:1904  tweets */\n      0x01\n        /* \"contracts/_Tw.sol\":1898:1912  tweets[author] */\n      0x00\n        /* \"contracts/_Tw.sol\":1905:1911  author */\n      dup4\n        /* \"contracts/_Tw.sol\":1898:1912  tweets[author] */\n      0xffffffffffffffffffffffffffffffffffffffff\n      and\n      0xffffffffffffffffffffffffffffffffffffffff\n      and\n      dup2\n      mstore\n      0x20\n      add\n      swap1\n      dup2\n      mstore\n      0x20\n      add\n      0x00\n      keccak256\n        /* \"contracts/_Tw.sol\":1913:1915  id */\n      dup2\n        /* \"contracts/_Tw.sol\":1898:1916  tweets[author][id] */\n      dup2\n      sload\n      dup2\n      lt\n      tag_79\n      jumpi\n      tag_80\n      tag_68\n      jump\t// in\n    tag_80:\n    tag_79:\n      swap1\n      0x00\n      mstore\n      keccak256(0x00, 0x20)\n      swap1\n      0x05\n      mul\n      add\n        /* \"contracts/_Tw.sol\":1898:1922  tweets[author][id].likes */\n      0x04\n      add\n      0x00\n        /* \"contracts/_Tw.sol\":1898:1924  tweets[author][id].likes-- */\n      dup2\n      sload\n      dup1\n      swap3\n      swap2\n      swap1\n      tag_82\n      swap1\n      tag_83\n      jump\t// in\n    tag_82:\n      swap2\n      swap1\n      pop\n      sstore\n      pop\n        /* \"contracts/_Tw.sol\":1940:2002  TweetUnliked(msg.sender, author, id, tweets[author][id].likes) */\n      0x762c2616349603ac16eba0de8e6141b79129a07ab63bd99e0a80b3a471716943\n        /* \"contracts/_Tw.sol\":1953:1963  msg.sender */\n      caller\n        /* \"contracts/_Tw.sol\":1965:1971  author */\n      dup4\n        /* \"contracts/_Tw.sol\":1973:1975  id */\n      dup4\n        /* \"contracts/_Tw.sol\":1977:1983  tweets */\n      0x01\n        /* \"contracts/_Tw.sol\":1977:1991  tweets[author] */\n      0x00\n        /* \"contracts/_Tw.sol\":1984:1990  author */\n      dup8\n        /* \"contracts/_Tw.sol\":1977:1991  tweets[author] */\n      0xffffffffffffffffffffffffffffffffffffffff\n      and\n      0xffffffffffffffffffffffffffffffffffffffff\n      and\n      dup2\n      mstore\n      0x20\n      add\n      swap1\n      dup2\n      mstore\n      0x20\n      add\n      0x00\n      keccak256\n        /* \"contracts/_Tw.sol\":1992:1994  id */\n      dup6\n        /* \"contracts/_Tw.sol\":1977:1995  tweets[author][id] */\n      dup2\n      sload\n      dup2\n      lt\n      tag_84\n      jumpi\n      tag_85\n      tag_68\n      jump\t// in\n    tag_85:\n    tag_84:\n      swap1\n      0x00\n      mstore\n      keccak256(0x00, 0x20)\n      swap1\n      0x05\n      mul\n      add\n        /* \"contracts/_Tw.sol\":1977:2001  tweets[author][id].likes */\n      0x04\n      add\n      sload\n        /* \"contracts/_Tw.sol\":1940:2002  TweetUnliked(msg.sender, author, id, tweets[author][id].likes) */\n      mload(0x40)\n      tag_87\n      swap5\n      swap4\n      swap3\n      swap2\n      swap1\n      tag_88\n      jump\t// in\n    tag_87:\n      mload(0x40)\n      dup1\n      swap2\n      sub\n      swap1\n      log1\n        /* \"contracts/_Tw.sol\":1691:2009  function unlikeTweet(address author, uint256 id) external {... */\n      pop\n      pop\n      jump\t// out\n        /* \"contracts/_Tw.sol\":798:914  function changeTweetLength(uint16 newTweetLength) public onlyOwner{... */\n    tag_30:\n        /* \"contracts/_Tw.sol\":734:739  owner */\n      0x02\n      0x00\n      swap1\n      sload\n      swap1\n      0x0100\n      exp\n      swap1\n      div\n      0xffffffffffffffffffffffffffffffffffffffff\n      and\n        /* \"contracts/_Tw.sol\":720:739  msg.sender == owner */\n      0xffffffffffffffffffffffffffffffffffffffff\n      and\n        /* \"contracts/_Tw.sol\":720:730  msg.sender */\n      caller\n        /* \"contracts/_Tw.sol\":720:739  msg.sender == owner */\n      0xffffffffffffffffffffffffffffffffffffffff\n      and\n      eq\n        /* \"contracts/_Tw.sol\":712:774  require(msg.sender == owner, \"You are not the contract owner\") */\n      tag_90\n      jumpi\n      mload(0x40)\n      0x08c379a000000000000000000000000000000000000000000000000000000000\n      dup2\n      mstore\n      0x04\n      add\n      tag_91\n      swap1\n      tag_92\n      jump\t// in\n    tag_91:\n      mload(0x40)\n      dup1\n      swap2\n      sub\n      swap1\n      revert\n    tag_90:\n        /* \"contracts/_Tw.sol\":893:907  newTweetLength */\n      dup1\n        /* \"contracts/_Tw.sol\":874:890  MAX_TWEET_LENGTH */\n      0x00\n      0x00\n        /* \"contracts/_Tw.sol\":874:907  MAX_TWEET_LENGTH = newTweetLength */\n      0x0100\n      exp\n      dup2\n      sload\n      dup2\n      0xffff\n      mul\n      not\n      and\n      swap1\n      dup4\n      0xffff\n      and\n      mul\n      or\n      swap1\n      sstore\n      pop\n        /* \"contracts/_Tw.sol\":798:914  function changeTweetLength(uint16 newTweetLength) public onlyOwner{... */\n      pop\n      jump\t// out\n        /* \"contracts/_Tw.sol\":1440:1685  function likeTweet(address author, uint256 id) external {... */\n    tag_33:\n        /* \"contracts/_Tw.sol\":1539:1541  id */\n      dup1\n        /* \"contracts/_Tw.sol\":1514:1520  tweets */\n      0x01\n        /* \"contracts/_Tw.sol\":1514:1528  tweets[author] */\n      0x00\n        /* \"contracts/_Tw.sol\":1521:1527  author */\n      dup5\n        /* \"contracts/_Tw.sol\":1514:1528  tweets[author] */\n      0xffffffffffffffffffffffffffffffffffffffff\n      and\n      0xffffffffffffffffffffffffffffffffffffffff\n      and\n      dup2\n      mstore\n      0x20\n      add\n      swap1\n      dup2\n      mstore\n      0x20\n      add\n      0x00\n      keccak256\n        /* \"contracts/_Tw.sol\":1529:1531  id */\n      dup3\n        /* \"contracts/_Tw.sol\":1514:1532  tweets[author][id] */\n      dup2\n      sload\n      dup2\n      lt\n      tag_95\n      jumpi\n      tag_96\n      tag_68\n      jump\t// in\n    tag_96:\n    tag_95:\n      swap1\n      0x00\n      mstore\n      keccak256(0x00, 0x20)\n      swap1\n      0x05\n      mul\n      add\n        /* \"contracts/_Tw.sol\":1514:1535  tweets[author][id].id */\n      0x00\n      add\n      sload\n        /* \"contracts/_Tw.sol\":1514:1541  tweets[author][id].id == id */\n      eq\n        /* \"contracts/_Tw.sol\":1506:1566  require(tweets[author][id].id == id, \"Tweet does not exist\") */\n      tag_98\n      jumpi\n      mload(0x40)\n      0x08c379a000000000000000000000000000000000000000000000000000000000\n      dup2\n      mstore\n      0x04\n      add\n      tag_99\n      swap1\n      tag_72\n      jump\t// in\n    tag_99:\n      mload(0x40)\n      dup1\n      swap2\n      sub\n      swap1\n      revert\n    tag_98:\n        /* \"contracts/_Tw.sol\":1576:1582  tweets */\n      0x01\n        /* \"contracts/_Tw.sol\":1576:1590  tweets[author] */\n      0x00\n        /* \"contracts/_Tw.sol\":1583:1589  author */\n      dup4\n        /* \"contracts/_Tw.sol\":1576:1590  tweets[author] */\n      0xffffffffffffffffffffffffffffffffffffffff\n      and\n      0xffffffffffffffffffffffffffffffffffffffff\n      and\n      dup2\n      mstore\n      0x20\n      add\n      swap1\n      dup2\n      mstore\n      0x20\n      add\n      0x00\n      keccak256\n        /* \"contracts/_Tw.sol\":1591:1593  id */\n      dup2\n        /* \"contracts/_Tw.sol\":1576:1594  tweets[author][id] */\n      dup2\n      sload\n      dup2\n      lt\n      tag_100\n      jumpi\n      tag_101\n      tag_68\n      jump\t// in\n    tag_101:\n    tag_100:\n      swap1\n      0x00\n      mstore\n      keccak256(0x00, 0x20)\n      swap1\n      0x05\n      mul\n      add\n        /* \"contracts/_Tw.sol\":1576:1600  tweets[author][id].likes */\n      0x04\n      add\n      0x00\n        /* \"contracts/_Tw.sol\":1576:1602  tweets[author][id].likes++ */\n      dup2\n      sload\n      dup1\n      swap3\n      swap2\n      swap1\n      tag_103\n      swap1\n      tag_104\n      jump\t// in\n    tag_103:\n      swap2\n      swap1\n      pop\n      sstore\n      pop\n        /* \"contracts/_Tw.sol\":1618:1678  TweetLiked(msg.sender, author, id, tweets[author][id].likes) */\n      0xe8a76fc0f16d11a00d1e93b689b63d76cf60af914dd3d915375dc41d01a0c3c8\n        /* \"contracts/_Tw.sol\":1629:1639  msg.sender */\n      caller\n        /* \"contracts/_Tw.sol\":1641:1647  author */\n      dup4\n        /* \"contracts/_Tw.sol\":1649:1651  id */\n      dup4\n        /* \"contracts/_Tw.sol\":1653:1659  tweets */\n      0x01\n        /* \"contracts/_Tw.sol\":1653:1667  tweets[author] */\n      0x00\n        /* \"contracts/_Tw.sol\":1660:1666  author */\n      dup8\n        /* \"contracts/_Tw.sol\":1653:1667  tweets[author] */\n      0xffffffffffffffffffffffffffffffffffffffff\n      and\n      0xffffffffffffffffffffffffffffffffffffffff\n      and\n      dup2\n      mstore\n      0x20\n      add\n      swap1\n      dup2\n      mstore\n      0x20\n      add\n      0x00\n      keccak256\n        /* \"contracts/_Tw.sol\":1668:1670  id */\n      dup6\n        /* \"contracts/_Tw.sol\":1653:1671  tweets[author][id] */\n      dup2\n      sload\n      dup2\n      lt\n      tag_105\n      jumpi\n      tag_106\n      tag_68\n      jump\t// in\n    tag_106:\n    tag_105:\n      swap1\n      0x00\n      mstore\n      keccak256(0x00, 0x20)\n      swap1\n      0x05\n      mul\n      add\n        /* \"contracts/_Tw.sol\":1653:1677  tweets[author][id].likes */\n      0x04\n      add\n      sload\n        /* \"contracts/_Tw.sol\":1618:1678  TweetLiked(msg.sender, author, id, tweets[author][id].likes) */\n      mload(0x40)\n      tag_108\n      swap5\n      swap4\n      swap3\n      swap2\n      swap1\n      tag_88\n      jump\t// in\n    tag_108:\n      mload(0x40)\n      dup1\n      swap2\n      sub\n      swap1\n      log1\n        /* \"contracts/_Tw.sol\":1440:1685  function likeTweet(address author, uint256 id) external {... */\n      pop\n      pop\n      jump\t// out\n        /* \"contracts/_Tw.sol\":920:1434  function createTweet(string memory _tweet) public {... */\n    tag_37:\n        /* \"contracts/_Tw.sol\":1012:1028  MAX_TWEET_LENGTH */\n      0x00\n      0x00\n      swap1\n      sload\n      swap1\n      0x0100\n      exp\n      swap1\n      div\n      0xffff\n      and\n        /* \"contracts/_Tw.sol\":988:1028  bytes(_tweet).length <= MAX_TWEET_LENGTH */\n      0xffff\n      and\n        /* \"contracts/_Tw.sol\":994:1000  _tweet */\n      dup2\n        /* \"contracts/_Tw.sol\":988:1008  bytes(_tweet).length */\n      mload\n        /* \"contracts/_Tw.sol\":988:1028  bytes(_tweet).length <= MAX_TWEET_LENGTH */\n      gt\n      iszero\n        /* \"contracts/_Tw.sol\":980:1069  require(bytes(_tweet).length <= MAX_TWEET_LENGTH, \"Tweet should be under 280 characters\") */\n      tag_110\n      jumpi\n      mload(0x40)\n      0x08c379a000000000000000000000000000000000000000000000000000000000\n      dup2\n      mstore\n      0x04\n      add\n      tag_111\n      swap1\n      tag_112\n      jump\t// in\n    tag_111:\n      mload(0x40)\n      dup1\n      swap2\n      sub\n      swap1\n      revert\n    tag_110:\n        /* \"contracts/_Tw.sol\":1080:1101  Tweet memory newTweet */\n      0x00\n        /* \"contracts/_Tw.sol\":1104:1287  Tweet({... */\n      mload(0x40)\n      dup1\n      0xa0\n      add\n      0x40\n      mstore\n      dup1\n        /* \"contracts/_Tw.sol\":1128:1134  tweets */\n      0x01\n        /* \"contracts/_Tw.sol\":1128:1146  tweets[msg.sender] */\n      0x00\n        /* \"contracts/_Tw.sol\":1135:1145  msg.sender */\n      caller\n        /* \"contracts/_Tw.sol\":1128:1146  tweets[msg.sender] */\n      0xffffffffffffffffffffffffffffffffffffffff\n      and\n      0xffffffffffffffffffffffffffffffffffffffff\n      and\n      dup2\n      mstore\n      0x20\n      add\n      swap1\n      dup2\n      mstore\n      0x20\n      add\n      0x00\n      keccak256\n        /* \"contracts/_Tw.sol\":1128:1153  tweets[msg.sender].length */\n      dup1\n      sload\n      swap1\n      pop\n        /* \"contracts/_Tw.sol\":1104:1287  Tweet({... */\n      dup2\n      mstore\n      0x20\n      add\n        /* \"contracts/_Tw.sol\":1175:1185  msg.sender */\n      caller\n        /* \"contracts/_Tw.sol\":1104:1287  Tweet({... */\n      0xffffffffffffffffffffffffffffffffffffffff\n      and\n      dup2\n      mstore\n      0x20\n      add\n        /* \"contracts/_Tw.sol\":1208:1214  _tweet */\n      dup4\n        /* \"contracts/_Tw.sol\":1104:1287  Tweet({... */\n      dup2\n      mstore\n      0x20\n      add\n        /* \"contracts/_Tw.sol\":1239:1254  block.timestamp */\n      timestamp\n        /* \"contracts/_Tw.sol\":1104:1287  Tweet({... */\n      dup2\n      mstore\n      0x20\n      add\n        /* \"contracts/_Tw.sol\":1275:1276  0 */\n      0x00\n        /* \"contracts/_Tw.sol\":1104:1287  Tweet({... */\n      dup2\n      mstore\n      pop\n        /* \"contracts/_Tw.sol\":1080:1287  Tweet memory newTweet = Tweet({... */\n      swap1\n      pop\n        /* \"contracts/_Tw.sol\":1298:1304  tweets */\n      0x01\n        /* \"contracts/_Tw.sol\":1298:1316  tweets[msg.sender] */\n      0x00\n        /* \"contracts/_Tw.sol\":1305:1315  msg.sender */\n      caller\n        /* \"contracts/_Tw.sol\":1298:1316  tweets[msg.sender] */\n      0xffffffffffffffffffffffffffffffffffffffff\n      and\n      0xffffffffffffffffffffffffffffffffffffffff\n      and\n      dup2\n      mstore\n      0x20\n      add\n      swap1\n      dup2\n      mstore\n      0x20\n      add\n      0x00\n      keccak256\n        /* \"contracts/_Tw.sol\":1322:1330  newTweet */\n      dup2\n        /* \"contracts/_Tw.sol\":1298:1331  tweets[msg.sender].push(newTweet) */\n      swap1\n      dup1\n      0x01\n      dup2\n      sload\n      add\n      dup1\n      dup3\n      sstore\n      dup1\n      swap2\n      pop\n      pop\n      0x01\n      swap1\n      sub\n      swap1\n      0x00\n      mstore\n      keccak256(0x00, 0x20)\n      swap1\n      0x05\n      mul\n      add\n      0x00\n      swap1\n      swap2\n      swap1\n      swap2\n      swap1\n      swap2\n      pop\n      0x00\n      dup3\n      add\n      mload\n      dup2\n      0x00\n      add\n      sstore\n      0x20\n      dup3\n      add\n      mload\n      dup2\n      0x01\n      add\n      exp(0x0100, 0x00)\n      dup2\n      sload\n      dup2\n      0xffffffffffffffffffffffffffffffffffffffff\n      mul\n      not\n      and\n      swap1\n      dup4\n      0xffffffffffffffffffffffffffffffffffffffff\n      and\n      mul\n      or\n      swap1\n      sstore\n      pop\n      0x40\n      dup3\n      add\n      mload\n      dup2\n      0x02\n      add\n      swap1\n      dup2\n      tag_114\n      swap2\n      swap1\n      tag_115\n      jump\t// in\n    tag_114:\n      pop\n      0x60\n      dup3\n      add\n      mload\n      dup2\n      0x03\n      add\n      sstore\n      0x80\n      dup3\n      add\n      mload\n      dup2\n      0x04\n      add\n      sstore\n      pop\n      pop\n        /* \"contracts/_Tw.sol\":1347:1427  TweetCreated(newTweet.id, newTweet.author, newTweet.content, newTweet.timestamp) */\n      0x16fd3c13e9d46923e0a8bce11c7b473ec508a72e6c96cd2404b29ce972afc29e\n        /* \"contracts/_Tw.sol\":1360:1368  newTweet */\n      dup2\n        /* \"contracts/_Tw.sol\":1360:1371  newTweet.id */\n      0x00\n      add\n      mload\n        /* \"contracts/_Tw.sol\":1373:1381  newTweet */\n      dup3\n        /* \"contracts/_Tw.sol\":1373:1388  newTweet.author */\n      0x20\n      add\n      mload\n        /* \"contracts/_Tw.sol\":1390:1398  newTweet */\n      dup4\n        /* \"contracts/_Tw.sol\":1390:1406  newTweet.content */\n      0x40\n      add\n      mload\n        /* \"contracts/_Tw.sol\":1408:1416  newTweet */\n      dup5\n        /* \"contracts/_Tw.sol\":1408:1426  newTweet.timestamp */\n      0x60\n      add\n      mload\n        /* \"contracts/_Tw.sol\":1347:1427  TweetCreated(newTweet.id, newTweet.author, newTweet.content, newTweet.timestamp) */\n      mload(0x40)\n      tag_116\n      swap5\n      swap4\n      swap3\n      swap2\n      swap1\n      tag_117\n      jump\t// in\n    tag_116:\n      mload(0x40)\n      dup1\n      swap2\n      sub\n      swap1\n      log1\n        /* \"contracts/_Tw.sol\":970:1434  {... */\n      pop\n        /* \"contracts/_Tw.sol\":920:1434  function createTweet(string memory _tweet) public {... */\n      pop\n      jump\t// out\n        /* \"contracts/_Tw.sol\":313:333  address public owner */\n    tag_39:\n      0x02\n      0x00\n      swap1\n      sload\n      swap1\n      0x0100\n      exp\n      swap1\n      div\n      0xffffffffffffffffffffffffffffffffffffffff\n      and\n      dup2\n      jump\t// out\n        /* \"contracts/_Tw.sol\":2015:2123  function getTweet(uint _i) public view returns (Tweet memory) {... */\n    tag_45:\n        /* \"contracts/_Tw.sol\":2063:2075  Tweet memory */\n      tag_118\n      tag_119\n      jump\t// in\n    tag_118:\n        /* \"contracts/_Tw.sol\":2094:2100  tweets */\n      0x01\n        /* \"contracts/_Tw.sol\":2094:2112  tweets[msg.sender] */\n      0x00\n        /* \"contracts/_Tw.sol\":2101:2111  msg.sender */\n      caller\n        /* \"contracts/_Tw.sol\":2094:2112  tweets[msg.sender] */\n      0xffffffffffffffffffffffffffffffffffffffff\n      and\n      0xffffffffffffffffffffffffffffffffffffffff\n      and\n      dup2\n      mstore\n      0x20\n      add\n      swap1\n      dup2\n      mstore\n      0x20\n      add\n      0x00\n      keccak256\n        /* \"contracts/_Tw.sol\":2113:2115  _i */\n      dup3\n        /* \"contracts/_Tw.sol\":2094:2116  tweets[msg.sender][_i] */\n      dup2\n      sload\n      dup2\n      lt\n      tag_121\n      jumpi\n      tag_122\n      tag_68\n      jump\t// in\n    tag_122:\n    tag_121:\n      swap1\n      0x00\n      mstore\n      keccak256(0x00, 0x20)\n      swap1\n      0x05\n      mul\n      add\n        /* \"contracts/_Tw.sol\":2087:2116  return tweets[msg.sender][_i] */\n      mload(0x40)\n      dup1\n      0xa0\n      add\n      0x40\n      mstore\n      swap1\n      dup2\n      0x00\n      dup3\n      add\n      sload\n      dup2\n      mstore\n      0x20\n      add\n      0x01\n      dup3\n      add\n      0x00\n      swap1\n      sload\n      swap1\n      0x0100\n      exp\n      swap1\n      div\n      0xffffffffffffffffffffffffffffffffffffffff\n      and\n      0xffffffffffffffffffffffffffffffffffffffff\n      and\n      0xffffffffffffffffffffffffffffffffffffffff\n      and\n      dup2\n      mstore\n      0x20\n      add\n      0x02\n      dup3\n      add\n      dup1\n      sload\n      tag_124\n      swap1\n      tag_51\n      jump\t// in\n    tag_124:\n      dup1\n      0x1f\n      add\n      0x20\n      dup1\n      swap2\n      div\n      mul\n      0x20\n      add\n      mload(0x40)\n      swap1\n      dup2\n      add\n      0x40\n      mstore\n      dup1\n      swap3\n      swap2\n      swap1\n      dup2\n      dup2\n      mstore\n      0x20\n      add\n      dup3\n      dup1\n      sload\n      tag_125\n      swap1\n      tag_51\n      jump\t// in\n    tag_125:\n      dup1\n      iszero\n      tag_126\n      jumpi\n      dup1\n      0x1f\n      lt\n      tag_127\n      jumpi\n      0x0100\n      dup1\n      dup4\n      sload\n      div\n      mul\n      dup4\n      mstore\n      swap2\n      0x20\n      add\n      swap2\n      jump(tag_126)\n    tag_127:\n      dup3\n      add\n      swap2\n      swap1\n      0x00\n      mstore\n      keccak256(0x00, 0x20)\n      swap1\n    tag_128:\n      dup2\n      sload\n      dup2\n      mstore\n      swap1\n      0x01\n      add\n      swap1\n      0x20\n      add\n      dup1\n      dup4\n      gt\n      tag_128\n      jumpi\n      dup3\n      swap1\n      sub\n      0x1f\n      and\n      dup3\n      add\n      swap2\n    tag_126:\n      pop\n      pop\n      pop\n      pop\n      pop\n      dup2\n      mstore\n      0x20\n      add\n      0x03\n      dup3\n      add\n      sload\n      dup2\n      mstore\n      0x20\n      add\n      0x04\n      dup3\n      add\n      sload\n      dup2\n      mstore\n      pop\n      pop\n      swap1\n      pop\n        /* \"contracts/_Tw.sol\":2015:2123  function getTweet(uint _i) public view returns (Tweet memory) {... */\n      swap2\n      swap1\n      pop\n      jump\t// out\n    tag_119:\n      mload(0x40)\n      dup1\n      0xa0\n      add\n      0x40\n      mstore\n      dup1\n      0x00\n      dup2\n      mstore\n      0x20\n      add\n      and(0xffffffffffffffffffffffffffffffffffffffff, 0x00)\n      dup2\n      mstore\n      0x20\n      add\n      0x60\n      dup2\n      mstore\n      0x20\n      add\n      0x00\n      dup2\n      mstore\n      0x20\n      add\n      0x00\n      dup2\n      mstore\n      pop\n      swap1\n      jump\t// out\n        /* \"#utility.yul\":7:82   */\n    tag_129:\n        /* \"#utility.yul\":40:46   */\n      0x00\n        /* \"#utility.yul\":73:75   */\n      0x40\n        /* \"#utility.yul\":67:76   */\n      mload\n        /* \"#utility.yul\":57:76   */\n      swap1\n      pop\n        /* \"#utility.yul\":7:82   */\n      swap1\n      jump\t// out\n        /* \"#utility.yul\":88:205   */\n    tag_130:\n        /* \"#utility.yul\":197:198   */\n      0x00\n        /* \"#utility.yul\":194:195   */\n      0x00\n        /* \"#utility.yul\":187:199   */\n      revert\n        /* \"#utility.yul\":211:328   */\n    tag_131:\n        /* \"#utility.yul\":320:321   */\n      0x00\n        /* \"#utility.yul\":317:318   */\n      0x00\n        /* \"#utility.yul\":310:322   */\n      revert\n        /* \"#utility.yul\":334:460   */\n    tag_132:\n        /* \"#utility.yul\":371:378   */\n      0x00\n        /* \"#utility.yul\":411:453   */\n      0xffffffffffffffffffffffffffffffffffffffff\n        /* \"#utility.yul\":404:409   */\n      dup3\n        /* \"#utility.yul\":400:454   */\n      and\n        /* \"#utility.yul\":389:454   */\n      swap1\n      pop\n        /* \"#utility.yul\":334:460   */\n      swap2\n      swap1\n      pop\n      jump\t// out\n        /* \"#utility.yul\":466:562   */\n    tag_133:\n        /* \"#utility.yul\":503:510   */\n      0x00\n        /* \"#utility.yul\":532:556   */\n      tag_201\n        /* \"#utility.yul\":550:555   */\n      dup3\n        /* \"#utility.yul\":532:556   */\n      tag_132\n      jump\t// in\n    tag_201:\n        /* \"#utility.yul\":521:556   */\n      swap1\n      pop\n        /* \"#utility.yul\":466:562   */\n      swap2\n      swap1\n      pop\n      jump\t// out\n        /* \"#utility.yul\":568:690   */\n    tag_134:\n        /* \"#utility.yul\":641:665   */\n      tag_203\n        /* \"#utility.yul\":659:664   */\n      dup2\n        /* \"#utility.yul\":641:665   */\n      tag_133\n      jump\t// in\n    tag_203:\n        /* \"#utility.yul\":634:639   */\n      dup2\n        /* \"#utility.yul\":631:666   */\n      eq\n        /* \"#utility.yul\":621:684   */\n      tag_204\n      jumpi\n        /* \"#utility.yul\":680:681   */\n      0x00\n        /* \"#utility.yul\":677:678   */\n      0x00\n        /* \"#utility.yul\":670:682   */\n      revert\n        /* \"#utility.yul\":621:684   */\n    tag_204:\n        /* \"#utility.yul\":568:690   */\n      pop\n      jump\t// out\n        /* \"#utility.yul\":696:835   */\n    tag_135:\n        /* \"#utility.yul\":742:747   */\n      0x00\n        /* \"#utility.yul\":780:786   */\n      dup2\n        /* \"#utility.yul\":767:787   */\n      calldataload\n        /* \"#utility.yul\":758:787   */\n      swap1\n      pop\n        /* \"#utility.yul\":796:829   */\n      tag_206\n        /* \"#utility.yul\":823:828   */\n      dup2\n        /* \"#utility.yul\":796:829   */\n      tag_134\n      jump\t// in\n    tag_206:\n        /* \"#utility.yul\":696:835   */\n      swap3\n      swap2\n      pop\n      pop\n      jump\t// out\n        /* \"#utility.yul\":841:918   */\n    tag_136:\n        /* \"#utility.yul\":878:885   */\n      0x00\n        /* \"#utility.yul\":907:912   */\n      dup2\n        /* \"#utility.yul\":896:912   */\n      swap1\n      pop\n        /* \"#utility.yul\":841:918   */\n      swap2\n      swap1\n      pop\n      jump\t// out\n        /* \"#utility.yul\":924:1046   */\n    tag_137:\n        /* \"#utility.yul\":997:1021   */\n      tag_209\n        /* \"#utility.yul\":1015:1020   */\n      dup2\n        /* \"#utility.yul\":997:1021   */\n      tag_136\n      jump\t// in\n    tag_209:\n        /* \"#utility.yul\":990:995   */\n      dup2\n        /* \"#utility.yul\":987:1022   */\n      eq\n        /* \"#utility.yul\":977:1040   */\n      tag_210\n      jumpi\n        /* \"#utility.yul\":1036:1037   */\n      0x00\n        /* \"#utility.yul\":1033:1034   */\n      0x00\n        /* \"#utility.yul\":1026:1038   */\n      revert\n        /* \"#utility.yul\":977:1040   */\n    tag_210:\n        /* \"#utility.yul\":924:1046   */\n      pop\n      jump\t// out\n        /* \"#utility.yul\":1052:1191   */\n    tag_138:\n        /* \"#utility.yul\":1098:1103   */\n      0x00\n        /* \"#utility.yul\":1136:1142   */\n      dup2\n        /* \"#utility.yul\":1123:1143   */\n      calldataload\n        /* \"#utility.yul\":1114:1143   */\n      swap1\n      pop\n        /* \"#utility.yul\":1152:1185   */\n      tag_212\n        /* \"#utility.yul\":1179:1184   */\n      dup2\n        /* \"#utility.yul\":1152:1185   */\n      tag_137\n      jump\t// in\n    tag_212:\n        /* \"#utility.yul\":1052:1191   */\n      swap3\n      swap2\n      pop\n      pop\n      jump\t// out\n        /* \"#utility.yul\":1197:1671   */\n    tag_14:\n        /* \"#utility.yul\":1265:1271   */\n      0x00\n        /* \"#utility.yul\":1273:1279   */\n      0x00\n        /* \"#utility.yul\":1322:1324   */\n      0x40\n        /* \"#utility.yul\":1310:1319   */\n      dup4\n        /* \"#utility.yul\":1301:1308   */\n      dup6\n        /* \"#utility.yul\":1297:1320   */\n      sub\n        /* \"#utility.yul\":1293:1325   */\n      slt\n        /* \"#utility.yul\":1290:1409   */\n      iszero\n      tag_214\n      jumpi\n        /* \"#utility.yul\":1328:1407   */\n      tag_215\n      tag_130\n      jump\t// in\n    tag_215:\n        /* \"#utility.yul\":1290:1409   */\n    tag_214:\n        /* \"#utility.yul\":1448:1449   */\n      0x00\n        /* \"#utility.yul\":1473:1526   */\n      tag_216\n        /* \"#utility.yul\":1518:1525   */\n      dup6\n        /* \"#utility.yul\":1509:1515   */\n      dup3\n        /* \"#utility.yul\":1498:1507   */\n      dup7\n        /* \"#utility.yul\":1494:1516   */\n      add\n        /* \"#utility.yul\":1473:1526   */\n      tag_135\n      jump\t// in\n    tag_216:\n        /* \"#utility.yul\":1463:1526   */\n      swap3\n      pop\n        /* \"#utility.yul\":1419:1536   */\n      pop\n        /* \"#utility.yul\":1575:1577   */\n      0x20\n        /* \"#utility.yul\":1601:1654   */\n      tag_217\n        /* \"#utility.yul\":1646:1653   */\n      dup6\n        /* \"#utility.yul\":1637:1643   */\n      dup3\n        /* \"#utility.yul\":1626:1635   */\n      dup7\n        /* \"#utility.yul\":1622:1644   */\n      add\n        /* \"#utility.yul\":1601:1654   */\n      tag_138\n      jump\t// in\n    tag_217:\n        /* \"#utility.yul\":1591:1654   */\n      swap2\n      pop\n        /* \"#utility.yul\":1546:1664   */\n      pop\n        /* \"#utility.yul\":1197:1671   */\n      swap3\n      pop\n      swap3\n      swap1\n      pop\n      jump\t// out\n        /* \"#utility.yul\":1677:1795   */\n    tag_139:\n        /* \"#utility.yul\":1764:1788   */\n      tag_219\n        /* \"#utility.yul\":1782:1787   */\n      dup2\n        /* \"#utility.yul\":1764:1788   */\n      tag_136\n      jump\t// in\n    tag_219:\n        /* \"#utility.yul\":1759:1762   */\n      dup3\n        /* \"#utility.yul\":1752:1789   */\n      mstore\n        /* \"#utility.yul\":1677:1795   */\n      pop\n      pop\n      jump\t// out\n        /* \"#utility.yul\":1801:1919   */\n    tag_140:\n        /* \"#utility.yul\":1888:1912   */\n      tag_221\n        /* \"#utility.yul\":1906:1911   */\n      dup2\n        /* \"#utility.yul\":1888:1912   */\n      tag_133\n      jump\t// in\n    tag_221:\n        /* \"#utility.yul\":1883:1886   */\n      dup3\n        /* \"#utility.yul\":1876:1913   */\n      mstore\n        /* \"#utility.yul\":1801:1919   */\n      pop\n      pop\n      jump\t// out\n        /* \"#utility.yul\":1925:2024   */\n    tag_141:\n        /* \"#utility.yul\":1977:1983   */\n      0x00\n        /* \"#utility.yul\":2011:2016   */\n      dup2\n        /* \"#utility.yul\":2005:2017   */\n      mload\n        /* \"#utility.yul\":1995:2017   */\n      swap1\n      pop\n        /* \"#utility.yul\":1925:2024   */\n      swap2\n      swap1\n      pop\n      jump\t// out\n        /* \"#utility.yul\":2030:2199   */\n    tag_142:\n        /* \"#utility.yul\":2114:2125   */\n      0x00\n        /* \"#utility.yul\":2148:2154   */\n      dup3\n        /* \"#utility.yul\":2143:2146   */\n      dup3\n        /* \"#utility.yul\":2136:2155   */\n      mstore\n        /* \"#utility.yul\":2188:2192   */\n      0x20\n        /* \"#utility.yul\":2183:2186   */\n      dup3\n        /* \"#utility.yul\":2179:2193   */\n      add\n        /* \"#utility.yul\":2164:2193   */\n      swap1\n      pop\n        /* \"#utility.yul\":2030:2199   */\n      swap3\n      swap2\n      pop\n      pop\n      jump\t// out\n        /* \"#utility.yul\":2205:2344   */\n    tag_143:\n        /* \"#utility.yul\":2294:2300   */\n      dup3\n        /* \"#utility.yul\":2289:2292   */\n      dup2\n        /* \"#utility.yul\":2284:2287   */\n      dup4\n        /* \"#utility.yul\":2278:2301   */\n      mcopy\n        /* \"#utility.yul\":2335:2336   */\n      0x00\n        /* \"#utility.yul\":2326:2332   */\n      dup4\n        /* \"#utility.yul\":2321:2324   */\n      dup4\n        /* \"#utility.yul\":2317:2333   */\n      add\n        /* \"#utility.yul\":2310:2337   */\n      mstore\n        /* \"#utility.yul\":2205:2344   */\n      pop\n      pop\n      pop\n      jump\t// out\n        /* \"#utility.yul\":2350:2452   */\n    tag_144:\n        /* \"#utility.yul\":2391:2397   */\n      0x00\n        /* \"#utility.yul\":2442:2444   */\n      0x1f\n        /* \"#utility.yul\":2438:2445   */\n      not\n        /* \"#utility.yul\":2433:2435   */\n      0x1f\n        /* \"#utility.yul\":2426:2431   */\n      dup4\n        /* \"#utility.yul\":2422:2436   */\n      add\n        /* \"#utility.yul\":2418:2446   */\n      and\n        /* \"#utility.yul\":2408:2446   */\n      swap1\n      pop\n        /* \"#utility.yul\":2350:2452   */\n      swap2\n      swap1\n      pop\n      jump\t// out\n        /* \"#utility.yul\":2458:2835   */\n    tag_145:\n        /* \"#utility.yul\":2546:2549   */\n      0x00\n        /* \"#utility.yul\":2574:2613   */\n      tag_227\n        /* \"#utility.yul\":2607:2612   */\n      dup3\n        /* \"#utility.yul\":2574:2613   */\n      tag_141\n      jump\t// in\n    tag_227:\n        /* \"#utility.yul\":2629:2700   */\n      tag_228\n        /* \"#utility.yul\":2693:2699   */\n      dup2\n        /* \"#utility.yul\":2688:2691   */\n      dup6\n        /* \"#utility.yul\":2629:2700   */\n      tag_142\n      jump\t// in\n    tag_228:\n        /* \"#utility.yul\":2622:2700   */\n      swap4\n      pop\n        /* \"#utility.yul\":2709:2774   */\n      tag_229\n        /* \"#utility.yul\":2767:2773   */\n      dup2\n        /* \"#utility.yul\":2762:2765   */\n      dup6\n        /* \"#utility.yul\":2755:2759   */\n      0x20\n        /* \"#utility.yul\":2748:2753   */\n      dup7\n        /* \"#utility.yul\":2744:2760   */\n      add\n        /* \"#utility.yul\":2709:2774   */\n      tag_143\n      jump\t// in\n    tag_229:\n        /* \"#utility.yul\":2799:2828   */\n      tag_230\n        /* \"#utility.yul\":2821:2827   */\n      dup2\n        /* \"#utility.yul\":2799:2828   */\n      tag_144\n      jump\t// in\n    tag_230:\n        /* \"#utility.yul\":2794:2797   */\n      dup5\n        /* \"#utility.yul\":2790:2829   */\n      add\n        /* \"#utility.yul\":2783:2829   */\n      swap2\n      pop\n        /* \"#utility.yul\":2550:2835   */\n      pop\n        /* \"#utility.yul\":2458:2835   */\n      swap3\n      swap2\n      pop\n      pop\n      jump\t// out\n        /* \"#utility.yul\":2841:3596   */\n    tag_17:\n        /* \"#utility.yul\":3066:3070   */\n      0x00\n        /* \"#utility.yul\":3104:3107   */\n      0xa0\n        /* \"#utility.yul\":3093:3102   */\n      dup3\n        /* \"#utility.yul\":3089:3108   */\n      add\n        /* \"#utility.yul\":3081:3108   */\n      swap1\n      pop\n        /* \"#utility.yul\":3118:3189   */\n      tag_232\n        /* \"#utility.yul\":3186:3187   */\n      0x00\n        /* \"#utility.yul\":3175:3184   */\n      dup4\n        /* \"#utility.yul\":3171:3188   */\n      add\n        /* \"#utility.yul\":3162:3168   */\n      dup9\n        /* \"#utility.yul\":3118:3189   */\n      tag_139\n      jump\t// in\n    tag_232:\n        /* \"#utility.yul\":3199:3271   */\n      tag_233\n        /* \"#utility.yul\":3267:3269   */\n      0x20\n        /* \"#utility.yul\":3256:3265   */\n      dup4\n        /* \"#utility.yul\":3252:3270   */\n      add\n        /* \"#utility.yul\":3243:3249   */\n      dup8\n        /* \"#utility.yul\":3199:3271   */\n      tag_140\n      jump\t// in\n    tag_233:\n        /* \"#utility.yul\":3318:3327   */\n      dup2\n        /* \"#utility.yul\":3312:3316   */\n      dup2\n        /* \"#utility.yul\":3308:3328   */\n      sub\n        /* \"#utility.yul\":3303:3305   */\n      0x40\n        /* \"#utility.yul\":3292:3301   */\n      dup4\n        /* \"#utility.yul\":3288:3306   */\n      add\n        /* \"#utility.yul\":3281:3329   */\n      mstore\n        /* \"#utility.yul\":3346:3424   */\n      tag_234\n        /* \"#utility.yul\":3419:3423   */\n      dup2\n        /* \"#utility.yul\":3410:3416   */\n      dup7\n        /* \"#utility.yul\":3346:3424   */\n      tag_145\n      jump\t// in\n    tag_234:\n        /* \"#utility.yul\":3338:3424   */\n      swap1\n      pop\n        /* \"#utility.yul\":3434:3506   */\n      tag_235\n        /* \"#utility.yul\":3502:3504   */\n      0x60\n        /* \"#utility.yul\":3491:3500   */\n      dup4\n        /* \"#utility.yul\":3487:3505   */\n      add\n        /* \"#utility.yul\":3478:3484   */\n      dup6\n        /* \"#utility.yul\":3434:3506   */\n      tag_139\n      jump\t// in\n    tag_235:\n        /* \"#utility.yul\":3516:3589   */\n      tag_236\n        /* \"#utility.yul\":3584:3587   */\n      0x80\n        /* \"#utility.yul\":3573:3582   */\n      dup4\n        /* \"#utility.yul\":3569:3588   */\n      add\n        /* \"#utility.yul\":3560:3566   */\n      dup5\n        /* \"#utility.yul\":3516:3589   */\n      tag_139\n      jump\t// in\n    tag_236:\n        /* \"#utility.yul\":2841:3596   */\n      swap7\n      swap6\n      pop\n      pop\n      pop\n      pop\n      pop\n      pop\n      jump\t// out\n        /* \"#utility.yul\":3602:3931   */\n    tag_20:\n        /* \"#utility.yul\":3661:3667   */\n      0x00\n        /* \"#utility.yul\":3710:3712   */\n      0x20\n        /* \"#utility.yul\":3698:3707   */\n      dup3\n        /* \"#utility.yul\":3689:3696   */\n      dup5\n        /* \"#utility.yul\":3685:3708   */\n      sub\n        /* \"#utility.yul\":3681:3713   */\n      slt\n        /* \"#utility.yul\":3678:3797   */\n      iszero\n      tag_238\n      jumpi\n        /* \"#utility.yul\":3716:3795   */\n      tag_239\n      tag_130\n      jump\t// in\n    tag_239:\n        /* \"#utility.yul\":3678:3797   */\n    tag_238:\n        /* \"#utility.yul\":3836:3837   */\n      0x00\n        /* \"#utility.yul\":3861:3914   */\n      tag_240\n        /* \"#utility.yul\":3906:3913   */\n      dup5\n        /* \"#utility.yul\":3897:3903   */\n      dup3\n        /* \"#utility.yul\":3886:3895   */\n      dup6\n        /* \"#utility.yul\":3882:3904   */\n      add\n        /* \"#utility.yul\":3861:3914   */\n      tag_135\n      jump\t// in\n    tag_240:\n        /* \"#utility.yul\":3851:3914   */\n      swap2\n      pop\n        /* \"#utility.yul\":3807:3924   */\n      pop\n        /* \"#utility.yul\":3602:3931   */\n      swap3\n      swap2\n      pop\n      pop\n      jump\t// out\n        /* \"#utility.yul\":3937:4072   */\n    tag_146:\n        /* \"#utility.yul\":4025:4031   */\n      0x00\n        /* \"#utility.yul\":4059:4064   */\n      dup2\n        /* \"#utility.yul\":4053:4065   */\n      mload\n        /* \"#utility.yul\":4043:4065   */\n      swap1\n      pop\n        /* \"#utility.yul\":3937:4072   */\n      swap2\n      swap1\n      pop\n      jump\t// out\n        /* \"#utility.yul\":4078:4283   */\n    tag_147:\n        /* \"#utility.yul\":4198:4209   */\n      0x00\n        /* \"#utility.yul\":4232:4238   */\n      dup3\n        /* \"#utility.yul\":4227:4230   */\n      dup3\n        /* \"#utility.yul\":4220:4239   */\n      mstore\n        /* \"#utility.yul\":4272:4276   */\n      0x20\n        /* \"#utility.yul\":4267:4270   */\n      dup3\n        /* \"#utility.yul\":4263:4277   */\n      add\n        /* \"#utility.yul\":4248:4277   */\n      swap1\n      pop\n        /* \"#utility.yul\":4078:4283   */\n      swap3\n      swap2\n      pop\n      pop\n      jump\t// out\n        /* \"#utility.yul\":4289:4442   */\n    tag_148:\n        /* \"#utility.yul\":4377:4381   */\n      0x00\n        /* \"#utility.yul\":4400:4403   */\n      dup2\n        /* \"#utility.yul\":4392:4403   */\n      swap1\n      pop\n        /* \"#utility.yul\":4430:4434   */\n      0x20\n        /* \"#utility.yul\":4425:4428   */\n      dup3\n        /* \"#utility.yul\":4421:4435   */\n      add\n        /* \"#utility.yul\":4413:4435   */\n      swap1\n      pop\n        /* \"#utility.yul\":4289:4442   */\n      swap2\n      swap1\n      pop\n      jump\t// out\n        /* \"#utility.yul\":4448:4556   */\n    tag_149:\n        /* \"#utility.yul\":4525:4549   */\n      tag_245\n        /* \"#utility.yul\":4543:4548   */\n      dup2\n        /* \"#utility.yul\":4525:4549   */\n      tag_136\n      jump\t// in\n    tag_245:\n        /* \"#utility.yul\":4520:4523   */\n      dup3\n        /* \"#utility.yul\":4513:4550   */\n      mstore\n        /* \"#utility.yul\":4448:4556   */\n      pop\n      pop\n      jump\t// out\n        /* \"#utility.yul\":4562:4670   */\n    tag_150:\n        /* \"#utility.yul\":4639:4663   */\n      tag_247\n        /* \"#utility.yul\":4657:4662   */\n      dup2\n        /* \"#utility.yul\":4639:4663   */\n      tag_133\n      jump\t// in\n    tag_247:\n        /* \"#utility.yul\":4634:4637   */\n      dup3\n        /* \"#utility.yul\":4627:4664   */\n      mstore\n        /* \"#utility.yul\":4562:4670   */\n      pop\n      pop\n      jump\t// out\n        /* \"#utility.yul\":4676:4835   */\n    tag_151:\n        /* \"#utility.yul\":4750:4761   */\n      0x00\n        /* \"#utility.yul\":4784:4790   */\n      dup3\n        /* \"#utility.yul\":4779:4782   */\n      dup3\n        /* \"#utility.yul\":4772:4791   */\n      mstore\n        /* \"#utility.yul\":4824:4828   */\n      0x20\n        /* \"#utility.yul\":4819:4822   */\n      dup3\n        /* \"#utility.yul\":4815:4829   */\n      add\n        /* \"#utility.yul\":4800:4829   */\n      swap1\n      pop\n        /* \"#utility.yul\":4676:4835   */\n      swap3\n      swap2\n      pop\n      pop\n      jump\t// out\n        /* \"#utility.yul\":4841:5198   */\n    tag_152:\n        /* \"#utility.yul\":4919:4922   */\n      0x00\n        /* \"#utility.yul\":4947:4986   */\n      tag_250\n        /* \"#utility.yul\":4980:4985   */\n      dup3\n        /* \"#utility.yul\":4947:4986   */\n      tag_141\n      jump\t// in\n    tag_250:\n        /* \"#utility.yul\":5002:5063   */\n      tag_251\n        /* \"#utility.yul\":5056:5062   */\n      dup2\n        /* \"#utility.yul\":5051:5054   */\n      dup6\n        /* \"#utility.yul\":5002:5063   */\n      tag_151\n      jump\t// in\n    tag_251:\n        /* \"#utility.yul\":4995:5063   */\n      swap4\n      pop\n        /* \"#utility.yul\":5072:5137   */\n      tag_252\n        /* \"#utility.yul\":5130:5136   */\n      dup2\n        /* \"#utility.yul\":5125:5128   */\n      dup6\n        /* \"#utility.yul\":5118:5122   */\n      0x20\n        /* \"#utility.yul\":5111:5116   */\n      dup7\n        /* \"#utility.yul\":5107:5123   */\n      add\n        /* \"#utility.yul\":5072:5137   */\n      tag_143\n      jump\t// in\n    tag_252:\n        /* \"#utility.yul\":5162:5191   */\n      tag_253\n        /* \"#utility.yul\":5184:5190   */\n      dup2\n        /* \"#utility.yul\":5162:5191   */\n      tag_144\n      jump\t// in\n    tag_253:\n        /* \"#utility.yul\":5157:5160   */\n      dup5\n        /* \"#utility.yul\":5153:5192   */\n      add\n        /* \"#utility.yul\":5146:5192   */\n      swap2\n      pop\n        /* \"#utility.yul\":4923:5198   */\n      pop\n        /* \"#utility.yul\":4841:5198   */\n      swap3\n      swap2\n      pop\n      pop\n      jump\t// out\n        /* \"#utility.yul\":5256:6375   */\n    tag_153:\n        /* \"#utility.yul\":5357:5360   */\n      0x00\n        /* \"#utility.yul\":5393:5397   */\n      0xa0\n        /* \"#utility.yul\":5388:5391   */\n      dup4\n        /* \"#utility.yul\":5384:5398   */\n      add\n        /* \"#utility.yul\":5478:5482   */\n      0x00\n        /* \"#utility.yul\":5471:5476   */\n      dup4\n        /* \"#utility.yul\":5467:5483   */\n      add\n        /* \"#utility.yul\":5461:5484   */\n      mload\n        /* \"#utility.yul\":5497:5560   */\n      tag_255\n        /* \"#utility.yul\":5554:5558   */\n      0x00\n        /* \"#utility.yul\":5549:5552   */\n      dup7\n        /* \"#utility.yul\":5545:5559   */\n      add\n        /* \"#utility.yul\":5531:5543   */\n      dup3\n        /* \"#utility.yul\":5497:5560   */\n      tag_149\n      jump\t// in\n    tag_255:\n        /* \"#utility.yul\":5408:5570   */\n      pop\n        /* \"#utility.yul\":5654:5658   */\n      0x20\n        /* \"#utility.yul\":5647:5652   */\n      dup4\n        /* \"#utility.yul\":5643:5659   */\n      add\n        /* \"#utility.yul\":5637:5660   */\n      mload\n        /* \"#utility.yul\":5673:5736   */\n      tag_256\n        /* \"#utility.yul\":5730:5734   */\n      0x20\n        /* \"#utility.yul\":5725:5728   */\n      dup7\n        /* \"#utility.yul\":5721:5735   */\n      add\n        /* \"#utility.yul\":5707:5719   */\n      dup3\n        /* \"#utility.yul\":5673:5736   */\n      tag_150\n      jump\t// in\n    tag_256:\n        /* \"#utility.yul\":5580:5746   */\n      pop\n        /* \"#utility.yul\":5831:5835   */\n      0x40\n        /* \"#utility.yul\":5824:5829   */\n      dup4\n        /* \"#utility.yul\":5820:5836   */\n      add\n        /* \"#utility.yul\":5814:5837   */\n      mload\n        /* \"#utility.yul\":5884:5887   */\n      dup5\n        /* \"#utility.yul\":5878:5882   */\n      dup3\n        /* \"#utility.yul\":5874:5888   */\n      sub\n        /* \"#utility.yul\":5867:5871   */\n      0x40\n        /* \"#utility.yul\":5862:5865   */\n      dup7\n        /* \"#utility.yul\":5858:5872   */\n      add\n        /* \"#utility.yul\":5851:5889   */\n      mstore\n        /* \"#utility.yul\":5910:5983   */\n      tag_257\n        /* \"#utility.yul\":5978:5982   */\n      dup3\n        /* \"#utility.yul\":5964:5976   */\n      dup3\n        /* \"#utility.yul\":5910:5983   */\n      tag_152\n      jump\t// in\n    tag_257:\n        /* \"#utility.yul\":5902:5983   */\n      swap2\n      pop\n        /* \"#utility.yul\":5756:5994   */\n      pop\n        /* \"#utility.yul\":6081:6085   */\n      0x60\n        /* \"#utility.yul\":6074:6079   */\n      dup4\n        /* \"#utility.yul\":6070:6086   */\n      add\n        /* \"#utility.yul\":6064:6087   */\n      mload\n        /* \"#utility.yul\":6100:6163   */\n      tag_258\n        /* \"#utility.yul\":6157:6161   */\n      0x60\n        /* \"#utility.yul\":6152:6155   */\n      dup7\n        /* \"#utility.yul\":6148:6162   */\n      add\n        /* \"#utility.yul\":6134:6146   */\n      dup3\n        /* \"#utility.yul\":6100:6163   */\n      tag_149\n      jump\t// in\n    tag_258:\n        /* \"#utility.yul\":6004:6173   */\n      pop\n        /* \"#utility.yul\":6256:6260   */\n      0x80\n        /* \"#utility.yul\":6249:6254   */\n      dup4\n        /* \"#utility.yul\":6245:6261   */\n      add\n        /* \"#utility.yul\":6239:6262   */\n      mload\n        /* \"#utility.yul\":6275:6338   */\n      tag_259\n        /* \"#utility.yul\":6332:6336   */\n      0x80\n        /* \"#utility.yul\":6327:6330   */\n      dup7\n        /* \"#utility.yul\":6323:6337   */\n      add\n        /* \"#utility.yul\":6309:6321   */\n      dup3\n        /* \"#utility.yul\":6275:6338   */\n      tag_149\n      jump\t// in\n    tag_259:\n        /* \"#utility.yul\":6183:6348   */\n      pop\n        /* \"#utility.yul\":6365:6369   */\n      dup1\n        /* \"#utility.yul\":6358:6369   */\n      swap2\n      pop\n        /* \"#utility.yul\":5362:6375   */\n      pop\n        /* \"#utility.yul\":5256:6375   */\n      swap3\n      swap2\n      pop\n      pop\n      jump\t// out\n        /* \"#utility.yul\":6381:6621   */\n    tag_154:\n        /* \"#utility.yul\":6492:6502   */\n      0x00\n        /* \"#utility.yul\":6527:6615   */\n      tag_261\n        /* \"#utility.yul\":6611:6614   */\n      dup4\n        /* \"#utility.yul\":6603:6609   */\n      dup4\n        /* \"#utility.yul\":6527:6615   */\n      tag_153\n      jump\t// in\n    tag_261:\n        /* \"#utility.yul\":6513:6615   */\n      swap1\n      pop\n        /* \"#utility.yul\":6381:6621   */\n      swap3\n      swap2\n      pop\n      pop\n      jump\t// out\n        /* \"#utility.yul\":6627:6761   */\n    tag_155:\n        /* \"#utility.yul\":6718:6722   */\n      0x00\n        /* \"#utility.yul\":6750:6754   */\n      0x20\n        /* \"#utility.yul\":6745:6748   */\n      dup3\n        /* \"#utility.yul\":6741:6755   */\n      add\n        /* \"#utility.yul\":6733:6755   */\n      swap1\n      pop\n        /* \"#utility.yul\":6627:6761   */\n      swap2\n      swap1\n      pop\n      jump\t// out\n        /* \"#utility.yul\":6823:7902   */\n    tag_156:\n        /* \"#utility.yul\":6984:6987   */\n      0x00\n        /* \"#utility.yul\":7013:7088   */\n      tag_264\n        /* \"#utility.yul\":7082:7087   */\n      dup3\n        /* \"#utility.yul\":7013:7088   */\n      tag_146\n      jump\t// in\n    tag_264:\n        /* \"#utility.yul\":7104:7211   */\n      tag_265\n        /* \"#utility.yul\":7204:7210   */\n      dup2\n        /* \"#utility.yul\":7199:7202   */\n      dup6\n        /* \"#utility.yul\":7104:7211   */\n      tag_147\n      jump\t// in\n    tag_265:\n        /* \"#utility.yul\":7097:7211   */\n      swap4\n      pop\n        /* \"#utility.yul\":7237:7240   */\n      dup4\n        /* \"#utility.yul\":7282:7286   */\n      0x20\n        /* \"#utility.yul\":7274:7280   */\n      dup3\n        /* \"#utility.yul\":7270:7287   */\n      mul\n        /* \"#utility.yul\":7265:7268   */\n      dup6\n        /* \"#utility.yul\":7261:7288   */\n      add\n        /* \"#utility.yul\":7312:7389   */\n      tag_266\n        /* \"#utility.yul\":7383:7388   */\n      dup6\n        /* \"#utility.yul\":7312:7389   */\n      tag_148\n      jump\t// in\n    tag_266:\n        /* \"#utility.yul\":7412:7419   */\n      dup1\n        /* \"#utility.yul\":7443:7444   */\n      0x00\n        /* \"#utility.yul\":7428:7857   */\n    tag_267:\n        /* \"#utility.yul\":7453:7459   */\n      dup6\n        /* \"#utility.yul\":7450:7451   */\n      dup2\n        /* \"#utility.yul\":7447:7460   */\n      lt\n        /* \"#utility.yul\":7428:7857   */\n      iszero\n      tag_269\n      jumpi\n        /* \"#utility.yul\":7524:7533   */\n      dup5\n        /* \"#utility.yul\":7518:7522   */\n      dup5\n        /* \"#utility.yul\":7514:7534   */\n      sub\n        /* \"#utility.yul\":7509:7512   */\n      dup10\n        /* \"#utility.yul\":7502:7535   */\n      mstore\n        /* \"#utility.yul\":7575:7581   */\n      dup2\n        /* \"#utility.yul\":7569:7582   */\n      mload\n        /* \"#utility.yul\":7603:7709   */\n      tag_270\n        /* \"#utility.yul\":7704:7708   */\n      dup6\n        /* \"#utility.yul\":7689:7702   */\n      dup3\n        /* \"#utility.yul\":7603:7709   */\n      tag_154\n      jump\t// in\n    tag_270:\n        /* \"#utility.yul\":7595:7709   */\n      swap5\n      pop\n        /* \"#utility.yul\":7732:7813   */\n      tag_271\n        /* \"#utility.yul\":7806:7812   */\n      dup4\n        /* \"#utility.yul\":7732:7813   */\n      tag_155\n      jump\t// in\n    tag_271:\n        /* \"#utility.yul\":7722:7813   */\n      swap3\n      pop\n        /* \"#utility.yul\":7842:7846   */\n      0x20\n        /* \"#utility.yul\":7837:7840   */\n      dup11\n        /* \"#utility.yul\":7833:7847   */\n      add\n        /* \"#utility.yul\":7826:7847   */\n      swap10\n      pop\n        /* \"#utility.yul\":7488:7857   */\n      pop\n        /* \"#utility.yul\":7475:7476   */\n      0x01\n        /* \"#utility.yul\":7472:7473   */\n      dup2\n        /* \"#utility.yul\":7468:7477   */\n      add\n        /* \"#utility.yul\":7463:7477   */\n      swap1\n      pop\n        /* \"#utility.yul\":7428:7857   */\n      jump(tag_267)\n    tag_269:\n        /* \"#utility.yul\":7432:7446   */\n      pop\n        /* \"#utility.yul\":7873:7877   */\n      dup3\n        /* \"#utility.yul\":7866:7877   */\n      swap8\n      pop\n        /* \"#utility.yul\":7893:7896   */\n      dup8\n        /* \"#utility.yul\":7886:7896   */\n      swap6\n      pop\n        /* \"#utility.yul\":6989:7902   */\n      pop\n      pop\n      pop\n      pop\n      pop\n        /* \"#utility.yul\":6823:7902   */\n      swap3\n      swap2\n      pop\n      pop\n      jump\t// out\n        /* \"#utility.yul\":7908:8365   */\n    tag_23:\n        /* \"#utility.yul\":8093:8097   */\n      0x00\n        /* \"#utility.yul\":8131:8133   */\n      0x20\n        /* \"#utility.yul\":8120:8129   */\n      dup3\n        /* \"#utility.yul\":8116:8134   */\n      add\n        /* \"#utility.yul\":8108:8134   */\n      swap1\n      pop\n        /* \"#utility.yul\":8180:8189   */\n      dup2\n        /* \"#utility.yul\":8174:8178   */\n      dup2\n        /* \"#utility.yul\":8170:8190   */\n      sub\n        /* \"#utility.yul\":8166:8167   */\n      0x00\n        /* \"#utility.yul\":8155:8164   */\n      dup4\n        /* \"#utility.yul\":8151:8168   */\n      add\n        /* \"#utility.yul\":8144:8191   */\n      mstore\n        /* \"#utility.yul\":8208:8358   */\n      tag_273\n        /* \"#utility.yul\":8353:8357   */\n      dup2\n        /* \"#utility.yul\":8344:8350   */\n      dup5\n        /* \"#utility.yul\":8208:8358   */\n      tag_156\n      jump\t// in\n    tag_273:\n        /* \"#utility.yul\":8200:8358   */\n      swap1\n      pop\n        /* \"#utility.yul\":7908:8365   */\n      swap3\n      swap2\n      pop\n      pop\n      jump\t// out\n        /* \"#utility.yul\":8371:8460   */\n    tag_157:\n        /* \"#utility.yul\":8407:8414   */\n      0x00\n        /* \"#utility.yul\":8447:8453   */\n      0xffff\n        /* \"#utility.yul\":8440:8445   */\n      dup3\n        /* \"#utility.yul\":8436:8454   */\n      and\n        /* \"#utility.yul\":8425:8454   */\n      swap1\n      pop\n        /* \"#utility.yul\":8371:8460   */\n      swap2\n      swap1\n      pop\n      jump\t// out\n        /* \"#utility.yul\":8466:8586   */\n    tag_158:\n        /* \"#utility.yul\":8538:8561   */\n      tag_276\n        /* \"#utility.yul\":8555:8560   */\n      dup2\n        /* \"#utility.yul\":8538:8561   */\n      tag_157\n      jump\t// in\n    tag_276:\n        /* \"#utility.yul\":8531:8536   */\n      dup2\n        /* \"#utility.yul\":8528:8562   */\n      eq\n        /* \"#utility.yul\":8518:8580   */\n      tag_277\n      jumpi\n        /* \"#utility.yul\":8576:8577   */\n      0x00\n        /* \"#utility.yul\":8573:8574   */\n      0x00\n        /* \"#utility.yul\":8566:8578   */\n      revert\n        /* \"#utility.yul\":8518:8580   */\n    tag_277:\n        /* \"#utility.yul\":8466:8586   */\n      pop\n      jump\t// out\n        /* \"#utility.yul\":8592:8729   */\n    tag_159:\n        /* \"#utility.yul\":8637:8642   */\n      0x00\n        /* \"#utility.yul\":8675:8681   */\n      dup2\n        /* \"#utility.yul\":8662:8682   */\n      calldataload\n        /* \"#utility.yul\":8653:8682   */\n      swap1\n      pop\n        /* \"#utility.yul\":8691:8723   */\n      tag_279\n        /* \"#utility.yul\":8717:8722   */\n      dup2\n        /* \"#utility.yul\":8691:8723   */\n      tag_158\n      jump\t// in\n    tag_279:\n        /* \"#utility.yul\":8592:8729   */\n      swap3\n      swap2\n      pop\n      pop\n      jump\t// out\n        /* \"#utility.yul\":8735:9062   */\n    tag_29:\n        /* \"#utility.yul\":8793:8799   */\n      0x00\n        /* \"#utility.yul\":8842:8844   */\n      0x20\n        /* \"#utility.yul\":8830:8839   */\n      dup3\n        /* \"#utility.yul\":8821:8828   */\n      dup5\n        /* \"#utility.yul\":8817:8840   */\n      sub\n        /* \"#utility.yul\":8813:8845   */\n      slt\n        /* \"#utility.yul\":8810:8929   */\n      iszero\n      tag_281\n      jumpi\n        /* \"#utility.yul\":8848:8927   */\n      tag_282\n      tag_130\n      jump\t// in\n    tag_282:\n        /* \"#utility.yul\":8810:8929   */\n    tag_281:\n        /* \"#utility.yul\":8968:8969   */\n      0x00\n        /* \"#utility.yul\":8993:9045   */\n      tag_283\n        /* \"#utility.yul\":9037:9044   */\n      dup5\n        /* \"#utility.yul\":9028:9034   */\n      dup3\n        /* \"#utility.yul\":9017:9026   */\n      dup6\n        /* \"#utility.yul\":9013:9035   */\n      add\n        /* \"#utility.yul\":8993:9045   */\n      tag_159\n      jump\t// in\n    tag_283:\n        /* \"#utility.yul\":8983:9045   */\n      swap2\n      pop\n        /* \"#utility.yul\":8939:9055   */\n      pop\n        /* \"#utility.yul\":8735:9062   */\n      swap3\n      swap2\n      pop\n      pop\n      jump\t// out\n        /* \"#utility.yul\":9068:9185   */\n    tag_160:\n        /* \"#utility.yul\":9177:9178   */\n      0x00\n        /* \"#utility.yul\":9174:9175   */\n      0x00\n        /* \"#utility.yul\":9167:9179   */\n      revert\n        /* \"#utility.yul\":9191:9308   */\n    tag_161:\n        /* \"#utility.yul\":9300:9301   */\n      0x00\n        /* \"#utility.yul\":9297:9298   */\n      0x00\n        /* \"#utility.yul\":9290:9302   */\n      revert\n        /* \"#utility.yul\":9314:9494   */\n    tag_162:\n        /* \"#utility.yul\":9362:9439   */\n      0x4e487b7100000000000000000000000000000000000000000000000000000000\n        /* \"#utility.yul\":9359:9360   */\n      0x00\n        /* \"#utility.yul\":9352:9440   */\n      mstore\n        /* \"#utility.yul\":9459:9463   */\n      0x41\n        /* \"#utility.yul\":9456:9457   */\n      0x04\n        /* \"#utility.yul\":9449:9464   */\n      mstore\n        /* \"#utility.yul\":9483:9487   */\n      0x24\n        /* \"#utility.yul\":9480:9481   */\n      0x00\n        /* \"#utility.yul\":9473:9488   */\n      revert\n        /* \"#utility.yul\":9500:9781   */\n    tag_163:\n        /* \"#utility.yul\":9583:9610   */\n      tag_288\n        /* \"#utility.yul\":9605:9609   */\n      dup3\n        /* \"#utility.yul\":9583:9610   */\n      tag_144\n      jump\t// in\n    tag_288:\n        /* \"#utility.yul\":9575:9581   */\n      dup2\n        /* \"#utility.yul\":9571:9611   */\n      add\n        /* \"#utility.yul\":9713:9719   */\n      dup2\n        /* \"#utility.yul\":9701:9711   */\n      dup2\n        /* \"#utility.yul\":9698:9720   */\n      lt\n        /* \"#utility.yul\":9677:9695   */\n      0xffffffffffffffff\n        /* \"#utility.yul\":9665:9675   */\n      dup3\n        /* \"#utility.yul\":9662:9696   */\n      gt\n        /* \"#utility.yul\":9659:9721   */\n      or\n        /* \"#utility.yul\":9656:9744   */\n      iszero\n      tag_289\n      jumpi\n        /* \"#utility.yul\":9724:9742   */\n      tag_290\n      tag_162\n      jump\t// in\n    tag_290:\n        /* \"#utility.yul\":9656:9744   */\n    tag_289:\n        /* \"#utility.yul\":9764:9774   */\n      dup1\n        /* \"#utility.yul\":9760:9762   */\n      0x40\n        /* \"#utility.yul\":9753:9775   */\n      mstore\n        /* \"#utility.yul\":9543:9781   */\n      pop\n        /* \"#utility.yul\":9500:9781   */\n      pop\n      pop\n      jump\t// out\n        /* \"#utility.yul\":9787:9916   */\n    tag_164:\n        /* \"#utility.yul\":9821:9827   */\n      0x00\n        /* \"#utility.yul\":9848:9868   */\n      tag_292\n      tag_129\n      jump\t// in\n    tag_292:\n        /* \"#utility.yul\":9838:9868   */\n      swap1\n      pop\n        /* \"#utility.yul\":9877:9910   */\n      tag_293\n        /* \"#utility.yul\":9905:9909   */\n      dup3\n        /* \"#utility.yul\":9897:9903   */\n      dup3\n        /* \"#utility.yul\":9877:9910   */\n      tag_163\n      jump\t// in\n    tag_293:\n        /* \"#utility.yul\":9787:9916   */\n      swap2\n      swap1\n      pop\n      jump\t// out\n        /* \"#utility.yul\":9922:10230   */\n    tag_165:\n        /* \"#utility.yul\":9984:9988   */\n      0x00\n        /* \"#utility.yul\":10074:10092   */\n      0xffffffffffffffff\n        /* \"#utility.yul\":10066:10072   */\n      dup3\n        /* \"#utility.yul\":10063:10093   */\n      gt\n        /* \"#utility.yul\":10060:10116   */\n      iszero\n      tag_295\n      jumpi\n        /* \"#utility.yul\":10096:10114   */\n      tag_296\n      tag_162\n      jump\t// in\n    tag_296:\n        /* \"#utility.yul\":10060:10116   */\n    tag_295:\n        /* \"#utility.yul\":10134:10163   */\n      tag_297\n        /* \"#utility.yul\":10156:10162   */\n      dup3\n        /* \"#utility.yul\":10134:10163   */\n      tag_144\n      jump\t// in\n    tag_297:\n        /* \"#utility.yul\":10126:10163   */\n      swap1\n      pop\n        /* \"#utility.yul\":10218:10222   */\n      0x20\n        /* \"#utility.yul\":10212:10216   */\n      dup2\n        /* \"#utility.yul\":10208:10223   */\n      add\n        /* \"#utility.yul\":10200:10223   */\n      swap1\n      pop\n        /* \"#utility.yul\":9922:10230   */\n      swap2\n      swap1\n      pop\n      jump\t// out\n        /* \"#utility.yul\":10236:10384   */\n    tag_166:\n        /* \"#utility.yul\":10334:10340   */\n      dup3\n        /* \"#utility.yul\":10329:10332   */\n      dup2\n        /* \"#utility.yul\":10324:10327   */\n      dup4\n        /* \"#utility.yul\":10311:10341   */\n      calldatacopy\n        /* \"#utility.yul\":10375:10376   */\n      0x00\n        /* \"#utility.yul\":10366:10372   */\n      dup4\n        /* \"#utility.yul\":10361:10364   */\n      dup4\n        /* \"#utility.yul\":10357:10373   */\n      add\n        /* \"#utility.yul\":10350:10377   */\n      mstore\n        /* \"#utility.yul\":10236:10384   */\n      pop\n      pop\n      pop\n      jump\t// out\n        /* \"#utility.yul\":10390:10815   */\n    tag_167:\n        /* \"#utility.yul\":10468:10473   */\n      0x00\n        /* \"#utility.yul\":10493:10559   */\n      tag_300\n        /* \"#utility.yul\":10509:10558   */\n      tag_301\n        /* \"#utility.yul\":10551:10557   */\n      dup5\n        /* \"#utility.yul\":10509:10558   */\n      tag_165\n      jump\t// in\n    tag_301:\n        /* \"#utility.yul\":10493:10559   */\n      tag_164\n      jump\t// in\n    tag_300:\n        /* \"#utility.yul\":10484:10559   */\n      swap1\n      pop\n        /* \"#utility.yul\":10582:10588   */\n      dup3\n        /* \"#utility.yul\":10575:10580   */\n      dup2\n        /* \"#utility.yul\":10568:10589   */\n      mstore\n        /* \"#utility.yul\":10620:10624   */\n      0x20\n        /* \"#utility.yul\":10613:10618   */\n      dup2\n        /* \"#utility.yul\":10609:10625   */\n      add\n        /* \"#utility.yul\":10658:10661   */\n      dup5\n        /* \"#utility.yul\":10649:10655   */\n      dup5\n        /* \"#utility.yul\":10644:10647   */\n      dup5\n        /* \"#utility.yul\":10640:10656   */\n      add\n        /* \"#utility.yul\":10637:10662   */\n      gt\n        /* \"#utility.yul\":10634:10746   */\n      iszero\n      tag_302\n      jumpi\n        /* \"#utility.yul\":10665:10744   */\n      tag_303\n      tag_161\n      jump\t// in\n    tag_303:\n        /* \"#utility.yul\":10634:10746   */\n    tag_302:\n        /* \"#utility.yul\":10755:10809   */\n      tag_304\n        /* \"#utility.yul\":10802:10808   */\n      dup5\n        /* \"#utility.yul\":10797:10800   */\n      dup3\n        /* \"#utility.yul\":10792:10795   */\n      dup6\n        /* \"#utility.yul\":10755:10809   */\n      tag_166\n      jump\t// in\n    tag_304:\n        /* \"#utility.yul\":10474:10815   */\n      pop\n        /* \"#utility.yul\":10390:10815   */\n      swap4\n      swap3\n      pop\n      pop\n      pop\n      jump\t// out\n        /* \"#utility.yul\":10835:11175   */\n    tag_168:\n        /* \"#utility.yul\":10891:10896   */\n      0x00\n        /* \"#utility.yul\":10940:10943   */\n      dup3\n        /* \"#utility.yul\":10933:10937   */\n      0x1f\n        /* \"#utility.yul\":10925:10931   */\n      dup4\n        /* \"#utility.yul\":10921:10938   */\n      add\n        /* \"#utility.yul\":10917:10944   */\n      slt\n        /* \"#utility.yul\":10907:11029   */\n      tag_306\n      jumpi\n        /* \"#utility.yul\":10948:11027   */\n      tag_307\n      tag_160\n      jump\t// in\n    tag_307:\n        /* \"#utility.yul\":10907:11029   */\n    tag_306:\n        /* \"#utility.yul\":11065:11071   */\n      dup2\n        /* \"#utility.yul\":11052:11072   */\n      calldataload\n        /* \"#utility.yul\":11090:11169   */\n      tag_308\n        /* \"#utility.yul\":11165:11168   */\n      dup5\n        /* \"#utility.yul\":11157:11163   */\n      dup3\n        /* \"#utility.yul\":11150:11154   */\n      0x20\n        /* \"#utility.yul\":11142:11148   */\n      dup7\n        /* \"#utility.yul\":11138:11155   */\n      add\n        /* \"#utility.yul\":11090:11169   */\n      tag_167\n      jump\t// in\n    tag_308:\n        /* \"#utility.yul\":11081:11169   */\n      swap2\n      pop\n        /* \"#utility.yul\":10897:11175   */\n      pop\n        /* \"#utility.yul\":10835:11175   */\n      swap3\n      swap2\n      pop\n      pop\n      jump\t// out\n        /* \"#utility.yul\":11181:11690   */\n    tag_36:\n        /* \"#utility.yul\":11250:11256   */\n      0x00\n        /* \"#utility.yul\":11299:11301   */\n      0x20\n        /* \"#utility.yul\":11287:11296   */\n      dup3\n        /* \"#utility.yul\":11278:11285   */\n      dup5\n        /* \"#utility.yul\":11274:11297   */\n      sub\n        /* \"#utility.yul\":11270:11302   */\n      slt\n        /* \"#utility.yul\":11267:11386   */\n      iszero\n      tag_310\n      jumpi\n        /* \"#utility.yul\":11305:11384   */\n      tag_311\n      tag_130\n      jump\t// in\n    tag_311:\n        /* \"#utility.yul\":11267:11386   */\n    tag_310:\n        /* \"#utility.yul\":11453:11454   */\n      0x00\n        /* \"#utility.yul\":11442:11451   */\n      dup3\n        /* \"#utility.yul\":11438:11455   */\n      add\n        /* \"#utility.yul\":11425:11456   */\n      calldataload\n        /* \"#utility.yul\":11483:11501   */\n      0xffffffffffffffff\n        /* \"#utility.yul\":11475:11481   */\n      dup2\n        /* \"#utility.yul\":11472:11502   */\n      gt\n        /* \"#utility.yul\":11469:11586   */\n      iszero\n      tag_312\n      jumpi\n        /* \"#utility.yul\":11505:11584   */\n      tag_313\n      tag_131\n      jump\t// in\n    tag_313:\n        /* \"#utility.yul\":11469:11586   */\n    tag_312:\n        /* \"#utility.yul\":11610:11673   */\n      tag_314\n        /* \"#utility.yul\":11665:11672   */\n      dup5\n        /* \"#utility.yul\":11656:11662   */\n      dup3\n        /* \"#utility.yul\":11645:11654   */\n      dup6\n        /* \"#utility.yul\":11641:11663   */\n      add\n        /* \"#utility.yul\":11610:11673   */\n      tag_168\n      jump\t// in\n    tag_314:\n        /* \"#utility.yul\":11600:11673   */\n      swap2\n      pop\n        /* \"#utility.yul\":11396:11683   */\n      pop\n        /* \"#utility.yul\":11181:11690   */\n      swap3\n      swap2\n      pop\n      pop\n      jump\t// out\n        /* \"#utility.yul\":11696:11918   */\n    tag_41:\n        /* \"#utility.yul\":11789:11793   */\n      0x00\n        /* \"#utility.yul\":11827:11829   */\n      0x20\n        /* \"#utility.yul\":11816:11825   */\n      dup3\n        /* \"#utility.yul\":11812:11830   */\n      add\n        /* \"#utility.yul\":11804:11830   */\n      swap1\n      pop\n        /* \"#utility.yul\":11840:11911   */\n      tag_316\n        /* \"#utility.yul\":11908:11909   */\n      0x00\n        /* \"#utility.yul\":11897:11906   */\n      dup4\n        /* \"#utility.yul\":11893:11910   */\n      add\n        /* \"#utility.yul\":11884:11890   */\n      dup5\n        /* \"#utility.yul\":11840:11911   */\n      tag_140\n      jump\t// in\n    tag_316:\n        /* \"#utility.yul\":11696:11918   */\n      swap3\n      swap2\n      pop\n      pop\n      jump\t// out\n        /* \"#utility.yul\":11924:12253   */\n    tag_44:\n        /* \"#utility.yul\":11983:11989   */\n      0x00\n        /* \"#utility.yul\":12032:12034   */\n      0x20\n        /* \"#utility.yul\":12020:12029   */\n      dup3\n        /* \"#utility.yul\":12011:12018   */\n      dup5\n        /* \"#utility.yul\":12007:12030   */\n      sub\n        /* \"#utility.yul\":12003:12035   */\n      slt\n        /* \"#utility.yul\":12000:12119   */\n      iszero\n      tag_318\n      jumpi\n        /* \"#utility.yul\":12038:12117   */\n      tag_319\n      tag_130\n      jump\t// in\n    tag_319:\n        /* \"#utility.yul\":12000:12119   */\n    tag_318:\n        /* \"#utility.yul\":12158:12159   */\n      0x00\n        /* \"#utility.yul\":12183:12236   */\n      tag_320\n        /* \"#utility.yul\":12228:12235   */\n      dup5\n        /* \"#utility.yul\":12219:12225   */\n      dup3\n        /* \"#utility.yul\":12208:12217   */\n      dup6\n        /* \"#utility.yul\":12204:12226   */\n      add\n        /* \"#utility.yul\":12183:12236   */\n      tag_138\n      jump\t// in\n    tag_320:\n        /* \"#utility.yul\":12173:12236   */\n      swap2\n      pop\n        /* \"#utility.yul\":12129:12246   */\n      pop\n        /* \"#utility.yul\":11924:12253   */\n      swap3\n      swap2\n      pop\n      pop\n      jump\t// out\n        /* \"#utility.yul\":12311:13440   */\n    tag_169:\n        /* \"#utility.yul\":12422:12425   */\n      0x00\n        /* \"#utility.yul\":12458:12462   */\n      0xa0\n        /* \"#utility.yul\":12453:12456   */\n      dup4\n        /* \"#utility.yul\":12449:12463   */\n      add\n        /* \"#utility.yul\":12543:12547   */\n      0x00\n        /* \"#utility.yul\":12536:12541   */\n      dup4\n        /* \"#utility.yul\":12532:12548   */\n      add\n        /* \"#utility.yul\":12526:12549   */\n      mload\n        /* \"#utility.yul\":12562:12625   */\n      tag_322\n        /* \"#utility.yul\":12619:12623   */\n      0x00\n        /* \"#utility.yul\":12614:12617   */\n      dup7\n        /* \"#utility.yul\":12610:12624   */\n      add\n        /* \"#utility.yul\":12596:12608   */\n      dup3\n        /* \"#utility.yul\":12562:12625   */\n      tag_149\n      jump\t// in\n    tag_322:\n        /* \"#utility.yul\":12473:12635   */\n      pop\n        /* \"#utility.yul\":12719:12723   */\n      0x20\n        /* \"#utility.yul\":12712:12717   */\n      dup4\n        /* \"#utility.yul\":12708:12724   */\n      add\n        /* \"#utility.yul\":12702:12725   */\n      mload\n        /* \"#utility.yul\":12738:12801   */\n      tag_323\n        /* \"#utility.yul\":12795:12799   */\n      0x20\n        /* \"#utility.yul\":12790:12793   */\n      dup7\n        /* \"#utility.yul\":12786:12800   */\n      add\n        /* \"#utility.yul\":12772:12784   */\n      dup3\n        /* \"#utility.yul\":12738:12801   */\n      tag_150\n      jump\t// in\n    tag_323:\n        /* \"#utility.yul\":12645:12811   */\n      pop\n        /* \"#utility.yul\":12896:12900   */\n      0x40\n        /* \"#utility.yul\":12889:12894   */\n      dup4\n        /* \"#utility.yul\":12885:12901   */\n      add\n        /* \"#utility.yul\":12879:12902   */\n      mload\n        /* \"#utility.yul\":12949:12952   */\n      dup5\n        /* \"#utility.yul\":12943:12947   */\n      dup3\n        /* \"#utility.yul\":12939:12953   */\n      sub\n        /* \"#utility.yul\":12932:12936   */\n      0x40\n        /* \"#utility.yul\":12927:12930   */\n      dup7\n        /* \"#utility.yul\":12923:12937   */\n      add\n        /* \"#utility.yul\":12916:12954   */\n      mstore\n        /* \"#utility.yul\":12975:13048   */\n      tag_324\n        /* \"#utility.yul\":13043:13047   */\n      dup3\n        /* \"#utility.yul\":13029:13041   */\n      dup3\n        /* \"#utility.yul\":12975:13048   */\n      tag_152\n      jump\t// in\n    tag_324:\n        /* \"#utility.yul\":12967:13048   */\n      swap2\n      pop\n        /* \"#utility.yul\":12821:13059   */\n      pop\n        /* \"#utility.yul\":13146:13150   */\n      0x60\n        /* \"#utility.yul\":13139:13144   */\n      dup4\n        /* \"#utility.yul\":13135:13151   */\n      add\n        /* \"#utility.yul\":13129:13152   */\n      mload\n        /* \"#utility.yul\":13165:13228   */\n      tag_325\n        /* \"#utility.yul\":13222:13226   */\n      0x60\n        /* \"#utility.yul\":13217:13220   */\n      dup7\n        /* \"#utility.yul\":13213:13227   */\n      add\n        /* \"#utility.yul\":13199:13211   */\n      dup3\n        /* \"#utility.yul\":13165:13228   */\n      tag_149\n      jump\t// in\n    tag_325:\n        /* \"#utility.yul\":13069:13238   */\n      pop\n        /* \"#utility.yul\":13321:13325   */\n      0x80\n        /* \"#utility.yul\":13314:13319   */\n      dup4\n        /* \"#utility.yul\":13310:13326   */\n      add\n        /* \"#utility.yul\":13304:13327   */\n      mload\n        /* \"#utility.yul\":13340:13403   */\n      tag_326\n        /* \"#utility.yul\":13397:13401   */\n      0x80\n        /* \"#utility.yul\":13392:13395   */\n      dup7\n        /* \"#utility.yul\":13388:13402   */\n      add\n        /* \"#utility.yul\":13374:13386   */\n      dup3\n        /* \"#utility.yul\":13340:13403   */\n      tag_149\n      jump\t// in\n    tag_326:\n        /* \"#utility.yul\":13248:13413   */\n      pop\n        /* \"#utility.yul\":13430:13434   */\n      dup1\n        /* \"#utility.yul\":13423:13434   */\n      swap2\n      pop\n        /* \"#utility.yul\":12427:13440   */\n      pop\n        /* \"#utility.yul\":12311:13440   */\n      swap3\n      swap2\n      pop\n      pop\n      jump\t// out\n        /* \"#utility.yul\":13446:13803   */\n    tag_47:\n        /* \"#utility.yul\":13581:13585   */\n      0x00\n        /* \"#utility.yul\":13619:13621   */\n      0x20\n        /* \"#utility.yul\":13608:13617   */\n      dup3\n        /* \"#utility.yul\":13604:13622   */\n      add\n        /* \"#utility.yul\":13596:13622   */\n      swap1\n      pop\n        /* \"#utility.yul\":13668:13677   */\n      dup2\n        /* \"#utility.yul\":13662:13666   */\n      dup2\n        /* \"#utility.yul\":13658:13678   */\n      sub\n        /* \"#utility.yul\":13654:13655   */\n      0x00\n        /* \"#utility.yul\":13643:13652   */\n      dup4\n        /* \"#utility.yul\":13639:13656   */\n      add\n        /* \"#utility.yul\":13632:13679   */\n      mstore\n        /* \"#utility.yul\":13696:13796   */\n      tag_328\n        /* \"#utility.yul\":13791:13795   */\n      dup2\n        /* \"#utility.yul\":13782:13788   */\n      dup5\n        /* \"#utility.yul\":13696:13796   */\n      tag_169\n      jump\t// in\n    tag_328:\n        /* \"#utility.yul\":13688:13796   */\n      swap1\n      pop\n        /* \"#utility.yul\":13446:13803   */\n      swap3\n      swap2\n      pop\n      pop\n      jump\t// out\n        /* \"#utility.yul\":13809:13989   */\n    tag_170:\n        /* \"#utility.yul\":13857:13934   */\n      0x4e487b7100000000000000000000000000000000000000000000000000000000\n        /* \"#utility.yul\":13854:13855   */\n      0x00\n        /* \"#utility.yul\":13847:13935   */\n      mstore\n        /* \"#utility.yul\":13954:13958   */\n      0x22\n        /* \"#utility.yul\":13951:13952   */\n      0x04\n        /* \"#utility.yul\":13944:13959   */\n      mstore\n        /* \"#utility.yul\":13978:13982   */\n      0x24\n        /* \"#utility.yul\":13975:13976   */\n      0x00\n        /* \"#utility.yul\":13968:13983   */\n      revert\n        /* \"#utility.yul\":13995:14315   */\n    tag_51:\n        /* \"#utility.yul\":14039:14045   */\n      0x00\n        /* \"#utility.yul\":14076:14077   */\n      0x02\n        /* \"#utility.yul\":14070:14074   */\n      dup3\n        /* \"#utility.yul\":14066:14078   */\n      div\n        /* \"#utility.yul\":14056:14078   */\n      swap1\n      pop\n        /* \"#utility.yul\":14123:14124   */\n      0x01\n        /* \"#utility.yul\":14117:14121   */\n      dup3\n        /* \"#utility.yul\":14113:14125   */\n      and\n        /* \"#utility.yul\":14144:14162   */\n      dup1\n        /* \"#utility.yul\":14134:14215   */\n      tag_331\n      jumpi\n        /* \"#utility.yul\":14200:14204   */\n      0x7f\n        /* \"#utility.yul\":14192:14198   */\n      dup3\n        /* \"#utility.yul\":14188:14205   */\n      and\n        /* \"#utility.yul\":14178:14205   */\n      swap2\n      pop\n        /* \"#utility.yul\":14134:14215   */\n    tag_331:\n        /* \"#utility.yul\":14262:14264   */\n      0x20\n        /* \"#utility.yul\":14254:14260   */\n      dup3\n        /* \"#utility.yul\":14251:14265   */\n      lt\n        /* \"#utility.yul\":14231:14249   */\n      dup2\n        /* \"#utility.yul\":14228:14266   */\n      sub\n        /* \"#utility.yul\":14225:14309   */\n      tag_332\n      jumpi\n        /* \"#utility.yul\":14281:14299   */\n      tag_333\n      tag_170\n      jump\t// in\n    tag_333:\n        /* \"#utility.yul\":14225:14309   */\n    tag_332:\n        /* \"#utility.yul\":14046:14315   */\n      pop\n        /* \"#utility.yul\":13995:14315   */\n      swap2\n      swap1\n      pop\n      jump\t// out\n        /* \"#utility.yul\":14321:14501   */\n    tag_68:\n        /* \"#utility.yul\":14369:14446   */\n      0x4e487b7100000000000000000000000000000000000000000000000000000000\n        /* \"#utility.yul\":14366:14367   */\n      0x00\n        /* \"#utility.yul\":14359:14447   */\n      mstore\n        /* \"#utility.yul\":14466:14470   */\n      0x32\n        /* \"#utility.yul\":14463:14464   */\n      0x04\n        /* \"#utility.yul\":14456:14471   */\n      mstore\n        /* \"#utility.yul\":14490:14494   */\n      0x24\n        /* \"#utility.yul\":14487:14488   */\n      0x00\n        /* \"#utility.yul\":14480:14495   */\n      revert\n        /* \"#utility.yul\":14507:14677   */\n    tag_171:\n        /* \"#utility.yul\":14647:14669   */\n      0x547765657420646f6573206e6f74206578697374000000000000000000000000\n        /* \"#utility.yul\":14643:14644   */\n      0x00\n        /* \"#utility.yul\":14635:14641   */\n      dup3\n        /* \"#utility.yul\":14631:14645   */\n      add\n        /* \"#utility.yul\":14624:14670   */\n      mstore\n        /* \"#utility.yul\":14507:14677   */\n      pop\n      jump\t// out\n        /* \"#utility.yul\":14683:15049   */\n    tag_172:\n        /* \"#utility.yul\":14825:14828   */\n      0x00\n        /* \"#utility.yul\":14846:14913   */\n      tag_337\n        /* \"#utility.yul\":14910:14912   */\n      0x14\n        /* \"#utility.yul\":14905:14908   */\n      dup4\n        /* \"#utility.yul\":14846:14913   */\n      tag_142\n      jump\t// in\n    tag_337:\n        /* \"#utility.yul\":14839:14913   */\n      swap2\n      pop\n        /* \"#utility.yul\":14922:15015   */\n      tag_338\n        /* \"#utility.yul\":15011:15014   */\n      dup3\n        /* \"#utility.yul\":14922:15015   */\n      tag_171\n      jump\t// in\n    tag_338:\n        /* \"#utility.yul\":15040:15042   */\n      0x20\n        /* \"#utility.yul\":15035:15038   */\n      dup3\n        /* \"#utility.yul\":15031:15043   */\n      add\n        /* \"#utility.yul\":15024:15043   */\n      swap1\n      pop\n        /* \"#utility.yul\":14683:15049   */\n      swap2\n      swap1\n      pop\n      jump\t// out\n        /* \"#utility.yul\":15055:15474   */\n    tag_72:\n        /* \"#utility.yul\":15221:15225   */\n      0x00\n        /* \"#utility.yul\":15259:15261   */\n      0x20\n        /* \"#utility.yul\":15248:15257   */\n      dup3\n        /* \"#utility.yul\":15244:15262   */\n      add\n        /* \"#utility.yul\":15236:15262   */\n      swap1\n      pop\n        /* \"#utility.yul\":15308:15317   */\n      dup2\n        /* \"#utility.yul\":15302:15306   */\n      dup2\n        /* \"#utility.yul\":15298:15318   */\n      sub\n        /* \"#utility.yul\":15294:15295   */\n      0x00\n        /* \"#utility.yul\":15283:15292   */\n      dup4\n        /* \"#utility.yul\":15279:15296   */\n      add\n        /* \"#utility.yul\":15272:15319   */\n      mstore\n        /* \"#utility.yul\":15336:15467   */\n      tag_340\n        /* \"#utility.yul\":15462:15466   */\n      dup2\n        /* \"#utility.yul\":15336:15467   */\n      tag_172\n      jump\t// in\n    tag_340:\n        /* \"#utility.yul\":15328:15467   */\n      swap1\n      pop\n        /* \"#utility.yul\":15055:15474   */\n      swap2\n      swap1\n      pop\n      jump\t// out\n        /* \"#utility.yul\":15480:15648   */\n    tag_173:\n        /* \"#utility.yul\":15620:15640   */\n      0x547765657420686173206e6f206c696b65730000000000000000000000000000\n        /* \"#utility.yul\":15616:15617   */\n      0x00\n        /* \"#utility.yul\":15608:15614   */\n      dup3\n        /* \"#utility.yul\":15604:15618   */\n      add\n        /* \"#utility.yul\":15597:15641   */\n      mstore\n        /* \"#utility.yul\":15480:15648   */\n      pop\n      jump\t// out\n        /* \"#utility.yul\":15654:16020   */\n    tag_174:\n        /* \"#utility.yul\":15796:15799   */\n      0x00\n        /* \"#utility.yul\":15817:15884   */\n      tag_343\n        /* \"#utility.yul\":15881:15883   */\n      0x12\n        /* \"#utility.yul\":15876:15879   */\n      dup4\n        /* \"#utility.yul\":15817:15884   */\n      tag_142\n      jump\t// in\n    tag_343:\n        /* \"#utility.yul\":15810:15884   */\n      swap2\n      pop\n        /* \"#utility.yul\":15893:15986   */\n      tag_344\n        /* \"#utility.yul\":15982:15985   */\n      dup3\n        /* \"#utility.yul\":15893:15986   */\n      tag_173\n      jump\t// in\n    tag_344:\n        /* \"#utility.yul\":16011:16013   */\n      0x20\n        /* \"#utility.yul\":16006:16009   */\n      dup3\n        /* \"#utility.yul\":16002:16014   */\n      add\n        /* \"#utility.yul\":15995:16014   */\n      swap1\n      pop\n        /* \"#utility.yul\":15654:16020   */\n      swap2\n      swap1\n      pop\n      jump\t// out\n        /* \"#utility.yul\":16026:16445   */\n    tag_78:\n        /* \"#utility.yul\":16192:16196   */\n      0x00\n        /* \"#utility.yul\":16230:16232   */\n      0x20\n        /* \"#utility.yul\":16219:16228   */\n      dup3\n        /* \"#utility.yul\":16215:16233   */\n      add\n        /* \"#utility.yul\":16207:16233   */\n      swap1\n      pop\n        /* \"#utility.yul\":16279:16288   */\n      dup2\n        /* \"#utility.yul\":16273:16277   */\n      dup2\n        /* \"#utility.yul\":16269:16289   */\n      sub\n        /* \"#utility.yul\":16265:16266   */\n      0x00\n        /* \"#utility.yul\":16254:16263   */\n      dup4\n        /* \"#utility.yul\":16250:16267   */\n      add\n        /* \"#utility.yul\":16243:16290   */\n      mstore\n        /* \"#utility.yul\":16307:16438   */\n      tag_346\n        /* \"#utility.yul\":16433:16437   */\n      dup2\n        /* \"#utility.yul\":16307:16438   */\n      tag_174\n      jump\t// in\n    tag_346:\n        /* \"#utility.yul\":16299:16438   */\n      swap1\n      pop\n        /* \"#utility.yul\":16026:16445   */\n      swap2\n      swap1\n      pop\n      jump\t// out\n        /* \"#utility.yul\":16451:16631   */\n    tag_175:\n        /* \"#utility.yul\":16499:16576   */\n      0x4e487b7100000000000000000000000000000000000000000000000000000000\n        /* \"#utility.yul\":16496:16497   */\n      0x00\n        /* \"#utility.yul\":16489:16577   */\n      mstore\n        /* \"#utility.yul\":16596:16600   */\n      0x11\n        /* \"#utility.yul\":16593:16594   */\n      0x04\n        /* \"#utility.yul\":16586:16601   */\n      mstore\n        /* \"#utility.yul\":16620:16624   */\n      0x24\n        /* \"#utility.yul\":16617:16618   */\n      0x00\n        /* \"#utility.yul\":16610:16625   */\n      revert\n        /* \"#utility.yul\":16637:16808   */\n    tag_83:\n        /* \"#utility.yul\":16676:16679   */\n      0x00\n        /* \"#utility.yul\":16699:16723   */\n      tag_349\n        /* \"#utility.yul\":16717:16722   */\n      dup3\n        /* \"#utility.yul\":16699:16723   */\n      tag_136\n      jump\t// in\n    tag_349:\n        /* \"#utility.yul\":16690:16723   */\n      swap2\n      pop\n        /* \"#utility.yul\":16745:16749   */\n      0x00\n        /* \"#utility.yul\":16738:16743   */\n      dup3\n        /* \"#utility.yul\":16735:16750   */\n      sub\n        /* \"#utility.yul\":16732:16773   */\n      tag_350\n      jumpi\n        /* \"#utility.yul\":16753:16771   */\n      tag_351\n      tag_175\n      jump\t// in\n    tag_351:\n        /* \"#utility.yul\":16732:16773   */\n    tag_350:\n        /* \"#utility.yul\":16800:16801   */\n      0x01\n        /* \"#utility.yul\":16793:16798   */\n      dup3\n        /* \"#utility.yul\":16789:16802   */\n      sub\n        /* \"#utility.yul\":16782:16802   */\n      swap1\n      pop\n        /* \"#utility.yul\":16637:16808   */\n      swap2\n      swap1\n      pop\n      jump\t// out\n        /* \"#utility.yul\":16814:17367   */\n    tag_88:\n        /* \"#utility.yul\":16991:16995   */\n      0x00\n        /* \"#utility.yul\":17029:17032   */\n      0x80\n        /* \"#utility.yul\":17018:17027   */\n      dup3\n        /* \"#utility.yul\":17014:17033   */\n      add\n        /* \"#utility.yul\":17006:17033   */\n      swap1\n      pop\n        /* \"#utility.yul\":17043:17114   */\n      tag_353\n        /* \"#utility.yul\":17111:17112   */\n      0x00\n        /* \"#utility.yul\":17100:17109   */\n      dup4\n        /* \"#utility.yul\":17096:17113   */\n      add\n        /* \"#utility.yul\":17087:17093   */\n      dup8\n        /* \"#utility.yul\":17043:17114   */\n      tag_140\n      jump\t// in\n    tag_353:\n        /* \"#utility.yul\":17124:17196   */\n      tag_354\n        /* \"#utility.yul\":17192:17194   */\n      0x20\n        /* \"#utility.yul\":17181:17190   */\n      dup4\n        /* \"#utility.yul\":17177:17195   */\n      add\n        /* \"#utility.yul\":17168:17174   */\n      dup7\n        /* \"#utility.yul\":17124:17196   */\n      tag_140\n      jump\t// in\n    tag_354:\n        /* \"#utility.yul\":17206:17278   */\n      tag_355\n        /* \"#utility.yul\":17274:17276   */\n      0x40\n        /* \"#utility.yul\":17263:17272   */\n      dup4\n        /* \"#utility.yul\":17259:17277   */\n      add\n        /* \"#utility.yul\":17250:17256   */\n      dup6\n        /* \"#utility.yul\":17206:17278   */\n      tag_139\n      jump\t// in\n    tag_355:\n        /* \"#utility.yul\":17288:17360   */\n      tag_356\n        /* \"#utility.yul\":17356:17358   */\n      0x60\n        /* \"#utility.yul\":17345:17354   */\n      dup4\n        /* \"#utility.yul\":17341:17359   */\n      add\n        /* \"#utility.yul\":17332:17338   */\n      dup5\n        /* \"#utility.yul\":17288:17360   */\n      tag_139\n      jump\t// in\n    tag_356:\n        /* \"#utility.yul\":16814:17367   */\n      swap6\n      swap5\n      pop\n      pop\n      pop\n      pop\n      pop\n      jump\t// out\n        /* \"#utility.yul\":17373:17553   */\n    tag_176:\n        /* \"#utility.yul\":17513:17545   */\n      0x596f7520617265206e6f742074686520636f6e7472616374206f776e65720000\n        /* \"#utility.yul\":17509:17510   */\n      0x00\n        /* \"#utility.yul\":17501:17507   */\n      dup3\n        /* \"#utility.yul\":17497:17511   */\n      add\n        /* \"#utility.yul\":17490:17546   */\n      mstore\n        /* \"#utility.yul\":17373:17553   */\n      pop\n      jump\t// out\n        /* \"#utility.yul\":17559:17925   */\n    tag_177:\n        /* \"#utility.yul\":17701:17704   */\n      0x00\n        /* \"#utility.yul\":17722:17789   */\n      tag_359\n        /* \"#utility.yul\":17786:17788   */\n      0x1e\n        /* \"#utility.yul\":17781:17784   */\n      dup4\n        /* \"#utility.yul\":17722:17789   */\n      tag_142\n      jump\t// in\n    tag_359:\n        /* \"#utility.yul\":17715:17789   */\n      swap2\n      pop\n        /* \"#utility.yul\":17798:17891   */\n      tag_360\n        /* \"#utility.yul\":17887:17890   */\n      dup3\n        /* \"#utility.yul\":17798:17891   */\n      tag_176\n      jump\t// in\n    tag_360:\n        /* \"#utility.yul\":17916:17918   */\n      0x20\n        /* \"#utility.yul\":17911:17914   */\n      dup3\n        /* \"#utility.yul\":17907:17919   */\n      add\n        /* \"#utility.yul\":17900:17919   */\n      swap1\n      pop\n        /* \"#utility.yul\":17559:17925   */\n      swap2\n      swap1\n      pop\n      jump\t// out\n        /* \"#utility.yul\":17931:18350   */\n    tag_92:\n        /* \"#utility.yul\":18097:18101   */\n      0x00\n        /* \"#utility.yul\":18135:18137   */\n      0x20\n        /* \"#utility.yul\":18124:18133   */\n      dup3\n        /* \"#utility.yul\":18120:18138   */\n      add\n        /* \"#utility.yul\":18112:18138   */\n      swap1\n      pop\n        /* \"#utility.yul\":18184:18193   */\n      dup2\n        /* \"#utility.yul\":18178:18182   */\n      dup2\n        /* \"#utility.yul\":18174:18194   */\n      sub\n        /* \"#utility.yul\":18170:18171   */\n      0x00\n        /* \"#utility.yul\":18159:18168   */\n      dup4\n        /* \"#utility.yul\":18155:18172   */\n      add\n        /* \"#utility.yul\":18148:18195   */\n      mstore\n        /* \"#utility.yul\":18212:18343   */\n      tag_362\n        /* \"#utility.yul\":18338:18342   */\n      dup2\n        /* \"#utility.yul\":18212:18343   */\n      tag_177\n      jump\t// in\n    tag_362:\n        /* \"#utility.yul\":18204:18343   */\n      swap1\n      pop\n        /* \"#utility.yul\":17931:18350   */\n      swap2\n      swap1\n      pop\n      jump\t// out\n        /* \"#utility.yul\":18356:18589   */\n    tag_104:\n        /* \"#utility.yul\":18395:18398   */\n      0x00\n        /* \"#utility.yul\":18418:18442   */\n      tag_364\n        /* \"#utility.yul\":18436:18441   */\n      dup3\n        /* \"#utility.yul\":18418:18442   */\n      tag_136\n      jump\t// in\n    tag_364:\n        /* \"#utility.yul\":18409:18442   */\n      swap2\n      pop\n        /* \"#utility.yul\":18464:18530   */\n      0xffffffffffffffffffffffffffffffffffffffffffffffffffffffffffffffff\n        /* \"#utility.yul\":18457:18462   */\n      dup3\n        /* \"#utility.yul\":18454:18531   */\n      sub\n        /* \"#utility.yul\":18451:18554   */\n      tag_365\n      jumpi\n        /* \"#utility.yul\":18534:18552   */\n      tag_366\n      tag_175\n      jump\t// in\n    tag_366:\n        /* \"#utility.yul\":18451:18554   */\n    tag_365:\n        /* \"#utility.yul\":18581:18582   */\n      0x01\n        /* \"#utility.yul\":18574:18579   */\n      dup3\n        /* \"#utility.yul\":18570:18583   */\n      add\n        /* \"#utility.yul\":18563:18583   */\n      swap1\n      pop\n        /* \"#utility.yul\":18356:18589   */\n      swap2\n      swap1\n      pop\n      jump\t// out\n        /* \"#utility.yul\":18595:18818   */\n    tag_178:\n        /* \"#utility.yul\":18735:18769   */\n      0x54776565742073686f756c6420626520756e6465722032383020636861726163\n        /* \"#utility.yul\":18731:18732   */\n      0x00\n        /* \"#utility.yul\":18723:18729   */\n      dup3\n        /* \"#utility.yul\":18719:18733   */\n      add\n        /* \"#utility.yul\":18712:18770   */\n      mstore\n        /* \"#utility.yul\":18804:18810   */\n      0x7465727300000000000000000000000000000000000000000000000000000000\n        /* \"#utility.yul\":18799:18801   */\n      0x20\n        /* \"#utility.yul\":18791:18797   */\n      dup3\n        /* \"#utility.yul\":18787:18802   */\n      add\n        /* \"#utility.yul\":18780:18811   */\n      mstore\n        /* \"#utility.yul\":18595:18818   */\n      pop\n      jump\t// out\n        /* \"#utility.yul\":18824:19190   */\n    tag_179:\n        /* \"#utility.yul\":18966:18969   */\n      0x00\n        /* \"#utility.yul\":18987:19054   */\n      tag_369\n        /* \"#utility.yul\":19051:19053   */\n      0x24\n        /* \"#utility.yul\":19046:19049   */\n      dup4\n        /* \"#utility.yul\":18987:19054   */\n      tag_142\n      jump\t// in\n    tag_369:\n        /* \"#utility.yul\":18980:19054   */\n      swap2\n      pop\n        /* \"#utility.yul\":19063:19156   */\n      tag_370\n        /* \"#utility.yul\":19152:19155   */\n      dup3\n        /* \"#utility.yul\":19063:19156   */\n      tag_178\n      jump\t// in\n    tag_370:\n        /* \"#utility.yul\":19181:19183   */\n      0x40\n        /* \"#utility.yul\":19176:19179   */\n      dup3\n        /* \"#utility.yul\":19172:19184   */\n      add\n        /* \"#utility.yul\":19165:19184   */\n      swap1\n      pop\n        /* \"#utility.yul\":18824:19190   */\n      swap2\n      swap1\n      pop\n      jump\t// out\n        /* \"#utility.yul\":19196:19615   */\n    tag_112:\n        /* \"#utility.yul\":19362:19366   */\n      0x00\n        /* \"#utility.yul\":19400:19402   */\n      0x20\n        /* \"#utility.yul\":19389:19398   */\n      dup3\n        /* \"#utility.yul\":19385:19403   */\n      add\n        /* \"#utility.yul\":19377:19403   */\n      swap1\n      pop\n        /* \"#utility.yul\":19449:19458   */\n      dup2\n        /* \"#utility.yul\":19443:19447   */\n      dup2\n        /* \"#utility.yul\":19439:19459   */\n      sub\n        /* \"#utility.yul\":19435:19436   */\n      0x00\n        /* \"#utility.yul\":19424:19433   */\n      dup4\n        /* \"#utility.yul\":19420:19437   */\n      add\n        /* \"#utility.yul\":19413:19460   */\n      mstore\n        /* \"#utility.yul\":19477:19608   */\n      tag_372\n        /* \"#utility.yul\":19603:19607   */\n      dup2\n        /* \"#utility.yul\":19477:19608   */\n      tag_179\n      jump\t// in\n    tag_372:\n        /* \"#utility.yul\":19469:19608   */\n      swap1\n      pop\n        /* \"#utility.yul\":19196:19615   */\n      swap2\n      swap1\n      pop\n      jump\t// out\n        /* \"#utility.yul\":19621:19762   */\n    tag_180:\n        /* \"#utility.yul\":19670:19674   */\n      0x00\n        /* \"#utility.yul\":19693:19696   */\n      dup2\n        /* \"#utility.yul\":19685:19696   */\n      swap1\n      pop\n        /* \"#utility.yul\":19716:19719   */\n      dup2\n        /* \"#utility.yul\":19713:19714   */\n      0x00\n        /* \"#utility.yul\":19706:19720   */\n      mstore\n        /* \"#utility.yul\":19750:19754   */\n      0x20\n        /* \"#utility.yul\":19747:19748   */\n      0x00\n        /* \"#utility.yul\":19737:19755   */\n      keccak256\n        /* \"#utility.yul\":19729:19755   */\n      swap1\n      pop\n        /* \"#utility.yul\":19621:19762   */\n      swap2\n      swap1\n      pop\n      jump\t// out\n        /* \"#utility.yul\":19768:19861   */\n    tag_181:\n        /* \"#utility.yul\":19805:19811   */\n      0x00\n        /* \"#utility.yul\":19852:19854   */\n      0x20\n        /* \"#utility.yul\":19847:19849   */\n      0x1f\n        /* \"#utility.yul\":19840:19845   */\n      dup4\n        /* \"#utility.yul\":19836:19850   */\n      add\n        /* \"#utility.yul\":19832:19855   */\n      div\n        /* \"#utility.yul\":19822:19855   */\n      swap1\n      pop\n        /* \"#utility.yul\":19768:19861   */\n      swap2\n      swap1\n      pop\n      jump\t// out\n        /* \"#utility.yul\":19867:19974   */\n    tag_182:\n        /* \"#utility.yul\":19911:19919   */\n      0x00\n        /* \"#utility.yul\":19961:19966   */\n      dup3\n        /* \"#utility.yul\":19955:19959   */\n      dup3\n        /* \"#utility.yul\":19951:19967   */\n      shl\n        /* \"#utility.yul\":19930:19967   */\n      swap1\n      pop\n        /* \"#utility.yul\":19867:19974   */\n      swap3\n      swap2\n      pop\n      pop\n      jump\t// out\n        /* \"#utility.yul\":19980:20373   */\n    tag_183:\n        /* \"#utility.yul\":20049:20055   */\n      0x00\n        /* \"#utility.yul\":20099:20100   */\n      0x08\n        /* \"#utility.yul\":20087:20097   */\n      dup4\n        /* \"#utility.yul\":20083:20101   */\n      mul\n        /* \"#utility.yul\":20122:20219   */\n      tag_377\n        /* \"#utility.yul\":20152:20218   */\n      0xffffffffffffffffffffffffffffffffffffffffffffffffffffffffffffffff\n        /* \"#utility.yul\":20141:20150   */\n      dup3\n        /* \"#utility.yul\":20122:20219   */\n      tag_182\n      jump\t// in\n    tag_377:\n        /* \"#utility.yul\":20240:20279   */\n      tag_378\n        /* \"#utility.yul\":20270:20278   */\n      dup7\n        /* \"#utility.yul\":20259:20268   */\n      dup4\n        /* \"#utility.yul\":20240:20279   */\n      tag_182\n      jump\t// in\n    tag_378:\n        /* \"#utility.yul\":20228:20279   */\n      swap6\n      pop\n        /* \"#utility.yul\":20312:20316   */\n      dup1\n        /* \"#utility.yul\":20308:20317   */\n      not\n        /* \"#utility.yul\":20301:20306   */\n      dup5\n        /* \"#utility.yul\":20297:20318   */\n      and\n        /* \"#utility.yul\":20288:20318   */\n      swap4\n      pop\n        /* \"#utility.yul\":20361:20365   */\n      dup1\n        /* \"#utility.yul\":20351:20359   */\n      dup7\n        /* \"#utility.yul\":20347:20366   */\n      and\n        /* \"#utility.yul\":20340:20345   */\n      dup5\n        /* \"#utility.yul\":20337:20367   */\n      or\n        /* \"#utility.yul\":20327:20367   */\n      swap3\n      pop\n        /* \"#utility.yul\":20056:20373   */\n      pop\n      pop\n        /* \"#utility.yul\":19980:20373   */\n      swap4\n      swap3\n      pop\n      pop\n      pop\n      jump\t// out\n        /* \"#utility.yul\":20379:20439   */\n    tag_184:\n        /* \"#utility.yul\":20407:20410   */\n      0x00\n        /* \"#utility.yul\":20428:20433   */\n      dup2\n        /* \"#utility.yul\":20421:20433   */\n      swap1\n      pop\n        /* \"#utility.yul\":20379:20439   */\n      swap2\n      swap1\n      pop\n      jump\t// out\n        /* \"#utility.yul\":20445:20587   */\n    tag_185:\n        /* \"#utility.yul\":20495:20504   */\n      0x00\n        /* \"#utility.yul\":20528:20581   */\n      tag_381\n        /* \"#utility.yul\":20546:20580   */\n      tag_382\n        /* \"#utility.yul\":20555:20579   */\n      tag_383\n        /* \"#utility.yul\":20573:20578   */\n      dup5\n        /* \"#utility.yul\":20555:20579   */\n      tag_136\n      jump\t// in\n    tag_383:\n        /* \"#utility.yul\":20546:20580   */\n      tag_184\n      jump\t// in\n    tag_382:\n        /* \"#utility.yul\":20528:20581   */\n      tag_136\n      jump\t// in\n    tag_381:\n        /* \"#utility.yul\":20515:20581   */\n      swap1\n      pop\n        /* \"#utility.yul\":20445:20587   */\n      swap2\n      swap1\n      pop\n      jump\t// out\n        /* \"#utility.yul\":20593:20668   */\n    tag_186:\n        /* \"#utility.yul\":20636:20639   */\n      0x00\n        /* \"#utility.yul\":20657:20662   */\n      dup2\n        /* \"#utility.yul\":20650:20662   */\n      swap1\n      pop\n        /* \"#utility.yul\":20593:20668   */\n      swap2\n      swap1\n      pop\n      jump\t// out\n        /* \"#utility.yul\":20674:20943   */\n    tag_187:\n        /* \"#utility.yul\":20784:20823   */\n      tag_386\n        /* \"#utility.yul\":20815:20822   */\n      dup4\n        /* \"#utility.yul\":20784:20823   */\n      tag_185\n      jump\t// in\n    tag_386:\n        /* \"#utility.yul\":20845:20936   */\n      tag_387\n        /* \"#utility.yul\":20894:20935   */\n      tag_388\n        /* \"#utility.yul\":20918:20934   */\n      dup3\n        /* \"#utility.yul\":20894:20935   */\n      tag_186\n      jump\t// in\n    tag_388:\n        /* \"#utility.yul\":20886:20892   */\n      dup5\n        /* \"#utility.yul\":20879:20883   */\n      dup5\n        /* \"#utility.yul\":20873:20884   */\n      sload\n        /* \"#utility.yul\":20845:20936   */\n      tag_183\n      jump\t// in\n    tag_387:\n        /* \"#utility.yul\":20839:20843   */\n      dup3\n        /* \"#utility.yul\":20832:20937   */\n      sstore\n        /* \"#utility.yul\":20750:20943   */\n      pop\n        /* \"#utility.yul\":20674:20943   */\n      pop\n      pop\n      pop\n      jump\t// out\n        /* \"#utility.yul\":20949:21022   */\n    tag_188:\n        /* \"#utility.yul\":20994:20997   */\n      0x00\n        /* \"#utility.yul\":21015:21016   */\n      0x00\n        /* \"#utility.yul\":21008:21016   */\n      swap1\n      pop\n        /* \"#utility.yul\":20949:21022   */\n      swap1\n      jump\t// out\n        /* \"#utility.yul\":21028:21217   */\n    tag_189:\n        /* \"#utility.yul\":21105:21137   */\n      tag_391\n      tag_188\n      jump\t// in\n    tag_391:\n        /* \"#utility.yul\":21146:21211   */\n      tag_392\n        /* \"#utility.yul\":21204:21210   */\n      dup2\n        /* \"#utility.yul\":21196:21202   */\n      dup5\n        /* \"#utility.yul\":21190:21194   */\n      dup5\n        /* \"#utility.yul\":21146:21211   */\n      tag_187\n      jump\t// in\n    tag_392:\n        /* \"#utility.yul\":21081:21217   */\n      pop\n        /* \"#utility.yul\":21028:21217   */\n      pop\n      pop\n      jump\t// out\n        /* \"#utility.yul\":21223:21409   */\n    tag_190:\n        /* \"#utility.yul\":21283:21403   */\n    tag_394:\n        /* \"#utility.yul\":21300:21303   */\n      dup2\n        /* \"#utility.yul\":21293:21298   */\n      dup2\n        /* \"#utility.yul\":21290:21304   */\n      lt\n        /* \"#utility.yul\":21283:21403   */\n      iszero\n      tag_396\n      jumpi\n        /* \"#utility.yul\":21354:21393   */\n      tag_397\n        /* \"#utility.yul\":21391:21392   */\n      0x00\n        /* \"#utility.yul\":21384:21389   */\n      dup3\n        /* \"#utility.yul\":21354:21393   */\n      tag_189\n      jump\t// in\n    tag_397:\n        /* \"#utility.yul\":21327:21328   */\n      0x01\n        /* \"#utility.yul\":21320:21325   */\n      dup2\n        /* \"#utility.yul\":21316:21329   */\n      add\n        /* \"#utility.yul\":21307:21329   */\n      swap1\n      pop\n        /* \"#utility.yul\":21283:21403   */\n      jump(tag_394)\n    tag_396:\n        /* \"#utility.yul\":21223:21409   */\n      pop\n      pop\n      jump\t// out\n        /* \"#utility.yul\":21415:21958   */\n    tag_191:\n        /* \"#utility.yul\":21516:21518   */\n      0x1f\n        /* \"#utility.yul\":21511:21514   */\n      dup3\n        /* \"#utility.yul\":21508:21519   */\n      gt\n        /* \"#utility.yul\":21505:21951   */\n      iszero\n      tag_399\n      jumpi\n        /* \"#utility.yul\":21550:21588   */\n      tag_400\n        /* \"#utility.yul\":21582:21587   */\n      dup2\n        /* \"#utility.yul\":21550:21588   */\n      tag_180\n      jump\t// in\n    tag_400:\n        /* \"#utility.yul\":21634:21663   */\n      tag_401\n        /* \"#utility.yul\":21652:21662   */\n      dup5\n        /* \"#utility.yul\":21634:21663   */\n      tag_181\n      jump\t// in\n    tag_401:\n        /* \"#utility.yul\":21624:21632   */\n      dup2\n        /* \"#utility.yul\":21620:21664   */\n      add\n        /* \"#utility.yul\":21817:21819   */\n      0x20\n        /* \"#utility.yul\":21805:21815   */\n      dup6\n        /* \"#utility.yul\":21802:21820   */\n      lt\n        /* \"#utility.yul\":21799:21848   */\n      iszero\n      tag_402\n      jumpi\n        /* \"#utility.yul\":21838:21846   */\n      dup2\n        /* \"#utility.yul\":21823:21846   */\n      swap1\n      pop\n        /* \"#utility.yul\":21799:21848   */\n    tag_402:\n        /* \"#utility.yul\":21861:21941   */\n      tag_403\n        /* \"#utility.yul\":21917:21939   */\n      tag_404\n        /* \"#utility.yul\":21935:21938   */\n      dup6\n        /* \"#utility.yul\":21917:21939   */\n      tag_181\n      jump\t// in\n    tag_404:\n        /* \"#utility.yul\":21907:21915   */\n      dup4\n        /* \"#utility.yul\":21903:21940   */\n      add\n        /* \"#utility.yul\":21890:21901   */\n      dup3\n        /* \"#utility.yul\":21861:21941   */\n      tag_190\n      jump\t// in\n    tag_403:\n        /* \"#utility.yul\":21520:21951   */\n      pop\n      pop\n        /* \"#utility.yul\":21505:21951   */\n    tag_399:\n        /* \"#utility.yul\":21415:21958   */\n      pop\n      pop\n      pop\n      jump\t// out\n        /* \"#utility.yul\":21964:22081   */\n    tag_192:\n        /* \"#utility.yul\":22018:22026   */\n      0x00\n        /* \"#utility.yul\":22068:22073   */\n      dup3\n        /* \"#utility.yul\":22062:22066   */\n      dup3\n        /* \"#utility.yul\":22058:22074   */\n      shr\n        /* \"#utility.yul\":22037:22074   */\n      swap1\n      pop\n        /* \"#utility.yul\":21964:22081   */\n      swap3\n      swap2\n      pop\n      pop\n      jump\t// out\n        /* \"#utility.yul\":22087:22256   */\n    tag_193:\n        /* \"#utility.yul\":22131:22137   */\n      0x00\n        /* \"#utility.yul\":22164:22215   */\n      tag_407\n        /* \"#utility.yul\":22212:22213   */\n      0x00\n        /* \"#utility.yul\":22208:22214   */\n      not\n        /* \"#utility.yul\":22200:22205   */\n      dup5\n        /* \"#utility.yul\":22197:22198   */\n      0x08\n        /* \"#utility.yul\":22193:22206   */\n      mul\n        /* \"#utility.yul\":22164:22215   */\n      tag_192\n      jump\t// in\n    tag_407:\n        /* \"#utility.yul\":22160:22216   */\n      not\n        /* \"#utility.yul\":22245:22249   */\n      dup1\n        /* \"#utility.yul\":22239:22243   */\n      dup4\n        /* \"#utility.yul\":22235:22250   */\n      and\n        /* \"#utility.yul\":22225:22250   */\n      swap2\n      pop\n        /* \"#utility.yul\":22138:22256   */\n      pop\n        /* \"#utility.yul\":22087:22256   */\n      swap3\n      swap2\n      pop\n      pop\n      jump\t// out\n        /* \"#utility.yul\":22261:22556   */\n    tag_194:\n        /* \"#utility.yul\":22337:22341   */\n      0x00\n        /* \"#utility.yul\":22483:22512   */\n      tag_409\n        /* \"#utility.yul\":22508:22511   */\n      dup4\n        /* \"#utility.yul\":22502:22506   */\n      dup4\n        /* \"#utility.yul\":22483:22512   */\n      tag_193\n      jump\t// in\n    tag_409:\n        /* \"#utility.yul\":22475:22512   */\n      swap2\n      pop\n        /* \"#utility.yul\":22545:22548   */\n      dup3\n        /* \"#utility.yul\":22542:22543   */\n      0x02\n        /* \"#utility.yul\":22538:22549   */\n      mul\n        /* \"#utility.yul\":22532:22536   */\n      dup3\n        /* \"#utility.yul\":22529:22550   */\n      or\n        /* \"#utility.yul\":22521:22550   */\n      swap1\n      pop\n        /* \"#utility.yul\":22261:22556   */\n      swap3\n      swap2\n      pop\n      pop\n      jump\t// out\n        /* \"#utility.yul\":22561:23956   */\n    tag_115:\n        /* \"#utility.yul\":22678:22715   */\n      tag_411\n        /* \"#utility.yul\":22711:22714   */\n      dup3\n        /* \"#utility.yul\":22678:22715   */\n      tag_141\n      jump\t// in\n    tag_411:\n        /* \"#utility.yul\":22780:22798   */\n      0xffffffffffffffff\n        /* \"#utility.yul\":22772:22778   */\n      dup2\n        /* \"#utility.yul\":22769:22799   */\n      gt\n        /* \"#utility.yul\":22766:22822   */\n      iszero\n      tag_412\n      jumpi\n        /* \"#utility.yul\":22802:22820   */\n      tag_413\n      tag_162\n      jump\t// in\n    tag_413:\n        /* \"#utility.yul\":22766:22822   */\n    tag_412:\n        /* \"#utility.yul\":22846:22884   */\n      tag_414\n        /* \"#utility.yul\":22878:22882   */\n      dup3\n        /* \"#utility.yul\":22872:22883   */\n      sload\n        /* \"#utility.yul\":22846:22884   */\n      tag_51\n      jump\t// in\n    tag_414:\n        /* \"#utility.yul\":22931:22998   */\n      tag_415\n        /* \"#utility.yul\":22991:22997   */\n      dup3\n        /* \"#utility.yul\":22983:22989   */\n      dup3\n        /* \"#utility.yul\":22977:22981   */\n      dup6\n        /* \"#utility.yul\":22931:22998   */\n      tag_191\n      jump\t// in\n    tag_415:\n        /* \"#utility.yul\":23025:23026   */\n      0x00\n        /* \"#utility.yul\":23049:23053   */\n      0x20\n        /* \"#utility.yul\":23036:23053   */\n      swap1\n      pop\n        /* \"#utility.yul\":23081:23083   */\n      0x1f\n        /* \"#utility.yul\":23073:23079   */\n      dup4\n        /* \"#utility.yul\":23070:23084   */\n      gt\n        /* \"#utility.yul\":23098:23099   */\n      0x01\n        /* \"#utility.yul\":23093:23711   */\n      dup2\n      eq\n      tag_417\n      jumpi\n        /* \"#utility.yul\":23755:23756   */\n      0x00\n        /* \"#utility.yul\":23772:23778   */\n      dup5\n        /* \"#utility.yul\":23769:23846   */\n      iszero\n      tag_418\n      jumpi\n        /* \"#utility.yul\":23821:23830   */\n      dup3\n        /* \"#utility.yul\":23816:23819   */\n      dup8\n        /* \"#utility.yul\":23812:23831   */\n      add\n        /* \"#utility.yul\":23806:23832   */\n      mload\n        /* \"#utility.yul\":23797:23832   */\n      swap1\n      pop\n        /* \"#utility.yul\":23769:23846   */\n    tag_418:\n        /* \"#utility.yul\":23872:23939   */\n      tag_419\n        /* \"#utility.yul\":23932:23938   */\n      dup6\n        /* \"#utility.yul\":23925:23930   */\n      dup3\n        /* \"#utility.yul\":23872:23939   */\n      tag_194\n      jump\t// in\n    tag_419:\n        /* \"#utility.yul\":23866:23870   */\n      dup7\n        /* \"#utility.yul\":23859:23940   */\n      sstore\n        /* \"#utility.yul\":23728:23950   */\n      pop\n        /* \"#utility.yul\":23063:23950   */\n      jump(tag_416)\n        /* \"#utility.yul\":23093:23711   */\n    tag_417:\n        /* \"#utility.yul\":23145:23149   */\n      0x1f\n        /* \"#utility.yul\":23141:23150   */\n      not\n        /* \"#utility.yul\":23133:23139   */\n      dup5\n        /* \"#utility.yul\":23129:23151   */\n      and\n        /* \"#utility.yul\":23179:23216   */\n      tag_420\n        /* \"#utility.yul\":23211:23215   */\n      dup7\n        /* \"#utility.yul\":23179:23216   */\n      tag_180\n      jump\t// in\n    tag_420:\n        /* \"#utility.yul\":23238:23239   */\n      0x00\n        /* \"#utility.yul\":23252:23460   */\n    tag_421:\n        /* \"#utility.yul\":23266:23273   */\n      dup3\n        /* \"#utility.yul\":23263:23264   */\n      dup2\n        /* \"#utility.yul\":23260:23274   */\n      lt\n        /* \"#utility.yul\":23252:23460   */\n      iszero\n      tag_423\n      jumpi\n        /* \"#utility.yul\":23345:23354   */\n      dup5\n        /* \"#utility.yul\":23340:23343   */\n      dup10\n        /* \"#utility.yul\":23336:23355   */\n      add\n        /* \"#utility.yul\":23330:23356   */\n      mload\n        /* \"#utility.yul\":23322:23328   */\n      dup3\n        /* \"#utility.yul\":23315:23357   */\n      sstore\n        /* \"#utility.yul\":23396:23397   */\n      0x01\n        /* \"#utility.yul\":23388:23394   */\n      dup3\n        /* \"#utility.yul\":23384:23398   */\n      add\n        /* \"#utility.yul\":23374:23398   */\n      swap2\n      pop\n        /* \"#utility.yul\":23443:23445   */\n      0x20\n        /* \"#utility.yul\":23432:23441   */\n      dup6\n        /* \"#utility.yul\":23428:23446   */\n      add\n        /* \"#utility.yul\":23415:23446   */\n      swap5\n      pop\n        /* \"#utility.yul\":23289:23293   */\n      0x20\n        /* \"#utility.yul\":23286:23287   */\n      dup2\n        /* \"#utility.yul\":23282:23294   */\n      add\n        /* \"#utility.yul\":23277:23294   */\n      swap1\n      pop\n        /* \"#utility.yul\":23252:23460   */\n      jump(tag_421)\n    tag_423:\n        /* \"#utility.yul\":23488:23494   */\n      dup7\n        /* \"#utility.yul\":23479:23486   */\n      dup4\n        /* \"#utility.yul\":23476:23495   */\n      lt\n        /* \"#utility.yul\":23473:23652   */\n      iszero\n      tag_424\n      jumpi\n        /* \"#utility.yul\":23546:23555   */\n      dup5\n        /* \"#utility.yul\":23541:23544   */\n      dup10\n        /* \"#utility.yul\":23537:23556   */\n      add\n        /* \"#utility.yul\":23531:23557   */\n      mload\n        /* \"#utility.yul\":23589:23637   */\n      tag_425\n        /* \"#utility.yul\":23631:23635   */\n      0x1f\n        /* \"#utility.yul\":23623:23629   */\n      dup10\n        /* \"#utility.yul\":23619:23636   */\n      and\n        /* \"#utility.yul\":23608:23617   */\n      dup3\n        /* \"#utility.yul\":23589:23637   */\n      tag_193\n      jump\t// in\n    tag_425:\n        /* \"#utility.yul\":23581:23587   */\n      dup4\n        /* \"#utility.yul\":23574:23638   */\n      sstore\n        /* \"#utility.yul\":23496:23652   */\n      pop\n        /* \"#utility.yul\":23473:23652   */\n    tag_424:\n        /* \"#utility.yul\":23698:23699   */\n      0x01\n        /* \"#utility.yul\":23694:23695   */\n      0x02\n        /* \"#utility.yul\":23686:23692   */\n      dup9\n        /* \"#utility.yul\":23682:23696   */\n      mul\n        /* \"#utility.yul\":23678:23700   */\n      add\n        /* \"#utility.yul\":23672:23676   */\n      dup9\n        /* \"#utility.yul\":23665:23701   */\n      sstore\n        /* \"#utility.yul\":23100:23711   */\n      pop\n      pop\n      pop\n        /* \"#utility.yul\":23063:23950   */\n    tag_416:\n      pop\n        /* \"#utility.yul\":22653:23956   */\n      pop\n      pop\n      pop\n        /* \"#utility.yul\":22561:23956   */\n      pop\n      pop\n      jump\t// out\n        /* \"#utility.yul\":23962:24606   */\n    tag_117:\n        /* \"#utility.yul\":24159:24163   */\n      0x00\n        /* \"#utility.yul\":24197:24200   */\n      0x80\n        /* \"#utility.yul\":24186:24195   */\n      dup3\n        /* \"#utility.yul\":24182:24201   */\n      add\n        /* \"#utility.yul\":24174:24201   */\n      swap1\n      pop\n        /* \"#utility.yul\":24211:24282   */\n      tag_427\n        /* \"#utility.yul\":24279:24280   */\n      0x00\n        /* \"#utility.yul\":24268:24277   */\n      dup4\n        /* \"#utility.yul\":24264:24281   */\n      add\n        /* \"#utility.yul\":24255:24261   */\n      dup8\n        /* \"#utility.yul\":24211:24282   */\n      tag_139\n      jump\t// in\n    tag_427:\n        /* \"#utility.yul\":24292:24364   */\n      tag_428\n        /* \"#utility.yul\":24360:24362   */\n      0x20\n        /* \"#utility.yul\":24349:24358   */\n      dup4\n        /* \"#utility.yul\":24345:24363   */\n      add\n        /* \"#utility.yul\":24336:24342   */\n      dup7\n        /* \"#utility.yul\":24292:24364   */\n      tag_140\n      jump\t// in\n    tag_428:\n        /* \"#utility.yul\":24411:24420   */\n      dup2\n        /* \"#utility.yul\":24405:24409   */\n      dup2\n        /* \"#utility.yul\":24401:24421   */\n      sub\n        /* \"#utility.yul\":24396:24398   */\n      0x40\n        /* \"#utility.yul\":24385:24394   */\n      dup4\n        /* \"#utility.yul\":24381:24399   */\n      add\n        /* \"#utility.yul\":24374:24422   */\n      mstore\n        /* \"#utility.yul\":24439:24517   */\n      tag_429\n        /* \"#utility.yul\":24512:24516   */\n      dup2\n        /* \"#utility.yul\":24503:24509   */\n      dup6\n        /* \"#utility.yul\":24439:24517   */\n      tag_145\n      jump\t// in\n    tag_429:\n        /* \"#utility.yul\":24431:24517   */\n      swap1\n      pop\n        /* \"#utility.yul\":24527:24599   */\n      tag_430\n        /* \"#utility.yul\":24595:24597   */\n      0x60\n        /* \"#utility.yul\":24584:24593   */\n      dup4\n        /* \"#utility.yul\":24580:24598   */\n      add\n        /* \"#utility.yul\":24571:24577   */\n      dup5\n        /* \"#utility.yul\":24527:24599   */\n      tag_139\n      jump\t// in\n    tag_430:\n        /* \"#utility.yul\":23962:24606   */\n      swap6\n      swap5\n      pop\n      pop\n      pop\n      pop\n      pop\n      jump\t// out\n\n    auxdata: 0xa2646970667358221220cf2948b9be2cebe7e2f3082895c278725f83b72398c0eb9b3b66b1c0a1c8889a64736f6c634300081e0033\n}\n",
				"bytecode": {
					"linkReferences": {},
					"object": "60806040526101185f5f6101000a81548161ffff021916908361ffff160217905550348015602b575f5ffd5b503360025f6101000a81548173ffffffffffffffffffffffffffffffffffffffff021916908373ffffffffffffffffffffffffffffffffffffffff160217905550611932806100795f395ff3fe608060405234801561000f575f5ffd5b5060043610610086575f3560e01c8063633782161161005957806363378216146101265780637c9cd2bc146101425780638da5cb5b1461015e578063c3ad5ecb1461017c57610086565b806305a1b4a91461008a57806312e7ee1c146100be5780633d9b569f146100ee57806358bfa4ab1461010a575b5f5ffd5b6100a4600480360381019061009f9190610d66565b6101ac565b6040516100b5959493929190610e32565b60405180910390f35b6100d860048036038101906100d39190610e8a565b61029d565b6040516100e59190611049565b60405180910390f35b61010860048036038101906101039190610d66565b610438565b005b610124600480360381019061011f91906110a0565b610689565b005b610140600480360381019061013b9190610d66565b610736565b005b61015c600480360381019061015791906111f7565b6108e7565b005b610166610aeb565b604051610173919061123e565b60405180910390f35b61019660048036038101906101919190611257565b610b10565b6040516101a391906112f5565b60405180910390f35b6001602052815f5260405f2081815481106101c5575f80fd5b905f5260205f2090600502015f9150915050805f015490806001015f9054906101000a900473ffffffffffffffffffffffffffffffffffffffff169080600201805461021090611342565b80601f016020809104026020016040519081016040528092919081815260200182805461023c90611342565b80156102875780601f1061025e57610100808354040283529160200191610287565b820191905f5260205f20905b81548152906001019060200180831161026a57829003601f168201915b5050505050908060030154908060040154905085565b606060015f8373ffffffffffffffffffffffffffffffffffffffff1673ffffffffffffffffffffffffffffffffffffffff1681526020019081526020015f20805480602002602001604051908101604052809291908181526020015f905b8282101561042d578382905f5260205f2090600502016040518060a00160405290815f8201548152602001600182015f9054906101000a900473ffffffffffffffffffffffffffffffffffffffff1673ffffffffffffffffffffffffffffffffffffffff1673ffffffffffffffffffffffffffffffffffffffff16815260200160028201805461038a90611342565b80601f01602080910402602001604051908101604052809291908181526020018280546103b690611342565b80156104015780601f106103d857610100808354040283529160200191610401565b820191905f5260205f20905b8154815290600101906020018083116103e457829003601f168201915b5050505050815260200160038201548152602001600482015481525050815260200190600101906102fb565b505050509050919050565b8060015f8473ffffffffffffffffffffffffffffffffffffffff1673ffffffffffffffffffffffffffffffffffffffff1681526020019081526020015f20828154811061048857610487611372565b5b905f5260205f2090600502015f0154146104d7576040517f08c379a00000000000000000000000000000000000000000000000000000000081526004016104ce906113e9565b60405180910390fd5b5f60015f8473ffffffffffffffffffffffffffffffffffffffff1673ffffffffffffffffffffffffffffffffffffffff1681526020019081526020015f20828154811061052757610526611372565b5b905f5260205f2090600502016004015411610577576040517f08c379a000000000000000000000000000000000000000000000000000000000815260040161056e90611451565b60405180910390fd5b60015f8373ffffffffffffffffffffffffffffffffffffffff1673ffffffffffffffffffffffffffffffffffffffff1681526020019081526020015f2081815481106105c6576105c5611372565b5b905f5260205f2090600502016004015f8154809291906105e59061149c565b91905055507f762c2616349603ac16eba0de8e6141b79129a07ab63bd99e0a80b3a47171694333838360015f8773ffffffffffffffffffffffffffffffffffffffff1673ffffffffffffffffffffffffffffffffffffffff1681526020019081526020015f20858154811061065d5761065c611372565b5b905f5260205f2090600502016004015460405161067d94939291906114c3565b60405180910390a15050565b60025f9054906101000a900473ffffffffffffffffffffffffffffffffffffffff1673ffffffffffffffffffffffffffffffffffffffff163373ffffffffffffffffffffffffffffffffffffffff1614610718576040517f08c379a000000000000000000000000000000000000000000000000000000000815260040161070f90611550565b60405180910390fd5b805f5f6101000a81548161ffff021916908361ffff16021790555050565b8060015f8473ffffffffffffffffffffffffffffffffffffffff1673ffffffffffffffffffffffffffffffffffffffff1681526020019081526020015f20828154811061078657610785611372565b5b905f5260205f2090600502015f0154146107d5576040517f08c379a00000000000000000000000000000000000000000000000000000000081526004016107cc906113e9565b60405180910390fd5b60015f8373ffffffffffffffffffffffffffffffffffffffff1673ffffffffffffffffffffffffffffffffffffffff1681526020019081526020015f20818154811061082457610823611372565b5b905f5260205f2090600502016004015f8154809291906108439061156e565b91905055507fe8a76fc0f16d11a00d1e93b689b63d76cf60af914dd3d915375dc41d01a0c3c833838360015f8773ffffffffffffffffffffffffffffffffffffffff1673ffffffffffffffffffffffffffffffffffffffff1681526020019081526020015f2085815481106108bb576108ba611372565b5b905f5260205f209060050201600401546040516108db94939291906114c3565b60405180910390a15050565b5f5f9054906101000a900461ffff1661ffff168151111561093d576040517f08c379a000000000000000000000000000000000000000000000000000000000815260040161093490611625565b60405180910390fd5b5f6040518060a0016040528060015f3373ffffffffffffffffffffffffffffffffffffffff1673ffffffffffffffffffffffffffffffffffffffff1681526020019081526020015f208054905081526020013373ffffffffffffffffffffffffffffffffffffffff1681526020018381526020014281526020015f815250905060015f3373ffffffffffffffffffffffffffffffffffffffff1673ffffffffffffffffffffffffffffffffffffffff1681526020019081526020015f2081908060018154018082558091505060019003905f5260205f2090600502015f909190919091505f820151815f01556020820151816001015f6101000a81548173ffffffffffffffffffffffffffffffffffffffff021916908373ffffffffffffffffffffffffffffffffffffffff1602179055506040820151816002019081610a8491906117e3565b50606082015181600301556080820151816004015550507f16fd3c13e9d46923e0a8bce11c7b473ec508a72e6c96cd2404b29ce972afc29e815f0151826020015183604001518460600151604051610adf94939291906118b2565b60405180910390a15050565b60025f9054906101000a900473ffffffffffffffffffffffffffffffffffffffff1681565b610b18610c87565b60015f3373ffffffffffffffffffffffffffffffffffffffff1673ffffffffffffffffffffffffffffffffffffffff1681526020019081526020015f208281548110610b6757610b66611372565b5b905f5260205f2090600502016040518060a00160405290815f8201548152602001600182015f9054906101000a900473ffffffffffffffffffffffffffffffffffffffff1673ffffffffffffffffffffffffffffffffffffffff1673ffffffffffffffffffffffffffffffffffffffff168152602001600282018054610bec90611342565b80601f0160208091040260200160405190810160405280929190818152602001828054610c1890611342565b8015610c635780601f10610c3a57610100808354040283529160200191610c63565b820191905f5260205f20905b815481529060010190602001808311610c4657829003601f168201915b50505050508152602001600382015481526020016004820154815250509050919050565b6040518060a001604052805f81526020015f73ffffffffffffffffffffffffffffffffffffffff168152602001606081526020015f81526020015f81525090565b5f604051905090565b5f5ffd5b5f5ffd5b5f73ffffffffffffffffffffffffffffffffffffffff82169050919050565b5f610d0282610cd9565b9050919050565b610d1281610cf8565b8114610d1c575f5ffd5b50565b5f81359050610d2d81610d09565b92915050565b5f819050919050565b610d4581610d33565b8114610d4f575f5ffd5b50565b5f81359050610d6081610d3c565b92915050565b5f5f60408385031215610d7c57610d7b610cd1565b5b5f610d8985828601610d1f565b9250506020610d9a85828601610d52565b9150509250929050565b610dad81610d33565b82525050565b610dbc81610cf8565b82525050565b5f81519050919050565b5f82825260208201905092915050565b8281835e5f83830152505050565b5f601f19601f8301169050919050565b5f610e0482610dc2565b610e0e8185610dcc565b9350610e1e818560208601610ddc565b610e2781610dea565b840191505092915050565b5f60a082019050610e455f830188610da4565b610e526020830187610db3565b8181036040830152610e648186610dfa565b9050610e736060830185610da4565b610e806080830184610da4565b9695505050505050565b5f60208284031215610e9f57610e9e610cd1565b5b5f610eac84828501610d1f565b91505092915050565b5f81519050919050565b5f82825260208201905092915050565b5f819050602082019050919050565b610ee781610d33565b82525050565b610ef681610cf8565b82525050565b5f82825260208201905092915050565b5f610f1682610dc2565b610f208185610efc565b9350610f30818560208601610ddc565b610f3981610dea565b840191505092915050565b5f60a083015f830151610f595f860182610ede565b506020830151610f6c6020860182610eed565b5060408301518482036040860152610f848282610f0c565b9150506060830151610f996060860182610ede565b506080830151610fac6080860182610ede565b508091505092915050565b5f610fc28383610f44565b905092915050565b5f602082019050919050565b5f610fe082610eb5565b610fea8185610ebf565b935083602082028501610ffc85610ecf565b805f5b8581101561103757848403895281516110188582610fb7565b945061102383610fca565b925060208a01995050600181019050610fff565b50829750879550505050505092915050565b5f6020820190508181035f8301526110618184610fd6565b905092915050565b5f61ffff82169050919050565b61107f81611069565b8114611089575f5ffd5b50565b5f8135905061109a81611076565b92915050565b5f602082840312156110b5576110b4610cd1565b5b5f6110c28482850161108c565b91505092915050565b5f5ffd5b5f5ffd5b7f4e487b71000000000000000000000000000000000000000000000000000000005f52604160045260245ffd5b61110982610dea565b810181811067ffffffffffffffff82111715611128576111276110d3565b5b80604052505050565b5f61113a610cc8565b90506111468282611100565b919050565b5f67ffffffffffffffff821115611165576111646110d3565b5b61116e82610dea565b9050602081019050919050565b828183375f83830152505050565b5f61119b6111968461114b565b611131565b9050828152602081018484840111156111b7576111b66110cf565b5b6111c284828561117b565b509392505050565b5f82601f8301126111de576111dd6110cb565b5b81356111ee848260208601611189565b91505092915050565b5f6020828403121561120c5761120b610cd1565b5b5f82013567ffffffffffffffff81111561122957611228610cd5565b5b611235848285016111ca565b91505092915050565b5f6020820190506112515f830184610db3565b92915050565b5f6020828403121561126c5761126b610cd1565b5b5f61127984828501610d52565b91505092915050565b5f60a083015f8301516112975f860182610ede565b5060208301516112aa6020860182610eed565b50604083015184820360408601526112c28282610f0c565b91505060608301516112d76060860182610ede565b5060808301516112ea6080860182610ede565b508091505092915050565b5f6020820190508181035f83015261130d8184611282565b905092915050565b7f4e487b71000000000000000000000000000000000000000000000000000000005f52602260045260245ffd5b5f600282049050600182168061135957607f821691505b60208210810361136c5761136b611315565b5b50919050565b7f4e487b71000000000000000000000000000000000000000000000000000000005f52603260045260245ffd5b7f547765657420646f6573206e6f742065786973740000000000000000000000005f82015250565b5f6113d3601483610dcc565b91506113de8261139f565b602082019050919050565b5f6020820190508181035f830152611400816113c7565b9050919050565b7f547765657420686173206e6f206c696b657300000000000000000000000000005f82015250565b5f61143b601283610dcc565b915061144682611407565b602082019050919050565b5f6020820190508181035f8301526114688161142f565b9050919050565b7f4e487b71000000000000000000000000000000000000000000000000000000005f52601160045260245ffd5b5f6114a682610d33565b91505f82036114b8576114b761146f565b5b600182039050919050565b5f6080820190506114d65f830187610db3565b6114e36020830186610db3565b6114f06040830185610da4565b6114fd6060830184610da4565b95945050505050565b7f596f7520617265206e6f742074686520636f6e7472616374206f776e657200005f82015250565b5f61153a601e83610dcc565b915061154582611506565b602082019050919050565b5f6020820190508181035f8301526115678161152e565b9050919050565b5f61157882610d33565b91507fffffffffffffffffffffffffffffffffffffffffffffffffffffffffffffffff82036115aa576115a961146f565b5b600182019050919050565b7f54776565742073686f756c6420626520756e64657220323830206368617261635f8201527f7465727300000000000000000000000000000000000000000000000000000000602082015250565b5f61160f602483610dcc565b915061161a826115b5565b604082019050919050565b5f6020820190508181035f83015261163c81611603565b9050919050565b5f819050815f5260205f209050919050565b5f6020601f8301049050919050565b5f82821b905092915050565b5f6008830261169f7fffffffffffffffffffffffffffffffffffffffffffffffffffffffffffffffff82611664565b6116a98683611664565b95508019841693508086168417925050509392505050565b5f819050919050565b5f6116e46116df6116da84610d33565b6116c1565b610d33565b9050919050565b5f819050919050565b6116fd836116ca565b611711611709826116eb565b848454611670565b825550505050565b5f5f905090565b611728611719565b6117338184846116f4565b505050565b5b818110156117565761174b5f82611720565b600181019050611739565b5050565b601f82111561179b5761176c81611643565b61177584611655565b81016020851015611784578190505b61179861179085611655565b830182611738565b50505b505050565b5f82821c905092915050565b5f6117bb5f19846008026117a0565b1980831691505092915050565b5f6117d383836117ac565b9150826002028217905092915050565b6117ec82610dc2565b67ffffffffffffffff811115611805576118046110d3565b5b61180f8254611342565b61181a82828561175a565b5f60209050601f83116001811461184b575f8415611839578287015190505b61184385826117c8565b8655506118aa565b601f19841661185986611643565b5f5b828110156118805784890151825560018201915060208501945060208101905061185b565b8683101561189d5784890151611899601f8916826117ac565b8355505b6001600288020188555050505b505050505050565b5f6080820190506118c55f830187610da4565b6118d26020830186610db3565b81810360408301526118e48185610dfa565b90506118f36060830184610da4565b9594505050505056fea2646970667358221220cf2948b9be2cebe7e2f3082895c278725f83b72398c0eb9b3b66b1c0a1c8889a64736f6c634300081e0033",
					"opcodes": "PUSH1 0x80 PUSH1 0x40 MSTORE PUSH2 0x118 PUSH0 PUSH0 PUSH2 0x100 EXP DUP2 SLOAD DUP2 PUSH2 0xFFFF MUL NOT AND SWAP1 DUP4 PUSH2 0xFFFF AND MUL OR SWAP1 SSTORE POP CALLVALUE DUP1 ISZERO PUSH1 0x2B JUMPI PUSH0 PUSH0 REVERT JUMPDEST POP CALLER PUSH1 0x2 PUSH0 PUSH2 0x100 EXP DUP2 SLOAD DUP2 PUSH20 0xFFFFFFFFFFFFFFFFFFFFFFFFFFFFFFFFFFFFFFFF MUL NOT AND SWAP1 DUP4 PUSH20 0xFFFFFFFFFFFFFFFFFFFFFFFFFFFFFFFFFFFFFFFF AND MUL OR SWAP1 SSTORE POP PUSH2 0x1932 DUP1 PUSH2 0x79 PUSH0 CODECOPY PUSH0 RETURN INVALID PUSH1 0x80 PUSH1 0x40 MSTORE CALLVALUE DUP1 ISZERO PUSH2 0xF JUMPI PUSH0 PUSH0 REVERT JUMPDEST POP PUSH1 0x4 CALLDATASIZE LT PUSH2 0x86 JUMPI PUSH0 CALLDATALOAD PUSH1 0xE0 SHR DUP1 PUSH4 0x63378216 GT PUSH2 0x59 JUMPI DUP1 PUSH4 0x63378216 EQ PUSH2 0x126 JUMPI DUP1 PUSH4 0x7C9CD2BC EQ PUSH2 0x142 JUMPI DUP1 PUSH4 0x8DA5CB5B EQ PUSH2 0x15E JUMPI DUP1 PUSH4 0xC3AD5ECB EQ PUSH2 0x17C JUMPI PUSH2 0x86 JUMP JUMPDEST DUP1 PUSH4 0x5A1B4A9 EQ PUSH2 0x8A JUMPI DUP1 PUSH4 0x12E7EE1C EQ PUSH2 0xBE JUMPI DUP1 PUSH4 0x3D9B569F EQ PUSH2 0xEE JUMPI DUP1 PUSH4 0x58BFA4AB EQ PUSH2 0x10A JUMPI JUMPDEST PUSH0 PUSH0 REVERT JUMPDEST PUSH2 0xA4 PUSH1 0x4 DUP1 CALLDATASIZE SUB DUP2 ADD SWAP1 PUSH2 0x9F SWAP2 SWAP1 PUSH2 0xD66 JUMP JUMPDEST PUSH2 0x1AC JUMP JUMPDEST PUSH1 0x40 MLOAD PUSH2 0xB5 SWAP6 SWAP5 SWAP4 SWAP3 SWAP2 SWAP1 PUSH2 0xE32 JUMP JUMPDEST PUSH1 0x40 MLOAD DUP1 SWAP2 SUB SWAP1 RETURN JUMPDEST PUSH2 0xD8 PUSH1 0x4 DUP1 CALLDATASIZE SUB DUP2 ADD SWAP1 PUSH2 0xD3 SWAP2 SWAP1 PUSH2 0xE8A JUMP JUMPDEST PUSH2 0x29D JUMP JUMPDEST PUSH1 0x40 MLOAD PUSH2 0xE5 SWAP2 SWAP1 PUSH2 0x1049 JUMP JUMPDEST PUSH1 0x40 MLOAD DUP1 SWAP2 SUB SWAP1 RETURN JUMPDEST PUSH2 0x108 PUSH1 0x4 DUP1 CALLDATASIZE SUB DUP2 ADD SWAP1 PUSH2 0x103 SWAP2 SWAP1 PUSH2 0xD66 JUMP JUMPDEST PUSH2 0x438 JUMP JUMPDEST STOP JUMPDEST PUSH2 0x124 PUSH1 0x4 DUP1 CALLDATASIZE SUB DUP2 ADD SWAP1 PUSH2 0x11F SWAP2 SWAP1 PUSH2 0x10A0 JUMP JUMPDEST PUSH2 0x689 JUMP JUMPDEST STOP JUMPDEST PUSH2 0x140 PUSH1 0x4 DUP1 CALLDATASIZE SUB DUP2 ADD SWAP1 PUSH2 0x13B SWAP2 SWAP1 PUSH2 0xD66 JUMP JUMPDEST PUSH2 0x736 JUMP JUMPDEST STOP JUMPDEST PUSH2 0x15C PUSH1 0x4 DUP1 CALLDATASIZE SUB DUP2 ADD SWAP1 PUSH2 0x157 SWAP2 SWAP1 PUSH2 0x11F7 JUMP JUMPDEST PUSH2 0x8E7 JUMP JUMPDEST STOP JUMPDEST PUSH2 0x166 PUSH2 0xAEB JUMP JUMPDEST PUSH1 0x40 MLOAD PUSH2 0x173 SWAP2 SWAP1 PUSH2 0x123E JUMP JUMPDEST PUSH1 0x40 MLOAD DUP1 SWAP2 SUB SWAP1 RETURN JUMPDEST PUSH2 0x196 PUSH1 0x4 DUP1 CALLDATASIZE SUB DUP2 ADD SWAP1 PUSH2 0x191 SWAP2 SWAP1 PUSH2 0x1257 JUMP JUMPDEST PUSH2 0xB10 JUMP JUMPDEST PUSH1 0x40 MLOAD PUSH2 0x1A3 SWAP2 SWAP1 PUSH2 0x12F5 JUMP JUMPDEST PUSH1 0x40 MLOAD DUP1 SWAP2 SUB SWAP1 RETURN JUMPDEST PUSH1 0x1 PUSH1 0x20 MSTORE DUP2 PUSH0 MSTORE PUSH1 0x40 PUSH0 KECCAK256 DUP2 DUP2 SLOAD DUP2 LT PUSH2 0x1C5 JUMPI PUSH0 DUP1 REVERT JUMPDEST SWAP1 PUSH0 MSTORE PUSH1 0x20 PUSH0 KECCAK256 SWAP1 PUSH1 0x5 MUL ADD PUSH0 SWAP2 POP SWAP2 POP POP DUP1 PUSH0 ADD SLOAD SWAP1 DUP1 PUSH1 0x1 ADD PUSH0 SWAP1 SLOAD SWAP1 PUSH2 0x100 EXP SWAP1 DIV PUSH20 0xFFFFFFFFFFFFFFFFFFFFFFFFFFFFFFFFFFFFFFFF AND SWAP1 DUP1 PUSH1 0x2 ADD DUP1 SLOAD PUSH2 0x210 SWAP1 PUSH2 0x1342 JUMP JUMPDEST DUP1 PUSH1 0x1F ADD PUSH1 0x20 DUP1 SWAP2 DIV MUL PUSH1 0x20 ADD PUSH1 0x40 MLOAD SWAP1 DUP2 ADD PUSH1 0x40 MSTORE DUP1 SWAP3 SWAP2 SWAP1 DUP2 DUP2 MSTORE PUSH1 0x20 ADD DUP3 DUP1 SLOAD PUSH2 0x23C SWAP1 PUSH2 0x1342 JUMP JUMPDEST DUP1 ISZERO PUSH2 0x287 JUMPI DUP1 PUSH1 0x1F LT PUSH2 0x25E JUMPI PUSH2 0x100 DUP1 DUP4 SLOAD DIV MUL DUP4 MSTORE SWAP2 PUSH1 0x20 ADD SWAP2 PUSH2 0x287 JUMP JUMPDEST DUP3 ADD SWAP2 SWAP1 PUSH0 MSTORE PUSH1 0x20 PUSH0 KECCAK256 SWAP1 JUMPDEST DUP2 SLOAD DUP2 MSTORE SWAP1 PUSH1 0x1 ADD SWAP1 PUSH1 0x20 ADD DUP1 DUP4 GT PUSH2 0x26A JUMPI DUP3 SWAP1 SUB PUSH1 0x1F AND DUP3 ADD SWAP2 JUMPDEST POP POP POP POP POP SWAP1 DUP1 PUSH1 0x3 ADD SLOAD SWAP1 DUP1 PUSH1 0x4 ADD SLOAD SWAP1 POP DUP6 JUMP JUMPDEST PUSH1 0x60 PUSH1 0x1 PUSH0 DUP4 PUSH20 0xFFFFFFFFFFFFFFFFFFFFFFFFFFFFFFFFFFFFFFFF AND PUSH20 0xFFFFFFFFFFFFFFFFFFFFFFFFFFFFFFFFFFFFFFFF AND DUP2 MSTORE PUSH1 0x20 ADD SWAP1 DUP2 MSTORE PUSH1 0x20 ADD PUSH0 KECCAK256 DUP1 SLOAD DUP1 PUSH1 0x20 MUL PUSH1 0x20 ADD PUSH1 0x40 MLOAD SWAP1 DUP2 ADD PUSH1 0x40 MSTORE DUP1 SWAP3 SWAP2 SWAP1 DUP2 DUP2 MSTORE PUSH1 0x20 ADD PUSH0 SWAP1 JUMPDEST DUP3 DUP3 LT ISZERO PUSH2 0x42D JUMPI DUP4 DUP3 SWAP1 PUSH0 MSTORE PUSH1 0x20 PUSH0 KECCAK256 SWAP1 PUSH1 0x5 MUL ADD PUSH1 0x40 MLOAD DUP1 PUSH1 0xA0 ADD PUSH1 0x40 MSTORE SWAP1 DUP2 PUSH0 DUP3 ADD SLOAD DUP2 MSTORE PUSH1 0x20 ADD PUSH1 0x1 DUP3 ADD PUSH0 SWAP1 SLOAD SWAP1 PUSH2 0x100 EXP SWAP1 DIV PUSH20 0xFFFFFFFFFFFFFFFFFFFFFFFFFFFFFFFFFFFFFFFF AND PUSH20 0xFFFFFFFFFFFFFFFFFFFFFFFFFFFFFFFFFFFFFFFF AND PUSH20 0xFFFFFFFFFFFFFFFFFFFFFFFFFFFFFFFFFFFFFFFF AND DUP2 MSTORE PUSH1 0x20 ADD PUSH1 0x2 DUP3 ADD DUP1 SLOAD PUSH2 0x38A SWAP1 PUSH2 0x1342 JUMP JUMPDEST DUP1 PUSH1 0x1F ADD PUSH1 0x20 DUP1 SWAP2 DIV MUL PUSH1 0x20 ADD PUSH1 0x40 MLOAD SWAP1 DUP2 ADD PUSH1 0x40 MSTORE DUP1 SWAP3 SWAP2 SWAP1 DUP2 DUP2 MSTORE PUSH1 0x20 ADD DUP3 DUP1 SLOAD PUSH2 0x3B6 SWAP1 PUSH2 0x1342 JUMP JUMPDEST DUP1 ISZERO PUSH2 0x401 JUMPI DUP1 PUSH1 0x1F LT PUSH2 0x3D8 JUMPI PUSH2 0x100 DUP1 DUP4 SLOAD DIV MUL DUP4 MSTORE SWAP2 PUSH1 0x20 ADD SWAP2 PUSH2 0x401 JUMP JUMPDEST DUP3 ADD SWAP2 SWAP1 PUSH0 MSTORE PUSH1 0x20 PUSH0 KECCAK256 SWAP1 JUMPDEST DUP2 SLOAD DUP2 MSTORE SWAP1 PUSH1 0x1 ADD SWAP1 PUSH1 0x20 ADD DUP1 DUP4 GT PUSH2 0x3E4 JUMPI DUP3 SWAP1 SUB PUSH1 0x1F AND DUP3 ADD SWAP2 JUMPDEST POP POP POP POP POP DUP2 MSTORE PUSH1 0x20 ADD PUSH1 0x3 DUP3 ADD SLOAD DUP2 MSTORE PUSH1 0x20 ADD PUSH1 0x4 DUP3 ADD SLOAD DUP2 MSTORE POP POP DUP2 MSTORE PUSH1 0x20 ADD SWAP1 PUSH1 0x1 ADD SWAP1 PUSH2 0x2FB JUMP JUMPDEST POP POP POP POP SWAP1 POP SWAP2 SWAP1 POP JUMP JUMPDEST DUP1 PUSH1 0x1 PUSH0 DUP5 PUSH20 0xFFFFFFFFFFFFFFFFFFFFFFFFFFFFFFFFFFFFFFFF AND PUSH20 0xFFFFFFFFFFFFFFFFFFFFFFFFFFFFFFFFFFFFFFFF AND DUP2 MSTORE PUSH1 0x20 ADD SWAP1 DUP2 MSTORE PUSH1 0x20 ADD PUSH0 KECCAK256 DUP3 DUP2 SLOAD DUP2 LT PUSH2 0x488 JUMPI PUSH2 0x487 PUSH2 0x1372 JUMP JUMPDEST JUMPDEST SWAP1 PUSH0 MSTORE PUSH1 0x20 PUSH0 KECCAK256 SWAP1 PUSH1 0x5 MUL ADD PUSH0 ADD SLOAD EQ PUSH2 0x4D7 JUMPI PUSH1 0x40 MLOAD PUSH32 0x8C379A000000000000000000000000000000000000000000000000000000000 DUP2 MSTORE PUSH1 0x4 ADD PUSH2 0x4CE SWAP1 PUSH2 0x13E9 JUMP JUMPDEST PUSH1 0x40 MLOAD DUP1 SWAP2 SUB SWAP1 REVERT JUMPDEST PUSH0 PUSH1 0x1 PUSH0 DUP5 PUSH20 0xFFFFFFFFFFFFFFFFFFFFFFFFFFFFFFFFFFFFFFFF AND PUSH20 0xFFFFFFFFFFFFFFFFFFFFFFFFFFFFFFFFFFFFFFFF AND DUP2 MSTORE PUSH1 0x20 ADD SWAP1 DUP2 MSTORE PUSH1 0x20 ADD PUSH0 KECCAK256 DUP3 DUP2 SLOAD DUP2 LT PUSH2 0x527 JUMPI PUSH2 0x526 PUSH2 0x1372 JUMP JUMPDEST JUMPDEST SWAP1 PUSH0 MSTORE PUSH1 0x20 PUSH0 KECCAK256 SWAP1 PUSH1 0x5 MUL ADD PUSH1 0x4 ADD SLOAD GT PUSH2 0x577 JUMPI PUSH1 0x40 MLOAD PUSH32 0x8C379A000000000000000000000000000000000000000000000000000000000 DUP2 MSTORE PUSH1 0x4 ADD PUSH2 0x56E SWAP1 PUSH2 0x1451 JUMP JUMPDEST PUSH1 0x40 MLOAD DUP1 SWAP2 SUB SWAP1 REVERT JUMPDEST PUSH1 0x1 PUSH0 DUP4 PUSH20 0xFFFFFFFFFFFFFFFFFFFFFFFFFFFFFFFFFFFFFFFF AND PUSH20 0xFFFFFFFFFFFFFFFFFFFFFFFFFFFFFFFFFFFFFFFF AND DUP2 MSTORE PUSH1 0x20 ADD SWAP1 DUP2 MSTORE PUSH1 0x20 ADD PUSH0 KECCAK256 DUP2 DUP2 SLOAD DUP2 LT PUSH2 0x5C6 JUMPI PUSH2 0x5C5 PUSH2 0x1372 JUMP JUMPDEST JUMPDEST SWAP1 PUSH0 MSTORE PUSH1 0x20 PUSH0 KECCAK256 SWAP1 PUSH1 0x5 MUL ADD PUSH1 0x4 ADD PUSH0 DUP2 SLOAD DUP1 SWAP3 SWAP2 SWAP1 PUSH2 0x5E5 SWAP1 PUSH2 0x149C JUMP JUMPDEST SWAP2 SWAP1 POP SSTORE POP PUSH32 0x762C2616349603AC16EBA0DE8E6141B79129A07AB63BD99E0A80B3A471716943 CALLER DUP4 DUP4 PUSH1 0x1 PUSH0 DUP8 PUSH20 0xFFFFFFFFFFFFFFFFFFFFFFFFFFFFFFFFFFFFFFFF AND PUSH20 0xFFFFFFFFFFFFFFFFFFFFFFFFFFFFFFFFFFFFFFFF AND DUP2 MSTORE PUSH1 0x20 ADD SWAP1 DUP2 MSTORE PUSH1 0x20 ADD PUSH0 KECCAK256 DUP6 DUP2 SLOAD DUP2 LT PUSH2 0x65D JUMPI PUSH2 0x65C PUSH2 0x1372 JUMP JUMPDEST JUMPDEST SWAP1 PUSH0 MSTORE PUSH1 0x20 PUSH0 KECCAK256 SWAP1 PUSH1 0x5 MUL ADD PUSH1 0x4 ADD SLOAD PUSH1 0x40 MLOAD PUSH2 0x67D SWAP5 SWAP4 SWAP3 SWAP2 SWAP1 PUSH2 0x14C3 JUMP JUMPDEST PUSH1 0x40 MLOAD DUP1 SWAP2 SUB SWAP1 LOG1 POP POP JUMP JUMPDEST PUSH1 0x2 PUSH0 SWAP1 SLOAD SWAP1 PUSH2 0x100 EXP SWAP1 DIV PUSH20 0xFFFFFFFFFFFFFFFFFFFFFFFFFFFFFFFFFFFFFFFF AND PUSH20 0xFFFFFFFFFFFFFFFFFFFFFFFFFFFFFFFFFFFFFFFF AND CALLER PUSH20 0xFFFFFFFFFFFFFFFFFFFFFFFFFFFFFFFFFFFFFFFF AND EQ PUSH2 0x718 JUMPI PUSH1 0x40 MLOAD PUSH32 0x8C379A000000000000000000000000000000000000000000000000000000000 DUP2 MSTORE PUSH1 0x4 ADD PUSH2 0x70F SWAP1 PUSH2 0x1550 JUMP JUMPDEST PUSH1 0x40 MLOAD DUP1 SWAP2 SUB SWAP1 REVERT JUMPDEST DUP1 PUSH0 PUSH0 PUSH2 0x100 EXP DUP2 SLOAD DUP2 PUSH2 0xFFFF MUL NOT AND SWAP1 DUP4 PUSH2 0xFFFF AND MUL OR SWAP1 SSTORE POP POP JUMP JUMPDEST DUP1 PUSH1 0x1 PUSH0 DUP5 PUSH20 0xFFFFFFFFFFFFFFFFFFFFFFFFFFFFFFFFFFFFFFFF AND PUSH20 0xFFFFFFFFFFFFFFFFFFFFFFFFFFFFFFFFFFFFFFFF AND DUP2 MSTORE PUSH1 0x20 ADD SWAP1 DUP2 MSTORE PUSH1 0x20 ADD PUSH0 KECCAK256 DUP3 DUP2 SLOAD DUP2 LT PUSH2 0x786 JUMPI PUSH2 0x785 PUSH2 0x1372 JUMP JUMPDEST JUMPDEST SWAP1 PUSH0 MSTORE PUSH1 0x20 PUSH0 KECCAK256 SWAP1 PUSH1 0x5 MUL ADD PUSH0 ADD SLOAD EQ PUSH2 0x7D5 JUMPI PUSH1 0x40 MLOAD PUSH32 0x8C379A000000000000000000000000000000000000000000000000000000000 DUP2 MSTORE PUSH1 0x4 ADD PUSH2 0x7CC SWAP1 PUSH2 0x13E9 JUMP JUMPDEST PUSH1 0x40 MLOAD DUP1 SWAP2 SUB SWAP1 REVERT JUMPDEST PUSH1 0x1 PUSH0 DUP4 PUSH20 0xFFFFFFFFFFFFFFFFFFFFFFFFFFFFFFFFFFFFFFFF AND PUSH20 0xFFFFFFFFFFFFFFFFFFFFFFFFFFFFFFFFFFFFFFFF AND DUP2 MSTORE PUSH1 0x20 ADD SWAP1 DUP2 MSTORE PUSH1 0x20 ADD PUSH0 KECCAK256 DUP2 DUP2 SLOAD DUP2 LT PUSH2 0x824 JUMPI PUSH2 0x823 PUSH2 0x1372 JUMP JUMPDEST JUMPDEST SWAP1 PUSH0 MSTORE PUSH1 0x20 PUSH0 KECCAK256 SWAP1 PUSH1 0x5 MUL ADD PUSH1 0x4 ADD PUSH0 DUP2 SLOAD DUP1 SWAP3 SWAP2 SWAP1 PUSH2 0x843 SWAP1 PUSH2 0x156E JUMP JUMPDEST SWAP2 SWAP1 POP SSTORE POP PUSH32 0xE8A76FC0F16D11A00D1E93B689B63D76CF60AF914DD3D915375DC41D01A0C3C8 CALLER DUP4 DUP4 PUSH1 0x1 PUSH0 DUP8 PUSH20 0xFFFFFFFFFFFFFFFFFFFFFFFFFFFFFFFFFFFFFFFF AND PUSH20 0xFFFFFFFFFFFFFFFFFFFFFFFFFFFFFFFFFFFFFFFF AND DUP2 MSTORE PUSH1 0x20 ADD SWAP1 DUP2 MSTORE PUSH1 0x20 ADD PUSH0 KECCAK256 DUP6 DUP2 SLOAD DUP2 LT PUSH2 0x8BB JUMPI PUSH2 0x8BA PUSH2 0x1372 JUMP JUMPDEST JUMPDEST SWAP1 PUSH0 MSTORE PUSH1 0x20 PUSH0 KECCAK256 SWAP1 PUSH1 0x5 MUL ADD PUSH1 0x4 ADD SLOAD PUSH1 0x40 MLOAD PUSH2 0x8DB SWAP5 SWAP4 SWAP3 SWAP2 SWAP1 PUSH2 0x14C3 JUMP JUMPDEST PUSH1 0x40 MLOAD DUP1 SWAP2 SUB SWAP1 LOG1 POP POP JUMP JUMPDEST PUSH0 PUSH0 SWAP1 SLOAD SWAP1 PUSH2 0x100 EXP SWAP1 DIV PUSH2 0xFFFF AND PUSH2 0xFFFF AND DUP2 MLOAD GT ISZERO PUSH2 0x93D JUMPI PUSH1 0x40 MLOAD PUSH32 0x8C379A000000000000000000000000000000000000000000000000000000000 DUP2 MSTORE PUSH1 0x4 ADD PUSH2 0x934 SWAP1 PUSH2 0x1625 JUMP JUMPDEST PUSH1 0x40 MLOAD DUP1 SWAP2 SUB SWAP1 REVERT JUMPDEST PUSH0 PUSH1 0x40 MLOAD DUP1 PUSH1 0xA0 ADD PUSH1 0x40 MSTORE DUP1 PUSH1 0x1 PUSH0 CALLER PUSH20 0xFFFFFFFFFFFFFFFFFFFFFFFFFFFFFFFFFFFFFFFF AND PUSH20 0xFFFFFFFFFFFFFFFFFFFFFFFFFFFFFFFFFFFFFFFF AND DUP2 MSTORE PUSH1 0x20 ADD SWAP1 DUP2 MSTORE PUSH1 0x20 ADD PUSH0 KECCAK256 DUP1 SLOAD SWAP1 POP DUP2 MSTORE PUSH1 0x20 ADD CALLER PUSH20 0xFFFFFFFFFFFFFFFFFFFFFFFFFFFFFFFFFFFFFFFF AND DUP2 MSTORE PUSH1 0x20 ADD DUP4 DUP2 MSTORE PUSH1 0x20 ADD TIMESTAMP DUP2 MSTORE PUSH1 0x20 ADD PUSH0 DUP2 MSTORE POP SWAP1 POP PUSH1 0x1 PUSH0 CALLER PUSH20 0xFFFFFFFFFFFFFFFFFFFFFFFFFFFFFFFFFFFFFFFF AND PUSH20 0xFFFFFFFFFFFFFFFFFFFFFFFFFFFFFFFFFFFFFFFF AND DUP2 MSTORE PUSH1 0x20 ADD SWAP1 DUP2 MSTORE PUSH1 0x20 ADD PUSH0 KECCAK256 DUP2 SWAP1 DUP1 PUSH1 0x1 DUP2 SLOAD ADD DUP1 DUP3 SSTORE DUP1 SWAP2 POP POP PUSH1 0x1 SWAP1 SUB SWAP1 PUSH0 MSTORE PUSH1 0x20 PUSH0 KECCAK256 SWAP1 PUSH1 0x5 MUL ADD PUSH0 SWAP1 SWAP2 SWAP1 SWAP2 SWAP1 SWAP2 POP PUSH0 DUP3 ADD MLOAD DUP2 PUSH0 ADD SSTORE PUSH1 0x20 DUP3 ADD MLOAD DUP2 PUSH1 0x1 ADD PUSH0 PUSH2 0x100 EXP DUP2 SLOAD DUP2 PUSH20 0xFFFFFFFFFFFFFFFFFFFFFFFFFFFFFFFFFFFFFFFF MUL NOT AND SWAP1 DUP4 PUSH20 0xFFFFFFFFFFFFFFFFFFFFFFFFFFFFFFFFFFFFFFFF AND MUL OR SWAP1 SSTORE POP PUSH1 0x40 DUP3 ADD MLOAD DUP2 PUSH1 0x2 ADD SWAP1 DUP2 PUSH2 0xA84 SWAP2 SWAP1 PUSH2 0x17E3 JUMP JUMPDEST POP PUSH1 0x60 DUP3 ADD MLOAD DUP2 PUSH1 0x3 ADD SSTORE PUSH1 0x80 DUP3 ADD MLOAD DUP2 PUSH1 0x4 ADD SSTORE POP POP PUSH32 0x16FD3C13E9D46923E0A8BCE11C7B473EC508A72E6C96CD2404B29CE972AFC29E DUP2 PUSH0 ADD MLOAD DUP3 PUSH1 0x20 ADD MLOAD DUP4 PUSH1 0x40 ADD MLOAD DUP5 PUSH1 0x60 ADD MLOAD PUSH1 0x40 MLOAD PUSH2 0xADF SWAP5 SWAP4 SWAP3 SWAP2 SWAP1 PUSH2 0x18B2 JUMP JUMPDEST PUSH1 0x40 MLOAD DUP1 SWAP2 SUB SWAP1 LOG1 POP POP JUMP JUMPDEST PUSH1 0x2 PUSH0 SWAP1 SLOAD SWAP1 PUSH2 0x100 EXP SWAP1 DIV PUSH20 0xFFFFFFFFFFFFFFFFFFFFFFFFFFFFFFFFFFFFFFFF AND DUP2 JUMP JUMPDEST PUSH2 0xB18 PUSH2 0xC87 JUMP JUMPDEST PUSH1 0x1 PUSH0 CALLER PUSH20 0xFFFFFFFFFFFFFFFFFFFFFFFFFFFFFFFFFFFFFFFF AND PUSH20 0xFFFFFFFFFFFFFFFFFFFFFFFFFFFFFFFFFFFFFFFF AND DUP2 MSTORE PUSH1 0x20 ADD SWAP1 DUP2 MSTORE PUSH1 0x20 ADD PUSH0 KECCAK256 DUP3 DUP2 SLOAD DUP2 LT PUSH2 0xB67 JUMPI PUSH2 0xB66 PUSH2 0x1372 JUMP JUMPDEST JUMPDEST SWAP1 PUSH0 MSTORE PUSH1 0x20 PUSH0 KECCAK256 SWAP1 PUSH1 0x5 MUL ADD PUSH1 0x40 MLOAD DUP1 PUSH1 0xA0 ADD PUSH1 0x40 MSTORE SWAP1 DUP2 PUSH0 DUP3 ADD SLOAD DUP2 MSTORE PUSH1 0x20 ADD PUSH1 0x1 DUP3 ADD PUSH0 SWAP1 SLOAD SWAP1 PUSH2 0x100 EXP SWAP1 DIV PUSH20 0xFFFFFFFFFFFFFFFFFFFFFFFFFFFFFFFFFFFFFFFF AND PUSH20 0xFFFFFFFFFFFFFFFFFFFFFFFFFFFFFFFFFFFFFFFF AND PUSH20 0xFFFFFFFFFFFFFFFFFFFFFFFFFFFFFFFFFFFFFFFF AND DUP2 MSTORE PUSH1 0x20 ADD PUSH1 0x2 DUP3 ADD DUP1 SLOAD PUSH2 0xBEC SWAP1 PUSH2 0x1342 JUMP JUMPDEST DUP1 PUSH1 0x1F ADD PUSH1 0x20 DUP1 SWAP2 DIV MUL PUSH1 0x20 ADD PUSH1 0x40 MLOAD SWAP1 DUP2 ADD PUSH1 0x40 MSTORE DUP1 SWAP3 SWAP2 SWAP1 DUP2 DUP2 MSTORE PUSH1 0x20 ADD DUP3 DUP1 SLOAD PUSH2 0xC18 SWAP1 PUSH2 0x1342 JUMP JUMPDEST DUP1 ISZERO PUSH2 0xC63 JUMPI DUP1 PUSH1 0x1F LT PUSH2 0xC3A JUMPI PUSH2 0x100 DUP1 DUP4 SLOAD DIV MUL DUP4 MSTORE SWAP2 PUSH1 0x20 ADD SWAP2 PUSH2 0xC63 JUMP JUMPDEST DUP3 ADD SWAP2 SWAP1 PUSH0 MSTORE PUSH1 0x20 PUSH0 KECCAK256 SWAP1 JUMPDEST DUP2 SLOAD DUP2 MSTORE SWAP1 PUSH1 0x1 ADD SWAP1 PUSH1 0x20 ADD DUP1 DUP4 GT PUSH2 0xC46 JUMPI DUP3 SWAP1 SUB PUSH1 0x1F AND DUP3 ADD SWAP2 JUMPDEST POP POP POP POP POP DUP2 MSTORE PUSH1 0x20 ADD PUSH1 0x3 DUP3 ADD SLOAD DUP2 MSTORE PUSH1 0x20 ADD PUSH1 0x4 DUP3 ADD SLOAD DUP2 MSTORE POP POP SWAP1 POP SWAP2 SWAP1 POP JUMP JUMPDEST PUSH1 0x40 MLOAD DUP1 PUSH1 0xA0 ADD PUSH1 0x40 MSTORE DUP1 PUSH0 DUP2 MSTORE PUSH1 0x20 ADD PUSH0 PUSH20 0xFFFFFFFFFFFFFFFFFFFFFFFFFFFFFFFFFFFFFFFF AND DUP2 MSTORE PUSH1 0x20 ADD PUSH1 0x60 DUP2 MSTORE PUSH1 0x20 ADD PUSH0 DUP2 MSTORE PUSH1 0x20 ADD PUSH0 DUP2 MSTORE POP SWAP1 JUMP JUMPDEST PUSH0 PUSH1 0x40 MLOAD SWAP1 POP SWAP1 JUMP JUMPDEST PUSH0 PUSH0 REVERT JUMPDEST PUSH0 PUSH0 REVERT JUMPDEST PUSH0 PUSH20 0xFFFFFFFFFFFFFFFFFFFFFFFFFFFFFFFFFFFFFFFF DUP3 AND SWAP1 POP SWAP2 SWAP1 POP JUMP JUMPDEST PUSH0 PUSH2 0xD02 DUP3 PUSH2 0xCD9 JUMP JUMPDEST SWAP1 POP SWAP2 SWAP1 POP JUMP JUMPDEST PUSH2 0xD12 DUP2 PUSH2 0xCF8 JUMP JUMPDEST DUP2 EQ PUSH2 0xD1C JUMPI PUSH0 PUSH0 REVERT JUMPDEST POP JUMP JUMPDEST PUSH0 DUP2 CALLDATALOAD SWAP1 POP PUSH2 0xD2D DUP2 PUSH2 0xD09 JUMP JUMPDEST SWAP3 SWAP2 POP POP JUMP JUMPDEST PUSH0 DUP2 SWAP1 POP SWAP2 SWAP1 POP JUMP JUMPDEST PUSH2 0xD45 DUP2 PUSH2 0xD33 JUMP JUMPDEST DUP2 EQ PUSH2 0xD4F JUMPI PUSH0 PUSH0 REVERT JUMPDEST POP JUMP JUMPDEST PUSH0 DUP2 CALLDATALOAD SWAP1 POP PUSH2 0xD60 DUP2 PUSH2 0xD3C JUMP JUMPDEST SWAP3 SWAP2 POP POP JUMP JUMPDEST PUSH0 PUSH0 PUSH1 0x40 DUP4 DUP6 SUB SLT ISZERO PUSH2 0xD7C JUMPI PUSH2 0xD7B PUSH2 0xCD1 JUMP JUMPDEST JUMPDEST PUSH0 PUSH2 0xD89 DUP6 DUP3 DUP7 ADD PUSH2 0xD1F JUMP JUMPDEST SWAP3 POP POP PUSH1 0x20 PUSH2 0xD9A DUP6 DUP3 DUP7 ADD PUSH2 0xD52 JUMP JUMPDEST SWAP2 POP POP SWAP3 POP SWAP3 SWAP1 POP JUMP JUMPDEST PUSH2 0xDAD DUP2 PUSH2 0xD33 JUMP JUMPDEST DUP3 MSTORE POP POP JUMP JUMPDEST PUSH2 0xDBC DUP2 PUSH2 0xCF8 JUMP JUMPDEST DUP3 MSTORE POP POP JUMP JUMPDEST PUSH0 DUP2 MLOAD SWAP1 POP SWAP2 SWAP1 POP JUMP JUMPDEST PUSH0 DUP3 DUP3 MSTORE PUSH1 0x20 DUP3 ADD SWAP1 POP SWAP3 SWAP2 POP POP JUMP JUMPDEST DUP3 DUP2 DUP4 MCOPY PUSH0 DUP4 DUP4 ADD MSTORE POP POP POP JUMP JUMPDEST PUSH0 PUSH1 0x1F NOT PUSH1 0x1F DUP4 ADD AND SWAP1 POP SWAP2 SWAP1 POP JUMP JUMPDEST PUSH0 PUSH2 0xE04 DUP3 PUSH2 0xDC2 JUMP JUMPDEST PUSH2 0xE0E DUP2 DUP6 PUSH2 0xDCC JUMP JUMPDEST SWAP4 POP PUSH2 0xE1E DUP2 DUP6 PUSH1 0x20 DUP7 ADD PUSH2 0xDDC JUMP JUMPDEST PUSH2 0xE27 DUP2 PUSH2 0xDEA JUMP JUMPDEST DUP5 ADD SWAP2 POP POP SWAP3 SWAP2 POP POP JUMP JUMPDEST PUSH0 PUSH1 0xA0 DUP3 ADD SWAP1 POP PUSH2 0xE45 PUSH0 DUP4 ADD DUP9 PUSH2 0xDA4 JUMP JUMPDEST PUSH2 0xE52 PUSH1 0x20 DUP4 ADD DUP8 PUSH2 0xDB3 JUMP JUMPDEST DUP2 DUP2 SUB PUSH1 0x40 DUP4 ADD MSTORE PUSH2 0xE64 DUP2 DUP7 PUSH2 0xDFA JUMP JUMPDEST SWAP1 POP PUSH2 0xE73 PUSH1 0x60 DUP4 ADD DUP6 PUSH2 0xDA4 JUMP JUMPDEST PUSH2 0xE80 PUSH1 0x80 DUP4 ADD DUP5 PUSH2 0xDA4 JUMP JUMPDEST SWAP7 SWAP6 POP POP POP POP POP POP JUMP JUMPDEST PUSH0 PUSH1 0x20 DUP3 DUP5 SUB SLT ISZERO PUSH2 0xE9F JUMPI PUSH2 0xE9E PUSH2 0xCD1 JUMP JUMPDEST JUMPDEST PUSH0 PUSH2 0xEAC DUP5 DUP3 DUP6 ADD PUSH2 0xD1F JUMP JUMPDEST SWAP2 POP POP SWAP3 SWAP2 POP POP JUMP JUMPDEST PUSH0 DUP2 MLOAD SWAP1 POP SWAP2 SWAP1 POP JUMP JUMPDEST PUSH0 DUP3 DUP3 MSTORE PUSH1 0x20 DUP3 ADD SWAP1 POP SWAP3 SWAP2 POP POP JUMP JUMPDEST PUSH0 DUP2 SWAP1 POP PUSH1 0x20 DUP3 ADD SWAP1 POP SWAP2 SWAP1 POP JUMP JUMPDEST PUSH2 0xEE7 DUP2 PUSH2 0xD33 JUMP JUMPDEST DUP3 MSTORE POP POP JUMP JUMPDEST PUSH2 0xEF6 DUP2 PUSH2 0xCF8 JUMP JUMPDEST DUP3 MSTORE POP POP JUMP JUMPDEST PUSH0 DUP3 DUP3 MSTORE PUSH1 0x20 DUP3 ADD SWAP1 POP SWAP3 SWAP2 POP POP JUMP JUMPDEST PUSH0 PUSH2 0xF16 DUP3 PUSH2 0xDC2 JUMP JUMPDEST PUSH2 0xF20 DUP2 DUP6 PUSH2 0xEFC JUMP JUMPDEST SWAP4 POP PUSH2 0xF30 DUP2 DUP6 PUSH1 0x20 DUP7 ADD PUSH2 0xDDC JUMP JUMPDEST PUSH2 0xF39 DUP2 PUSH2 0xDEA JUMP JUMPDEST DUP5 ADD SWAP2 POP POP SWAP3 SWAP2 POP POP JUMP JUMPDEST PUSH0 PUSH1 0xA0 DUP4 ADD PUSH0 DUP4 ADD MLOAD PUSH2 0xF59 PUSH0 DUP7 ADD DUP3 PUSH2 0xEDE JUMP JUMPDEST POP PUSH1 0x20 DUP4 ADD MLOAD PUSH2 0xF6C PUSH1 0x20 DUP7 ADD DUP3 PUSH2 0xEED JUMP JUMPDEST POP PUSH1 0x40 DUP4 ADD MLOAD DUP5 DUP3 SUB PUSH1 0x40 DUP7 ADD MSTORE PUSH2 0xF84 DUP3 DUP3 PUSH2 0xF0C JUMP JUMPDEST SWAP2 POP POP PUSH1 0x60 DUP4 ADD MLOAD PUSH2 0xF99 PUSH1 0x60 DUP7 ADD DUP3 PUSH2 0xEDE JUMP JUMPDEST POP PUSH1 0x80 DUP4 ADD MLOAD PUSH2 0xFAC PUSH1 0x80 DUP7 ADD DUP3 PUSH2 0xEDE JUMP JUMPDEST POP DUP1 SWAP2 POP POP SWAP3 SWAP2 POP POP JUMP JUMPDEST PUSH0 PUSH2 0xFC2 DUP4 DUP4 PUSH2 0xF44 JUMP JUMPDEST SWAP1 POP SWAP3 SWAP2 POP POP JUMP JUMPDEST PUSH0 PUSH1 0x20 DUP3 ADD SWAP1 POP SWAP2 SWAP1 POP JUMP JUMPDEST PUSH0 PUSH2 0xFE0 DUP3 PUSH2 0xEB5 JUMP JUMPDEST PUSH2 0xFEA DUP2 DUP6 PUSH2 0xEBF JUMP JUMPDEST SWAP4 POP DUP4 PUSH1 0x20 DUP3 MUL DUP6 ADD PUSH2 0xFFC DUP6 PUSH2 0xECF JUMP JUMPDEST DUP1 PUSH0 JUMPDEST DUP6 DUP2 LT ISZERO PUSH2 0x1037 JUMPI DUP5 DUP5 SUB DUP10 MSTORE DUP2 MLOAD PUSH2 0x1018 DUP6 DUP3 PUSH2 0xFB7 JUMP JUMPDEST SWAP5 POP PUSH2 0x1023 DUP4 PUSH2 0xFCA JUMP JUMPDEST SWAP3 POP PUSH1 0x20 DUP11 ADD SWAP10 POP POP PUSH1 0x1 DUP2 ADD SWAP1 POP PUSH2 0xFFF JUMP JUMPDEST POP DUP3 SWAP8 POP DUP8 SWAP6 POP POP POP POP POP POP SWAP3 SWAP2 POP POP JUMP JUMPDEST PUSH0 PUSH1 0x20 DUP3 ADD SWAP1 POP DUP2 DUP2 SUB PUSH0 DUP4 ADD MSTORE PUSH2 0x1061 DUP2 DUP5 PUSH2 0xFD6 JUMP JUMPDEST SWAP1 POP SWAP3 SWAP2 POP POP JUMP JUMPDEST PUSH0 PUSH2 0xFFFF DUP3 AND SWAP1 POP SWAP2 SWAP1 POP JUMP JUMPDEST PUSH2 0x107F DUP2 PUSH2 0x1069 JUMP JUMPDEST DUP2 EQ PUSH2 0x1089 JUMPI PUSH0 PUSH0 REVERT JUMPDEST POP JUMP JUMPDEST PUSH0 DUP2 CALLDATALOAD SWAP1 POP PUSH2 0x109A DUP2 PUSH2 0x1076 JUMP JUMPDEST SWAP3 SWAP2 POP POP JUMP JUMPDEST PUSH0 PUSH1 0x20 DUP3 DUP5 SUB SLT ISZERO PUSH2 0x10B5 JUMPI PUSH2 0x10B4 PUSH2 0xCD1 JUMP JUMPDEST JUMPDEST PUSH0 PUSH2 0x10C2 DUP5 DUP3 DUP6 ADD PUSH2 0x108C JUMP JUMPDEST SWAP2 POP POP SWAP3 SWAP2 POP POP JUMP JUMPDEST PUSH0 PUSH0 REVERT JUMPDEST PUSH0 PUSH0 REVERT JUMPDEST PUSH32 0x4E487B7100000000000000000000000000000000000000000000000000000000 PUSH0 MSTORE PUSH1 0x41 PUSH1 0x4 MSTORE PUSH1 0x24 PUSH0 REVERT JUMPDEST PUSH2 0x1109 DUP3 PUSH2 0xDEA JUMP JUMPDEST DUP2 ADD DUP2 DUP2 LT PUSH8 0xFFFFFFFFFFFFFFFF DUP3 GT OR ISZERO PUSH2 0x1128 JUMPI PUSH2 0x1127 PUSH2 0x10D3 JUMP JUMPDEST JUMPDEST DUP1 PUSH1 0x40 MSTORE POP POP POP JUMP JUMPDEST PUSH0 PUSH2 0x113A PUSH2 0xCC8 JUMP JUMPDEST SWAP1 POP PUSH2 0x1146 DUP3 DUP3 PUSH2 0x1100 JUMP JUMPDEST SWAP2 SWAP1 POP JUMP JUMPDEST PUSH0 PUSH8 0xFFFFFFFFFFFFFFFF DUP3 GT ISZERO PUSH2 0x1165 JUMPI PUSH2 0x1164 PUSH2 0x10D3 JUMP JUMPDEST JUMPDEST PUSH2 0x116E DUP3 PUSH2 0xDEA JUMP JUMPDEST SWAP1 POP PUSH1 0x20 DUP2 ADD SWAP1 POP SWAP2 SWAP1 POP JUMP JUMPDEST DUP3 DUP2 DUP4 CALLDATACOPY PUSH0 DUP4 DUP4 ADD MSTORE POP POP POP JUMP JUMPDEST PUSH0 PUSH2 0x119B PUSH2 0x1196 DUP5 PUSH2 0x114B JUMP JUMPDEST PUSH2 0x1131 JUMP JUMPDEST SWAP1 POP DUP3 DUP2 MSTORE PUSH1 0x20 DUP2 ADD DUP5 DUP5 DUP5 ADD GT ISZERO PUSH2 0x11B7 JUMPI PUSH2 0x11B6 PUSH2 0x10CF JUMP JUMPDEST JUMPDEST PUSH2 0x11C2 DUP5 DUP3 DUP6 PUSH2 0x117B JUMP JUMPDEST POP SWAP4 SWAP3 POP POP POP JUMP JUMPDEST PUSH0 DUP3 PUSH1 0x1F DUP4 ADD SLT PUSH2 0x11DE JUMPI PUSH2 0x11DD PUSH2 0x10CB JUMP JUMPDEST JUMPDEST DUP2 CALLDATALOAD PUSH2 0x11EE DUP5 DUP3 PUSH1 0x20 DUP7 ADD PUSH2 0x1189 JUMP JUMPDEST SWAP2 POP POP SWAP3 SWAP2 POP POP JUMP JUMPDEST PUSH0 PUSH1 0x20 DUP3 DUP5 SUB SLT ISZERO PUSH2 0x120C JUMPI PUSH2 0x120B PUSH2 0xCD1 JUMP JUMPDEST JUMPDEST PUSH0 DUP3 ADD CALLDATALOAD PUSH8 0xFFFFFFFFFFFFFFFF DUP2 GT ISZERO PUSH2 0x1229 JUMPI PUSH2 0x1228 PUSH2 0xCD5 JUMP JUMPDEST JUMPDEST PUSH2 0x1235 DUP5 DUP3 DUP6 ADD PUSH2 0x11CA JUMP JUMPDEST SWAP2 POP POP SWAP3 SWAP2 POP POP JUMP JUMPDEST PUSH0 PUSH1 0x20 DUP3 ADD SWAP1 POP PUSH2 0x1251 PUSH0 DUP4 ADD DUP5 PUSH2 0xDB3 JUMP JUMPDEST SWAP3 SWAP2 POP POP JUMP JUMPDEST PUSH0 PUSH1 0x20 DUP3 DUP5 SUB SLT ISZERO PUSH2 0x126C JUMPI PUSH2 0x126B PUSH2 0xCD1 JUMP JUMPDEST JUMPDEST PUSH0 PUSH2 0x1279 DUP5 DUP3 DUP6 ADD PUSH2 0xD52 JUMP JUMPDEST SWAP2 POP POP SWAP3 SWAP2 POP POP JUMP JUMPDEST PUSH0 PUSH1 0xA0 DUP4 ADD PUSH0 DUP4 ADD MLOAD PUSH2 0x1297 PUSH0 DUP7 ADD DUP3 PUSH2 0xEDE JUMP JUMPDEST POP PUSH1 0x20 DUP4 ADD MLOAD PUSH2 0x12AA PUSH1 0x20 DUP7 ADD DUP3 PUSH2 0xEED JUMP JUMPDEST POP PUSH1 0x40 DUP4 ADD MLOAD DUP5 DUP3 SUB PUSH1 0x40 DUP7 ADD MSTORE PUSH2 0x12C2 DUP3 DUP3 PUSH2 0xF0C JUMP JUMPDEST SWAP2 POP POP PUSH1 0x60 DUP4 ADD MLOAD PUSH2 0x12D7 PUSH1 0x60 DUP7 ADD DUP3 PUSH2 0xEDE JUMP JUMPDEST POP PUSH1 0x80 DUP4 ADD MLOAD PUSH2 0x12EA PUSH1 0x80 DUP7 ADD DUP3 PUSH2 0xEDE JUMP JUMPDEST POP DUP1 SWAP2 POP POP SWAP3 SWAP2 POP POP JUMP JUMPDEST PUSH0 PUSH1 0x20 DUP3 ADD SWAP1 POP DUP2 DUP2 SUB PUSH0 DUP4 ADD MSTORE PUSH2 0x130D DUP2 DUP5 PUSH2 0x1282 JUMP JUMPDEST SWAP1 POP SWAP3 SWAP2 POP POP JUMP JUMPDEST PUSH32 0x4E487B7100000000000000000000000000000000000000000000000000000000 PUSH0 MSTORE PUSH1 0x22 PUSH1 0x4 MSTORE PUSH1 0x24 PUSH0 REVERT JUMPDEST PUSH0 PUSH1 0x2 DUP3 DIV SWAP1 POP PUSH1 0x1 DUP3 AND DUP1 PUSH2 0x1359 JUMPI PUSH1 0x7F DUP3 AND SWAP2 POP JUMPDEST PUSH1 0x20 DUP3 LT DUP2 SUB PUSH2 0x136C JUMPI PUSH2 0x136B PUSH2 0x1315 JUMP JUMPDEST JUMPDEST POP SWAP2 SWAP1 POP JUMP JUMPDEST PUSH32 0x4E487B7100000000000000000000000000000000000000000000000000000000 PUSH0 MSTORE PUSH1 0x32 PUSH1 0x4 MSTORE PUSH1 0x24 PUSH0 REVERT JUMPDEST PUSH32 0x547765657420646F6573206E6F74206578697374000000000000000000000000 PUSH0 DUP3 ADD MSTORE POP JUMP JUMPDEST PUSH0 PUSH2 0x13D3 PUSH1 0x14 DUP4 PUSH2 0xDCC JUMP JUMPDEST SWAP2 POP PUSH2 0x13DE DUP3 PUSH2 0x139F JUMP JUMPDEST PUSH1 0x20 DUP3 ADD SWAP1 POP SWAP2 SWAP1 POP JUMP JUMPDEST PUSH0 PUSH1 0x20 DUP3 ADD SWAP1 POP DUP2 DUP2 SUB PUSH0 DUP4 ADD MSTORE PUSH2 0x1400 DUP2 PUSH2 0x13C7 JUMP JUMPDEST SWAP1 POP SWAP2 SWAP1 POP JUMP JUMPDEST PUSH32 0x547765657420686173206E6F206C696B65730000000000000000000000000000 PUSH0 DUP3 ADD MSTORE POP JUMP JUMPDEST PUSH0 PUSH2 0x143B PUSH1 0x12 DUP4 PUSH2 0xDCC JUMP JUMPDEST SWAP2 POP PUSH2 0x1446 DUP3 PUSH2 0x1407 JUMP JUMPDEST PUSH1 0x20 DUP3 ADD SWAP1 POP SWAP2 SWAP1 POP JUMP JUMPDEST PUSH0 PUSH1 0x20 DUP3 ADD SWAP1 POP DUP2 DUP2 SUB PUSH0 DUP4 ADD MSTORE PUSH2 0x1468 DUP2 PUSH2 0x142F JUMP JUMPDEST SWAP1 POP SWAP2 SWAP1 POP JUMP JUMPDEST PUSH32 0x4E487B7100000000000000000000000000000000000000000000000000000000 PUSH0 MSTORE PUSH1 0x11 PUSH1 0x4 MSTORE PUSH1 0x24 PUSH0 REVERT JUMPDEST PUSH0 PUSH2 0x14A6 DUP3 PUSH2 0xD33 JUMP JUMPDEST SWAP2 POP PUSH0 DUP3 SUB PUSH2 0x14B8 JUMPI PUSH2 0x14B7 PUSH2 0x146F JUMP JUMPDEST JUMPDEST PUSH1 0x1 DUP3 SUB SWAP1 POP SWAP2 SWAP1 POP JUMP JUMPDEST PUSH0 PUSH1 0x80 DUP3 ADD SWAP1 POP PUSH2 0x14D6 PUSH0 DUP4 ADD DUP8 PUSH2 0xDB3 JUMP JUMPDEST PUSH2 0x14E3 PUSH1 0x20 DUP4 ADD DUP7 PUSH2 0xDB3 JUMP JUMPDEST PUSH2 0x14F0 PUSH1 0x40 DUP4 ADD DUP6 PUSH2 0xDA4 JUMP JUMPDEST PUSH2 0x14FD PUSH1 0x60 DUP4 ADD DUP5 PUSH2 0xDA4 JUMP JUMPDEST SWAP6 SWAP5 POP POP POP POP POP JUMP JUMPDEST PUSH32 0x596F7520617265206E6F742074686520636F6E7472616374206F776E65720000 PUSH0 DUP3 ADD MSTORE POP JUMP JUMPDEST PUSH0 PUSH2 0x153A PUSH1 0x1E DUP4 PUSH2 0xDCC JUMP JUMPDEST SWAP2 POP PUSH2 0x1545 DUP3 PUSH2 0x1506 JUMP JUMPDEST PUSH1 0x20 DUP3 ADD SWAP1 POP SWAP2 SWAP1 POP JUMP JUMPDEST PUSH0 PUSH1 0x20 DUP3 ADD SWAP1 POP DUP2 DUP2 SUB PUSH0 DUP4 ADD MSTORE PUSH2 0x1567 DUP2 PUSH2 0x152E JUMP JUMPDEST SWAP1 POP SWAP2 SWAP1 POP JUMP JUMPDEST PUSH0 PUSH2 0x1578 DUP3 PUSH2 0xD33 JUMP JUMPDEST SWAP2 POP PUSH32 0xFFFFFFFFFFFFFFFFFFFFFFFFFFFFFFFFFFFFFFFFFFFFFFFFFFFFFFFFFFFFFFFF DUP3 SUB PUSH2 0x15AA JUMPI PUSH2 0x15A9 PUSH2 0x146F JUMP JUMPDEST JUMPDEST PUSH1 0x1 DUP3 ADD SWAP1 POP SWAP2 SWAP1 POP JUMP JUMPDEST PUSH32 0x54776565742073686F756C6420626520756E6465722032383020636861726163 PUSH0 DUP3 ADD MSTORE PUSH32 0x7465727300000000000000000000000000000000000000000000000000000000 PUSH1 0x20 DUP3 ADD MSTORE POP JUMP JUMPDEST PUSH0 PUSH2 0x160F PUSH1 0x24 DUP4 PUSH2 0xDCC JUMP JUMPDEST SWAP2 POP PUSH2 0x161A DUP3 PUSH2 0x15B5 JUMP JUMPDEST PUSH1 0x40 DUP3 ADD SWAP1 POP SWAP2 SWAP1 POP JUMP JUMPDEST PUSH0 PUSH1 0x20 DUP3 ADD SWAP1 POP DUP2 DUP2 SUB PUSH0 DUP4 ADD MSTORE PUSH2 0x163C DUP2 PUSH2 0x1603 JUMP JUMPDEST SWAP1 POP SWAP2 SWAP1 POP JUMP JUMPDEST PUSH0 DUP2 SWAP1 POP DUP2 PUSH0 MSTORE PUSH1 0x20 PUSH0 KECCAK256 SWAP1 POP SWAP2 SWAP1 POP JUMP JUMPDEST PUSH0 PUSH1 0x20 PUSH1 0x1F DUP4 ADD DIV SWAP1 POP SWAP2 SWAP1 POP JUMP JUMPDEST PUSH0 DUP3 DUP3 SHL SWAP1 POP SWAP3 SWAP2 POP POP JUMP JUMPDEST PUSH0 PUSH1 0x8 DUP4 MUL PUSH2 0x169F PUSH32 0xFFFFFFFFFFFFFFFFFFFFFFFFFFFFFFFFFFFFFFFFFFFFFFFFFFFFFFFFFFFFFFFF DUP3 PUSH2 0x1664 JUMP JUMPDEST PUSH2 0x16A9 DUP7 DUP4 PUSH2 0x1664 JUMP JUMPDEST SWAP6 POP DUP1 NOT DUP5 AND SWAP4 POP DUP1 DUP7 AND DUP5 OR SWAP3 POP POP POP SWAP4 SWAP3 POP POP POP JUMP JUMPDEST PUSH0 DUP2 SWAP1 POP SWAP2 SWAP1 POP JUMP JUMPDEST PUSH0 PUSH2 0x16E4 PUSH2 0x16DF PUSH2 0x16DA DUP5 PUSH2 0xD33 JUMP JUMPDEST PUSH2 0x16C1 JUMP JUMPDEST PUSH2 0xD33 JUMP JUMPDEST SWAP1 POP SWAP2 SWAP1 POP JUMP JUMPDEST PUSH0 DUP2 SWAP1 POP SWAP2 SWAP1 POP JUMP JUMPDEST PUSH2 0x16FD DUP4 PUSH2 0x16CA JUMP JUMPDEST PUSH2 0x1711 PUSH2 0x1709 DUP3 PUSH2 0x16EB JUMP JUMPDEST DUP5 DUP5 SLOAD PUSH2 0x1670 JUMP JUMPDEST DUP3 SSTORE POP POP POP POP JUMP JUMPDEST PUSH0 PUSH0 SWAP1 POP SWAP1 JUMP JUMPDEST PUSH2 0x1728 PUSH2 0x1719 JUMP JUMPDEST PUSH2 0x1733 DUP2 DUP5 DUP5 PUSH2 0x16F4 JUMP JUMPDEST POP POP POP JUMP JUMPDEST JUMPDEST DUP2 DUP2 LT ISZERO PUSH2 0x1756 JUMPI PUSH2 0x174B PUSH0 DUP3 PUSH2 0x1720 JUMP JUMPDEST PUSH1 0x1 DUP2 ADD SWAP1 POP PUSH2 0x1739 JUMP JUMPDEST POP POP JUMP JUMPDEST PUSH1 0x1F DUP3 GT ISZERO PUSH2 0x179B JUMPI PUSH2 0x176C DUP2 PUSH2 0x1643 JUMP JUMPDEST PUSH2 0x1775 DUP5 PUSH2 0x1655 JUMP JUMPDEST DUP2 ADD PUSH1 0x20 DUP6 LT ISZERO PUSH2 0x1784 JUMPI DUP2 SWAP1 POP JUMPDEST PUSH2 0x1798 PUSH2 0x1790 DUP6 PUSH2 0x1655 JUMP JUMPDEST DUP4 ADD DUP3 PUSH2 0x1738 JUMP JUMPDEST POP POP JUMPDEST POP POP POP JUMP JUMPDEST PUSH0 DUP3 DUP3 SHR SWAP1 POP SWAP3 SWAP2 POP POP JUMP JUMPDEST PUSH0 PUSH2 0x17BB PUSH0 NOT DUP5 PUSH1 0x8 MUL PUSH2 0x17A0 JUMP JUMPDEST NOT DUP1 DUP4 AND SWAP2 POP POP SWAP3 SWAP2 POP POP JUMP JUMPDEST PUSH0 PUSH2 0x17D3 DUP4 DUP4 PUSH2 0x17AC JUMP JUMPDEST SWAP2 POP DUP3 PUSH1 0x2 MUL DUP3 OR SWAP1 POP SWAP3 SWAP2 POP POP JUMP JUMPDEST PUSH2 0x17EC DUP3 PUSH2 0xDC2 JUMP JUMPDEST PUSH8 0xFFFFFFFFFFFFFFFF DUP2 GT ISZERO PUSH2 0x1805 JUMPI PUSH2 0x1804 PUSH2 0x10D3 JUMP JUMPDEST JUMPDEST PUSH2 0x180F DUP3 SLOAD PUSH2 0x1342 JUMP JUMPDEST PUSH2 0x181A DUP3 DUP3 DUP6 PUSH2 0x175A JUMP JUMPDEST PUSH0 PUSH1 0x20 SWAP1 POP PUSH1 0x1F DUP4 GT PUSH1 0x1 DUP2 EQ PUSH2 0x184B JUMPI PUSH0 DUP5 ISZERO PUSH2 0x1839 JUMPI DUP3 DUP8 ADD MLOAD SWAP1 POP JUMPDEST PUSH2 0x1843 DUP6 DUP3 PUSH2 0x17C8 JUMP JUMPDEST DUP7 SSTORE POP PUSH2 0x18AA JUMP JUMPDEST PUSH1 0x1F NOT DUP5 AND PUSH2 0x1859 DUP7 PUSH2 0x1643 JUMP JUMPDEST PUSH0 JUMPDEST DUP3 DUP2 LT ISZERO PUSH2 0x1880 JUMPI DUP5 DUP10 ADD MLOAD DUP3 SSTORE PUSH1 0x1 DUP3 ADD SWAP2 POP PUSH1 0x20 DUP6 ADD SWAP5 POP PUSH1 0x20 DUP2 ADD SWAP1 POP PUSH2 0x185B JUMP JUMPDEST DUP7 DUP4 LT ISZERO PUSH2 0x189D JUMPI DUP5 DUP10 ADD MLOAD PUSH2 0x1899 PUSH1 0x1F DUP10 AND DUP3 PUSH2 0x17AC JUMP JUMPDEST DUP4 SSTORE POP JUMPDEST PUSH1 0x1 PUSH1 0x2 DUP9 MUL ADD DUP9 SSTORE POP POP POP JUMPDEST POP POP POP POP POP POP JUMP JUMPDEST PUSH0 PUSH1 0x80 DUP3 ADD SWAP1 POP PUSH2 0x18C5 PUSH0 DUP4 ADD DUP8 PUSH2 0xDA4 JUMP JUMPDEST PUSH2 0x18D2 PUSH1 0x20 DUP4 ADD DUP7 PUSH2 0xDB3 JUMP JUMPDEST DUP2 DUP2 SUB PUSH1 0x40 DUP4 ADD MSTORE PUSH2 0x18E4 DUP2 DUP6 PUSH2 0xDFA JUMP JUMPDEST SWAP1 POP PUSH2 0x18F3 PUSH1 0x60 DUP4 ADD DUP5 PUSH2 0xDA4 JUMP JUMPDEST SWAP6 SWAP5 POP POP POP POP POP JUMP INVALID LOG2 PUSH5 0x6970667358 0x22 SLT KECCAK256 0xCF 0x29 BASEFEE 0xB9 0xBE 0x2C 0xEB SWAPN 0xE2 RETURN ADDMOD 0x28 SWAP6 0xC2 PUSH25 0x725F83B72398C0EB9B3B66B1C0A1C8889A64736F6C63430008 0x1E STOP CALLER "
				},
				"gasEstimates": {
					"creation": {
						"codeDepositCost": "1290000",
						"executionCost": "49870",
						"totalCost": "1339870"
					},
					"external": {
						"changeTweetLength(uint16)": "26908",
						"createTweet(string)": "infinite",
						"getAllTweets(address)": "infinite",
						"getTweet(uint256)": "infinite",
						"likeTweet(address,uint256)": "infinite",
						"owner()": "2552",
						"tweets(address,uint256)": "infinite",
						"unlikeTweet(address,uint256)": "infinite"
					}
				},
				"methodIdentifiers": {
					"changeTweetLength(uint16)": "58bfa4ab",
					"createTweet(string)": "7c9cd2bc",
					"getAllTweets(address)": "12e7ee1c",
					"getTweet(uint256)": "c3ad5ecb",
					"likeTweet(address,uint256)": "63378216",
					"owner()": "8da5cb5b",
					"tweets(address,uint256)": "05a1b4a9",
					"unlikeTweet(address,uint256)": "3d9b569f"
				}
			},
			"storageLayout": {
				"storage": [
					{
						"astId": 4,
						"contract": "contracts/_Tw.sol:Twitter",
						"label": "MAX_TWEET_LENGTH",
						"offset": 0,
						"slot": "0",
						"type": "t_uint16"
					},
					{
						"astId": 21,
						"contract": "contracts/_Tw.sol:Twitter",
						"label": "tweets",
						"offset": 0,
						"slot": "1",
						"type": "t_mapping(t_address,t_array(t_struct(Tweet)15_storage)dyn_storage)"
					},
					{
						"astId": 23,
						"contract": "contracts/_Tw.sol:Twitter",
						"label": "owner",
						"offset": 0,
						"slot": "2",
						"type": "t_address"
					}
				],
				"types": {
					"t_address": {
						"encoding": "inplace",
						"label": "address",
						"numberOfBytes": "20"
					},
					"t_array(t_struct(Tweet)15_storage)dyn_storage": {
						"base": "t_struct(Tweet)15_storage",
						"encoding": "dynamic_array",
						"label": "struct Twitter.Tweet[]",
						"numberOfBytes": "32"
					},
					"t_mapping(t_address,t_array(t_struct(Tweet)15_storage)dyn_storage)": {
						"encoding": "mapping",
						"key": "t_address",
						"label": "mapping(address => struct Twitter.Tweet[])",
						"numberOfBytes": "32",
						"value": "t_array(t_struct(Tweet)15_storage)dyn_storage"
					},
					"t_string_storage": {
						"encoding": "bytes",
						"label": "string",
						"numberOfBytes": "32"
					},
					"t_struct(Tweet)15_storage": {
						"encoding": "inplace",
						"label": "struct Twitter.Tweet",
						"members": [
							{
								"astId": 6,
								"contract": "contracts/_Tw.sol:Twitter",
								"label": "id",
								"offset": 0,
								"slot": "0",
								"type": "t_uint256"
							},
							{
								"astId": 8,
								"contract": "contracts/_Tw.sol:Twitter",
								"label": "author",
								"offset": 0,
								"slot": "1",
								"type": "t_address"
							},
							{
								"astId": 10,
								"contract": "contracts/_Tw.sol:Twitter",
								"label": "content",
								"offset": 0,
								"slot": "2",
								"type": "t_string_storage"
							},
							{
								"astId": 12,
								"contract": "contracts/_Tw.sol:Twitter",
								"label": "timestamp",
								"offset": 0,
								"slot": "3",
								"type": "t_uint256"
							},
							{
								"astId": 14,
								"contract": "contracts/_Tw.sol:Twitter",
								"label": "likes",
								"offset": 0,
								"slot": "4",
								"type": "t_uint256"
							}
						],
						"numberOfBytes": "160"
					},
					"t_uint16": {
						"encoding": "inplace",
						"label": "uint16",
						"numberOfBytes": "2"
					},
					"t_uint256": {
						"encoding": "inplace",
						"label": "uint256",
						"numberOfBytes": "32"
					}
				}
			},
			"userdoc": {
				"kind": "user",
				"methods": {},
				"version": 1
			}
		}
	}
}