{
	"contracts/_Tw.sol": {
		"Twitter": {
			"abi": [
				{
					"inputs": [],
					"stateMutability": "nonpayable",
					"type": "constructor"
				},
				{
					"inputs": [
						{
							"internalType": "uint16",
							"name": "newTweetLength",
							"type": "uint16"
						}
					],
					"name": "changeTweetLength",
					"outputs": [],
					"stateMutability": "nonpayable",
					"type": "function"
				},
				{
					"inputs": [
						{
							"internalType": "string",
							"name": "_tweet",
							"type": "string"
						}
					],
					"name": "createTweet",
					"outputs": [],
					"stateMutability": "nonpayable",
					"type": "function"
				},
				{
					"inputs": [
						{
							"internalType": "address",
							"name": "_owner",
							"type": "address"
						}
					],
					"name": "getAllTweets",
					"outputs": [
						{
							"components": [
								{
									"internalType": "address",
									"name": "author",
									"type": "address"
								},
								{
									"internalType": "string",
									"name": "content",
									"type": "string"
								},
								{
									"internalType": "uint256",
									"name": "timestamp",
									"type": "uint256"
								},
								{
									"internalType": "uint256",
									"name": "likes",
									"type": "uint256"
								}
							],
							"internalType": "struct Twitter.Tweet[]",
							"name": "",
							"type": "tuple[]"
						}
					],
					"stateMutability": "view",
					"type": "function"
				},
				{
					"inputs": [
						{
							"internalType": "uint256",
							"name": "_i",
							"type": "uint256"
						}
					],
					"name": "getTweet",
					"outputs": [
						{
							"components": [
								{
									"internalType": "address",
									"name": "author",
									"type": "address"
								},
								{
									"internalType": "string",
									"name": "content",
									"type": "string"
								},
								{
									"internalType": "uint256",
									"name": "timestamp",
									"type": "uint256"
								},
								{
									"internalType": "uint256",
									"name": "likes",
									"type": "uint256"
								}
							],
							"internalType": "struct Twitter.Tweet",
							"name": "",
							"type": "tuple"
						}
					],
					"stateMutability": "view",
					"type": "function"
				},
				{
					"inputs": [],
					"name": "owner",
					"outputs": [
						{
							"internalType": "address",
							"name": "",
							"type": "address"
						}
					],
					"stateMutability": "view",
					"type": "function"
				},
				{
					"inputs": [
						{
							"internalType": "address",
							"name": "",
							"type": "address"
						},
						{
							"internalType": "uint256",
							"name": "",
							"type": "uint256"
						}
					],
					"name": "tweets",
					"outputs": [
						{
							"internalType": "address",
							"name": "author",
							"type": "address"
						},
						{
							"internalType": "string",
							"name": "content",
							"type": "string"
						},
						{
							"internalType": "uint256",
							"name": "timestamp",
							"type": "uint256"
						},
						{
							"internalType": "uint256",
							"name": "likes",
							"type": "uint256"
						}
					],
					"stateMutability": "view",
					"type": "function"
				}
			],
			"devdoc": {
				"kind": "dev",
				"methods": {},
				"version": 1
			},
			"evm": {
				"assembly": "    /* \"contracts/_Tw.sol\":57:1224  contract Twitter {... */\n  mstore(0x40, 0x80)\n    /* \"contracts/_Tw.sol\":106:109  280 */\n  0x0118\n    /* \"contracts/_Tw.sol\":80:109  uint16 MAX_TWEET_LENGTH = 280 */\n  0x00\n  exp(0x0100, 0x00)\n  dup2\n  sload\n  dup2\n  0xffff\n  mul\n  not\n  and\n  swap1\n  dup4\n  0xffff\n  and\n  mul\n  or\n  swap1\n  sstore\n  pop\n    /* \"contracts/_Tw.sol\":320:369  constructor() {... */\n  callvalue\n  dup1\n  iszero\n  tag_1\n  jumpi\n  revert(0x00, 0x00)\ntag_1:\n  pop\n    /* \"contracts/_Tw.sol\":352:362  msg.sender */\n  caller\n    /* \"contracts/_Tw.sol\":344:349  owner */\n  0x02\n  0x00\n    /* \"contracts/_Tw.sol\":344:362  owner = msg.sender */\n  0x0100\n  exp\n  dup2\n  sload\n  dup2\n  0xffffffffffffffffffffffffffffffffffffffff\n  mul\n  not\n  and\n  swap1\n  dup4\n  0xffffffffffffffffffffffffffffffffffffffff\n  and\n  mul\n  or\n  swap1\n  sstore\n  pop\n    /* \"contracts/_Tw.sol\":57:1224  contract Twitter {... */\n  dataSize(sub_0)\n  dup1\n  dataOffset(sub_0)\n  0x00\n  codecopy\n  0x00\n  return\nstop\n\nsub_0: assembly {\n        /* \"contracts/_Tw.sol\":57:1224  contract Twitter {... */\n      mstore(0x40, 0x80)\n      callvalue\n      dup1\n      iszero\n      tag_1\n      jumpi\n      revert(0x00, 0x00)\n    tag_1:\n      pop\n      jumpi(tag_2, lt(calldatasize, 0x04))\n      shr(0xe0, calldataload(0x00))\n      dup1\n      0x05a1b4a9\n      eq\n      tag_3\n      jumpi\n      dup1\n      0x12e7ee1c\n      eq\n      tag_4\n      jumpi\n      dup1\n      0x58bfa4ab\n      eq\n      tag_5\n      jumpi\n      dup1\n      0x7c9cd2bc\n      eq\n      tag_6\n      jumpi\n      dup1\n      0x8da5cb5b\n      eq\n      tag_7\n      jumpi\n      dup1\n      0xc3ad5ecb\n      eq\n      tag_8\n      jumpi\n    tag_2:\n      revert(0x00, 0x00)\n        /* \"contracts/_Tw.sol\":240:282  mapping(address =>  Tweet[]) public tweets */\n    tag_3:\n      tag_9\n      0x04\n      dup1\n      calldatasize\n      sub\n      dup2\n      add\n      swap1\n      tag_10\n      swap2\n      swap1\n      tag_11\n      jump\t// in\n    tag_10:\n      tag_12\n      jump\t// in\n    tag_9:\n      mload(0x40)\n      tag_13\n      swap5\n      swap4\n      swap3\n      swap2\n      swap1\n      tag_14\n      jump\t// in\n    tag_13:\n      mload(0x40)\n      dup1\n      swap2\n      sub\n      swap1\n      return\n        /* \"contracts/_Tw.sol\":1110:1222  function getAllTweets(address _owner) public view returns(Tweet[] memory) {... */\n    tag_4:\n      tag_15\n      0x04\n      dup1\n      calldatasize\n      sub\n      dup2\n      add\n      swap1\n      tag_16\n      swap2\n      swap1\n      tag_17\n      jump\t// in\n    tag_16:\n      tag_18\n      jump\t// in\n    tag_15:\n      mload(0x40)\n      tag_19\n      swap2\n      swap1\n      tag_20\n      jump\t// in\n    tag_19:\n      mload(0x40)\n      dup1\n      swap2\n      sub\n      swap1\n      return\n        /* \"contracts/_Tw.sol\":492:608  function changeTweetLength(uint16 newTweetLength) public onlyOwner{... */\n    tag_5:\n      tag_21\n      0x04\n      dup1\n      calldatasize\n      sub\n      dup2\n      add\n      swap1\n      tag_22\n      swap2\n      swap1\n      tag_23\n      jump\t// in\n    tag_22:\n      tag_24\n      jump\t// in\n    tag_21:\n      stop\n        /* \"contracts/_Tw.sol\":614:989  function createTweet(string memory _tweet) public {... */\n    tag_6:\n      tag_25\n      0x04\n      dup1\n      calldatasize\n      sub\n      dup2\n      add\n      swap1\n      tag_26\n      swap2\n      swap1\n      tag_27\n      jump\t// in\n    tag_26:\n      tag_28\n      jump\t// in\n    tag_25:\n      stop\n        /* \"contracts/_Tw.sol\":293:313  address public owner */\n    tag_7:\n      tag_29\n      tag_30\n      jump\t// in\n    tag_29:\n      mload(0x40)\n      tag_31\n      swap2\n      swap1\n      tag_32\n      jump\t// in\n    tag_31:\n      mload(0x40)\n      dup1\n      swap2\n      sub\n      swap1\n      return\n        /* \"contracts/_Tw.sol\":995:1103  function getTweet(uint _i) public view returns (Tweet memory) {... */\n    tag_8:\n      tag_33\n      0x04\n      dup1\n      calldatasize\n      sub\n      dup2\n      add\n      swap1\n      tag_34\n      swap2\n      swap1\n      tag_35\n      jump\t// in\n    tag_34:\n      tag_36\n      jump\t// in\n    tag_33:\n      mload(0x40)\n      tag_37\n      swap2\n      swap1\n      tag_38\n      jump\t// in\n    tag_37:\n      mload(0x40)\n      dup1\n      swap2\n      sub\n      swap1\n      return\n        /* \"contracts/_Tw.sol\":240:282  mapping(address =>  Tweet[]) public tweets */\n    tag_12:\n      mstore(0x20, 0x01)\n      dup2\n      0x00\n      mstore\n      keccak256(0x00, 0x40)\n      dup2\n      dup2\n      sload\n      dup2\n      lt\n      tag_39\n      jumpi\n      0x00\n      dup1\n      revert\n    tag_39:\n      swap1\n      0x00\n      mstore\n      keccak256(0x00, 0x20)\n      swap1\n      0x04\n      mul\n      add\n      0x00\n      swap2\n      pop\n      swap2\n      pop\n      pop\n      dup1\n      0x00\n      add\n      0x00\n      swap1\n      sload\n      swap1\n      0x0100\n      exp\n      swap1\n      div\n      0xffffffffffffffffffffffffffffffffffffffff\n      and\n      swap1\n      dup1\n      0x01\n      add\n      dup1\n      sload\n      tag_41\n      swap1\n      tag_42\n      jump\t// in\n    tag_41:\n      dup1\n      0x1f\n      add\n      0x20\n      dup1\n      swap2\n      div\n      mul\n      0x20\n      add\n      mload(0x40)\n      swap1\n      dup2\n      add\n      0x40\n      mstore\n      dup1\n      swap3\n      swap2\n      swap1\n      dup2\n      dup2\n      mstore\n      0x20\n      add\n      dup3\n      dup1\n      sload\n      tag_43\n      swap1\n      tag_42\n      jump\t// in\n    tag_43:\n      dup1\n      iszero\n      tag_44\n      jumpi\n      dup1\n      0x1f\n      lt\n      tag_45\n      jumpi\n      0x0100\n      dup1\n      dup4\n      sload\n      div\n      mul\n      dup4\n      mstore\n      swap2\n      0x20\n      add\n      swap2\n      jump(tag_44)\n    tag_45:\n      dup3\n      add\n      swap2\n      swap1\n      0x00\n      mstore\n      keccak256(0x00, 0x20)\n      swap1\n    tag_46:\n      dup2\n      sload\n      dup2\n      mstore\n      swap1\n      0x01\n      add\n      swap1\n      0x20\n      add\n      dup1\n      dup4\n      gt\n      tag_46\n      jumpi\n      dup3\n      swap1\n      sub\n      0x1f\n      and\n      dup3\n      add\n      swap2\n    tag_44:\n      pop\n      pop\n      pop\n      pop\n      pop\n      swap1\n      dup1\n      0x02\n      add\n      sload\n      swap1\n      dup1\n      0x03\n      add\n      sload\n      swap1\n      pop\n      dup5\n      jump\t// out\n        /* \"contracts/_Tw.sol\":1110:1222  function getAllTweets(address _owner) public view returns(Tweet[] memory) {... */\n    tag_18:\n        /* \"contracts/_Tw.sol\":1168:1182  Tweet[] memory */\n      0x60\n        /* \"contracts/_Tw.sol\":1201:1207  tweets */\n      0x01\n        /* \"contracts/_Tw.sol\":1201:1215  tweets[_owner] */\n      0x00\n        /* \"contracts/_Tw.sol\":1208:1214  _owner */\n      dup4\n        /* \"contracts/_Tw.sol\":1201:1215  tweets[_owner] */\n      0xffffffffffffffffffffffffffffffffffffffff\n      and\n      0xffffffffffffffffffffffffffffffffffffffff\n      and\n      dup2\n      mstore\n      0x20\n      add\n      swap1\n      dup2\n      mstore\n      0x20\n      add\n      0x00\n      keccak256\n        /* \"contracts/_Tw.sol\":1194:1215  return tweets[_owner] */\n      dup1\n      sload\n      dup1\n      0x20\n      mul\n      0x20\n      add\n      mload(0x40)\n      swap1\n      dup2\n      add\n      0x40\n      mstore\n      dup1\n      swap3\n      swap2\n      swap1\n      dup2\n      dup2\n      mstore\n      0x20\n      add\n      0x00\n      swap1\n    tag_48:\n      dup3\n      dup3\n      lt\n      iszero\n      tag_49\n      jumpi\n      dup4\n      dup3\n      swap1\n      0x00\n      mstore\n      keccak256(0x00, 0x20)\n      swap1\n      0x04\n      mul\n      add\n      mload(0x40)\n      dup1\n      0x80\n      add\n      0x40\n      mstore\n      swap1\n      dup2\n      0x00\n      dup3\n      add\n      0x00\n      swap1\n      sload\n      swap1\n      0x0100\n      exp\n      swap1\n      div\n      0xffffffffffffffffffffffffffffffffffffffff\n      and\n      0xffffffffffffffffffffffffffffffffffffffff\n      and\n      0xffffffffffffffffffffffffffffffffffffffff\n      and\n      dup2\n      mstore\n      0x20\n      add\n      0x01\n      dup3\n      add\n      dup1\n      sload\n      tag_51\n      swap1\n      tag_42\n      jump\t// in\n    tag_51:\n      dup1\n      0x1f\n      add\n      0x20\n      dup1\n      swap2\n      div\n      mul\n      0x20\n      add\n      mload(0x40)\n      swap1\n      dup2\n      add\n      0x40\n      mstore\n      dup1\n      swap3\n      swap2\n      swap1\n      dup2\n      dup2\n      mstore\n      0x20\n      add\n      dup3\n      dup1\n      sload\n      tag_52\n      swap1\n      tag_42\n      jump\t// in\n    tag_52:\n      dup1\n      iszero\n      tag_53\n      jumpi\n      dup1\n      0x1f\n      lt\n      tag_54\n      jumpi\n      0x0100\n      dup1\n      dup4\n      sload\n      div\n      mul\n      dup4\n      mstore\n      swap2\n      0x20\n      add\n      swap2\n      jump(tag_53)\n    tag_54:\n      dup3\n      add\n      swap2\n      swap1\n      0x00\n      mstore\n      keccak256(0x00, 0x20)\n      swap1\n    tag_55:\n      dup2\n      sload\n      dup2\n      mstore\n      swap1\n      0x01\n      add\n      swap1\n      0x20\n      add\n      dup1\n      dup4\n      gt\n      tag_55\n      jumpi\n      dup3\n      swap1\n      sub\n      0x1f\n      and\n      dup3\n      add\n      swap2\n    tag_53:\n      pop\n      pop\n      pop\n      pop\n      pop\n      dup2\n      mstore\n      0x20\n      add\n      0x02\n      dup3\n      add\n      sload\n      dup2\n      mstore\n      0x20\n      add\n      0x03\n      dup3\n      add\n      sload\n      dup2\n      mstore\n      pop\n      pop\n      dup2\n      mstore\n      0x20\n      add\n      swap1\n      0x01\n      add\n      swap1\n      jump(tag_48)\n    tag_49:\n      pop\n      pop\n      pop\n      pop\n      swap1\n      pop\n        /* \"contracts/_Tw.sol\":1110:1222  function getAllTweets(address _owner) public view returns(Tweet[] memory) {... */\n      swap2\n      swap1\n      pop\n      jump\t// out\n        /* \"contracts/_Tw.sol\":492:608  function changeTweetLength(uint16 newTweetLength) public onlyOwner{... */\n    tag_24:\n        /* \"contracts/_Tw.sol\":428:433  owner */\n      0x02\n      0x00\n      swap1\n      sload\n      swap1\n      0x0100\n      exp\n      swap1\n      div\n      0xffffffffffffffffffffffffffffffffffffffff\n      and\n        /* \"contracts/_Tw.sol\":414:433  msg.sender == owner */\n      0xffffffffffffffffffffffffffffffffffffffff\n      and\n        /* \"contracts/_Tw.sol\":414:424  msg.sender */\n      caller\n        /* \"contracts/_Tw.sol\":414:433  msg.sender == owner */\n      0xffffffffffffffffffffffffffffffffffffffff\n      and\n      eq\n        /* \"contracts/_Tw.sol\":406:468  require(msg.sender == owner, \"You are not the contract owner\") */\n      tag_57\n      jumpi\n      mload(0x40)\n      0x08c379a000000000000000000000000000000000000000000000000000000000\n      dup2\n      mstore\n      0x04\n      add\n      tag_58\n      swap1\n      tag_59\n      jump\t// in\n    tag_58:\n      mload(0x40)\n      dup1\n      swap2\n      sub\n      swap1\n      revert\n    tag_57:\n        /* \"contracts/_Tw.sol\":587:601  newTweetLength */\n      dup1\n        /* \"contracts/_Tw.sol\":568:584  MAX_TWEET_LENGTH */\n      0x00\n      0x00\n        /* \"contracts/_Tw.sol\":568:601  MAX_TWEET_LENGTH = newTweetLength */\n      0x0100\n      exp\n      dup2\n      sload\n      dup2\n      0xffff\n      mul\n      not\n      and\n      swap1\n      dup4\n      0xffff\n      and\n      mul\n      or\n      swap1\n      sstore\n      pop\n        /* \"contracts/_Tw.sol\":492:608  function changeTweetLength(uint16 newTweetLength) public onlyOwner{... */\n      pop\n      jump\t// out\n        /* \"contracts/_Tw.sol\":614:989  function createTweet(string memory _tweet) public {... */\n    tag_28:\n        /* \"contracts/_Tw.sol\":706:722  MAX_TWEET_LENGTH */\n      0x00\n      0x00\n      swap1\n      sload\n      swap1\n      0x0100\n      exp\n      swap1\n      div\n      0xffff\n      and\n        /* \"contracts/_Tw.sol\":682:722  bytes(_tweet).length <= MAX_TWEET_LENGTH */\n      0xffff\n      and\n        /* \"contracts/_Tw.sol\":688:694  _tweet */\n      dup2\n        /* \"contracts/_Tw.sol\":682:702  bytes(_tweet).length */\n      mload\n        /* \"contracts/_Tw.sol\":682:722  bytes(_tweet).length <= MAX_TWEET_LENGTH */\n      gt\n      iszero\n        /* \"contracts/_Tw.sol\":674:763  require(bytes(_tweet).length <= MAX_TWEET_LENGTH, \"Tweet should be under 280 characters\") */\n      tag_62\n      jumpi\n      mload(0x40)\n      0x08c379a000000000000000000000000000000000000000000000000000000000\n      dup2\n      mstore\n      0x04\n      add\n      tag_63\n      swap1\n      tag_64\n      jump\t// in\n    tag_63:\n      mload(0x40)\n      dup1\n      swap2\n      sub\n      swap1\n      revert\n    tag_62:\n        /* \"contracts/_Tw.sol\":774:795  Tweet memory newTweet */\n      0x00\n        /* \"contracts/_Tw.sol\":798:938  Tweet({... */\n      mload(0x40)\n      dup1\n      0x80\n      add\n      0x40\n      mstore\n      dup1\n        /* \"contracts/_Tw.sol\":826:836  msg.sender */\n      caller\n        /* \"contracts/_Tw.sol\":798:938  Tweet({... */\n      0xffffffffffffffffffffffffffffffffffffffff\n      and\n      dup2\n      mstore\n      0x20\n      add\n        /* \"contracts/_Tw.sol\":859:865  _tweet */\n      dup4\n        /* \"contracts/_Tw.sol\":798:938  Tweet({... */\n      dup2\n      mstore\n      0x20\n      add\n        /* \"contracts/_Tw.sol\":890:905  block.timestamp */\n      timestamp\n        /* \"contracts/_Tw.sol\":798:938  Tweet({... */\n      dup2\n      mstore\n      0x20\n      add\n        /* \"contracts/_Tw.sol\":926:927  0 */\n      0x00\n        /* \"contracts/_Tw.sol\":798:938  Tweet({... */\n      dup2\n      mstore\n      pop\n        /* \"contracts/_Tw.sol\":774:938  Tweet memory newTweet = Tweet({... */\n      swap1\n      pop\n        /* \"contracts/_Tw.sol\":949:955  tweets */\n      0x01\n        /* \"contracts/_Tw.sol\":949:967  tweets[msg.sender] */\n      0x00\n        /* \"contracts/_Tw.sol\":956:966  msg.sender */\n      caller\n        /* \"contracts/_Tw.sol\":949:967  tweets[msg.sender] */\n      0xffffffffffffffffffffffffffffffffffffffff\n      and\n      0xffffffffffffffffffffffffffffffffffffffff\n      and\n      dup2\n      mstore\n      0x20\n      add\n      swap1\n      dup2\n      mstore\n      0x20\n      add\n      0x00\n      keccak256\n        /* \"contracts/_Tw.sol\":973:981  newTweet */\n      dup2\n        /* \"contracts/_Tw.sol\":949:982  tweets[msg.sender].push(newTweet) */\n      swap1\n      dup1\n      0x01\n      dup2\n      sload\n      add\n      dup1\n      dup3\n      sstore\n      dup1\n      swap2\n      pop\n      pop\n      0x01\n      swap1\n      sub\n      swap1\n      0x00\n      mstore\n      keccak256(0x00, 0x20)\n      swap1\n      0x04\n      mul\n      add\n      0x00\n      swap1\n      swap2\n      swap1\n      swap2\n      swap1\n      swap2\n      pop\n      0x00\n      dup3\n      add\n      mload\n      dup2\n      0x00\n      add\n      exp(0x0100, 0x00)\n      dup2\n      sload\n      dup2\n      0xffffffffffffffffffffffffffffffffffffffff\n      mul\n      not\n      and\n      swap1\n      dup4\n      0xffffffffffffffffffffffffffffffffffffffff\n      and\n      mul\n      or\n      swap1\n      sstore\n      pop\n      0x20\n      dup3\n      add\n      mload\n      dup2\n      0x01\n      add\n      swap1\n      dup2\n      tag_66\n      swap2\n      swap1\n      tag_67\n      jump\t// in\n    tag_66:\n      pop\n      0x40\n      dup3\n      add\n      mload\n      dup2\n      0x02\n      add\n      sstore\n      0x60\n      dup3\n      add\n      mload\n      dup2\n      0x03\n      add\n      sstore\n      pop\n      pop\n        /* \"contracts/_Tw.sol\":664:989  {... */\n      pop\n        /* \"contracts/_Tw.sol\":614:989  function createTweet(string memory _tweet) public {... */\n      pop\n      jump\t// out\n        /* \"contracts/_Tw.sol\":293:313  address public owner */\n    tag_30:\n      0x02\n      0x00\n      swap1\n      sload\n      swap1\n      0x0100\n      exp\n      swap1\n      div\n      0xffffffffffffffffffffffffffffffffffffffff\n      and\n      dup2\n      jump\t// out\n        /* \"contracts/_Tw.sol\":995:1103  function getTweet(uint _i) public view returns (Tweet memory) {... */\n    tag_36:\n        /* \"contracts/_Tw.sol\":1043:1055  Tweet memory */\n      tag_68\n      tag_69\n      jump\t// in\n    tag_68:\n        /* \"contracts/_Tw.sol\":1074:1080  tweets */\n      0x01\n        /* \"contracts/_Tw.sol\":1074:1092  tweets[msg.sender] */\n      0x00\n        /* \"contracts/_Tw.sol\":1081:1091  msg.sender */\n      caller\n        /* \"contracts/_Tw.sol\":1074:1092  tweets[msg.sender] */\n      0xffffffffffffffffffffffffffffffffffffffff\n      and\n      0xffffffffffffffffffffffffffffffffffffffff\n      and\n      dup2\n      mstore\n      0x20\n      add\n      swap1\n      dup2\n      mstore\n      0x20\n      add\n      0x00\n      keccak256\n        /* \"contracts/_Tw.sol\":1093:1095  _i */\n      dup3\n        /* \"contracts/_Tw.sol\":1074:1096  tweets[msg.sender][_i] */\n      dup2\n      sload\n      dup2\n      lt\n      tag_71\n      jumpi\n      tag_72\n      tag_73\n      jump\t// in\n    tag_72:\n    tag_71:\n      swap1\n      0x00\n      mstore\n      keccak256(0x00, 0x20)\n      swap1\n      0x04\n      mul\n      add\n        /* \"contracts/_Tw.sol\":1067:1096  return tweets[msg.sender][_i] */\n      mload(0x40)\n      dup1\n      0x80\n      add\n      0x40\n      mstore\n      swap1\n      dup2\n      0x00\n      dup3\n      add\n      0x00\n      swap1\n      sload\n      swap1\n      0x0100\n      exp\n      swap1\n      div\n      0xffffffffffffffffffffffffffffffffffffffff\n      and\n      0xffffffffffffffffffffffffffffffffffffffff\n      and\n      0xffffffffffffffffffffffffffffffffffffffff\n      and\n      dup2\n      mstore\n      0x20\n      add\n      0x01\n      dup3\n      add\n      dup1\n      sload\n      tag_75\n      swap1\n      tag_42\n      jump\t// in\n    tag_75:\n      dup1\n      0x1f\n      add\n      0x20\n      dup1\n      swap2\n      div\n      mul\n      0x20\n      add\n      mload(0x40)\n      swap1\n      dup2\n      add\n      0x40\n      mstore\n      dup1\n      swap3\n      swap2\n      swap1\n      dup2\n      dup2\n      mstore\n      0x20\n      add\n      dup3\n      dup1\n      sload\n      tag_76\n      swap1\n      tag_42\n      jump\t// in\n    tag_76:\n      dup1\n      iszero\n      tag_77\n      jumpi\n      dup1\n      0x1f\n      lt\n      tag_78\n      jumpi\n      0x0100\n      dup1\n      dup4\n      sload\n      div\n      mul\n      dup4\n      mstore\n      swap2\n      0x20\n      add\n      swap2\n      jump(tag_77)\n    tag_78:\n      dup3\n      add\n      swap2\n      swap1\n      0x00\n      mstore\n      keccak256(0x00, 0x20)\n      swap1\n    tag_79:\n      dup2\n      sload\n      dup2\n      mstore\n      swap1\n      0x01\n      add\n      swap1\n      0x20\n      add\n      dup1\n      dup4\n      gt\n      tag_79\n      jumpi\n      dup3\n      swap1\n      sub\n      0x1f\n      and\n      dup3\n      add\n      swap2\n    tag_77:\n      pop\n      pop\n      pop\n      pop\n      pop\n      dup2\n      mstore\n      0x20\n      add\n      0x02\n      dup3\n      add\n      sload\n      dup2\n      mstore\n      0x20\n      add\n      0x03\n      dup3\n      add\n      sload\n      dup2\n      mstore\n      pop\n      pop\n      swap1\n      pop\n        /* \"contracts/_Tw.sol\":995:1103  function getTweet(uint _i) public view returns (Tweet memory) {... */\n      swap2\n      swap1\n      pop\n      jump\t// out\n    tag_69:\n      mload(0x40)\n      dup1\n      0x80\n      add\n      0x40\n      mstore\n      dup1\n      and(0xffffffffffffffffffffffffffffffffffffffff, 0x00)\n      dup2\n      mstore\n      0x20\n      add\n      0x60\n      dup2\n      mstore\n      0x20\n      add\n      0x00\n      dup2\n      mstore\n      0x20\n      add\n      0x00\n      dup2\n      mstore\n      pop\n      swap1\n      jump\t// out\n        /* \"#utility.yul\":7:82   */\n    tag_80:\n        /* \"#utility.yul\":40:46   */\n      0x00\n        /* \"#utility.yul\":73:75   */\n      0x40\n        /* \"#utility.yul\":67:76   */\n      mload\n        /* \"#utility.yul\":57:76   */\n      swap1\n      pop\n        /* \"#utility.yul\":7:82   */\n      swap1\n      jump\t// out\n        /* \"#utility.yul\":88:205   */\n    tag_81:\n        /* \"#utility.yul\":197:198   */\n      0x00\n        /* \"#utility.yul\":194:195   */\n      0x00\n        /* \"#utility.yul\":187:199   */\n      revert\n        /* \"#utility.yul\":211:328   */\n    tag_82:\n        /* \"#utility.yul\":320:321   */\n      0x00\n        /* \"#utility.yul\":317:318   */\n      0x00\n        /* \"#utility.yul\":310:322   */\n      revert\n        /* \"#utility.yul\":334:460   */\n    tag_83:\n        /* \"#utility.yul\":371:378   */\n      0x00\n        /* \"#utility.yul\":411:453   */\n      0xffffffffffffffffffffffffffffffffffffffff\n        /* \"#utility.yul\":404:409   */\n      dup3\n        /* \"#utility.yul\":400:454   */\n      and\n        /* \"#utility.yul\":389:454   */\n      swap1\n      pop\n        /* \"#utility.yul\":334:460   */\n      swap2\n      swap1\n      pop\n      jump\t// out\n        /* \"#utility.yul\":466:562   */\n    tag_84:\n        /* \"#utility.yul\":503:510   */\n      0x00\n        /* \"#utility.yul\":532:556   */\n      tag_147\n        /* \"#utility.yul\":550:555   */\n      dup3\n        /* \"#utility.yul\":532:556   */\n      tag_83\n      jump\t// in\n    tag_147:\n        /* \"#utility.yul\":521:556   */\n      swap1\n      pop\n        /* \"#utility.yul\":466:562   */\n      swap2\n      swap1\n      pop\n      jump\t// out\n        /* \"#utility.yul\":568:690   */\n    tag_85:\n        /* \"#utility.yul\":641:665   */\n      tag_149\n        /* \"#utility.yul\":659:664   */\n      dup2\n        /* \"#utility.yul\":641:665   */\n      tag_84\n      jump\t// in\n    tag_149:\n        /* \"#utility.yul\":634:639   */\n      dup2\n        /* \"#utility.yul\":631:666   */\n      eq\n        /* \"#utility.yul\":621:684   */\n      tag_150\n      jumpi\n        /* \"#utility.yul\":680:681   */\n      0x00\n        /* \"#utility.yul\":677:678   */\n      0x00\n        /* \"#utility.yul\":670:682   */\n      revert\n        /* \"#utility.yul\":621:684   */\n    tag_150:\n        /* \"#utility.yul\":568:690   */\n      pop\n      jump\t// out\n        /* \"#utility.yul\":696:835   */\n    tag_86:\n        /* \"#utility.yul\":742:747   */\n      0x00\n        /* \"#utility.yul\":780:786   */\n      dup2\n        /* \"#utility.yul\":767:787   */\n      calldataload\n        /* \"#utility.yul\":758:787   */\n      swap1\n      pop\n        /* \"#utility.yul\":796:829   */\n      tag_152\n        /* \"#utility.yul\":823:828   */\n      dup2\n        /* \"#utility.yul\":796:829   */\n      tag_85\n      jump\t// in\n    tag_152:\n        /* \"#utility.yul\":696:835   */\n      swap3\n      swap2\n      pop\n      pop\n      jump\t// out\n        /* \"#utility.yul\":841:918   */\n    tag_87:\n        /* \"#utility.yul\":878:885   */\n      0x00\n        /* \"#utility.yul\":907:912   */\n      dup2\n        /* \"#utility.yul\":896:912   */\n      swap1\n      pop\n        /* \"#utility.yul\":841:918   */\n      swap2\n      swap1\n      pop\n      jump\t// out\n        /* \"#utility.yul\":924:1046   */\n    tag_88:\n        /* \"#utility.yul\":997:1021   */\n      tag_155\n        /* \"#utility.yul\":1015:1020   */\n      dup2\n        /* \"#utility.yul\":997:1021   */\n      tag_87\n      jump\t// in\n    tag_155:\n        /* \"#utility.yul\":990:995   */\n      dup2\n        /* \"#utility.yul\":987:1022   */\n      eq\n        /* \"#utility.yul\":977:1040   */\n      tag_156\n      jumpi\n        /* \"#utility.yul\":1036:1037   */\n      0x00\n        /* \"#utility.yul\":1033:1034   */\n      0x00\n        /* \"#utility.yul\":1026:1038   */\n      revert\n        /* \"#utility.yul\":977:1040   */\n    tag_156:\n        /* \"#utility.yul\":924:1046   */\n      pop\n      jump\t// out\n        /* \"#utility.yul\":1052:1191   */\n    tag_89:\n        /* \"#utility.yul\":1098:1103   */\n      0x00\n        /* \"#utility.yul\":1136:1142   */\n      dup2\n        /* \"#utility.yul\":1123:1143   */\n      calldataload\n        /* \"#utility.yul\":1114:1143   */\n      swap1\n      pop\n        /* \"#utility.yul\":1152:1185   */\n      tag_158\n        /* \"#utility.yul\":1179:1184   */\n      dup2\n        /* \"#utility.yul\":1152:1185   */\n      tag_88\n      jump\t// in\n    tag_158:\n        /* \"#utility.yul\":1052:1191   */\n      swap3\n      swap2\n      pop\n      pop\n      jump\t// out\n        /* \"#utility.yul\":1197:1671   */\n    tag_11:\n        /* \"#utility.yul\":1265:1271   */\n      0x00\n        /* \"#utility.yul\":1273:1279   */\n      0x00\n        /* \"#utility.yul\":1322:1324   */\n      0x40\n        /* \"#utility.yul\":1310:1319   */\n      dup4\n        /* \"#utility.yul\":1301:1308   */\n      dup6\n        /* \"#utility.yul\":1297:1320   */\n      sub\n        /* \"#utility.yul\":1293:1325   */\n      slt\n        /* \"#utility.yul\":1290:1409   */\n      iszero\n      tag_160\n      jumpi\n        /* \"#utility.yul\":1328:1407   */\n      tag_161\n      tag_81\n      jump\t// in\n    tag_161:\n        /* \"#utility.yul\":1290:1409   */\n    tag_160:\n        /* \"#utility.yul\":1448:1449   */\n      0x00\n        /* \"#utility.yul\":1473:1526   */\n      tag_162\n        /* \"#utility.yul\":1518:1525   */\n      dup6\n        /* \"#utility.yul\":1509:1515   */\n      dup3\n        /* \"#utility.yul\":1498:1507   */\n      dup7\n        /* \"#utility.yul\":1494:1516   */\n      add\n        /* \"#utility.yul\":1473:1526   */\n      tag_86\n      jump\t// in\n    tag_162:\n        /* \"#utility.yul\":1463:1526   */\n      swap3\n      pop\n        /* \"#utility.yul\":1419:1536   */\n      pop\n        /* \"#utility.yul\":1575:1577   */\n      0x20\n        /* \"#utility.yul\":1601:1654   */\n      tag_163\n        /* \"#utility.yul\":1646:1653   */\n      dup6\n        /* \"#utility.yul\":1637:1643   */\n      dup3\n        /* \"#utility.yul\":1626:1635   */\n      dup7\n        /* \"#utility.yul\":1622:1644   */\n      add\n        /* \"#utility.yul\":1601:1654   */\n      tag_89\n      jump\t// in\n    tag_163:\n        /* \"#utility.yul\":1591:1654   */\n      swap2\n      pop\n        /* \"#utility.yul\":1546:1664   */\n      pop\n        /* \"#utility.yul\":1197:1671   */\n      swap3\n      pop\n      swap3\n      swap1\n      pop\n      jump\t// out\n        /* \"#utility.yul\":1677:1795   */\n    tag_90:\n        /* \"#utility.yul\":1764:1788   */\n      tag_165\n        /* \"#utility.yul\":1782:1787   */\n      dup2\n        /* \"#utility.yul\":1764:1788   */\n      tag_84\n      jump\t// in\n    tag_165:\n        /* \"#utility.yul\":1759:1762   */\n      dup3\n        /* \"#utility.yul\":1752:1789   */\n      mstore\n        /* \"#utility.yul\":1677:1795   */\n      pop\n      pop\n      jump\t// out\n        /* \"#utility.yul\":1801:1900   */\n    tag_91:\n        /* \"#utility.yul\":1853:1859   */\n      0x00\n        /* \"#utility.yul\":1887:1892   */\n      dup2\n        /* \"#utility.yul\":1881:1893   */\n      mload\n        /* \"#utility.yul\":1871:1893   */\n      swap1\n      pop\n        /* \"#utility.yul\":1801:1900   */\n      swap2\n      swap1\n      pop\n      jump\t// out\n        /* \"#utility.yul\":1906:2075   */\n    tag_92:\n        /* \"#utility.yul\":1990:2001   */\n      0x00\n        /* \"#utility.yul\":2024:2030   */\n      dup3\n        /* \"#utility.yul\":2019:2022   */\n      dup3\n        /* \"#utility.yul\":2012:2031   */\n      mstore\n        /* \"#utility.yul\":2064:2068   */\n      0x20\n        /* \"#utility.yul\":2059:2062   */\n      dup3\n        /* \"#utility.yul\":2055:2069   */\n      add\n        /* \"#utility.yul\":2040:2069   */\n      swap1\n      pop\n        /* \"#utility.yul\":1906:2075   */\n      swap3\n      swap2\n      pop\n      pop\n      jump\t// out\n        /* \"#utility.yul\":2081:2220   */\n    tag_93:\n        /* \"#utility.yul\":2170:2176   */\n      dup3\n        /* \"#utility.yul\":2165:2168   */\n      dup2\n        /* \"#utility.yul\":2160:2163   */\n      dup4\n        /* \"#utility.yul\":2154:2177   */\n      mcopy\n        /* \"#utility.yul\":2211:2212   */\n      0x00\n        /* \"#utility.yul\":2202:2208   */\n      dup4\n        /* \"#utility.yul\":2197:2200   */\n      dup4\n        /* \"#utility.yul\":2193:2209   */\n      add\n        /* \"#utility.yul\":2186:2213   */\n      mstore\n        /* \"#utility.yul\":2081:2220   */\n      pop\n      pop\n      pop\n      jump\t// out\n        /* \"#utility.yul\":2226:2328   */\n    tag_94:\n        /* \"#utility.yul\":2267:2273   */\n      0x00\n        /* \"#utility.yul\":2318:2320   */\n      0x1f\n        /* \"#utility.yul\":2314:2321   */\n      not\n        /* \"#utility.yul\":2309:2311   */\n      0x1f\n        /* \"#utility.yul\":2302:2307   */\n      dup4\n        /* \"#utility.yul\":2298:2312   */\n      add\n        /* \"#utility.yul\":2294:2322   */\n      and\n        /* \"#utility.yul\":2284:2322   */\n      swap1\n      pop\n        /* \"#utility.yul\":2226:2328   */\n      swap2\n      swap1\n      pop\n      jump\t// out\n        /* \"#utility.yul\":2334:2711   */\n    tag_95:\n        /* \"#utility.yul\":2422:2425   */\n      0x00\n        /* \"#utility.yul\":2450:2489   */\n      tag_171\n        /* \"#utility.yul\":2483:2488   */\n      dup3\n        /* \"#utility.yul\":2450:2489   */\n      tag_91\n      jump\t// in\n    tag_171:\n        /* \"#utility.yul\":2505:2576   */\n      tag_172\n        /* \"#utility.yul\":2569:2575   */\n      dup2\n        /* \"#utility.yul\":2564:2567   */\n      dup6\n        /* \"#utility.yul\":2505:2576   */\n      tag_92\n      jump\t// in\n    tag_172:\n        /* \"#utility.yul\":2498:2576   */\n      swap4\n      pop\n        /* \"#utility.yul\":2585:2650   */\n      tag_173\n        /* \"#utility.yul\":2643:2649   */\n      dup2\n        /* \"#utility.yul\":2638:2641   */\n      dup6\n        /* \"#utility.yul\":2631:2635   */\n      0x20\n        /* \"#utility.yul\":2624:2629   */\n      dup7\n        /* \"#utility.yul\":2620:2636   */\n      add\n        /* \"#utility.yul\":2585:2650   */\n      tag_93\n      jump\t// in\n    tag_173:\n        /* \"#utility.yul\":2675:2704   */\n      tag_174\n        /* \"#utility.yul\":2697:2703   */\n      dup2\n        /* \"#utility.yul\":2675:2704   */\n      tag_94\n      jump\t// in\n    tag_174:\n        /* \"#utility.yul\":2670:2673   */\n      dup5\n        /* \"#utility.yul\":2666:2705   */\n      add\n        /* \"#utility.yul\":2659:2705   */\n      swap2\n      pop\n        /* \"#utility.yul\":2426:2711   */\n      pop\n        /* \"#utility.yul\":2334:2711   */\n      swap3\n      swap2\n      pop\n      pop\n      jump\t// out\n        /* \"#utility.yul\":2717:2835   */\n    tag_96:\n        /* \"#utility.yul\":2804:2828   */\n      tag_176\n        /* \"#utility.yul\":2822:2827   */\n      dup2\n        /* \"#utility.yul\":2804:2828   */\n      tag_87\n      jump\t// in\n    tag_176:\n        /* \"#utility.yul\":2799:2802   */\n      dup3\n        /* \"#utility.yul\":2792:2829   */\n      mstore\n        /* \"#utility.yul\":2717:2835   */\n      pop\n      pop\n      jump\t// out\n        /* \"#utility.yul\":2841:3485   */\n    tag_14:\n        /* \"#utility.yul\":3038:3042   */\n      0x00\n        /* \"#utility.yul\":3076:3079   */\n      0x80\n        /* \"#utility.yul\":3065:3074   */\n      dup3\n        /* \"#utility.yul\":3061:3080   */\n      add\n        /* \"#utility.yul\":3053:3080   */\n      swap1\n      pop\n        /* \"#utility.yul\":3090:3161   */\n      tag_178\n        /* \"#utility.yul\":3158:3159   */\n      0x00\n        /* \"#utility.yul\":3147:3156   */\n      dup4\n        /* \"#utility.yul\":3143:3160   */\n      add\n        /* \"#utility.yul\":3134:3140   */\n      dup8\n        /* \"#utility.yul\":3090:3161   */\n      tag_90\n      jump\t// in\n    tag_178:\n        /* \"#utility.yul\":3208:3217   */\n      dup2\n        /* \"#utility.yul\":3202:3206   */\n      dup2\n        /* \"#utility.yul\":3198:3218   */\n      sub\n        /* \"#utility.yul\":3193:3195   */\n      0x20\n        /* \"#utility.yul\":3182:3191   */\n      dup4\n        /* \"#utility.yul\":3178:3196   */\n      add\n        /* \"#utility.yul\":3171:3219   */\n      mstore\n        /* \"#utility.yul\":3236:3314   */\n      tag_179\n        /* \"#utility.yul\":3309:3313   */\n      dup2\n        /* \"#utility.yul\":3300:3306   */\n      dup7\n        /* \"#utility.yul\":3236:3314   */\n      tag_95\n      jump\t// in\n    tag_179:\n        /* \"#utility.yul\":3228:3314   */\n      swap1\n      pop\n        /* \"#utility.yul\":3324:3396   */\n      tag_180\n        /* \"#utility.yul\":3392:3394   */\n      0x40\n        /* \"#utility.yul\":3381:3390   */\n      dup4\n        /* \"#utility.yul\":3377:3395   */\n      add\n        /* \"#utility.yul\":3368:3374   */\n      dup6\n        /* \"#utility.yul\":3324:3396   */\n      tag_96\n      jump\t// in\n    tag_180:\n        /* \"#utility.yul\":3406:3478   */\n      tag_181\n        /* \"#utility.yul\":3474:3476   */\n      0x60\n        /* \"#utility.yul\":3463:3472   */\n      dup4\n        /* \"#utility.yul\":3459:3477   */\n      add\n        /* \"#utility.yul\":3450:3456   */\n      dup5\n        /* \"#utility.yul\":3406:3478   */\n      tag_96\n      jump\t// in\n    tag_181:\n        /* \"#utility.yul\":2841:3485   */\n      swap6\n      swap5\n      pop\n      pop\n      pop\n      pop\n      pop\n      jump\t// out\n        /* \"#utility.yul\":3491:3820   */\n    tag_17:\n        /* \"#utility.yul\":3550:3556   */\n      0x00\n        /* \"#utility.yul\":3599:3601   */\n      0x20\n        /* \"#utility.yul\":3587:3596   */\n      dup3\n        /* \"#utility.yul\":3578:3585   */\n      dup5\n        /* \"#utility.yul\":3574:3597   */\n      sub\n        /* \"#utility.yul\":3570:3602   */\n      slt\n        /* \"#utility.yul\":3567:3686   */\n      iszero\n      tag_183\n      jumpi\n        /* \"#utility.yul\":3605:3684   */\n      tag_184\n      tag_81\n      jump\t// in\n    tag_184:\n        /* \"#utility.yul\":3567:3686   */\n    tag_183:\n        /* \"#utility.yul\":3725:3726   */\n      0x00\n        /* \"#utility.yul\":3750:3803   */\n      tag_185\n        /* \"#utility.yul\":3795:3802   */\n      dup5\n        /* \"#utility.yul\":3786:3792   */\n      dup3\n        /* \"#utility.yul\":3775:3784   */\n      dup6\n        /* \"#utility.yul\":3771:3793   */\n      add\n        /* \"#utility.yul\":3750:3803   */\n      tag_86\n      jump\t// in\n    tag_185:\n        /* \"#utility.yul\":3740:3803   */\n      swap2\n      pop\n        /* \"#utility.yul\":3696:3813   */\n      pop\n        /* \"#utility.yul\":3491:3820   */\n      swap3\n      swap2\n      pop\n      pop\n      jump\t// out\n        /* \"#utility.yul\":3826:3961   */\n    tag_97:\n        /* \"#utility.yul\":3914:3920   */\n      0x00\n        /* \"#utility.yul\":3948:3953   */\n      dup2\n        /* \"#utility.yul\":3942:3954   */\n      mload\n        /* \"#utility.yul\":3932:3954   */\n      swap1\n      pop\n        /* \"#utility.yul\":3826:3961   */\n      swap2\n      swap1\n      pop\n      jump\t// out\n        /* \"#utility.yul\":3967:4172   */\n    tag_98:\n        /* \"#utility.yul\":4087:4098   */\n      0x00\n        /* \"#utility.yul\":4121:4127   */\n      dup3\n        /* \"#utility.yul\":4116:4119   */\n      dup3\n        /* \"#utility.yul\":4109:4128   */\n      mstore\n        /* \"#utility.yul\":4161:4165   */\n      0x20\n        /* \"#utility.yul\":4156:4159   */\n      dup3\n        /* \"#utility.yul\":4152:4166   */\n      add\n        /* \"#utility.yul\":4137:4166   */\n      swap1\n      pop\n        /* \"#utility.yul\":3967:4172   */\n      swap3\n      swap2\n      pop\n      pop\n      jump\t// out\n        /* \"#utility.yul\":4178:4331   */\n    tag_99:\n        /* \"#utility.yul\":4266:4270   */\n      0x00\n        /* \"#utility.yul\":4289:4292   */\n      dup2\n        /* \"#utility.yul\":4281:4292   */\n      swap1\n      pop\n        /* \"#utility.yul\":4319:4323   */\n      0x20\n        /* \"#utility.yul\":4314:4317   */\n      dup3\n        /* \"#utility.yul\":4310:4324   */\n      add\n        /* \"#utility.yul\":4302:4324   */\n      swap1\n      pop\n        /* \"#utility.yul\":4178:4331   */\n      swap2\n      swap1\n      pop\n      jump\t// out\n        /* \"#utility.yul\":4337:4445   */\n    tag_100:\n        /* \"#utility.yul\":4414:4438   */\n      tag_190\n        /* \"#utility.yul\":4432:4437   */\n      dup2\n        /* \"#utility.yul\":4414:4438   */\n      tag_84\n      jump\t// in\n    tag_190:\n        /* \"#utility.yul\":4409:4412   */\n      dup3\n        /* \"#utility.yul\":4402:4439   */\n      mstore\n        /* \"#utility.yul\":4337:4445   */\n      pop\n      pop\n      jump\t// out\n        /* \"#utility.yul\":4451:4610   */\n    tag_101:\n        /* \"#utility.yul\":4525:4536   */\n      0x00\n        /* \"#utility.yul\":4559:4565   */\n      dup3\n        /* \"#utility.yul\":4554:4557   */\n      dup3\n        /* \"#utility.yul\":4547:4566   */\n      mstore\n        /* \"#utility.yul\":4599:4603   */\n      0x20\n        /* \"#utility.yul\":4594:4597   */\n      dup3\n        /* \"#utility.yul\":4590:4604   */\n      add\n        /* \"#utility.yul\":4575:4604   */\n      swap1\n      pop\n        /* \"#utility.yul\":4451:4610   */\n      swap3\n      swap2\n      pop\n      pop\n      jump\t// out\n        /* \"#utility.yul\":4616:4973   */\n    tag_102:\n        /* \"#utility.yul\":4694:4697   */\n      0x00\n        /* \"#utility.yul\":4722:4761   */\n      tag_193\n        /* \"#utility.yul\":4755:4760   */\n      dup3\n        /* \"#utility.yul\":4722:4761   */\n      tag_91\n      jump\t// in\n    tag_193:\n        /* \"#utility.yul\":4777:4838   */\n      tag_194\n        /* \"#utility.yul\":4831:4837   */\n      dup2\n        /* \"#utility.yul\":4826:4829   */\n      dup6\n        /* \"#utility.yul\":4777:4838   */\n      tag_101\n      jump\t// in\n    tag_194:\n        /* \"#utility.yul\":4770:4838   */\n      swap4\n      pop\n        /* \"#utility.yul\":4847:4912   */\n      tag_195\n        /* \"#utility.yul\":4905:4911   */\n      dup2\n        /* \"#utility.yul\":4900:4903   */\n      dup6\n        /* \"#utility.yul\":4893:4897   */\n      0x20\n        /* \"#utility.yul\":4886:4891   */\n      dup7\n        /* \"#utility.yul\":4882:4898   */\n      add\n        /* \"#utility.yul\":4847:4912   */\n      tag_93\n      jump\t// in\n    tag_195:\n        /* \"#utility.yul\":4937:4966   */\n      tag_196\n        /* \"#utility.yul\":4959:4965   */\n      dup2\n        /* \"#utility.yul\":4937:4966   */\n      tag_94\n      jump\t// in\n    tag_196:\n        /* \"#utility.yul\":4932:4935   */\n      dup5\n        /* \"#utility.yul\":4928:4967   */\n      add\n        /* \"#utility.yul\":4921:4967   */\n      swap2\n      pop\n        /* \"#utility.yul\":4698:4973   */\n      pop\n        /* \"#utility.yul\":4616:4973   */\n      swap3\n      swap2\n      pop\n      pop\n      jump\t// out\n        /* \"#utility.yul\":4979:5087   */\n    tag_103:\n        /* \"#utility.yul\":5056:5080   */\n      tag_198\n        /* \"#utility.yul\":5074:5079   */\n      dup2\n        /* \"#utility.yul\":5056:5080   */\n      tag_87\n      jump\t// in\n    tag_198:\n        /* \"#utility.yul\":5051:5054   */\n      dup3\n        /* \"#utility.yul\":5044:5081   */\n      mstore\n        /* \"#utility.yul\":4979:5087   */\n      pop\n      pop\n      jump\t// out\n        /* \"#utility.yul\":5145:6092   */\n    tag_104:\n        /* \"#utility.yul\":5246:5249   */\n      0x00\n        /* \"#utility.yul\":5282:5286   */\n      0x80\n        /* \"#utility.yul\":5277:5280   */\n      dup4\n        /* \"#utility.yul\":5273:5287   */\n      add\n        /* \"#utility.yul\":5371:5375   */\n      0x00\n        /* \"#utility.yul\":5364:5369   */\n      dup4\n        /* \"#utility.yul\":5360:5376   */\n      add\n        /* \"#utility.yul\":5354:5377   */\n      mload\n        /* \"#utility.yul\":5390:5453   */\n      tag_200\n        /* \"#utility.yul\":5447:5451   */\n      0x00\n        /* \"#utility.yul\":5442:5445   */\n      dup7\n        /* \"#utility.yul\":5438:5452   */\n      add\n        /* \"#utility.yul\":5424:5436   */\n      dup3\n        /* \"#utility.yul\":5390:5453   */\n      tag_100\n      jump\t// in\n    tag_200:\n        /* \"#utility.yul\":5297:5463   */\n      pop\n        /* \"#utility.yul\":5548:5552   */\n      0x20\n        /* \"#utility.yul\":5541:5546   */\n      dup4\n        /* \"#utility.yul\":5537:5553   */\n      add\n        /* \"#utility.yul\":5531:5554   */\n      mload\n        /* \"#utility.yul\":5601:5604   */\n      dup5\n        /* \"#utility.yul\":5595:5599   */\n      dup3\n        /* \"#utility.yul\":5591:5605   */\n      sub\n        /* \"#utility.yul\":5584:5588   */\n      0x20\n        /* \"#utility.yul\":5579:5582   */\n      dup7\n        /* \"#utility.yul\":5575:5589   */\n      add\n        /* \"#utility.yul\":5568:5606   */\n      mstore\n        /* \"#utility.yul\":5627:5700   */\n      tag_201\n        /* \"#utility.yul\":5695:5699   */\n      dup3\n        /* \"#utility.yul\":5681:5693   */\n      dup3\n        /* \"#utility.yul\":5627:5700   */\n      tag_102\n      jump\t// in\n    tag_201:\n        /* \"#utility.yul\":5619:5700   */\n      swap2\n      pop\n        /* \"#utility.yul\":5473:5711   */\n      pop\n        /* \"#utility.yul\":5798:5802   */\n      0x40\n        /* \"#utility.yul\":5791:5796   */\n      dup4\n        /* \"#utility.yul\":5787:5803   */\n      add\n        /* \"#utility.yul\":5781:5804   */\n      mload\n        /* \"#utility.yul\":5817:5880   */\n      tag_202\n        /* \"#utility.yul\":5874:5878   */\n      0x40\n        /* \"#utility.yul\":5869:5872   */\n      dup7\n        /* \"#utility.yul\":5865:5879   */\n      add\n        /* \"#utility.yul\":5851:5863   */\n      dup3\n        /* \"#utility.yul\":5817:5880   */\n      tag_103\n      jump\t// in\n    tag_202:\n        /* \"#utility.yul\":5721:5890   */\n      pop\n        /* \"#utility.yul\":5973:5977   */\n      0x60\n        /* \"#utility.yul\":5966:5971   */\n      dup4\n        /* \"#utility.yul\":5962:5978   */\n      add\n        /* \"#utility.yul\":5956:5979   */\n      mload\n        /* \"#utility.yul\":5992:6055   */\n      tag_203\n        /* \"#utility.yul\":6049:6053   */\n      0x60\n        /* \"#utility.yul\":6044:6047   */\n      dup7\n        /* \"#utility.yul\":6040:6054   */\n      add\n        /* \"#utility.yul\":6026:6038   */\n      dup3\n        /* \"#utility.yul\":5992:6055   */\n      tag_103\n      jump\t// in\n    tag_203:\n        /* \"#utility.yul\":5900:6065   */\n      pop\n        /* \"#utility.yul\":6082:6086   */\n      dup1\n        /* \"#utility.yul\":6075:6086   */\n      swap2\n      pop\n        /* \"#utility.yul\":5251:6092   */\n      pop\n        /* \"#utility.yul\":5145:6092   */\n      swap3\n      swap2\n      pop\n      pop\n      jump\t// out\n        /* \"#utility.yul\":6098:6338   */\n    tag_105:\n        /* \"#utility.yul\":6209:6219   */\n      0x00\n        /* \"#utility.yul\":6244:6332   */\n      tag_205\n        /* \"#utility.yul\":6328:6331   */\n      dup4\n        /* \"#utility.yul\":6320:6326   */\n      dup4\n        /* \"#utility.yul\":6244:6332   */\n      tag_104\n      jump\t// in\n    tag_205:\n        /* \"#utility.yul\":6230:6332   */\n      swap1\n      pop\n        /* \"#utility.yul\":6098:6338   */\n      swap3\n      swap2\n      pop\n      pop\n      jump\t// out\n        /* \"#utility.yul\":6344:6478   */\n    tag_106:\n        /* \"#utility.yul\":6435:6439   */\n      0x00\n        /* \"#utility.yul\":6467:6471   */\n      0x20\n        /* \"#utility.yul\":6462:6465   */\n      dup3\n        /* \"#utility.yul\":6458:6472   */\n      add\n        /* \"#utility.yul\":6450:6472   */\n      swap1\n      pop\n        /* \"#utility.yul\":6344:6478   */\n      swap2\n      swap1\n      pop\n      jump\t// out\n        /* \"#utility.yul\":6540:7619   */\n    tag_107:\n        /* \"#utility.yul\":6701:6704   */\n      0x00\n        /* \"#utility.yul\":6730:6805   */\n      tag_208\n        /* \"#utility.yul\":6799:6804   */\n      dup3\n        /* \"#utility.yul\":6730:6805   */\n      tag_97\n      jump\t// in\n    tag_208:\n        /* \"#utility.yul\":6821:6928   */\n      tag_209\n        /* \"#utility.yul\":6921:6927   */\n      dup2\n        /* \"#utility.yul\":6916:6919   */\n      dup6\n        /* \"#utility.yul\":6821:6928   */\n      tag_98\n      jump\t// in\n    tag_209:\n        /* \"#utility.yul\":6814:6928   */\n      swap4\n      pop\n        /* \"#utility.yul\":6954:6957   */\n      dup4\n        /* \"#utility.yul\":6999:7003   */\n      0x20\n        /* \"#utility.yul\":6991:6997   */\n      dup3\n        /* \"#utility.yul\":6987:7004   */\n      mul\n        /* \"#utility.yul\":6982:6985   */\n      dup6\n        /* \"#utility.yul\":6978:7005   */\n      add\n        /* \"#utility.yul\":7029:7106   */\n      tag_210\n        /* \"#utility.yul\":7100:7105   */\n      dup6\n        /* \"#utility.yul\":7029:7106   */\n      tag_99\n      jump\t// in\n    tag_210:\n        /* \"#utility.yul\":7129:7136   */\n      dup1\n        /* \"#utility.yul\":7160:7161   */\n      0x00\n        /* \"#utility.yul\":7145:7574   */\n    tag_211:\n        /* \"#utility.yul\":7170:7176   */\n      dup6\n        /* \"#utility.yul\":7167:7168   */\n      dup2\n        /* \"#utility.yul\":7164:7177   */\n      lt\n        /* \"#utility.yul\":7145:7574   */\n      iszero\n      tag_213\n      jumpi\n        /* \"#utility.yul\":7241:7250   */\n      dup5\n        /* \"#utility.yul\":7235:7239   */\n      dup5\n        /* \"#utility.yul\":7231:7251   */\n      sub\n        /* \"#utility.yul\":7226:7229   */\n      dup10\n        /* \"#utility.yul\":7219:7252   */\n      mstore\n        /* \"#utility.yul\":7292:7298   */\n      dup2\n        /* \"#utility.yul\":7286:7299   */\n      mload\n        /* \"#utility.yul\":7320:7426   */\n      tag_214\n        /* \"#utility.yul\":7421:7425   */\n      dup6\n        /* \"#utility.yul\":7406:7419   */\n      dup3\n        /* \"#utility.yul\":7320:7426   */\n      tag_105\n      jump\t// in\n    tag_214:\n        /* \"#utility.yul\":7312:7426   */\n      swap5\n      pop\n        /* \"#utility.yul\":7449:7530   */\n      tag_215\n        /* \"#utility.yul\":7523:7529   */\n      dup4\n        /* \"#utility.yul\":7449:7530   */\n      tag_106\n      jump\t// in\n    tag_215:\n        /* \"#utility.yul\":7439:7530   */\n      swap3\n      pop\n        /* \"#utility.yul\":7559:7563   */\n      0x20\n        /* \"#utility.yul\":7554:7557   */\n      dup11\n        /* \"#utility.yul\":7550:7564   */\n      add\n        /* \"#utility.yul\":7543:7564   */\n      swap10\n      pop\n        /* \"#utility.yul\":7205:7574   */\n      pop\n        /* \"#utility.yul\":7192:7193   */\n      0x01\n        /* \"#utility.yul\":7189:7190   */\n      dup2\n        /* \"#utility.yul\":7185:7194   */\n      add\n        /* \"#utility.yul\":7180:7194   */\n      swap1\n      pop\n        /* \"#utility.yul\":7145:7574   */\n      jump(tag_211)\n    tag_213:\n        /* \"#utility.yul\":7149:7163   */\n      pop\n        /* \"#utility.yul\":7590:7594   */\n      dup3\n        /* \"#utility.yul\":7583:7594   */\n      swap8\n      pop\n        /* \"#utility.yul\":7610:7613   */\n      dup8\n        /* \"#utility.yul\":7603:7613   */\n      swap6\n      pop\n        /* \"#utility.yul\":6706:7619   */\n      pop\n      pop\n      pop\n      pop\n      pop\n        /* \"#utility.yul\":6540:7619   */\n      swap3\n      swap2\n      pop\n      pop\n      jump\t// out\n        /* \"#utility.yul\":7625:8082   */\n    tag_20:\n        /* \"#utility.yul\":7810:7814   */\n      0x00\n        /* \"#utility.yul\":7848:7850   */\n      0x20\n        /* \"#utility.yul\":7837:7846   */\n      dup3\n        /* \"#utility.yul\":7833:7851   */\n      add\n        /* \"#utility.yul\":7825:7851   */\n      swap1\n      pop\n        /* \"#utility.yul\":7897:7906   */\n      dup2\n        /* \"#utility.yul\":7891:7895   */\n      dup2\n        /* \"#utility.yul\":7887:7907   */\n      sub\n        /* \"#utility.yul\":7883:7884   */\n      0x00\n        /* \"#utility.yul\":7872:7881   */\n      dup4\n        /* \"#utility.yul\":7868:7885   */\n      add\n        /* \"#utility.yul\":7861:7908   */\n      mstore\n        /* \"#utility.yul\":7925:8075   */\n      tag_217\n        /* \"#utility.yul\":8070:8074   */\n      dup2\n        /* \"#utility.yul\":8061:8067   */\n      dup5\n        /* \"#utility.yul\":7925:8075   */\n      tag_107\n      jump\t// in\n    tag_217:\n        /* \"#utility.yul\":7917:8075   */\n      swap1\n      pop\n        /* \"#utility.yul\":7625:8082   */\n      swap3\n      swap2\n      pop\n      pop\n      jump\t// out\n        /* \"#utility.yul\":8088:8177   */\n    tag_108:\n        /* \"#utility.yul\":8124:8131   */\n      0x00\n        /* \"#utility.yul\":8164:8170   */\n      0xffff\n        /* \"#utility.yul\":8157:8162   */\n      dup3\n        /* \"#utility.yul\":8153:8171   */\n      and\n        /* \"#utility.yul\":8142:8171   */\n      swap1\n      pop\n        /* \"#utility.yul\":8088:8177   */\n      swap2\n      swap1\n      pop\n      jump\t// out\n        /* \"#utility.yul\":8183:8303   */\n    tag_109:\n        /* \"#utility.yul\":8255:8278   */\n      tag_220\n        /* \"#utility.yul\":8272:8277   */\n      dup2\n        /* \"#utility.yul\":8255:8278   */\n      tag_108\n      jump\t// in\n    tag_220:\n        /* \"#utility.yul\":8248:8253   */\n      dup2\n        /* \"#utility.yul\":8245:8279   */\n      eq\n        /* \"#utility.yul\":8235:8297   */\n      tag_221\n      jumpi\n        /* \"#utility.yul\":8293:8294   */\n      0x00\n        /* \"#utility.yul\":8290:8291   */\n      0x00\n        /* \"#utility.yul\":8283:8295   */\n      revert\n        /* \"#utility.yul\":8235:8297   */\n    tag_221:\n        /* \"#utility.yul\":8183:8303   */\n      pop\n      jump\t// out\n        /* \"#utility.yul\":8309:8446   */\n    tag_110:\n        /* \"#utility.yul\":8354:8359   */\n      0x00\n        /* \"#utility.yul\":8392:8398   */\n      dup2\n        /* \"#utility.yul\":8379:8399   */\n      calldataload\n        /* \"#utility.yul\":8370:8399   */\n      swap1\n      pop\n        /* \"#utility.yul\":8408:8440   */\n      tag_223\n        /* \"#utility.yul\":8434:8439   */\n      dup2\n        /* \"#utility.yul\":8408:8440   */\n      tag_109\n      jump\t// in\n    tag_223:\n        /* \"#utility.yul\":8309:8446   */\n      swap3\n      swap2\n      pop\n      pop\n      jump\t// out\n        /* \"#utility.yul\":8452:8779   */\n    tag_23:\n        /* \"#utility.yul\":8510:8516   */\n      0x00\n        /* \"#utility.yul\":8559:8561   */\n      0x20\n        /* \"#utility.yul\":8547:8556   */\n      dup3\n        /* \"#utility.yul\":8538:8545   */\n      dup5\n        /* \"#utility.yul\":8534:8557   */\n      sub\n        /* \"#utility.yul\":8530:8562   */\n      slt\n        /* \"#utility.yul\":8527:8646   */\n      iszero\n      tag_225\n      jumpi\n        /* \"#utility.yul\":8565:8644   */\n      tag_226\n      tag_81\n      jump\t// in\n    tag_226:\n        /* \"#utility.yul\":8527:8646   */\n    tag_225:\n        /* \"#utility.yul\":8685:8686   */\n      0x00\n        /* \"#utility.yul\":8710:8762   */\n      tag_227\n        /* \"#utility.yul\":8754:8761   */\n      dup5\n        /* \"#utility.yul\":8745:8751   */\n      dup3\n        /* \"#utility.yul\":8734:8743   */\n      dup6\n        /* \"#utility.yul\":8730:8752   */\n      add\n        /* \"#utility.yul\":8710:8762   */\n      tag_110\n      jump\t// in\n    tag_227:\n        /* \"#utility.yul\":8700:8762   */\n      swap2\n      pop\n        /* \"#utility.yul\":8656:8772   */\n      pop\n        /* \"#utility.yul\":8452:8779   */\n      swap3\n      swap2\n      pop\n      pop\n      jump\t// out\n        /* \"#utility.yul\":8785:8902   */\n    tag_111:\n        /* \"#utility.yul\":8894:8895   */\n      0x00\n        /* \"#utility.yul\":8891:8892   */\n      0x00\n        /* \"#utility.yul\":8884:8896   */\n      revert\n        /* \"#utility.yul\":8908:9025   */\n    tag_112:\n        /* \"#utility.yul\":9017:9018   */\n      0x00\n        /* \"#utility.yul\":9014:9015   */\n      0x00\n        /* \"#utility.yul\":9007:9019   */\n      revert\n        /* \"#utility.yul\":9031:9211   */\n    tag_113:\n        /* \"#utility.yul\":9079:9156   */\n      0x4e487b7100000000000000000000000000000000000000000000000000000000\n        /* \"#utility.yul\":9076:9077   */\n      0x00\n        /* \"#utility.yul\":9069:9157   */\n      mstore\n        /* \"#utility.yul\":9176:9180   */\n      0x41\n        /* \"#utility.yul\":9173:9174   */\n      0x04\n        /* \"#utility.yul\":9166:9181   */\n      mstore\n        /* \"#utility.yul\":9200:9204   */\n      0x24\n        /* \"#utility.yul\":9197:9198   */\n      0x00\n        /* \"#utility.yul\":9190:9205   */\n      revert\n        /* \"#utility.yul\":9217:9498   */\n    tag_114:\n        /* \"#utility.yul\":9300:9327   */\n      tag_232\n        /* \"#utility.yul\":9322:9326   */\n      dup3\n        /* \"#utility.yul\":9300:9327   */\n      tag_94\n      jump\t// in\n    tag_232:\n        /* \"#utility.yul\":9292:9298   */\n      dup2\n        /* \"#utility.yul\":9288:9328   */\n      add\n        /* \"#utility.yul\":9430:9436   */\n      dup2\n        /* \"#utility.yul\":9418:9428   */\n      dup2\n        /* \"#utility.yul\":9415:9437   */\n      lt\n        /* \"#utility.yul\":9394:9412   */\n      0xffffffffffffffff\n        /* \"#utility.yul\":9382:9392   */\n      dup3\n        /* \"#utility.yul\":9379:9413   */\n      gt\n        /* \"#utility.yul\":9376:9438   */\n      or\n        /* \"#utility.yul\":9373:9461   */\n      iszero\n      tag_233\n      jumpi\n        /* \"#utility.yul\":9441:9459   */\n      tag_234\n      tag_113\n      jump\t// in\n    tag_234:\n        /* \"#utility.yul\":9373:9461   */\n    tag_233:\n        /* \"#utility.yul\":9481:9491   */\n      dup1\n        /* \"#utility.yul\":9477:9479   */\n      0x40\n        /* \"#utility.yul\":9470:9492   */\n      mstore\n        /* \"#utility.yul\":9260:9498   */\n      pop\n        /* \"#utility.yul\":9217:9498   */\n      pop\n      pop\n      jump\t// out\n        /* \"#utility.yul\":9504:9633   */\n    tag_115:\n        /* \"#utility.yul\":9538:9544   */\n      0x00\n        /* \"#utility.yul\":9565:9585   */\n      tag_236\n      tag_80\n      jump\t// in\n    tag_236:\n        /* \"#utility.yul\":9555:9585   */\n      swap1\n      pop\n        /* \"#utility.yul\":9594:9627   */\n      tag_237\n        /* \"#utility.yul\":9622:9626   */\n      dup3\n        /* \"#utility.yul\":9614:9620   */\n      dup3\n        /* \"#utility.yul\":9594:9627   */\n      tag_114\n      jump\t// in\n    tag_237:\n        /* \"#utility.yul\":9504:9633   */\n      swap2\n      swap1\n      pop\n      jump\t// out\n        /* \"#utility.yul\":9639:9947   */\n    tag_116:\n        /* \"#utility.yul\":9701:9705   */\n      0x00\n        /* \"#utility.yul\":9791:9809   */\n      0xffffffffffffffff\n        /* \"#utility.yul\":9783:9789   */\n      dup3\n        /* \"#utility.yul\":9780:9810   */\n      gt\n        /* \"#utility.yul\":9777:9833   */\n      iszero\n      tag_239\n      jumpi\n        /* \"#utility.yul\":9813:9831   */\n      tag_240\n      tag_113\n      jump\t// in\n    tag_240:\n        /* \"#utility.yul\":9777:9833   */\n    tag_239:\n        /* \"#utility.yul\":9851:9880   */\n      tag_241\n        /* \"#utility.yul\":9873:9879   */\n      dup3\n        /* \"#utility.yul\":9851:9880   */\n      tag_94\n      jump\t// in\n    tag_241:\n        /* \"#utility.yul\":9843:9880   */\n      swap1\n      pop\n        /* \"#utility.yul\":9935:9939   */\n      0x20\n        /* \"#utility.yul\":9929:9933   */\n      dup2\n        /* \"#utility.yul\":9925:9940   */\n      add\n        /* \"#utility.yul\":9917:9940   */\n      swap1\n      pop\n        /* \"#utility.yul\":9639:9947   */\n      swap2\n      swap1\n      pop\n      jump\t// out\n        /* \"#utility.yul\":9953:10101   */\n    tag_117:\n        /* \"#utility.yul\":10051:10057   */\n      dup3\n        /* \"#utility.yul\":10046:10049   */\n      dup2\n        /* \"#utility.yul\":10041:10044   */\n      dup4\n        /* \"#utility.yul\":10028:10058   */\n      calldatacopy\n        /* \"#utility.yul\":10092:10093   */\n      0x00\n        /* \"#utility.yul\":10083:10089   */\n      dup4\n        /* \"#utility.yul\":10078:10081   */\n      dup4\n        /* \"#utility.yul\":10074:10090   */\n      add\n        /* \"#utility.yul\":10067:10094   */\n      mstore\n        /* \"#utility.yul\":9953:10101   */\n      pop\n      pop\n      pop\n      jump\t// out\n        /* \"#utility.yul\":10107:10532   */\n    tag_118:\n        /* \"#utility.yul\":10185:10190   */\n      0x00\n        /* \"#utility.yul\":10210:10276   */\n      tag_244\n        /* \"#utility.yul\":10226:10275   */\n      tag_245\n        /* \"#utility.yul\":10268:10274   */\n      dup5\n        /* \"#utility.yul\":10226:10275   */\n      tag_116\n      jump\t// in\n    tag_245:\n        /* \"#utility.yul\":10210:10276   */\n      tag_115\n      jump\t// in\n    tag_244:\n        /* \"#utility.yul\":10201:10276   */\n      swap1\n      pop\n        /* \"#utility.yul\":10299:10305   */\n      dup3\n        /* \"#utility.yul\":10292:10297   */\n      dup2\n        /* \"#utility.yul\":10285:10306   */\n      mstore\n        /* \"#utility.yul\":10337:10341   */\n      0x20\n        /* \"#utility.yul\":10330:10335   */\n      dup2\n        /* \"#utility.yul\":10326:10342   */\n      add\n        /* \"#utility.yul\":10375:10378   */\n      dup5\n        /* \"#utility.yul\":10366:10372   */\n      dup5\n        /* \"#utility.yul\":10361:10364   */\n      dup5\n        /* \"#utility.yul\":10357:10373   */\n      add\n        /* \"#utility.yul\":10354:10379   */\n      gt\n        /* \"#utility.yul\":10351:10463   */\n      iszero\n      tag_246\n      jumpi\n        /* \"#utility.yul\":10382:10461   */\n      tag_247\n      tag_112\n      jump\t// in\n    tag_247:\n        /* \"#utility.yul\":10351:10463   */\n    tag_246:\n        /* \"#utility.yul\":10472:10526   */\n      tag_248\n        /* \"#utility.yul\":10519:10525   */\n      dup5\n        /* \"#utility.yul\":10514:10517   */\n      dup3\n        /* \"#utility.yul\":10509:10512   */\n      dup6\n        /* \"#utility.yul\":10472:10526   */\n      tag_117\n      jump\t// in\n    tag_248:\n        /* \"#utility.yul\":10191:10532   */\n      pop\n        /* \"#utility.yul\":10107:10532   */\n      swap4\n      swap3\n      pop\n      pop\n      pop\n      jump\t// out\n        /* \"#utility.yul\":10552:10892   */\n    tag_119:\n        /* \"#utility.yul\":10608:10613   */\n      0x00\n        /* \"#utility.yul\":10657:10660   */\n      dup3\n        /* \"#utility.yul\":10650:10654   */\n      0x1f\n        /* \"#utility.yul\":10642:10648   */\n      dup4\n        /* \"#utility.yul\":10638:10655   */\n      add\n        /* \"#utility.yul\":10634:10661   */\n      slt\n        /* \"#utility.yul\":10624:10746   */\n      tag_250\n      jumpi\n        /* \"#utility.yul\":10665:10744   */\n      tag_251\n      tag_111\n      jump\t// in\n    tag_251:\n        /* \"#utility.yul\":10624:10746   */\n    tag_250:\n        /* \"#utility.yul\":10782:10788   */\n      dup2\n        /* \"#utility.yul\":10769:10789   */\n      calldataload\n        /* \"#utility.yul\":10807:10886   */\n      tag_252\n        /* \"#utility.yul\":10882:10885   */\n      dup5\n        /* \"#utility.yul\":10874:10880   */\n      dup3\n        /* \"#utility.yul\":10867:10871   */\n      0x20\n        /* \"#utility.yul\":10859:10865   */\n      dup7\n        /* \"#utility.yul\":10855:10872   */\n      add\n        /* \"#utility.yul\":10807:10886   */\n      tag_118\n      jump\t// in\n    tag_252:\n        /* \"#utility.yul\":10798:10886   */\n      swap2\n      pop\n        /* \"#utility.yul\":10614:10892   */\n      pop\n        /* \"#utility.yul\":10552:10892   */\n      swap3\n      swap2\n      pop\n      pop\n      jump\t// out\n        /* \"#utility.yul\":10898:11407   */\n    tag_27:\n        /* \"#utility.yul\":10967:10973   */\n      0x00\n        /* \"#utility.yul\":11016:11018   */\n      0x20\n        /* \"#utility.yul\":11004:11013   */\n      dup3\n        /* \"#utility.yul\":10995:11002   */\n      dup5\n        /* \"#utility.yul\":10991:11014   */\n      sub\n        /* \"#utility.yul\":10987:11019   */\n      slt\n        /* \"#utility.yul\":10984:11103   */\n      iszero\n      tag_254\n      jumpi\n        /* \"#utility.yul\":11022:11101   */\n      tag_255\n      tag_81\n      jump\t// in\n    tag_255:\n        /* \"#utility.yul\":10984:11103   */\n    tag_254:\n        /* \"#utility.yul\":11170:11171   */\n      0x00\n        /* \"#utility.yul\":11159:11168   */\n      dup3\n        /* \"#utility.yul\":11155:11172   */\n      add\n        /* \"#utility.yul\":11142:11173   */\n      calldataload\n        /* \"#utility.yul\":11200:11218   */\n      0xffffffffffffffff\n        /* \"#utility.yul\":11192:11198   */\n      dup2\n        /* \"#utility.yul\":11189:11219   */\n      gt\n        /* \"#utility.yul\":11186:11303   */\n      iszero\n      tag_256\n      jumpi\n        /* \"#utility.yul\":11222:11301   */\n      tag_257\n      tag_82\n      jump\t// in\n    tag_257:\n        /* \"#utility.yul\":11186:11303   */\n    tag_256:\n        /* \"#utility.yul\":11327:11390   */\n      tag_258\n        /* \"#utility.yul\":11382:11389   */\n      dup5\n        /* \"#utility.yul\":11373:11379   */\n      dup3\n        /* \"#utility.yul\":11362:11371   */\n      dup6\n        /* \"#utility.yul\":11358:11380   */\n      add\n        /* \"#utility.yul\":11327:11390   */\n      tag_119\n      jump\t// in\n    tag_258:\n        /* \"#utility.yul\":11317:11390   */\n      swap2\n      pop\n        /* \"#utility.yul\":11113:11400   */\n      pop\n        /* \"#utility.yul\":10898:11407   */\n      swap3\n      swap2\n      pop\n      pop\n      jump\t// out\n        /* \"#utility.yul\":11413:11635   */\n    tag_32:\n        /* \"#utility.yul\":11506:11510   */\n      0x00\n        /* \"#utility.yul\":11544:11546   */\n      0x20\n        /* \"#utility.yul\":11533:11542   */\n      dup3\n        /* \"#utility.yul\":11529:11547   */\n      add\n        /* \"#utility.yul\":11521:11547   */\n      swap1\n      pop\n        /* \"#utility.yul\":11557:11628   */\n      tag_260\n        /* \"#utility.yul\":11625:11626   */\n      0x00\n        /* \"#utility.yul\":11614:11623   */\n      dup4\n        /* \"#utility.yul\":11610:11627   */\n      add\n        /* \"#utility.yul\":11601:11607   */\n      dup5\n        /* \"#utility.yul\":11557:11628   */\n      tag_90\n      jump\t// in\n    tag_260:\n        /* \"#utility.yul\":11413:11635   */\n      swap3\n      swap2\n      pop\n      pop\n      jump\t// out\n        /* \"#utility.yul\":11641:11970   */\n    tag_35:\n        /* \"#utility.yul\":11700:11706   */\n      0x00\n        /* \"#utility.yul\":11749:11751   */\n      0x20\n        /* \"#utility.yul\":11737:11746   */\n      dup3\n        /* \"#utility.yul\":11728:11735   */\n      dup5\n        /* \"#utility.yul\":11724:11747   */\n      sub\n        /* \"#utility.yul\":11720:11752   */\n      slt\n        /* \"#utility.yul\":11717:11836   */\n      iszero\n      tag_262\n      jumpi\n        /* \"#utility.yul\":11755:11834   */\n      tag_263\n      tag_81\n      jump\t// in\n    tag_263:\n        /* \"#utility.yul\":11717:11836   */\n    tag_262:\n        /* \"#utility.yul\":11875:11876   */\n      0x00\n        /* \"#utility.yul\":11900:11953   */\n      tag_264\n        /* \"#utility.yul\":11945:11952   */\n      dup5\n        /* \"#utility.yul\":11936:11942   */\n      dup3\n        /* \"#utility.yul\":11925:11934   */\n      dup6\n        /* \"#utility.yul\":11921:11943   */\n      add\n        /* \"#utility.yul\":11900:11953   */\n      tag_89\n      jump\t// in\n    tag_264:\n        /* \"#utility.yul\":11890:11953   */\n      swap2\n      pop\n        /* \"#utility.yul\":11846:11963   */\n      pop\n        /* \"#utility.yul\":11641:11970   */\n      swap3\n      swap2\n      pop\n      pop\n      jump\t// out\n        /* \"#utility.yul\":12028:12985   */\n    tag_120:\n        /* \"#utility.yul\":12139:12142   */\n      0x00\n        /* \"#utility.yul\":12175:12179   */\n      0x80\n        /* \"#utility.yul\":12170:12173   */\n      dup4\n        /* \"#utility.yul\":12166:12180   */\n      add\n        /* \"#utility.yul\":12264:12268   */\n      0x00\n        /* \"#utility.yul\":12257:12262   */\n      dup4\n        /* \"#utility.yul\":12253:12269   */\n      add\n        /* \"#utility.yul\":12247:12270   */\n      mload\n        /* \"#utility.yul\":12283:12346   */\n      tag_266\n        /* \"#utility.yul\":12340:12344   */\n      0x00\n        /* \"#utility.yul\":12335:12338   */\n      dup7\n        /* \"#utility.yul\":12331:12345   */\n      add\n        /* \"#utility.yul\":12317:12329   */\n      dup3\n        /* \"#utility.yul\":12283:12346   */\n      tag_100\n      jump\t// in\n    tag_266:\n        /* \"#utility.yul\":12190:12356   */\n      pop\n        /* \"#utility.yul\":12441:12445   */\n      0x20\n        /* \"#utility.yul\":12434:12439   */\n      dup4\n        /* \"#utility.yul\":12430:12446   */\n      add\n        /* \"#utility.yul\":12424:12447   */\n      mload\n        /* \"#utility.yul\":12494:12497   */\n      dup5\n        /* \"#utility.yul\":12488:12492   */\n      dup3\n        /* \"#utility.yul\":12484:12498   */\n      sub\n        /* \"#utility.yul\":12477:12481   */\n      0x20\n        /* \"#utility.yul\":12472:12475   */\n      dup7\n        /* \"#utility.yul\":12468:12482   */\n      add\n        /* \"#utility.yul\":12461:12499   */\n      mstore\n        /* \"#utility.yul\":12520:12593   */\n      tag_267\n        /* \"#utility.yul\":12588:12592   */\n      dup3\n        /* \"#utility.yul\":12574:12586   */\n      dup3\n        /* \"#utility.yul\":12520:12593   */\n      tag_102\n      jump\t// in\n    tag_267:\n        /* \"#utility.yul\":12512:12593   */\n      swap2\n      pop\n        /* \"#utility.yul\":12366:12604   */\n      pop\n        /* \"#utility.yul\":12691:12695   */\n      0x40\n        /* \"#utility.yul\":12684:12689   */\n      dup4\n        /* \"#utility.yul\":12680:12696   */\n      add\n        /* \"#utility.yul\":12674:12697   */\n      mload\n        /* \"#utility.yul\":12710:12773   */\n      tag_268\n        /* \"#utility.yul\":12767:12771   */\n      0x40\n        /* \"#utility.yul\":12762:12765   */\n      dup7\n        /* \"#utility.yul\":12758:12772   */\n      add\n        /* \"#utility.yul\":12744:12756   */\n      dup3\n        /* \"#utility.yul\":12710:12773   */\n      tag_103\n      jump\t// in\n    tag_268:\n        /* \"#utility.yul\":12614:12783   */\n      pop\n        /* \"#utility.yul\":12866:12870   */\n      0x60\n        /* \"#utility.yul\":12859:12864   */\n      dup4\n        /* \"#utility.yul\":12855:12871   */\n      add\n        /* \"#utility.yul\":12849:12872   */\n      mload\n        /* \"#utility.yul\":12885:12948   */\n      tag_269\n        /* \"#utility.yul\":12942:12946   */\n      0x60\n        /* \"#utility.yul\":12937:12940   */\n      dup7\n        /* \"#utility.yul\":12933:12947   */\n      add\n        /* \"#utility.yul\":12919:12931   */\n      dup3\n        /* \"#utility.yul\":12885:12948   */\n      tag_103\n      jump\t// in\n    tag_269:\n        /* \"#utility.yul\":12793:12958   */\n      pop\n        /* \"#utility.yul\":12975:12979   */\n      dup1\n        /* \"#utility.yul\":12968:12979   */\n      swap2\n      pop\n        /* \"#utility.yul\":12144:12985   */\n      pop\n        /* \"#utility.yul\":12028:12985   */\n      swap3\n      swap2\n      pop\n      pop\n      jump\t// out\n        /* \"#utility.yul\":12991:13348   */\n    tag_38:\n        /* \"#utility.yul\":13126:13130   */\n      0x00\n        /* \"#utility.yul\":13164:13166   */\n      0x20\n        /* \"#utility.yul\":13153:13162   */\n      dup3\n        /* \"#utility.yul\":13149:13167   */\n      add\n        /* \"#utility.yul\":13141:13167   */\n      swap1\n      pop\n        /* \"#utility.yul\":13213:13222   */\n      dup2\n        /* \"#utility.yul\":13207:13211   */\n      dup2\n        /* \"#utility.yul\":13203:13223   */\n      sub\n        /* \"#utility.yul\":13199:13200   */\n      0x00\n        /* \"#utility.yul\":13188:13197   */\n      dup4\n        /* \"#utility.yul\":13184:13201   */\n      add\n        /* \"#utility.yul\":13177:13224   */\n      mstore\n        /* \"#utility.yul\":13241:13341   */\n      tag_271\n        /* \"#utility.yul\":13336:13340   */\n      dup2\n        /* \"#utility.yul\":13327:13333   */\n      dup5\n        /* \"#utility.yul\":13241:13341   */\n      tag_120\n      jump\t// in\n    tag_271:\n        /* \"#utility.yul\":13233:13341   */\n      swap1\n      pop\n        /* \"#utility.yul\":12991:13348   */\n      swap3\n      swap2\n      pop\n      pop\n      jump\t// out\n        /* \"#utility.yul\":13354:13534   */\n    tag_121:\n        /* \"#utility.yul\":13402:13479   */\n      0x4e487b7100000000000000000000000000000000000000000000000000000000\n        /* \"#utility.yul\":13399:13400   */\n      0x00\n        /* \"#utility.yul\":13392:13480   */\n      mstore\n        /* \"#utility.yul\":13499:13503   */\n      0x22\n        /* \"#utility.yul\":13496:13497   */\n      0x04\n        /* \"#utility.yul\":13489:13504   */\n      mstore\n        /* \"#utility.yul\":13523:13527   */\n      0x24\n        /* \"#utility.yul\":13520:13521   */\n      0x00\n        /* \"#utility.yul\":13513:13528   */\n      revert\n        /* \"#utility.yul\":13540:13860   */\n    tag_42:\n        /* \"#utility.yul\":13584:13590   */\n      0x00\n        /* \"#utility.yul\":13621:13622   */\n      0x02\n        /* \"#utility.yul\":13615:13619   */\n      dup3\n        /* \"#utility.yul\":13611:13623   */\n      div\n        /* \"#utility.yul\":13601:13623   */\n      swap1\n      pop\n        /* \"#utility.yul\":13668:13669   */\n      0x01\n        /* \"#utility.yul\":13662:13666   */\n      dup3\n        /* \"#utility.yul\":13658:13670   */\n      and\n        /* \"#utility.yul\":13689:13707   */\n      dup1\n        /* \"#utility.yul\":13679:13760   */\n      tag_274\n      jumpi\n        /* \"#utility.yul\":13745:13749   */\n      0x7f\n        /* \"#utility.yul\":13737:13743   */\n      dup3\n        /* \"#utility.yul\":13733:13750   */\n      and\n        /* \"#utility.yul\":13723:13750   */\n      swap2\n      pop\n        /* \"#utility.yul\":13679:13760   */\n    tag_274:\n        /* \"#utility.yul\":13807:13809   */\n      0x20\n        /* \"#utility.yul\":13799:13805   */\n      dup3\n        /* \"#utility.yul\":13796:13810   */\n      lt\n        /* \"#utility.yul\":13776:13794   */\n      dup2\n        /* \"#utility.yul\":13773:13811   */\n      sub\n        /* \"#utility.yul\":13770:13854   */\n      tag_275\n      jumpi\n        /* \"#utility.yul\":13826:13844   */\n      tag_276\n      tag_121\n      jump\t// in\n    tag_276:\n        /* \"#utility.yul\":13770:13854   */\n    tag_275:\n        /* \"#utility.yul\":13591:13860   */\n      pop\n        /* \"#utility.yul\":13540:13860   */\n      swap2\n      swap1\n      pop\n      jump\t// out\n        /* \"#utility.yul\":13866:14046   */\n    tag_122:\n        /* \"#utility.yul\":14006:14038   */\n      0x596f7520617265206e6f742074686520636f6e7472616374206f776e65720000\n        /* \"#utility.yul\":14002:14003   */\n      0x00\n        /* \"#utility.yul\":13994:14000   */\n      dup3\n        /* \"#utility.yul\":13990:14004   */\n      add\n        /* \"#utility.yul\":13983:14039   */\n      mstore\n        /* \"#utility.yul\":13866:14046   */\n      pop\n      jump\t// out\n        /* \"#utility.yul\":14052:14418   */\n    tag_123:\n        /* \"#utility.yul\":14194:14197   */\n      0x00\n        /* \"#utility.yul\":14215:14282   */\n      tag_279\n        /* \"#utility.yul\":14279:14281   */\n      0x1e\n        /* \"#utility.yul\":14274:14277   */\n      dup4\n        /* \"#utility.yul\":14215:14282   */\n      tag_92\n      jump\t// in\n    tag_279:\n        /* \"#utility.yul\":14208:14282   */\n      swap2\n      pop\n        /* \"#utility.yul\":14291:14384   */\n      tag_280\n        /* \"#utility.yul\":14380:14383   */\n      dup3\n        /* \"#utility.yul\":14291:14384   */\n      tag_122\n      jump\t// in\n    tag_280:\n        /* \"#utility.yul\":14409:14411   */\n      0x20\n        /* \"#utility.yul\":14404:14407   */\n      dup3\n        /* \"#utility.yul\":14400:14412   */\n      add\n        /* \"#utility.yul\":14393:14412   */\n      swap1\n      pop\n        /* \"#utility.yul\":14052:14418   */\n      swap2\n      swap1\n      pop\n      jump\t// out\n        /* \"#utility.yul\":14424:14843   */\n    tag_59:\n        /* \"#utility.yul\":14590:14594   */\n      0x00\n        /* \"#utility.yul\":14628:14630   */\n      0x20\n        /* \"#utility.yul\":14617:14626   */\n      dup3\n        /* \"#utility.yul\":14613:14631   */\n      add\n        /* \"#utility.yul\":14605:14631   */\n      swap1\n      pop\n        /* \"#utility.yul\":14677:14686   */\n      dup2\n        /* \"#utility.yul\":14671:14675   */\n      dup2\n        /* \"#utility.yul\":14667:14687   */\n      sub\n        /* \"#utility.yul\":14663:14664   */\n      0x00\n        /* \"#utility.yul\":14652:14661   */\n      dup4\n        /* \"#utility.yul\":14648:14665   */\n      add\n        /* \"#utility.yul\":14641:14688   */\n      mstore\n        /* \"#utility.yul\":14705:14836   */\n      tag_282\n        /* \"#utility.yul\":14831:14835   */\n      dup2\n        /* \"#utility.yul\":14705:14836   */\n      tag_123\n      jump\t// in\n    tag_282:\n        /* \"#utility.yul\":14697:14836   */\n      swap1\n      pop\n        /* \"#utility.yul\":14424:14843   */\n      swap2\n      swap1\n      pop\n      jump\t// out\n        /* \"#utility.yul\":14849:15072   */\n    tag_124:\n        /* \"#utility.yul\":14989:15023   */\n      0x54776565742073686f756c6420626520756e6465722032383020636861726163\n        /* \"#utility.yul\":14985:14986   */\n      0x00\n        /* \"#utility.yul\":14977:14983   */\n      dup3\n        /* \"#utility.yul\":14973:14987   */\n      add\n        /* \"#utility.yul\":14966:15024   */\n      mstore\n        /* \"#utility.yul\":15058:15064   */\n      0x7465727300000000000000000000000000000000000000000000000000000000\n        /* \"#utility.yul\":15053:15055   */\n      0x20\n        /* \"#utility.yul\":15045:15051   */\n      dup3\n        /* \"#utility.yul\":15041:15056   */\n      add\n        /* \"#utility.yul\":15034:15065   */\n      mstore\n        /* \"#utility.yul\":14849:15072   */\n      pop\n      jump\t// out\n        /* \"#utility.yul\":15078:15444   */\n    tag_125:\n        /* \"#utility.yul\":15220:15223   */\n      0x00\n        /* \"#utility.yul\":15241:15308   */\n      tag_285\n        /* \"#utility.yul\":15305:15307   */\n      0x24\n        /* \"#utility.yul\":15300:15303   */\n      dup4\n        /* \"#utility.yul\":15241:15308   */\n      tag_92\n      jump\t// in\n    tag_285:\n        /* \"#utility.yul\":15234:15308   */\n      swap2\n      pop\n        /* \"#utility.yul\":15317:15410   */\n      tag_286\n        /* \"#utility.yul\":15406:15409   */\n      dup3\n        /* \"#utility.yul\":15317:15410   */\n      tag_124\n      jump\t// in\n    tag_286:\n        /* \"#utility.yul\":15435:15437   */\n      0x40\n        /* \"#utility.yul\":15430:15433   */\n      dup3\n        /* \"#utility.yul\":15426:15438   */\n      add\n        /* \"#utility.yul\":15419:15438   */\n      swap1\n      pop\n        /* \"#utility.yul\":15078:15444   */\n      swap2\n      swap1\n      pop\n      jump\t// out\n        /* \"#utility.yul\":15450:15869   */\n    tag_64:\n        /* \"#utility.yul\":15616:15620   */\n      0x00\n        /* \"#utility.yul\":15654:15656   */\n      0x20\n        /* \"#utility.yul\":15643:15652   */\n      dup3\n        /* \"#utility.yul\":15639:15657   */\n      add\n        /* \"#utility.yul\":15631:15657   */\n      swap1\n      pop\n        /* \"#utility.yul\":15703:15712   */\n      dup2\n        /* \"#utility.yul\":15697:15701   */\n      dup2\n        /* \"#utility.yul\":15693:15713   */\n      sub\n        /* \"#utility.yul\":15689:15690   */\n      0x00\n        /* \"#utility.yul\":15678:15687   */\n      dup4\n        /* \"#utility.yul\":15674:15691   */\n      add\n        /* \"#utility.yul\":15667:15714   */\n      mstore\n        /* \"#utility.yul\":15731:15862   */\n      tag_288\n        /* \"#utility.yul\":15857:15861   */\n      dup2\n        /* \"#utility.yul\":15731:15862   */\n      tag_125\n      jump\t// in\n    tag_288:\n        /* \"#utility.yul\":15723:15862   */\n      swap1\n      pop\n        /* \"#utility.yul\":15450:15869   */\n      swap2\n      swap1\n      pop\n      jump\t// out\n        /* \"#utility.yul\":15875:16016   */\n    tag_126:\n        /* \"#utility.yul\":15924:15928   */\n      0x00\n        /* \"#utility.yul\":15947:15950   */\n      dup2\n        /* \"#utility.yul\":15939:15950   */\n      swap1\n      pop\n        /* \"#utility.yul\":15970:15973   */\n      dup2\n        /* \"#utility.yul\":15967:15968   */\n      0x00\n        /* \"#utility.yul\":15960:15974   */\n      mstore\n        /* \"#utility.yul\":16004:16008   */\n      0x20\n        /* \"#utility.yul\":16001:16002   */\n      0x00\n        /* \"#utility.yul\":15991:16009   */\n      keccak256\n        /* \"#utility.yul\":15983:16009   */\n      swap1\n      pop\n        /* \"#utility.yul\":15875:16016   */\n      swap2\n      swap1\n      pop\n      jump\t// out\n        /* \"#utility.yul\":16022:16115   */\n    tag_127:\n        /* \"#utility.yul\":16059:16065   */\n      0x00\n        /* \"#utility.yul\":16106:16108   */\n      0x20\n        /* \"#utility.yul\":16101:16103   */\n      0x1f\n        /* \"#utility.yul\":16094:16099   */\n      dup4\n        /* \"#utility.yul\":16090:16104   */\n      add\n        /* \"#utility.yul\":16086:16109   */\n      div\n        /* \"#utility.yul\":16076:16109   */\n      swap1\n      pop\n        /* \"#utility.yul\":16022:16115   */\n      swap2\n      swap1\n      pop\n      jump\t// out\n        /* \"#utility.yul\":16121:16228   */\n    tag_128:\n        /* \"#utility.yul\":16165:16173   */\n      0x00\n        /* \"#utility.yul\":16215:16220   */\n      dup3\n        /* \"#utility.yul\":16209:16213   */\n      dup3\n        /* \"#utility.yul\":16205:16221   */\n      shl\n        /* \"#utility.yul\":16184:16221   */\n      swap1\n      pop\n        /* \"#utility.yul\":16121:16228   */\n      swap3\n      swap2\n      pop\n      pop\n      jump\t// out\n        /* \"#utility.yul\":16234:16627   */\n    tag_129:\n        /* \"#utility.yul\":16303:16309   */\n      0x00\n        /* \"#utility.yul\":16353:16354   */\n      0x08\n        /* \"#utility.yul\":16341:16351   */\n      dup4\n        /* \"#utility.yul\":16337:16355   */\n      mul\n        /* \"#utility.yul\":16376:16473   */\n      tag_293\n        /* \"#utility.yul\":16406:16472   */\n      0xffffffffffffffffffffffffffffffffffffffffffffffffffffffffffffffff\n        /* \"#utility.yul\":16395:16404   */\n      dup3\n        /* \"#utility.yul\":16376:16473   */\n      tag_128\n      jump\t// in\n    tag_293:\n        /* \"#utility.yul\":16494:16533   */\n      tag_294\n        /* \"#utility.yul\":16524:16532   */\n      dup7\n        /* \"#utility.yul\":16513:16522   */\n      dup4\n        /* \"#utility.yul\":16494:16533   */\n      tag_128\n      jump\t// in\n    tag_294:\n        /* \"#utility.yul\":16482:16533   */\n      swap6\n      pop\n        /* \"#utility.yul\":16566:16570   */\n      dup1\n        /* \"#utility.yul\":16562:16571   */\n      not\n        /* \"#utility.yul\":16555:16560   */\n      dup5\n        /* \"#utility.yul\":16551:16572   */\n      and\n        /* \"#utility.yul\":16542:16572   */\n      swap4\n      pop\n        /* \"#utility.yul\":16615:16619   */\n      dup1\n        /* \"#utility.yul\":16605:16613   */\n      dup7\n        /* \"#utility.yul\":16601:16620   */\n      and\n        /* \"#utility.yul\":16594:16599   */\n      dup5\n        /* \"#utility.yul\":16591:16621   */\n      or\n        /* \"#utility.yul\":16581:16621   */\n      swap3\n      pop\n        /* \"#utility.yul\":16310:16627   */\n      pop\n      pop\n        /* \"#utility.yul\":16234:16627   */\n      swap4\n      swap3\n      pop\n      pop\n      pop\n      jump\t// out\n        /* \"#utility.yul\":16633:16693   */\n    tag_130:\n        /* \"#utility.yul\":16661:16664   */\n      0x00\n        /* \"#utility.yul\":16682:16687   */\n      dup2\n        /* \"#utility.yul\":16675:16687   */\n      swap1\n      pop\n        /* \"#utility.yul\":16633:16693   */\n      swap2\n      swap1\n      pop\n      jump\t// out\n        /* \"#utility.yul\":16699:16841   */\n    tag_131:\n        /* \"#utility.yul\":16749:16758   */\n      0x00\n        /* \"#utility.yul\":16782:16835   */\n      tag_297\n        /* \"#utility.yul\":16800:16834   */\n      tag_298\n        /* \"#utility.yul\":16809:16833   */\n      tag_299\n        /* \"#utility.yul\":16827:16832   */\n      dup5\n        /* \"#utility.yul\":16809:16833   */\n      tag_87\n      jump\t// in\n    tag_299:\n        /* \"#utility.yul\":16800:16834   */\n      tag_130\n      jump\t// in\n    tag_298:\n        /* \"#utility.yul\":16782:16835   */\n      tag_87\n      jump\t// in\n    tag_297:\n        /* \"#utility.yul\":16769:16835   */\n      swap1\n      pop\n        /* \"#utility.yul\":16699:16841   */\n      swap2\n      swap1\n      pop\n      jump\t// out\n        /* \"#utility.yul\":16847:16922   */\n    tag_132:\n        /* \"#utility.yul\":16890:16893   */\n      0x00\n        /* \"#utility.yul\":16911:16916   */\n      dup2\n        /* \"#utility.yul\":16904:16916   */\n      swap1\n      pop\n        /* \"#utility.yul\":16847:16922   */\n      swap2\n      swap1\n      pop\n      jump\t// out\n        /* \"#utility.yul\":16928:17197   */\n    tag_133:\n        /* \"#utility.yul\":17038:17077   */\n      tag_302\n        /* \"#utility.yul\":17069:17076   */\n      dup4\n        /* \"#utility.yul\":17038:17077   */\n      tag_131\n      jump\t// in\n    tag_302:\n        /* \"#utility.yul\":17099:17190   */\n      tag_303\n        /* \"#utility.yul\":17148:17189   */\n      tag_304\n        /* \"#utility.yul\":17172:17188   */\n      dup3\n        /* \"#utility.yul\":17148:17189   */\n      tag_132\n      jump\t// in\n    tag_304:\n        /* \"#utility.yul\":17140:17146   */\n      dup5\n        /* \"#utility.yul\":17133:17137   */\n      dup5\n        /* \"#utility.yul\":17127:17138   */\n      sload\n        /* \"#utility.yul\":17099:17190   */\n      tag_129\n      jump\t// in\n    tag_303:\n        /* \"#utility.yul\":17093:17097   */\n      dup3\n        /* \"#utility.yul\":17086:17191   */\n      sstore\n        /* \"#utility.yul\":17004:17197   */\n      pop\n        /* \"#utility.yul\":16928:17197   */\n      pop\n      pop\n      pop\n      jump\t// out\n        /* \"#utility.yul\":17203:17276   */\n    tag_134:\n        /* \"#utility.yul\":17248:17251   */\n      0x00\n        /* \"#utility.yul\":17269:17270   */\n      0x00\n        /* \"#utility.yul\":17262:17270   */\n      swap1\n      pop\n        /* \"#utility.yul\":17203:17276   */\n      swap1\n      jump\t// out\n        /* \"#utility.yul\":17282:17471   */\n    tag_135:\n        /* \"#utility.yul\":17359:17391   */\n      tag_307\n      tag_134\n      jump\t// in\n    tag_307:\n        /* \"#utility.yul\":17400:17465   */\n      tag_308\n        /* \"#utility.yul\":17458:17464   */\n      dup2\n        /* \"#utility.yul\":17450:17456   */\n      dup5\n        /* \"#utility.yul\":17444:17448   */\n      dup5\n        /* \"#utility.yul\":17400:17465   */\n      tag_133\n      jump\t// in\n    tag_308:\n        /* \"#utility.yul\":17335:17471   */\n      pop\n        /* \"#utility.yul\":17282:17471   */\n      pop\n      pop\n      jump\t// out\n        /* \"#utility.yul\":17477:17663   */\n    tag_136:\n        /* \"#utility.yul\":17537:17657   */\n    tag_310:\n        /* \"#utility.yul\":17554:17557   */\n      dup2\n        /* \"#utility.yul\":17547:17552   */\n      dup2\n        /* \"#utility.yul\":17544:17558   */\n      lt\n        /* \"#utility.yul\":17537:17657   */\n      iszero\n      tag_312\n      jumpi\n        /* \"#utility.yul\":17608:17647   */\n      tag_313\n        /* \"#utility.yul\":17645:17646   */\n      0x00\n        /* \"#utility.yul\":17638:17643   */\n      dup3\n        /* \"#utility.yul\":17608:17647   */\n      tag_135\n      jump\t// in\n    tag_313:\n        /* \"#utility.yul\":17581:17582   */\n      0x01\n        /* \"#utility.yul\":17574:17579   */\n      dup2\n        /* \"#utility.yul\":17570:17583   */\n      add\n        /* \"#utility.yul\":17561:17583   */\n      swap1\n      pop\n        /* \"#utility.yul\":17537:17657   */\n      jump(tag_310)\n    tag_312:\n        /* \"#utility.yul\":17477:17663   */\n      pop\n      pop\n      jump\t// out\n        /* \"#utility.yul\":17669:18212   */\n    tag_137:\n        /* \"#utility.yul\":17770:17772   */\n      0x1f\n        /* \"#utility.yul\":17765:17768   */\n      dup3\n        /* \"#utility.yul\":17762:17773   */\n      gt\n        /* \"#utility.yul\":17759:18205   */\n      iszero\n      tag_315\n      jumpi\n        /* \"#utility.yul\":17804:17842   */\n      tag_316\n        /* \"#utility.yul\":17836:17841   */\n      dup2\n        /* \"#utility.yul\":17804:17842   */\n      tag_126\n      jump\t// in\n    tag_316:\n        /* \"#utility.yul\":17888:17917   */\n      tag_317\n        /* \"#utility.yul\":17906:17916   */\n      dup5\n        /* \"#utility.yul\":17888:17917   */\n      tag_127\n      jump\t// in\n    tag_317:\n        /* \"#utility.yul\":17878:17886   */\n      dup2\n        /* \"#utility.yul\":17874:17918   */\n      add\n        /* \"#utility.yul\":18071:18073   */\n      0x20\n        /* \"#utility.yul\":18059:18069   */\n      dup6\n        /* \"#utility.yul\":18056:18074   */\n      lt\n        /* \"#utility.yul\":18053:18102   */\n      iszero\n      tag_318\n      jumpi\n        /* \"#utility.yul\":18092:18100   */\n      dup2\n        /* \"#utility.yul\":18077:18100   */\n      swap1\n      pop\n        /* \"#utility.yul\":18053:18102   */\n    tag_318:\n        /* \"#utility.yul\":18115:18195   */\n      tag_319\n        /* \"#utility.yul\":18171:18193   */\n      tag_320\n        /* \"#utility.yul\":18189:18192   */\n      dup6\n        /* \"#utility.yul\":18171:18193   */\n      tag_127\n      jump\t// in\n    tag_320:\n        /* \"#utility.yul\":18161:18169   */\n      dup4\n        /* \"#utility.yul\":18157:18194   */\n      add\n        /* \"#utility.yul\":18144:18155   */\n      dup3\n        /* \"#utility.yul\":18115:18195   */\n      tag_136\n      jump\t// in\n    tag_319:\n        /* \"#utility.yul\":17774:18205   */\n      pop\n      pop\n        /* \"#utility.yul\":17759:18205   */\n    tag_315:\n        /* \"#utility.yul\":17669:18212   */\n      pop\n      pop\n      pop\n      jump\t// out\n        /* \"#utility.yul\":18218:18335   */\n    tag_138:\n        /* \"#utility.yul\":18272:18280   */\n      0x00\n        /* \"#utility.yul\":18322:18327   */\n      dup3\n        /* \"#utility.yul\":18316:18320   */\n      dup3\n        /* \"#utility.yul\":18312:18328   */\n      shr\n        /* \"#utility.yul\":18291:18328   */\n      swap1\n      pop\n        /* \"#utility.yul\":18218:18335   */\n      swap3\n      swap2\n      pop\n      pop\n      jump\t// out\n        /* \"#utility.yul\":18341:18510   */\n    tag_139:\n        /* \"#utility.yul\":18385:18391   */\n      0x00\n        /* \"#utility.yul\":18418:18469   */\n      tag_323\n        /* \"#utility.yul\":18466:18467   */\n      0x00\n        /* \"#utility.yul\":18462:18468   */\n      not\n        /* \"#utility.yul\":18454:18459   */\n      dup5\n        /* \"#utility.yul\":18451:18452   */\n      0x08\n        /* \"#utility.yul\":18447:18460   */\n      mul\n        /* \"#utility.yul\":18418:18469   */\n      tag_138\n      jump\t// in\n    tag_323:\n        /* \"#utility.yul\":18414:18470   */\n      not\n        /* \"#utility.yul\":18499:18503   */\n      dup1\n        /* \"#utility.yul\":18493:18497   */\n      dup4\n        /* \"#utility.yul\":18489:18504   */\n      and\n        /* \"#utility.yul\":18479:18504   */\n      swap2\n      pop\n        /* \"#utility.yul\":18392:18510   */\n      pop\n        /* \"#utility.yul\":18341:18510   */\n      swap3\n      swap2\n      pop\n      pop\n      jump\t// out\n        /* \"#utility.yul\":18515:18810   */\n    tag_140:\n        /* \"#utility.yul\":18591:18595   */\n      0x00\n        /* \"#utility.yul\":18737:18766   */\n      tag_325\n        /* \"#utility.yul\":18762:18765   */\n      dup4\n        /* \"#utility.yul\":18756:18760   */\n      dup4\n        /* \"#utility.yul\":18737:18766   */\n      tag_139\n      jump\t// in\n    tag_325:\n        /* \"#utility.yul\":18729:18766   */\n      swap2\n      pop\n        /* \"#utility.yul\":18799:18802   */\n      dup3\n        /* \"#utility.yul\":18796:18797   */\n      0x02\n        /* \"#utility.yul\":18792:18803   */\n      mul\n        /* \"#utility.yul\":18786:18790   */\n      dup3\n        /* \"#utility.yul\":18783:18804   */\n      or\n        /* \"#utility.yul\":18775:18804   */\n      swap1\n      pop\n        /* \"#utility.yul\":18515:18810   */\n      swap3\n      swap2\n      pop\n      pop\n      jump\t// out\n        /* \"#utility.yul\":18815:20210   */\n    tag_67:\n        /* \"#utility.yul\":18932:18969   */\n      tag_327\n        /* \"#utility.yul\":18965:18968   */\n      dup3\n        /* \"#utility.yul\":18932:18969   */\n      tag_91\n      jump\t// in\n    tag_327:\n        /* \"#utility.yul\":19034:19052   */\n      0xffffffffffffffff\n        /* \"#utility.yul\":19026:19032   */\n      dup2\n        /* \"#utility.yul\":19023:19053   */\n      gt\n        /* \"#utility.yul\":19020:19076   */\n      iszero\n      tag_328\n      jumpi\n        /* \"#utility.yul\":19056:19074   */\n      tag_329\n      tag_113\n      jump\t// in\n    tag_329:\n        /* \"#utility.yul\":19020:19076   */\n    tag_328:\n        /* \"#utility.yul\":19100:19138   */\n      tag_330\n        /* \"#utility.yul\":19132:19136   */\n      dup3\n        /* \"#utility.yul\":19126:19137   */\n      sload\n        /* \"#utility.yul\":19100:19138   */\n      tag_42\n      jump\t// in\n    tag_330:\n        /* \"#utility.yul\":19185:19252   */\n      tag_331\n        /* \"#utility.yul\":19245:19251   */\n      dup3\n        /* \"#utility.yul\":19237:19243   */\n      dup3\n        /* \"#utility.yul\":19231:19235   */\n      dup6\n        /* \"#utility.yul\":19185:19252   */\n      tag_137\n      jump\t// in\n    tag_331:\n        /* \"#utility.yul\":19279:19280   */\n      0x00\n        /* \"#utility.yul\":19303:19307   */\n      0x20\n        /* \"#utility.yul\":19290:19307   */\n      swap1\n      pop\n        /* \"#utility.yul\":19335:19337   */\n      0x1f\n        /* \"#utility.yul\":19327:19333   */\n      dup4\n        /* \"#utility.yul\":19324:19338   */\n      gt\n        /* \"#utility.yul\":19352:19353   */\n      0x01\n        /* \"#utility.yul\":19347:19965   */\n      dup2\n      eq\n      tag_333\n      jumpi\n        /* \"#utility.yul\":20009:20010   */\n      0x00\n        /* \"#utility.yul\":20026:20032   */\n      dup5\n        /* \"#utility.yul\":20023:20100   */\n      iszero\n      tag_334\n      jumpi\n        /* \"#utility.yul\":20075:20084   */\n      dup3\n        /* \"#utility.yul\":20070:20073   */\n      dup8\n        /* \"#utility.yul\":20066:20085   */\n      add\n        /* \"#utility.yul\":20060:20086   */\n      mload\n        /* \"#utility.yul\":20051:20086   */\n      swap1\n      pop\n        /* \"#utility.yul\":20023:20100   */\n    tag_334:\n        /* \"#utility.yul\":20126:20193   */\n      tag_335\n        /* \"#utility.yul\":20186:20192   */\n      dup6\n        /* \"#utility.yul\":20179:20184   */\n      dup3\n        /* \"#utility.yul\":20126:20193   */\n      tag_140\n      jump\t// in\n    tag_335:\n        /* \"#utility.yul\":20120:20124   */\n      dup7\n        /* \"#utility.yul\":20113:20194   */\n      sstore\n        /* \"#utility.yul\":19982:20204   */\n      pop\n        /* \"#utility.yul\":19317:20204   */\n      jump(tag_332)\n        /* \"#utility.yul\":19347:19965   */\n    tag_333:\n        /* \"#utility.yul\":19399:19403   */\n      0x1f\n        /* \"#utility.yul\":19395:19404   */\n      not\n        /* \"#utility.yul\":19387:19393   */\n      dup5\n        /* \"#utility.yul\":19383:19405   */\n      and\n        /* \"#utility.yul\":19433:19470   */\n      tag_336\n        /* \"#utility.yul\":19465:19469   */\n      dup7\n        /* \"#utility.yul\":19433:19470   */\n      tag_126\n      jump\t// in\n    tag_336:\n        /* \"#utility.yul\":19492:19493   */\n      0x00\n        /* \"#utility.yul\":19506:19714   */\n    tag_337:\n        /* \"#utility.yul\":19520:19527   */\n      dup3\n        /* \"#utility.yul\":19517:19518   */\n      dup2\n        /* \"#utility.yul\":19514:19528   */\n      lt\n        /* \"#utility.yul\":19506:19714   */\n      iszero\n      tag_339\n      jumpi\n        /* \"#utility.yul\":19599:19608   */\n      dup5\n        /* \"#utility.yul\":19594:19597   */\n      dup10\n        /* \"#utility.yul\":19590:19609   */\n      add\n        /* \"#utility.yul\":19584:19610   */\n      mload\n        /* \"#utility.yul\":19576:19582   */\n      dup3\n        /* \"#utility.yul\":19569:19611   */\n      sstore\n        /* \"#utility.yul\":19650:19651   */\n      0x01\n        /* \"#utility.yul\":19642:19648   */\n      dup3\n        /* \"#utility.yul\":19638:19652   */\n      add\n        /* \"#utility.yul\":19628:19652   */\n      swap2\n      pop\n        /* \"#utility.yul\":19697:19699   */\n      0x20\n        /* \"#utility.yul\":19686:19695   */\n      dup6\n        /* \"#utility.yul\":19682:19700   */\n      add\n        /* \"#utility.yul\":19669:19700   */\n      swap5\n      pop\n        /* \"#utility.yul\":19543:19547   */\n      0x20\n        /* \"#utility.yul\":19540:19541   */\n      dup2\n        /* \"#utility.yul\":19536:19548   */\n      add\n        /* \"#utility.yul\":19531:19548   */\n      swap1\n      pop\n        /* \"#utility.yul\":19506:19714   */\n      jump(tag_337)\n    tag_339:\n        /* \"#utility.yul\":19742:19748   */\n      dup7\n        /* \"#utility.yul\":19733:19740   */\n      dup4\n        /* \"#utility.yul\":19730:19749   */\n      lt\n        /* \"#utility.yul\":19727:19906   */\n      iszero\n      tag_340\n      jumpi\n        /* \"#utility.yul\":19800:19809   */\n      dup5\n        /* \"#utility.yul\":19795:19798   */\n      dup10\n        /* \"#utility.yul\":19791:19810   */\n      add\n        /* \"#utility.yul\":19785:19811   */\n      mload\n        /* \"#utility.yul\":19843:19891   */\n      tag_341\n        /* \"#utility.yul\":19885:19889   */\n      0x1f\n        /* \"#utility.yul\":19877:19883   */\n      dup10\n        /* \"#utility.yul\":19873:19890   */\n      and\n        /* \"#utility.yul\":19862:19871   */\n      dup3\n        /* \"#utility.yul\":19843:19891   */\n      tag_139\n      jump\t// in\n    tag_341:\n        /* \"#utility.yul\":19835:19841   */\n      dup4\n        /* \"#utility.yul\":19828:19892   */\n      sstore\n        /* \"#utility.yul\":19750:19906   */\n      pop\n        /* \"#utility.yul\":19727:19906   */\n    tag_340:\n        /* \"#utility.yul\":19952:19953   */\n      0x01\n        /* \"#utility.yul\":19948:19949   */\n      0x02\n        /* \"#utility.yul\":19940:19946   */\n      dup9\n        /* \"#utility.yul\":19936:19950   */\n      mul\n        /* \"#utility.yul\":19932:19954   */\n      add\n        /* \"#utility.yul\":19926:19930   */\n      dup9\n        /* \"#utility.yul\":19919:19955   */\n      sstore\n        /* \"#utility.yul\":19354:19965   */\n      pop\n      pop\n      pop\n        /* \"#utility.yul\":19317:20204   */\n    tag_332:\n      pop\n        /* \"#utility.yul\":18907:20210   */\n      pop\n      pop\n      pop\n        /* \"#utility.yul\":18815:20210   */\n      pop\n      pop\n      jump\t// out\n        /* \"#utility.yul\":20216:20396   */\n    tag_73:\n        /* \"#utility.yul\":20264:20341   */\n      0x4e487b7100000000000000000000000000000000000000000000000000000000\n        /* \"#utility.yul\":20261:20262   */\n      0x00\n        /* \"#utility.yul\":20254:20342   */\n      mstore\n        /* \"#utility.yul\":20361:20365   */\n      0x32\n        /* \"#utility.yul\":20358:20359   */\n      0x04\n        /* \"#utility.yul\":20351:20366   */\n      mstore\n        /* \"#utility.yul\":20385:20389   */\n      0x24\n        /* \"#utility.yul\":20382:20383   */\n      0x00\n        /* \"#utility.yul\":20375:20390   */\n      revert\n\n    auxdata: 0xa2646970667358221220b01ae1a83b5094bfdbf5584d7e32039a8608bdf1da41973739839e2bf7b7918264736f6c634300081e0033\n}\n",
				"bytecode": {
					"linkReferences": {},
					"object": "60806040526101185f5f6101000a81548161ffff021916908361ffff160217905550348015602b575f5ffd5b503360025f6101000a81548173ffffffffffffffffffffffffffffffffffffffff021916908373ffffffffffffffffffffffffffffffffffffffff1602179055506111e9806100795f395ff3fe608060405234801561000f575f5ffd5b5060043610610060575f3560e01c806305a1b4a91461006457806312e7ee1c1461009757806358bfa4ab146100c75780637c9cd2bc146100e35780638da5cb5b146100ff578063c3ad5ecb1461011d575b5f5ffd5b61007e60048036038101906100799190610849565b61014d565b60405161008e9493929190610915565b60405180910390f35b6100b160048036038101906100ac919061095f565b610238565b6040516100be9190610b0b565b60405180910390f35b6100e160048036038101906100dc9190610b62565b6103c9565b005b6100fd60048036038101906100f89190610cb9565b610476565b005b6101076105de565b6040516101149190610d00565b60405180910390f35b61013760048036038101906101329190610d19565b610603565b6040516101449190610da4565b60405180910390f35b6001602052815f5260405f208181548110610166575f80fd5b905f5260205f2090600402015f9150915050805f015f9054906101000a900473ffffffffffffffffffffffffffffffffffffffff16908060010180546101ab90610df1565b80601f01602080910402602001604051908101604052809291908181526020018280546101d790610df1565b80156102225780601f106101f957610100808354040283529160200191610222565b820191905f5260205f20905b81548152906001019060200180831161020557829003601f168201915b5050505050908060020154908060030154905084565b606060015f8373ffffffffffffffffffffffffffffffffffffffff1673ffffffffffffffffffffffffffffffffffffffff1681526020019081526020015f20805480602002602001604051908101604052809291908181526020015f905b828210156103be578382905f5260205f2090600402016040518060800160405290815f82015f9054906101000a900473ffffffffffffffffffffffffffffffffffffffff1673ffffffffffffffffffffffffffffffffffffffff1673ffffffffffffffffffffffffffffffffffffffff16815260200160018201805461031b90610df1565b80601f016020809104026020016040519081016040528092919081815260200182805461034790610df1565b80156103925780601f1061036957610100808354040283529160200191610392565b820191905f5260205f20905b81548152906001019060200180831161037557829003601f168201915b505050505081526020016002820154815260200160038201548152505081526020019060010190610296565b505050509050919050565b60025f9054906101000a900473ffffffffffffffffffffffffffffffffffffffff1673ffffffffffffffffffffffffffffffffffffffff163373ffffffffffffffffffffffffffffffffffffffff1614610458576040517f08c379a000000000000000000000000000000000000000000000000000000000815260040161044f90610e6b565b60405180910390fd5b805f5f6101000a81548161ffff021916908361ffff16021790555050565b5f5f9054906101000a900461ffff1661ffff16815111156104cc576040517f08c379a00000000000000000000000000000000000000000000000000000000081526004016104c390610ef9565b60405180910390fd5b5f60405180608001604052803373ffffffffffffffffffffffffffffffffffffffff1681526020018381526020014281526020015f815250905060015f3373ffffffffffffffffffffffffffffffffffffffff1673ffffffffffffffffffffffffffffffffffffffff1681526020019081526020015f2081908060018154018082558091505060019003905f5260205f2090600402015f909190919091505f820151815f015f6101000a81548173ffffffffffffffffffffffffffffffffffffffff021916908373ffffffffffffffffffffffffffffffffffffffff16021790555060208201518160010190816105c391906110b7565b50604082015181600201556060820151816003015550505050565b60025f9054906101000a900473ffffffffffffffffffffffffffffffffffffffff1681565b61060b610770565b60015f3373ffffffffffffffffffffffffffffffffffffffff1673ffffffffffffffffffffffffffffffffffffffff1681526020019081526020015f20828154811061065a57610659611186565b5b905f5260205f2090600402016040518060800160405290815f82015f9054906101000a900473ffffffffffffffffffffffffffffffffffffffff1673ffffffffffffffffffffffffffffffffffffffff1673ffffffffffffffffffffffffffffffffffffffff1681526020016001820180546106d590610df1565b80601f016020809104026020016040519081016040528092919081815260200182805461070190610df1565b801561074c5780601f106107235761010080835404028352916020019161074c565b820191905f5260205f20905b81548152906001019060200180831161072f57829003601f168201915b50505050508152602001600282015481526020016003820154815250509050919050565b60405180608001604052805f73ffffffffffffffffffffffffffffffffffffffff168152602001606081526020015f81526020015f81525090565b5f604051905090565b5f5ffd5b5f5ffd5b5f73ffffffffffffffffffffffffffffffffffffffff82169050919050565b5f6107e5826107bc565b9050919050565b6107f5816107db565b81146107ff575f5ffd5b50565b5f81359050610810816107ec565b92915050565b5f819050919050565b61082881610816565b8114610832575f5ffd5b50565b5f813590506108438161081f565b92915050565b5f5f6040838503121561085f5761085e6107b4565b5b5f61086c85828601610802565b925050602061087d85828601610835565b9150509250929050565b610890816107db565b82525050565b5f81519050919050565b5f82825260208201905092915050565b8281835e5f83830152505050565b5f601f19601f8301169050919050565b5f6108d882610896565b6108e281856108a0565b93506108f28185602086016108b0565b6108fb816108be565b840191505092915050565b61090f81610816565b82525050565b5f6080820190506109285f830187610887565b818103602083015261093a81866108ce565b90506109496040830185610906565b6109566060830184610906565b95945050505050565b5f60208284031215610974576109736107b4565b5b5f61098184828501610802565b91505092915050565b5f81519050919050565b5f82825260208201905092915050565b5f819050602082019050919050565b6109bc816107db565b82525050565b5f82825260208201905092915050565b5f6109dc82610896565b6109e681856109c2565b93506109f68185602086016108b0565b6109ff816108be565b840191505092915050565b610a1381610816565b82525050565b5f608083015f830151610a2e5f8601826109b3565b5060208301518482036020860152610a4682826109d2565b9150506040830151610a5b6040860182610a0a565b506060830151610a6e6060860182610a0a565b508091505092915050565b5f610a848383610a19565b905092915050565b5f602082019050919050565b5f610aa28261098a565b610aac8185610994565b935083602082028501610abe856109a4565b805f5b85811015610af95784840389528151610ada8582610a79565b9450610ae583610a8c565b925060208a01995050600181019050610ac1565b50829750879550505050505092915050565b5f6020820190508181035f830152610b238184610a98565b905092915050565b5f61ffff82169050919050565b610b4181610b2b565b8114610b4b575f5ffd5b50565b5f81359050610b5c81610b38565b92915050565b5f60208284031215610b7757610b766107b4565b5b5f610b8484828501610b4e565b91505092915050565b5f5ffd5b5f5ffd5b7f4e487b71000000000000000000000000000000000000000000000000000000005f52604160045260245ffd5b610bcb826108be565b810181811067ffffffffffffffff82111715610bea57610be9610b95565b5b80604052505050565b5f610bfc6107ab565b9050610c088282610bc2565b919050565b5f67ffffffffffffffff821115610c2757610c26610b95565b5b610c30826108be565b9050602081019050919050565b828183375f83830152505050565b5f610c5d610c5884610c0d565b610bf3565b905082815260208101848484011115610c7957610c78610b91565b5b610c84848285610c3d565b509392505050565b5f82601f830112610ca057610c9f610b8d565b5b8135610cb0848260208601610c4b565b91505092915050565b5f60208284031215610cce57610ccd6107b4565b5b5f82013567ffffffffffffffff811115610ceb57610cea6107b8565b5b610cf784828501610c8c565b91505092915050565b5f602082019050610d135f830184610887565b92915050565b5f60208284031215610d2e57610d2d6107b4565b5b5f610d3b84828501610835565b91505092915050565b5f608083015f830151610d595f8601826109b3565b5060208301518482036020860152610d7182826109d2565b9150506040830151610d866040860182610a0a565b506060830151610d996060860182610a0a565b508091505092915050565b5f6020820190508181035f830152610dbc8184610d44565b905092915050565b7f4e487b71000000000000000000000000000000000000000000000000000000005f52602260045260245ffd5b5f6002820490506001821680610e0857607f821691505b602082108103610e1b57610e1a610dc4565b5b50919050565b7f596f7520617265206e6f742074686520636f6e7472616374206f776e657200005f82015250565b5f610e55601e836108a0565b9150610e6082610e21565b602082019050919050565b5f6020820190508181035f830152610e8281610e49565b9050919050565b7f54776565742073686f756c6420626520756e64657220323830206368617261635f8201527f7465727300000000000000000000000000000000000000000000000000000000602082015250565b5f610ee36024836108a0565b9150610eee82610e89565b604082019050919050565b5f6020820190508181035f830152610f1081610ed7565b9050919050565b5f819050815f5260205f209050919050565b5f6020601f8301049050919050565b5f82821b905092915050565b5f60088302610f737fffffffffffffffffffffffffffffffffffffffffffffffffffffffffffffffff82610f38565b610f7d8683610f38565b95508019841693508086168417925050509392505050565b5f819050919050565b5f610fb8610fb3610fae84610816565b610f95565b610816565b9050919050565b5f819050919050565b610fd183610f9e565b610fe5610fdd82610fbf565b848454610f44565b825550505050565b5f5f905090565b610ffc610fed565b611007818484610fc8565b505050565b5b8181101561102a5761101f5f82610ff4565b60018101905061100d565b5050565b601f82111561106f5761104081610f17565b61104984610f29565b81016020851015611058578190505b61106c61106485610f29565b83018261100c565b50505b505050565b5f82821c905092915050565b5f61108f5f1984600802611074565b1980831691505092915050565b5f6110a78383611080565b9150826002028217905092915050565b6110c082610896565b67ffffffffffffffff8111156110d9576110d8610b95565b5b6110e38254610df1565b6110ee82828561102e565b5f60209050601f83116001811461111f575f841561110d578287015190505b611117858261109c565b86555061117e565b601f19841661112d86610f17565b5f5b828110156111545784890151825560018201915060208501945060208101905061112f565b86831015611171578489015161116d601f891682611080565b8355505b6001600288020188555050505b505050505050565b7f4e487b71000000000000000000000000000000000000000000000000000000005f52603260045260245ffdfea2646970667358221220b01ae1a83b5094bfdbf5584d7e32039a8608bdf1da41973739839e2bf7b7918264736f6c634300081e0033",
					"opcodes": "PUSH1 0x80 PUSH1 0x40 MSTORE PUSH2 0x118 PUSH0 PUSH0 PUSH2 0x100 EXP DUP2 SLOAD DUP2 PUSH2 0xFFFF MUL NOT AND SWAP1 DUP4 PUSH2 0xFFFF AND MUL OR SWAP1 SSTORE POP CALLVALUE DUP1 ISZERO PUSH1 0x2B JUMPI PUSH0 PUSH0 REVERT JUMPDEST POP CALLER PUSH1 0x2 PUSH0 PUSH2 0x100 EXP DUP2 SLOAD DUP2 PUSH20 0xFFFFFFFFFFFFFFFFFFFFFFFFFFFFFFFFFFFFFFFF MUL NOT AND SWAP1 DUP4 PUSH20 0xFFFFFFFFFFFFFFFFFFFFFFFFFFFFFFFFFFFFFFFF AND MUL OR SWAP1 SSTORE POP PUSH2 0x11E9 DUP1 PUSH2 0x79 PUSH0 CODECOPY PUSH0 RETURN INVALID PUSH1 0x80 PUSH1 0x40 MSTORE CALLVALUE DUP1 ISZERO PUSH2 0xF JUMPI PUSH0 PUSH0 REVERT JUMPDEST POP PUSH1 0x4 CALLDATASIZE LT PUSH2 0x60 JUMPI PUSH0 CALLDATALOAD PUSH1 0xE0 SHR DUP1 PUSH4 0x5A1B4A9 EQ PUSH2 0x64 JUMPI DUP1 PUSH4 0x12E7EE1C EQ PUSH2 0x97 JUMPI DUP1 PUSH4 0x58BFA4AB EQ PUSH2 0xC7 JUMPI DUP1 PUSH4 0x7C9CD2BC EQ PUSH2 0xE3 JUMPI DUP1 PUSH4 0x8DA5CB5B EQ PUSH2 0xFF JUMPI DUP1 PUSH4 0xC3AD5ECB EQ PUSH2 0x11D JUMPI JUMPDEST PUSH0 PUSH0 REVERT JUMPDEST PUSH2 0x7E PUSH1 0x4 DUP1 CALLDATASIZE SUB DUP2 ADD SWAP1 PUSH2 0x79 SWAP2 SWAP1 PUSH2 0x849 JUMP JUMPDEST PUSH2 0x14D JUMP JUMPDEST PUSH1 0x40 MLOAD PUSH2 0x8E SWAP5 SWAP4 SWAP3 SWAP2 SWAP1 PUSH2 0x915 JUMP JUMPDEST PUSH1 0x40 MLOAD DUP1 SWAP2 SUB SWAP1 RETURN JUMPDEST PUSH2 0xB1 PUSH1 0x4 DUP1 CALLDATASIZE SUB DUP2 ADD SWAP1 PUSH2 0xAC SWAP2 SWAP1 PUSH2 0x95F JUMP JUMPDEST PUSH2 0x238 JUMP JUMPDEST PUSH1 0x40 MLOAD PUSH2 0xBE SWAP2 SWAP1 PUSH2 0xB0B JUMP JUMPDEST PUSH1 0x40 MLOAD DUP1 SWAP2 SUB SWAP1 RETURN JUMPDEST PUSH2 0xE1 PUSH1 0x4 DUP1 CALLDATASIZE SUB DUP2 ADD SWAP1 PUSH2 0xDC SWAP2 SWAP1 PUSH2 0xB62 JUMP JUMPDEST PUSH2 0x3C9 JUMP JUMPDEST STOP JUMPDEST PUSH2 0xFD PUSH1 0x4 DUP1 CALLDATASIZE SUB DUP2 ADD SWAP1 PUSH2 0xF8 SWAP2 SWAP1 PUSH2 0xCB9 JUMP JUMPDEST PUSH2 0x476 JUMP JUMPDEST STOP JUMPDEST PUSH2 0x107 PUSH2 0x5DE JUMP JUMPDEST PUSH1 0x40 MLOAD PUSH2 0x114 SWAP2 SWAP1 PUSH2 0xD00 JUMP JUMPDEST PUSH1 0x40 MLOAD DUP1 SWAP2 SUB SWAP1 RETURN JUMPDEST PUSH2 0x137 PUSH1 0x4 DUP1 CALLDATASIZE SUB DUP2 ADD SWAP1 PUSH2 0x132 SWAP2 SWAP1 PUSH2 0xD19 JUMP JUMPDEST PUSH2 0x603 JUMP JUMPDEST PUSH1 0x40 MLOAD PUSH2 0x144 SWAP2 SWAP1 PUSH2 0xDA4 JUMP JUMPDEST PUSH1 0x40 MLOAD DUP1 SWAP2 SUB SWAP1 RETURN JUMPDEST PUSH1 0x1 PUSH1 0x20 MSTORE DUP2 PUSH0 MSTORE PUSH1 0x40 PUSH0 KECCAK256 DUP2 DUP2 SLOAD DUP2 LT PUSH2 0x166 JUMPI PUSH0 DUP1 REVERT JUMPDEST SWAP1 PUSH0 MSTORE PUSH1 0x20 PUSH0 KECCAK256 SWAP1 PUSH1 0x4 MUL ADD PUSH0 SWAP2 POP SWAP2 POP POP DUP1 PUSH0 ADD PUSH0 SWAP1 SLOAD SWAP1 PUSH2 0x100 EXP SWAP1 DIV PUSH20 0xFFFFFFFFFFFFFFFFFFFFFFFFFFFFFFFFFFFFFFFF AND SWAP1 DUP1 PUSH1 0x1 ADD DUP1 SLOAD PUSH2 0x1AB SWAP1 PUSH2 0xDF1 JUMP JUMPDEST DUP1 PUSH1 0x1F ADD PUSH1 0x20 DUP1 SWAP2 DIV MUL PUSH1 0x20 ADD PUSH1 0x40 MLOAD SWAP1 DUP2 ADD PUSH1 0x40 MSTORE DUP1 SWAP3 SWAP2 SWAP1 DUP2 DUP2 MSTORE PUSH1 0x20 ADD DUP3 DUP1 SLOAD PUSH2 0x1D7 SWAP1 PUSH2 0xDF1 JUMP JUMPDEST DUP1 ISZERO PUSH2 0x222 JUMPI DUP1 PUSH1 0x1F LT PUSH2 0x1F9 JUMPI PUSH2 0x100 DUP1 DUP4 SLOAD DIV MUL DUP4 MSTORE SWAP2 PUSH1 0x20 ADD SWAP2 PUSH2 0x222 JUMP JUMPDEST DUP3 ADD SWAP2 SWAP1 PUSH0 MSTORE PUSH1 0x20 PUSH0 KECCAK256 SWAP1 JUMPDEST DUP2 SLOAD DUP2 MSTORE SWAP1 PUSH1 0x1 ADD SWAP1 PUSH1 0x20 ADD DUP1 DUP4 GT PUSH2 0x205 JUMPI DUP3 SWAP1 SUB PUSH1 0x1F AND DUP3 ADD SWAP2 JUMPDEST POP POP POP POP POP SWAP1 DUP1 PUSH1 0x2 ADD SLOAD SWAP1 DUP1 PUSH1 0x3 ADD SLOAD SWAP1 POP DUP5 JUMP JUMPDEST PUSH1 0x60 PUSH1 0x1 PUSH0 DUP4 PUSH20 0xFFFFFFFFFFFFFFFFFFFFFFFFFFFFFFFFFFFFFFFF AND PUSH20 0xFFFFFFFFFFFFFFFFFFFFFFFFFFFFFFFFFFFFFFFF AND DUP2 MSTORE PUSH1 0x20 ADD SWAP1 DUP2 MSTORE PUSH1 0x20 ADD PUSH0 KECCAK256 DUP1 SLOAD DUP1 PUSH1 0x20 MUL PUSH1 0x20 ADD PUSH1 0x40 MLOAD SWAP1 DUP2 ADD PUSH1 0x40 MSTORE DUP1 SWAP3 SWAP2 SWAP1 DUP2 DUP2 MSTORE PUSH1 0x20 ADD PUSH0 SWAP1 JUMPDEST DUP3 DUP3 LT ISZERO PUSH2 0x3BE JUMPI DUP4 DUP3 SWAP1 PUSH0 MSTORE PUSH1 0x20 PUSH0 KECCAK256 SWAP1 PUSH1 0x4 MUL ADD PUSH1 0x40 MLOAD DUP1 PUSH1 0x80 ADD PUSH1 0x40 MSTORE SWAP1 DUP2 PUSH0 DUP3 ADD PUSH0 SWAP1 SLOAD SWAP1 PUSH2 0x100 EXP SWAP1 DIV PUSH20 0xFFFFFFFFFFFFFFFFFFFFFFFFFFFFFFFFFFFFFFFF AND PUSH20 0xFFFFFFFFFFFFFFFFFFFFFFFFFFFFFFFFFFFFFFFF AND PUSH20 0xFFFFFFFFFFFFFFFFFFFFFFFFFFFFFFFFFFFFFFFF AND DUP2 MSTORE PUSH1 0x20 ADD PUSH1 0x1 DUP3 ADD DUP1 SLOAD PUSH2 0x31B SWAP1 PUSH2 0xDF1 JUMP JUMPDEST DUP1 PUSH1 0x1F ADD PUSH1 0x20 DUP1 SWAP2 DIV MUL PUSH1 0x20 ADD PUSH1 0x40 MLOAD SWAP1 DUP2 ADD PUSH1 0x40 MSTORE DUP1 SWAP3 SWAP2 SWAP1 DUP2 DUP2 MSTORE PUSH1 0x20 ADD DUP3 DUP1 SLOAD PUSH2 0x347 SWAP1 PUSH2 0xDF1 JUMP JUMPDEST DUP1 ISZERO PUSH2 0x392 JUMPI DUP1 PUSH1 0x1F LT PUSH2 0x369 JUMPI PUSH2 0x100 DUP1 DUP4 SLOAD DIV MUL DUP4 MSTORE SWAP2 PUSH1 0x20 ADD SWAP2 PUSH2 0x392 JUMP JUMPDEST DUP3 ADD SWAP2 SWAP1 PUSH0 MSTORE PUSH1 0x20 PUSH0 KECCAK256 SWAP1 JUMPDEST DUP2 SLOAD DUP2 MSTORE SWAP1 PUSH1 0x1 ADD SWAP1 PUSH1 0x20 ADD DUP1 DUP4 GT PUSH2 0x375 JUMPI DUP3 SWAP1 SUB PUSH1 0x1F AND DUP3 ADD SWAP2 JUMPDEST POP POP POP POP POP DUP2 MSTORE PUSH1 0x20 ADD PUSH1 0x2 DUP3 ADD SLOAD DUP2 MSTORE PUSH1 0x20 ADD PUSH1 0x3 DUP3 ADD SLOAD DUP2 MSTORE POP POP DUP2 MSTORE PUSH1 0x20 ADD SWAP1 PUSH1 0x1 ADD SWAP1 PUSH2 0x296 JUMP JUMPDEST POP POP POP POP SWAP1 POP SWAP2 SWAP1 POP JUMP JUMPDEST PUSH1 0x2 PUSH0 SWAP1 SLOAD SWAP1 PUSH2 0x100 EXP SWAP1 DIV PUSH20 0xFFFFFFFFFFFFFFFFFFFFFFFFFFFFFFFFFFFFFFFF AND PUSH20 0xFFFFFFFFFFFFFFFFFFFFFFFFFFFFFFFFFFFFFFFF AND CALLER PUSH20 0xFFFFFFFFFFFFFFFFFFFFFFFFFFFFFFFFFFFFFFFF AND EQ PUSH2 0x458 JUMPI PUSH1 0x40 MLOAD PUSH32 0x8C379A000000000000000000000000000000000000000000000000000000000 DUP2 MSTORE PUSH1 0x4 ADD PUSH2 0x44F SWAP1 PUSH2 0xE6B JUMP JUMPDEST PUSH1 0x40 MLOAD DUP1 SWAP2 SUB SWAP1 REVERT JUMPDEST DUP1 PUSH0 PUSH0 PUSH2 0x100 EXP DUP2 SLOAD DUP2 PUSH2 0xFFFF MUL NOT AND SWAP1 DUP4 PUSH2 0xFFFF AND MUL OR SWAP1 SSTORE POP POP JUMP JUMPDEST PUSH0 PUSH0 SWAP1 SLOAD SWAP1 PUSH2 0x100 EXP SWAP1 DIV PUSH2 0xFFFF AND PUSH2 0xFFFF AND DUP2 MLOAD GT ISZERO PUSH2 0x4CC JUMPI PUSH1 0x40 MLOAD PUSH32 0x8C379A000000000000000000000000000000000000000000000000000000000 DUP2 MSTORE PUSH1 0x4 ADD PUSH2 0x4C3 SWAP1 PUSH2 0xEF9 JUMP JUMPDEST PUSH1 0x40 MLOAD DUP1 SWAP2 SUB SWAP1 REVERT JUMPDEST PUSH0 PUSH1 0x40 MLOAD DUP1 PUSH1 0x80 ADD PUSH1 0x40 MSTORE DUP1 CALLER PUSH20 0xFFFFFFFFFFFFFFFFFFFFFFFFFFFFFFFFFFFFFFFF AND DUP2 MSTORE PUSH1 0x20 ADD DUP4 DUP2 MSTORE PUSH1 0x20 ADD TIMESTAMP DUP2 MSTORE PUSH1 0x20 ADD PUSH0 DUP2 MSTORE POP SWAP1 POP PUSH1 0x1 PUSH0 CALLER PUSH20 0xFFFFFFFFFFFFFFFFFFFFFFFFFFFFFFFFFFFFFFFF AND PUSH20 0xFFFFFFFFFFFFFFFFFFFFFFFFFFFFFFFFFFFFFFFF AND DUP2 MSTORE PUSH1 0x20 ADD SWAP1 DUP2 MSTORE PUSH1 0x20 ADD PUSH0 KECCAK256 DUP2 SWAP1 DUP1 PUSH1 0x1 DUP2 SLOAD ADD DUP1 DUP3 SSTORE DUP1 SWAP2 POP POP PUSH1 0x1 SWAP1 SUB SWAP1 PUSH0 MSTORE PUSH1 0x20 PUSH0 KECCAK256 SWAP1 PUSH1 0x4 MUL ADD PUSH0 SWAP1 SWAP2 SWAP1 SWAP2 SWAP1 SWAP2 POP PUSH0 DUP3 ADD MLOAD DUP2 PUSH0 ADD PUSH0 PUSH2 0x100 EXP DUP2 SLOAD DUP2 PUSH20 0xFFFFFFFFFFFFFFFFFFFFFFFFFFFFFFFFFFFFFFFF MUL NOT AND SWAP1 DUP4 PUSH20 0xFFFFFFFFFFFFFFFFFFFFFFFFFFFFFFFFFFFFFFFF AND MUL OR SWAP1 SSTORE POP PUSH1 0x20 DUP3 ADD MLOAD DUP2 PUSH1 0x1 ADD SWAP1 DUP2 PUSH2 0x5C3 SWAP2 SWAP1 PUSH2 0x10B7 JUMP JUMPDEST POP PUSH1 0x40 DUP3 ADD MLOAD DUP2 PUSH1 0x2 ADD SSTORE PUSH1 0x60 DUP3 ADD MLOAD DUP2 PUSH1 0x3 ADD SSTORE POP POP POP POP JUMP JUMPDEST PUSH1 0x2 PUSH0 SWAP1 SLOAD SWAP1 PUSH2 0x100 EXP SWAP1 DIV PUSH20 0xFFFFFFFFFFFFFFFFFFFFFFFFFFFFFFFFFFFFFFFF AND DUP2 JUMP JUMPDEST PUSH2 0x60B PUSH2 0x770 JUMP JUMPDEST PUSH1 0x1 PUSH0 CALLER PUSH20 0xFFFFFFFFFFFFFFFFFFFFFFFFFFFFFFFFFFFFFFFF AND PUSH20 0xFFFFFFFFFFFFFFFFFFFFFFFFFFFFFFFFFFFFFFFF AND DUP2 MSTORE PUSH1 0x20 ADD SWAP1 DUP2 MSTORE PUSH1 0x20 ADD PUSH0 KECCAK256 DUP3 DUP2 SLOAD DUP2 LT PUSH2 0x65A JUMPI PUSH2 0x659 PUSH2 0x1186 JUMP JUMPDEST JUMPDEST SWAP1 PUSH0 MSTORE PUSH1 0x20 PUSH0 KECCAK256 SWAP1 PUSH1 0x4 MUL ADD PUSH1 0x40 MLOAD DUP1 PUSH1 0x80 ADD PUSH1 0x40 MSTORE SWAP1 DUP2 PUSH0 DUP3 ADD PUSH0 SWAP1 SLOAD SWAP1 PUSH2 0x100 EXP SWAP1 DIV PUSH20 0xFFFFFFFFFFFFFFFFFFFFFFFFFFFFFFFFFFFFFFFF AND PUSH20 0xFFFFFFFFFFFFFFFFFFFFFFFFFFFFFFFFFFFFFFFF AND PUSH20 0xFFFFFFFFFFFFFFFFFFFFFFFFFFFFFFFFFFFFFFFF AND DUP2 MSTORE PUSH1 0x20 ADD PUSH1 0x1 DUP3 ADD DUP1 SLOAD PUSH2 0x6D5 SWAP1 PUSH2 0xDF1 JUMP JUMPDEST DUP1 PUSH1 0x1F ADD PUSH1 0x20 DUP1 SWAP2 DIV MUL PUSH1 0x20 ADD PUSH1 0x40 MLOAD SWAP1 DUP2 ADD PUSH1 0x40 MSTORE DUP1 SWAP3 SWAP2 SWAP1 DUP2 DUP2 MSTORE PUSH1 0x20 ADD DUP3 DUP1 SLOAD PUSH2 0x701 SWAP1 PUSH2 0xDF1 JUMP JUMPDEST DUP1 ISZERO PUSH2 0x74C JUMPI DUP1 PUSH1 0x1F LT PUSH2 0x723 JUMPI PUSH2 0x100 DUP1 DUP4 SLOAD DIV MUL DUP4 MSTORE SWAP2 PUSH1 0x20 ADD SWAP2 PUSH2 0x74C JUMP JUMPDEST DUP3 ADD SWAP2 SWAP1 PUSH0 MSTORE PUSH1 0x20 PUSH0 KECCAK256 SWAP1 JUMPDEST DUP2 SLOAD DUP2 MSTORE SWAP1 PUSH1 0x1 ADD SWAP1 PUSH1 0x20 ADD DUP1 DUP4 GT PUSH2 0x72F JUMPI DUP3 SWAP1 SUB PUSH1 0x1F AND DUP3 ADD SWAP2 JUMPDEST POP POP POP POP POP DUP2 MSTORE PUSH1 0x20 ADD PUSH1 0x2 DUP3 ADD SLOAD DUP2 MSTORE PUSH1 0x20 ADD PUSH1 0x3 DUP3 ADD SLOAD DUP2 MSTORE POP POP SWAP1 POP SWAP2 SWAP1 POP JUMP JUMPDEST PUSH1 0x40 MLOAD DUP1 PUSH1 0x80 ADD PUSH1 0x40 MSTORE DUP1 PUSH0 PUSH20 0xFFFFFFFFFFFFFFFFFFFFFFFFFFFFFFFFFFFFFFFF AND DUP2 MSTORE PUSH1 0x20 ADD PUSH1 0x60 DUP2 MSTORE PUSH1 0x20 ADD PUSH0 DUP2 MSTORE PUSH1 0x20 ADD PUSH0 DUP2 MSTORE POP SWAP1 JUMP JUMPDEST PUSH0 PUSH1 0x40 MLOAD SWAP1 POP SWAP1 JUMP JUMPDEST PUSH0 PUSH0 REVERT JUMPDEST PUSH0 PUSH0 REVERT JUMPDEST PUSH0 PUSH20 0xFFFFFFFFFFFFFFFFFFFFFFFFFFFFFFFFFFFFFFFF DUP3 AND SWAP1 POP SWAP2 SWAP1 POP JUMP JUMPDEST PUSH0 PUSH2 0x7E5 DUP3 PUSH2 0x7BC JUMP JUMPDEST SWAP1 POP SWAP2 SWAP1 POP JUMP JUMPDEST PUSH2 0x7F5 DUP2 PUSH2 0x7DB JUMP JUMPDEST DUP2 EQ PUSH2 0x7FF JUMPI PUSH0 PUSH0 REVERT JUMPDEST POP JUMP JUMPDEST PUSH0 DUP2 CALLDATALOAD SWAP1 POP PUSH2 0x810 DUP2 PUSH2 0x7EC JUMP JUMPDEST SWAP3 SWAP2 POP POP JUMP JUMPDEST PUSH0 DUP2 SWAP1 POP SWAP2 SWAP1 POP JUMP JUMPDEST PUSH2 0x828 DUP2 PUSH2 0x816 JUMP JUMPDEST DUP2 EQ PUSH2 0x832 JUMPI PUSH0 PUSH0 REVERT JUMPDEST POP JUMP JUMPDEST PUSH0 DUP2 CALLDATALOAD SWAP1 POP PUSH2 0x843 DUP2 PUSH2 0x81F JUMP JUMPDEST SWAP3 SWAP2 POP POP JUMP JUMPDEST PUSH0 PUSH0 PUSH1 0x40 DUP4 DUP6 SUB SLT ISZERO PUSH2 0x85F JUMPI PUSH2 0x85E PUSH2 0x7B4 JUMP JUMPDEST JUMPDEST PUSH0 PUSH2 0x86C DUP6 DUP3 DUP7 ADD PUSH2 0x802 JUMP JUMPDEST SWAP3 POP POP PUSH1 0x20 PUSH2 0x87D DUP6 DUP3 DUP7 ADD PUSH2 0x835 JUMP JUMPDEST SWAP2 POP POP SWAP3 POP SWAP3 SWAP1 POP JUMP JUMPDEST PUSH2 0x890 DUP2 PUSH2 0x7DB JUMP JUMPDEST DUP3 MSTORE POP POP JUMP JUMPDEST PUSH0 DUP2 MLOAD SWAP1 POP SWAP2 SWAP1 POP JUMP JUMPDEST PUSH0 DUP3 DUP3 MSTORE PUSH1 0x20 DUP3 ADD SWAP1 POP SWAP3 SWAP2 POP POP JUMP JUMPDEST DUP3 DUP2 DUP4 MCOPY PUSH0 DUP4 DUP4 ADD MSTORE POP POP POP JUMP JUMPDEST PUSH0 PUSH1 0x1F NOT PUSH1 0x1F DUP4 ADD AND SWAP1 POP SWAP2 SWAP1 POP JUMP JUMPDEST PUSH0 PUSH2 0x8D8 DUP3 PUSH2 0x896 JUMP JUMPDEST PUSH2 0x8E2 DUP2 DUP6 PUSH2 0x8A0 JUMP JUMPDEST SWAP4 POP PUSH2 0x8F2 DUP2 DUP6 PUSH1 0x20 DUP7 ADD PUSH2 0x8B0 JUMP JUMPDEST PUSH2 0x8FB DUP2 PUSH2 0x8BE JUMP JUMPDEST DUP5 ADD SWAP2 POP POP SWAP3 SWAP2 POP POP JUMP JUMPDEST PUSH2 0x90F DUP2 PUSH2 0x816 JUMP JUMPDEST DUP3 MSTORE POP POP JUMP JUMPDEST PUSH0 PUSH1 0x80 DUP3 ADD SWAP1 POP PUSH2 0x928 PUSH0 DUP4 ADD DUP8 PUSH2 0x887 JUMP JUMPDEST DUP2 DUP2 SUB PUSH1 0x20 DUP4 ADD MSTORE PUSH2 0x93A DUP2 DUP7 PUSH2 0x8CE JUMP JUMPDEST SWAP1 POP PUSH2 0x949 PUSH1 0x40 DUP4 ADD DUP6 PUSH2 0x906 JUMP JUMPDEST PUSH2 0x956 PUSH1 0x60 DUP4 ADD DUP5 PUSH2 0x906 JUMP JUMPDEST SWAP6 SWAP5 POP POP POP POP POP JUMP JUMPDEST PUSH0 PUSH1 0x20 DUP3 DUP5 SUB SLT ISZERO PUSH2 0x974 JUMPI PUSH2 0x973 PUSH2 0x7B4 JUMP JUMPDEST JUMPDEST PUSH0 PUSH2 0x981 DUP5 DUP3 DUP6 ADD PUSH2 0x802 JUMP JUMPDEST SWAP2 POP POP SWAP3 SWAP2 POP POP JUMP JUMPDEST PUSH0 DUP2 MLOAD SWAP1 POP SWAP2 SWAP1 POP JUMP JUMPDEST PUSH0 DUP3 DUP3 MSTORE PUSH1 0x20 DUP3 ADD SWAP1 POP SWAP3 SWAP2 POP POP JUMP JUMPDEST PUSH0 DUP2 SWAP1 POP PUSH1 0x20 DUP3 ADD SWAP1 POP SWAP2 SWAP1 POP JUMP JUMPDEST PUSH2 0x9BC DUP2 PUSH2 0x7DB JUMP JUMPDEST DUP3 MSTORE POP POP JUMP JUMPDEST PUSH0 DUP3 DUP3 MSTORE PUSH1 0x20 DUP3 ADD SWAP1 POP SWAP3 SWAP2 POP POP JUMP JUMPDEST PUSH0 PUSH2 0x9DC DUP3 PUSH2 0x896 JUMP JUMPDEST PUSH2 0x9E6 DUP2 DUP6 PUSH2 0x9C2 JUMP JUMPDEST SWAP4 POP PUSH2 0x9F6 DUP2 DUP6 PUSH1 0x20 DUP7 ADD PUSH2 0x8B0 JUMP JUMPDEST PUSH2 0x9FF DUP2 PUSH2 0x8BE JUMP JUMPDEST DUP5 ADD SWAP2 POP POP SWAP3 SWAP2 POP POP JUMP JUMPDEST PUSH2 0xA13 DUP2 PUSH2 0x816 JUMP JUMPDEST DUP3 MSTORE POP POP JUMP JUMPDEST PUSH0 PUSH1 0x80 DUP4 ADD PUSH0 DUP4 ADD MLOAD PUSH2 0xA2E PUSH0 DUP7 ADD DUP3 PUSH2 0x9B3 JUMP JUMPDEST POP PUSH1 0x20 DUP4 ADD MLOAD DUP5 DUP3 SUB PUSH1 0x20 DUP7 ADD MSTORE PUSH2 0xA46 DUP3 DUP3 PUSH2 0x9D2 JUMP JUMPDEST SWAP2 POP POP PUSH1 0x40 DUP4 ADD MLOAD PUSH2 0xA5B PUSH1 0x40 DUP7 ADD DUP3 PUSH2 0xA0A JUMP JUMPDEST POP PUSH1 0x60 DUP4 ADD MLOAD PUSH2 0xA6E PUSH1 0x60 DUP7 ADD DUP3 PUSH2 0xA0A JUMP JUMPDEST POP DUP1 SWAP2 POP POP SWAP3 SWAP2 POP POP JUMP JUMPDEST PUSH0 PUSH2 0xA84 DUP4 DUP4 PUSH2 0xA19 JUMP JUMPDEST SWAP1 POP SWAP3 SWAP2 POP POP JUMP JUMPDEST PUSH0 PUSH1 0x20 DUP3 ADD SWAP1 POP SWAP2 SWAP1 POP JUMP JUMPDEST PUSH0 PUSH2 0xAA2 DUP3 PUSH2 0x98A JUMP JUMPDEST PUSH2 0xAAC DUP2 DUP6 PUSH2 0x994 JUMP JUMPDEST SWAP4 POP DUP4 PUSH1 0x20 DUP3 MUL DUP6 ADD PUSH2 0xABE DUP6 PUSH2 0x9A4 JUMP JUMPDEST DUP1 PUSH0 JUMPDEST DUP6 DUP2 LT ISZERO PUSH2 0xAF9 JUMPI DUP5 DUP5 SUB DUP10 MSTORE DUP2 MLOAD PUSH2 0xADA DUP6 DUP3 PUSH2 0xA79 JUMP JUMPDEST SWAP5 POP PUSH2 0xAE5 DUP4 PUSH2 0xA8C JUMP JUMPDEST SWAP3 POP PUSH1 0x20 DUP11 ADD SWAP10 POP POP PUSH1 0x1 DUP2 ADD SWAP1 POP PUSH2 0xAC1 JUMP JUMPDEST POP DUP3 SWAP8 POP DUP8 SWAP6 POP POP POP POP POP POP SWAP3 SWAP2 POP POP JUMP JUMPDEST PUSH0 PUSH1 0x20 DUP3 ADD SWAP1 POP DUP2 DUP2 SUB PUSH0 DUP4 ADD MSTORE PUSH2 0xB23 DUP2 DUP5 PUSH2 0xA98 JUMP JUMPDEST SWAP1 POP SWAP3 SWAP2 POP POP JUMP JUMPDEST PUSH0 PUSH2 0xFFFF DUP3 AND SWAP1 POP SWAP2 SWAP1 POP JUMP JUMPDEST PUSH2 0xB41 DUP2 PUSH2 0xB2B JUMP JUMPDEST DUP2 EQ PUSH2 0xB4B JUMPI PUSH0 PUSH0 REVERT JUMPDEST POP JUMP JUMPDEST PUSH0 DUP2 CALLDATALOAD SWAP1 POP PUSH2 0xB5C DUP2 PUSH2 0xB38 JUMP JUMPDEST SWAP3 SWAP2 POP POP JUMP JUMPDEST PUSH0 PUSH1 0x20 DUP3 DUP5 SUB SLT ISZERO PUSH2 0xB77 JUMPI PUSH2 0xB76 PUSH2 0x7B4 JUMP JUMPDEST JUMPDEST PUSH0 PUSH2 0xB84 DUP5 DUP3 DUP6 ADD PUSH2 0xB4E JUMP JUMPDEST SWAP2 POP POP SWAP3 SWAP2 POP POP JUMP JUMPDEST PUSH0 PUSH0 REVERT JUMPDEST PUSH0 PUSH0 REVERT JUMPDEST PUSH32 0x4E487B7100000000000000000000000000000000000000000000000000000000 PUSH0 MSTORE PUSH1 0x41 PUSH1 0x4 MSTORE PUSH1 0x24 PUSH0 REVERT JUMPDEST PUSH2 0xBCB DUP3 PUSH2 0x8BE JUMP JUMPDEST DUP2 ADD DUP2 DUP2 LT PUSH8 0xFFFFFFFFFFFFFFFF DUP3 GT OR ISZERO PUSH2 0xBEA JUMPI PUSH2 0xBE9 PUSH2 0xB95 JUMP JUMPDEST JUMPDEST DUP1 PUSH1 0x40 MSTORE POP POP POP JUMP JUMPDEST PUSH0 PUSH2 0xBFC PUSH2 0x7AB JUMP JUMPDEST SWAP1 POP PUSH2 0xC08 DUP3 DUP3 PUSH2 0xBC2 JUMP JUMPDEST SWAP2 SWAP1 POP JUMP JUMPDEST PUSH0 PUSH8 0xFFFFFFFFFFFFFFFF DUP3 GT ISZERO PUSH2 0xC27 JUMPI PUSH2 0xC26 PUSH2 0xB95 JUMP JUMPDEST JUMPDEST PUSH2 0xC30 DUP3 PUSH2 0x8BE JUMP JUMPDEST SWAP1 POP PUSH1 0x20 DUP2 ADD SWAP1 POP SWAP2 SWAP1 POP JUMP JUMPDEST DUP3 DUP2 DUP4 CALLDATACOPY PUSH0 DUP4 DUP4 ADD MSTORE POP POP POP JUMP JUMPDEST PUSH0 PUSH2 0xC5D PUSH2 0xC58 DUP5 PUSH2 0xC0D JUMP JUMPDEST PUSH2 0xBF3 JUMP JUMPDEST SWAP1 POP DUP3 DUP2 MSTORE PUSH1 0x20 DUP2 ADD DUP5 DUP5 DUP5 ADD GT ISZERO PUSH2 0xC79 JUMPI PUSH2 0xC78 PUSH2 0xB91 JUMP JUMPDEST JUMPDEST PUSH2 0xC84 DUP5 DUP3 DUP6 PUSH2 0xC3D JUMP JUMPDEST POP SWAP4 SWAP3 POP POP POP JUMP JUMPDEST PUSH0 DUP3 PUSH1 0x1F DUP4 ADD SLT PUSH2 0xCA0 JUMPI PUSH2 0xC9F PUSH2 0xB8D JUMP JUMPDEST JUMPDEST DUP2 CALLDATALOAD PUSH2 0xCB0 DUP5 DUP3 PUSH1 0x20 DUP7 ADD PUSH2 0xC4B JUMP JUMPDEST SWAP2 POP POP SWAP3 SWAP2 POP POP JUMP JUMPDEST PUSH0 PUSH1 0x20 DUP3 DUP5 SUB SLT ISZERO PUSH2 0xCCE JUMPI PUSH2 0xCCD PUSH2 0x7B4 JUMP JUMPDEST JUMPDEST PUSH0 DUP3 ADD CALLDATALOAD PUSH8 0xFFFFFFFFFFFFFFFF DUP2 GT ISZERO PUSH2 0xCEB JUMPI PUSH2 0xCEA PUSH2 0x7B8 JUMP JUMPDEST JUMPDEST PUSH2 0xCF7 DUP5 DUP3 DUP6 ADD PUSH2 0xC8C JUMP JUMPDEST SWAP2 POP POP SWAP3 SWAP2 POP POP JUMP JUMPDEST PUSH0 PUSH1 0x20 DUP3 ADD SWAP1 POP PUSH2 0xD13 PUSH0 DUP4 ADD DUP5 PUSH2 0x887 JUMP JUMPDEST SWAP3 SWAP2 POP POP JUMP JUMPDEST PUSH0 PUSH1 0x20 DUP3 DUP5 SUB SLT ISZERO PUSH2 0xD2E JUMPI PUSH2 0xD2D PUSH2 0x7B4 JUMP JUMPDEST JUMPDEST PUSH0 PUSH2 0xD3B DUP5 DUP3 DUP6 ADD PUSH2 0x835 JUMP JUMPDEST SWAP2 POP POP SWAP3 SWAP2 POP POP JUMP JUMPDEST PUSH0 PUSH1 0x80 DUP4 ADD PUSH0 DUP4 ADD MLOAD PUSH2 0xD59 PUSH0 DUP7 ADD DUP3 PUSH2 0x9B3 JUMP JUMPDEST POP PUSH1 0x20 DUP4 ADD MLOAD DUP5 DUP3 SUB PUSH1 0x20 DUP7 ADD MSTORE PUSH2 0xD71 DUP3 DUP3 PUSH2 0x9D2 JUMP JUMPDEST SWAP2 POP POP PUSH1 0x40 DUP4 ADD MLOAD PUSH2 0xD86 PUSH1 0x40 DUP7 ADD DUP3 PUSH2 0xA0A JUMP JUMPDEST POP PUSH1 0x60 DUP4 ADD MLOAD PUSH2 0xD99 PUSH1 0x60 DUP7 ADD DUP3 PUSH2 0xA0A JUMP JUMPDEST POP DUP1 SWAP2 POP POP SWAP3 SWAP2 POP POP JUMP JUMPDEST PUSH0 PUSH1 0x20 DUP3 ADD SWAP1 POP DUP2 DUP2 SUB PUSH0 DUP4 ADD MSTORE PUSH2 0xDBC DUP2 DUP5 PUSH2 0xD44 JUMP JUMPDEST SWAP1 POP SWAP3 SWAP2 POP POP JUMP JUMPDEST PUSH32 0x4E487B7100000000000000000000000000000000000000000000000000000000 PUSH0 MSTORE PUSH1 0x22 PUSH1 0x4 MSTORE PUSH1 0x24 PUSH0 REVERT JUMPDEST PUSH0 PUSH1 0x2 DUP3 DIV SWAP1 POP PUSH1 0x1 DUP3 AND DUP1 PUSH2 0xE08 JUMPI PUSH1 0x7F DUP3 AND SWAP2 POP JUMPDEST PUSH1 0x20 DUP3 LT DUP2 SUB PUSH2 0xE1B JUMPI PUSH2 0xE1A PUSH2 0xDC4 JUMP JUMPDEST JUMPDEST POP SWAP2 SWAP1 POP JUMP JUMPDEST PUSH32 0x596F7520617265206E6F742074686520636F6E7472616374206F776E65720000 PUSH0 DUP3 ADD MSTORE POP JUMP JUMPDEST PUSH0 PUSH2 0xE55 PUSH1 0x1E DUP4 PUSH2 0x8A0 JUMP JUMPDEST SWAP2 POP PUSH2 0xE60 DUP3 PUSH2 0xE21 JUMP JUMPDEST PUSH1 0x20 DUP3 ADD SWAP1 POP SWAP2 SWAP1 POP JUMP JUMPDEST PUSH0 PUSH1 0x20 DUP3 ADD SWAP1 POP DUP2 DUP2 SUB PUSH0 DUP4 ADD MSTORE PUSH2 0xE82 DUP2 PUSH2 0xE49 JUMP JUMPDEST SWAP1 POP SWAP2 SWAP1 POP JUMP JUMPDEST PUSH32 0x54776565742073686F756C6420626520756E6465722032383020636861726163 PUSH0 DUP3 ADD MSTORE PUSH32 0x7465727300000000000000000000000000000000000000000000000000000000 PUSH1 0x20 DUP3 ADD MSTORE POP JUMP JUMPDEST PUSH0 PUSH2 0xEE3 PUSH1 0x24 DUP4 PUSH2 0x8A0 JUMP JUMPDEST SWAP2 POP PUSH2 0xEEE DUP3 PUSH2 0xE89 JUMP JUMPDEST PUSH1 0x40 DUP3 ADD SWAP1 POP SWAP2 SWAP1 POP JUMP JUMPDEST PUSH0 PUSH1 0x20 DUP3 ADD SWAP1 POP DUP2 DUP2 SUB PUSH0 DUP4 ADD MSTORE PUSH2 0xF10 DUP2 PUSH2 0xED7 JUMP JUMPDEST SWAP1 POP SWAP2 SWAP1 POP JUMP JUMPDEST PUSH0 DUP2 SWAP1 POP DUP2 PUSH0 MSTORE PUSH1 0x20 PUSH0 KECCAK256 SWAP1 POP SWAP2 SWAP1 POP JUMP JUMPDEST PUSH0 PUSH1 0x20 PUSH1 0x1F DUP4 ADD DIV SWAP1 POP SWAP2 SWAP1 POP JUMP JUMPDEST PUSH0 DUP3 DUP3 SHL SWAP1 POP SWAP3 SWAP2 POP POP JUMP JUMPDEST PUSH0 PUSH1 0x8 DUP4 MUL PUSH2 0xF73 PUSH32 0xFFFFFFFFFFFFFFFFFFFFFFFFFFFFFFFFFFFFFFFFFFFFFFFFFFFFFFFFFFFFFFFF DUP3 PUSH2 0xF38 JUMP JUMPDEST PUSH2 0xF7D DUP7 DUP4 PUSH2 0xF38 JUMP JUMPDEST SWAP6 POP DUP1 NOT DUP5 AND SWAP4 POP DUP1 DUP7 AND DUP5 OR SWAP3 POP POP POP SWAP4 SWAP3 POP POP POP JUMP JUMPDEST PUSH0 DUP2 SWAP1 POP SWAP2 SWAP1 POP JUMP JUMPDEST PUSH0 PUSH2 0xFB8 PUSH2 0xFB3 PUSH2 0xFAE DUP5 PUSH2 0x816 JUMP JUMPDEST PUSH2 0xF95 JUMP JUMPDEST PUSH2 0x816 JUMP JUMPDEST SWAP1 POP SWAP2 SWAP1 POP JUMP JUMPDEST PUSH0 DUP2 SWAP1 POP SWAP2 SWAP1 POP JUMP JUMPDEST PUSH2 0xFD1 DUP4 PUSH2 0xF9E JUMP JUMPDEST PUSH2 0xFE5 PUSH2 0xFDD DUP3 PUSH2 0xFBF JUMP JUMPDEST DUP5 DUP5 SLOAD PUSH2 0xF44 JUMP JUMPDEST DUP3 SSTORE POP POP POP POP JUMP JUMPDEST PUSH0 PUSH0 SWAP1 POP SWAP1 JUMP JUMPDEST PUSH2 0xFFC PUSH2 0xFED JUMP JUMPDEST PUSH2 0x1007 DUP2 DUP5 DUP5 PUSH2 0xFC8 JUMP JUMPDEST POP POP POP JUMP JUMPDEST JUMPDEST DUP2 DUP2 LT ISZERO PUSH2 0x102A JUMPI PUSH2 0x101F PUSH0 DUP3 PUSH2 0xFF4 JUMP JUMPDEST PUSH1 0x1 DUP2 ADD SWAP1 POP PUSH2 0x100D JUMP JUMPDEST POP POP JUMP JUMPDEST PUSH1 0x1F DUP3 GT ISZERO PUSH2 0x106F JUMPI PUSH2 0x1040 DUP2 PUSH2 0xF17 JUMP JUMPDEST PUSH2 0x1049 DUP5 PUSH2 0xF29 JUMP JUMPDEST DUP2 ADD PUSH1 0x20 DUP6 LT ISZERO PUSH2 0x1058 JUMPI DUP2 SWAP1 POP JUMPDEST PUSH2 0x106C PUSH2 0x1064 DUP6 PUSH2 0xF29 JUMP JUMPDEST DUP4 ADD DUP3 PUSH2 0x100C JUMP JUMPDEST POP POP JUMPDEST POP POP POP JUMP JUMPDEST PUSH0 DUP3 DUP3 SHR SWAP1 POP SWAP3 SWAP2 POP POP JUMP JUMPDEST PUSH0 PUSH2 0x108F PUSH0 NOT DUP5 PUSH1 0x8 MUL PUSH2 0x1074 JUMP JUMPDEST NOT DUP1 DUP4 AND SWAP2 POP POP SWAP3 SWAP2 POP POP JUMP JUMPDEST PUSH0 PUSH2 0x10A7 DUP4 DUP4 PUSH2 0x1080 JUMP JUMPDEST SWAP2 POP DUP3 PUSH1 0x2 MUL DUP3 OR SWAP1 POP SWAP3 SWAP2 POP POP JUMP JUMPDEST PUSH2 0x10C0 DUP3 PUSH2 0x896 JUMP JUMPDEST PUSH8 0xFFFFFFFFFFFFFFFF DUP2 GT ISZERO PUSH2 0x10D9 JUMPI PUSH2 0x10D8 PUSH2 0xB95 JUMP JUMPDEST JUMPDEST PUSH2 0x10E3 DUP3 SLOAD PUSH2 0xDF1 JUMP JUMPDEST PUSH2 0x10EE DUP3 DUP3 DUP6 PUSH2 0x102E JUMP JUMPDEST PUSH0 PUSH1 0x20 SWAP1 POP PUSH1 0x1F DUP4 GT PUSH1 0x1 DUP2 EQ PUSH2 0x111F JUMPI PUSH0 DUP5 ISZERO PUSH2 0x110D JUMPI DUP3 DUP8 ADD MLOAD SWAP1 POP JUMPDEST PUSH2 0x1117 DUP6 DUP3 PUSH2 0x109C JUMP JUMPDEST DUP7 SSTORE POP PUSH2 0x117E JUMP JUMPDEST PUSH1 0x1F NOT DUP5 AND PUSH2 0x112D DUP7 PUSH2 0xF17 JUMP JUMPDEST PUSH0 JUMPDEST DUP3 DUP2 LT ISZERO PUSH2 0x1154 JUMPI DUP5 DUP10 ADD MLOAD DUP3 SSTORE PUSH1 0x1 DUP3 ADD SWAP2 POP PUSH1 0x20 DUP6 ADD SWAP5 POP PUSH1 0x20 DUP2 ADD SWAP1 POP PUSH2 0x112F JUMP JUMPDEST DUP7 DUP4 LT ISZERO PUSH2 0x1171 JUMPI DUP5 DUP10 ADD MLOAD PUSH2 0x116D PUSH1 0x1F DUP10 AND DUP3 PUSH2 0x1080 JUMP JUMPDEST DUP4 SSTORE POP JUMPDEST PUSH1 0x1 PUSH1 0x2 DUP9 MUL ADD DUP9 SSTORE POP POP POP JUMPDEST POP POP POP POP POP POP JUMP JUMPDEST PUSH32 0x4E487B7100000000000000000000000000000000000000000000000000000000 PUSH0 MSTORE PUSH1 0x32 PUSH1 0x4 MSTORE PUSH1 0x24 PUSH0 REVERT INVALID LOG2 PUSH5 0x6970667358 0x22 SLT KECCAK256 0xB0 BYTE RJUMPI 0xA83B POP SWAP5 0xBF 0xDB CREATE2 PC 0x4D PUSH31 0x32039A8608BDF1DA41973739839E2BF7B7918264736F6C634300081E003300 "
				},
				"gasEstimates": {
					"creation": {
						"codeDepositCost": "917000",
						"executionCost": "49483",
						"totalCost": "966483"
					},
					"external": {
						"changeTweetLength(uint16)": "26863",
						"createTweet(string)": "infinite",
						"getAllTweets(address)": "infinite",
						"getTweet(uint256)": "infinite",
						"owner()": "2574",
						"tweets(address,uint256)": "infinite"
					}
				},
				"methodIdentifiers": {
					"changeTweetLength(uint16)": "58bfa4ab",
					"createTweet(string)": "7c9cd2bc",
					"getAllTweets(address)": "12e7ee1c",
					"getTweet(uint256)": "c3ad5ecb",
					"owner()": "8da5cb5b",
					"tweets(address,uint256)": "05a1b4a9"
				}
			},
			"storageLayout": {
				"storage": [
					{
						"astId": 4,
						"contract": "contracts/_Tw.sol:Twitter",
						"label": "MAX_TWEET_LENGTH",
						"offset": 0,
						"slot": "0",
						"type": "t_uint16"
					},
					{
						"astId": 19,
						"contract": "contracts/_Tw.sol:Twitter",
						"label": "tweets",
						"offset": 0,
						"slot": "1",
						"type": "t_mapping(t_address,t_array(t_struct(Tweet)13_storage)dyn_storage)"
					},
					{
						"astId": 21,
						"contract": "contracts/_Tw.sol:Twitter",
						"label": "owner",
						"offset": 0,
						"slot": "2",
						"type": "t_address"
					}
				],
				"types": {
					"t_address": {
						"encoding": "inplace",
						"label": "address",
						"numberOfBytes": "20"
					},
					"t_array(t_struct(Tweet)13_storage)dyn_storage": {
						"base": "t_struct(Tweet)13_storage",
						"encoding": "dynamic_array",
						"label": "struct Twitter.Tweet[]",
						"numberOfBytes": "32"
					},
					"t_mapping(t_address,t_array(t_struct(Tweet)13_storage)dyn_storage)": {
						"encoding": "mapping",
						"key": "t_address",
						"label": "mapping(address => struct Twitter.Tweet[])",
						"numberOfBytes": "32",
						"value": "t_array(t_struct(Tweet)13_storage)dyn_storage"
					},
					"t_string_storage": {
						"encoding": "bytes",
						"label": "string",
						"numberOfBytes": "32"
					},
					"t_struct(Tweet)13_storage": {
						"encoding": "inplace",
						"label": "struct Twitter.Tweet",
						"members": [
							{
								"astId": 6,
								"contract": "contracts/_Tw.sol:Twitter",
								"label": "author",
								"offset": 0,
								"slot": "0",
								"type": "t_address"
							},
							{
								"astId": 8,
								"contract": "contracts/_Tw.sol:Twitter",
								"label": "content",
								"offset": 0,
								"slot": "1",
								"type": "t_string_storage"
							},
							{
								"astId": 10,
								"contract": "contracts/_Tw.sol:Twitter",
								"label": "timestamp",
								"offset": 0,
								"slot": "2",
								"type": "t_uint256"
							},
							{
								"astId": 12,
								"contract": "contracts/_Tw.sol:Twitter",
								"label": "likes",
								"offset": 0,
								"slot": "3",
								"type": "t_uint256"
							}
						],
						"numberOfBytes": "128"
					},
					"t_uint16": {
						"encoding": "inplace",
						"label": "uint16",
						"numberOfBytes": "2"
					},
					"t_uint256": {
						"encoding": "inplace",
						"label": "uint256",
						"numberOfBytes": "32"
					}
				}
			},
			"userdoc": {
				"kind": "user",
				"methods": {},
				"version": 1
			}
		}
	}
}